:040800005AEF05F0B6
:10081800D8CF07F0E8CF08F0E0CF09F0D9CF0AF039
:10082800DACF0BF0F3CF0CF0F4CF0DF0F2A401D037
:1008380001D044D0FB0E026E1D0E016ED6EC2EF0D8
:100848000001B64BB72BB44BB52B010EAC27000EED
:10085800AD23000EAE23000EAF23010EB027000E0D
:10086800B123000EB223000EB323BC2B82B001D0FB
:1008780001D002D0BE2B01D0BE6B522A4C50020AC6
:10088800D8A401D001D00ED0640E526401D001D09A
:1008980009D082A201D001D002D0829201D08282F6
:1008A800526A0BD04C04D8A401D001D001D0F7D79C
:1008B8004C6601D001D001D0F0D7F2949EAC01D0A3
:1008C80001D0E5D0C4D049500C0D840EF324D96E64
:1008D800010EF420DA6EC4CFDFFF49500C0D850EEF
:1008E800F324D96E010EF420DA6EC3CFDFFF090EB0
:1008F800C26E49504F0AD8A401D001D0C5D000011A
:10090800B881C2D049500C0D860EF324D96E010E61
:10091800F420DA6EC4CFDFFF49500C0D870EF324A4
:10092800D96E010EF420DA6EC3CFDFFF050EC26E5A
:1009380049504F0AD8A401D001D0A6D00001B883ED
:10094800A3D049500C0D880EF324D96E010EF42063
:10095800DA6EC4CFDFFF49500C0D890EF324D96E2F
:10096800010EF420DA6EC3CFDFFF010EC26E4950CC
:100978004F0AD8A401D001D087D00001B88584D00F
:1009880049500C0D8A0EF324D96E010EF420DA6E4C
:10099800C4CFDFFF49500C0D8B0EF324D96E010E26
:1009A800F420DA6EC3CFDFFF250EC26E49504F0A1E
:1009B800D8A401D001D068D00001B88765D04950CB
:1009C8000C0D8C0EF324D96E010EF420DA6EC4CF10
:1009D800DFFF49500C0D8D0EF324D96E010EF42063
:1009E800DA6EC3CFDFFF210EC26E49504F0AD8A47A
:1009F80001D001D049D00001B88946D049500C0D2A
:100A08008E0EF324D96E010EF420DA6EC4CFDFFF08
:100A180049500C0D8F0EF324D96E010EF420DA6EB6
:100A2800C3CFDFFF290EC26E49504F0AD8A401D0A8
:100A380001D002D00001B88B492A4F0E496401D079
:100A480001D022D0496A20D0290EC26EFBD7C250ED
:100A58003C0B056E066A0650000AD8B401D0F4D7DC
:100A68000550000AD8B48CD7040AD8B46AD70C0A3F
:100A7800D8B448D7280AD8B4C1D7040AD8B49FD75D
:100A88000C0AD8B420D7E0D705EC2FF09E9C0DC0F7
:100A9800F4FF0CC0F3FF0BC0DAFF0AC0D9FF09C08E
:100AA800E0FF08C0E8FF07C0D8FF1000FBEF2BF0FD
:100B00007777772E6575726F736F757263652E7365
:100B1000652F6E746331304B415F332E786D6C00FE
:100B20000000803F1872313FF0FD753E4758633D2D
:100B300058951D3C82C4AE3AA8782139EF9380378E
:100B4000A092A7354656153400000000C4FF7F3F31
:100B500080EFFFBE90E1A93EEC8276BE82AD2B3ED7
:100B60000E3CC3BD87D1133D4178D3BB0000E8CF15
:100B700023F0211C246E4750461002E1B7EF0AF023
:100B8000F1EF0BF00F6A410E0E6E21C010F0ABECCE
:100B90002DF00F6A410E0E6EA8EC2EF035EF0CF022
:100BA0000F6A420E0E6E21C010F0ABEC2DF00F6AF2
:100BB000420E0E6EA8EC2EF035EF0CF00F6A430ECD
:100BC0000E6E21C010F0ABEC2DF00F6A430E0E6ECE
:100BD000A8EC2EF035EF0CF00F6A440E0E6E21C01B
:100BE00010F0ABEC2DF00F6A440E0E6EA8EC2EF058
:100BF00035EF0CF00F6A450E0E6E21C010F0ABEC15
:100C00002DF00F6A450E0E6EA8EC2EF035EF0CF0AD
:100C10000F6A460E0E6E21C010F0ABEC2DF00F6A7D
:100C2000460E0E6EA8EC2EF035EF0CF00F6A470E54
:100C30000E6E21C010F0ABEC2DF00F6A470E0E6E59
:100C4000A8EC2EF035EF0CF00F6A480E0E6E21C0A6
:100C500010F0ABEC2DF00F6A480E0E6EA8EC2EF0E3
:100C600035EF0CF00F6A490E0E6E21C010F0ABECA0
:100C70002DF00F6A490E0E6EA8EC2EF035EF0CF039
:100C80000F6A4A0E0E6E21C010F0ABEC2DF00F6A09
:100C90004A0E0E6EA8EC2EF035EF0CF00F6A4B0EDC
:100CA0000E6E21C010F0ABEC2DF00F6A4B0E0E6EE5
:100CB000A8EC2EF035EF0CF00F6A4C0E0E6E21C032
:100CC00010F0ABEC2DF00F6A4C0E0E6EA8EC2EF06F
:100CD00035EF0CF00F6A4D0E0E6E21C010F0ABEC2C
:100CE0002DF00F6A4D0E0E6EA8EC2EF035EF0CF0C5
:100CF0000F6A4E0E0E6E21C010F0ABEC2DF00F6A95
:100D00004E0E0E6EA8EC2EF035EF0CF00F6A4F0E63
:100D10000E6E21C010F0ABEC2DF00F6A4F0E0E6E70
:100D2000A8EC2EF035EF0CF00F6A500E0E6E21C0BD
:100D300010F0ABEC2DF00F6A500E0E6EA8EC2EF0FA
:100D400035EF0CF00F6A510E0E6E21C010F0ABECB7
:100D50002DF00F6A510E0E6EA8EC2EF035EF0CF050
:100D60000F6A520E0E6E21C010F0ABEC2DF00F6A20
:100D7000520E0E6EA8EC2EF035EF0CF00F6A530EEB
:100D80000E6E21C010F0ABEC2DF00F6A530E0E6EFC
:100D9000A8EC2EF035EF0CF00F6A540E0E6E21C049
:100DA00010F0ABEC2DF00F6A540E0E6EA8EC2EF086
:100DB00035EF0CF00F6A550E0E6E21C010F0ABEC43
:100DC0002DF00F6A550E0E6EA8EC2EF035EF0CF0DC
:100DD0000F6A560E0E6E21C010F0ABEC2DF00F6AAC
:100DE000560E0E6EA8EC2EF035EF0CF00F6A570E73
:100DF0000E6E21C010F0ABEC2DF00F6A570E0E6E88
:100E0000A8EC2EF035EF0CF00F6A580E0E6E21C0D4
:100E100010F0ABEC2DF00F6A580E0E6EA8EC2EF011
:100E200035EF0CF00F6A590E0E6E21C010F0ABECCE
:100E30002DF00F6A590E0E6EA8EC2EF035EF0CF067
:100E40000F6A5A0E0E6E21C010F0ABEC2DF00F6A37
:100E50005A0E0E6EA8EC2EF035EF0CF00F6A5B0EFA
:100E60000E6E21C010F0ABEC2DF00F6A5B0E0E6E13
:100E7000A8EC2EF035EF0CF00F6A5C0E0E6E21C060
:100E800010F0ABEC2DF00F6A5C0E0E6EA8EC2EF09D
:100E900035EF0CF00F6A5D0E0E6E21C010F0ABEC5A
:100EA0002DF00F6A5D0E0E6EA8EC2EF035EF0CF0F3
:100EB0000F6A5E0E0E6E21C010F0ABEC2DF00F6AC3
:100EC0005E0E0E6EA8EC2EF035EF0CF00F6A5F0E82
:100ED0000E6E21C010F0ABEC2DF00F6A5F0E0E6E9F
:100EE000A8EC2EF035EF0CF00F6A600E0E6E21C0EC
:100EF00010F0ABEC2DF00F6A600E0E6EA8EC2EF029
:100F000035EF0CF00F6A610E0E6E21C010F0ABECE5
:100F10002DF00F6A610E0E6EA8EC2EF035EF0CF07E
:100F20000F6A620E0E6E21C010F0ABEC2DF00F6A4E
:100F3000620E0E6EA8EC2EF035EF0CF00F6A630E09
:100F40000E6E21C010F0ABEC2DF00F6A630E0E6E2A
:100F5000A8EC2EF035EF0CF00F6A640E0E6E21C077
:100F600010F0ABEC2DF00F6A640E0E6EA8EC2EF0B4
:100F700035EF0CF00F6A650E0E6E21C010F0ABEC71
:100F80002DF00F6A650E0E6EA8EC2EF035EF0CF00A
:100F90000F6A660E0E6E21C010F0ABEC2DF00F6ADA
:100FA000660E0E6EA8EC2EF035EF0CF00F6A670E91
:100FB0000E6E21C010F0ABEC2DF00F6A670E0E6EB6
:100FC000A8EC2EF035EF0CF00F6A680E0E6E21C003
:100FD00010F0ABEC2DF00F6A680E0E6EA8EC2EF040
:100FE00035EF0CF00F6A690E0E6E21C010F0ABECFD
:100FF0002DF00F6A690E0E6EA8EC2EF035EF0CF096
:101000000F6A6A0E0E6E21C010F0ABEC2DF00F6A65
:101010006A0E0E6EA8EC2EF035EF0CF00F6A6B0E18
:101020000E6E21C010F0ABEC2DF00F6A6B0E0E6E41
:10103000A8EC2EF035EF0CF00F6A6C0E0E6E21C08E
:1010400010F0ABEC2DF00F6A6C0E0E6EA8EC2EF0CB
:1010500035EF0CF00F6A6D0E0E6E21C010F0ABEC88
:101060002DF00F6A6D0E0E6EA8EC2EF0FED30F6AF7
:101070006E0E0E6E21C010F0ABEC2DF00F6A6E0EEE
:101080000E6EA8EC2EF0F1D30F6A6F0E0E6E21C01B
:1010900010F0ABEC2DF00F6A6F0E0E6EA8EC2EF078
:1010A000E4D30F6A700E0E6E21C010F0ABEC2DF081
:1010B0000F6A700E0E6EA8EC2EF0D7D30F6A710E69
:1010C0000E6E21C010F0ABEC2DF00F6A710E0E6E9B
:1010D000A8EC2EF0CAD30F6A720E0E6E21C010F06B
:1010E000ABEC2DF00F6A720E0E6EA8EC2EF0BDD395
:1010F0000F6A730E0E6E21C010F0ABEC2DF00F6A6C
:10110000730E0E6EA8EC2EF0B0D30F6A740E0E6E36
:1011100021C010F0ABEC2DF00F6A740E0E6EA8EC2F
:101120002EF0A3D30F6A750E0E6E21C010F0ABEC3B
:101130002DF00F6A750E0E6EA8EC2EF096D30F6A86
:10114000760E0E6E21C010F0ABEC2DF00F6A760E0D
:101150000E6EA8EC2EF089D30F6A770E0E6E21C0AA
:1011600010F0ABEC2DF00F6A770E0E6EA8EC2EF09F
:101170007CD30F6A780E0E6E21C010F0ABEC2DF010
:101180000F6A780E0E6EA8EC2EF06FD30F6A790EF0
:101190000E6E21C010F0ABEC2DF00F6A790E0E6EC2
:1011A000A8EC2EF062D30F6A7A0E0E6E21C010F0FA
:1011B000ABEC2DF00F6A7A0E0E6EA8EC2EF055D324
:1011C0000F6A7B0E0E6E21C010F0ABEC2DF00F6A93
:1011D0007B0E0E6EA8EC2EF048D30F6A7C0E0E6EBE
:1011E00021C010F0ABEC2DF00F6A7C0E0E6EA8EC57
:1011F0002EF03BD30F6A7D0E0E6E21C010F0ABECCB
:101200002DF00F6A7D0E0E6EA8EC2EF02ED30F6A15
:101210007E0E0E6E21C010F0ABEC2DF00F6A7E0E2C
:101220000E6EA8EC2EF021D30F6A7F0E0E6E21C039
:1012300010F0ABEC2DF00F6A7F0E0E6EA8EC2EF0C6
:1012400014D30F6A800E0E6E21C010F0ABEC2DF09F
:101250000F6A800E0E6EA8EC2EF007D30F6A810E77
:101260000E6E21C010F0ABEC2DF00F6A810E0E6EE9
:10127000A8EC2EF0FAD20F6A820E0E6E21C010F08A
:10128000ABEC2DF00F6A820E0E6EA8EC2EF0EDD2B4
:101290000F6A830E0E6E21C010F0ABEC2DF00F6ABA
:1012A000830E0E6EA8EC2EF0E0D20F6A840E0E6E46
:1012B00021C010F0ABEC2DF00F6A840E0E6EA8EC7E
:1012C0002EF0D3D20F6A850E0E6E21C010F0ABEC5B
:1012D0002DF00F6A850E0E6EA8EC2EF0C6D20F6AA6
:1012E000860E0E6E21C010F0ABEC2DF00F6A860E4C
:1012F0000E6EA8EC2EF0B9D20F6A870E0E6E21C0CA
:1013000010F0ABEC2DF00F6A870E0E6EA8EC2EF0ED
:10131000ACD20F6A880E0E6E21C010F0ABEC2DF02F
:101320000F6A880E0E6EA8EC2EF09FD20F6A890EFF
:101330000E6E21C010F0ABEC2DF00F6A890E0E6E10
:10134000A8EC2EF092D20F6A8A0E0E6E21C010F019
:10135000ABEC2DF00F6A8A0E0E6EA8EC2EF085D243
:101360000F6A8B0E0E6E21C010F0ABEC2DF00F6AE1
:101370008B0E0E6EA8EC2EF078D20F6A8C0E0E6ECD
:1013800021C010F0ABEC2DF00F6A8C0E0E6EA8ECA5
:101390002EF06BD20F6A8D0E0E6E21C010F0ABECEA
:1013A0002DF00F6A8D0E0E6EA8EC2EF05ED20F6A35
:1013B0008E0E0E6E21C010F0ABEC2DF00F6A8E0E6B
:1013C0000E6EA8EC2EF051D20F6A8F0E0E6E21C059
:1013D00010F0ABEC2DF00F6A8F0E0E6EA8EC2EF015
:1013E00044D20F6A900E0E6E21C010F0ABEC2DF0BF
:1013F0000F6A900E0E6EA8EC2EF037D20F6A910E87
:101400000E6E21C010F0ABEC2DF00F6A910E0E6E37
:10141000A8EC2EF02AD20F6A920E0E6E21C010F0A8
:10142000ABEC2DF00F6A920E0E6EA8EC2EF01DD2D2
:101430000F6A930E0E6E21C010F0ABEC2DF00F6A08
:10144000930E0E6EA8EC2EF010D20F6A940E0E6E54
:1014500021C010F0ABEC2DF00F6A940E0E6EA8ECCC
:101460002EF003D20F6A950E0E6E21C010F0ABEC79
:101470002DF00F6A950E0E6EA8EC2EF0F6D10F6AC5
:10148000960E0E6E21C010F0ABEC2DF00F6A960E8A
:101490000E6EA8EC2EF0E9D10F6A970E0E6E21C0E9
:1014A00010F0ABEC2DF00F6A970E0E6EA8EC2EF03C
:1014B000DCD10F6A980E0E6E21C010F0ABEC2DF04F
:1014C0000F6A980E0E6EA8EC2EF0CFD10F6A990E0F
:1014D0000E6E21C010F0ABEC2DF00F6A990E0E6E5F
:1014E000A8EC2EF00F6A9A0E0E6E21C010F0ABEC35
:1014F0002DF00F6A9A0E0E6EA8EC2EF0B6D10F6A80
:101500009B0E0E6E21C010F0ABEC2DF00F6A9B0EFF
:101510000E6EA8EC2EF0A9D10F6A9C0E0E6E21C0A3
:1015200010F0ABEC2DF00F6A9C0E0E6EA8EC2EF0B6
:101530009CD1246A9BD10F6AF20E0E6E21C010F06E
:10154000ABEC2DF00F6AF20E0E6EA8EC2EF08DD1E2
:101550000F6AF30E0E6E21C010F0ABEC2DF00F6A87
:10156000F30E0E6EA8EC2EF080D1211C7ED12350FC
:1015700002E1C2EF05F0010A02E1D0EF05F0030A33
:1015800002E1DEEF05F0010A02E1ECEF05F0070AE7
:1015900002E1FAEF05F0010A02E108EF06F0030AA2
:1015A00002E116EF06F0010A02E124EF06F0130A49
:1015B00002E132EF06F0010A02E140EF06F0030A11
:1015C00002E14EEF06F0010A02E15CEF06F00F0ABD
:1015D00002E16AEF06F0010A02E178EF06F03F0A45
:1015E00002E186EF06F0010A02E194EF06F00F0A2D
:1015F00002E1A2EF06F0010A02E1B0EF06F0030AF1
:1016000002E1BEEF06F0010A02E1CCEF06F0070AA4
:1016100002E1DAEF06F0010A02E1E8EF06F0030A60
:1016200002E1F6EF06F0010A02E104EF07F01F0AFB
:1016300002E112EF07F0010A01E102D4030A01E11D
:101640000DD4010A01E118D4070A01E123D4010AEB
:1016500001E12ED4030A01E139D4010A01E144D4A5
:101660000F0A01E14FD4010A01E15AD4030A01E152
:1016700065D4010A01E170D4070A01E17BD4010AB3
:1016800001E186D4030A01E191D4010A01E19CD46D
:101690007F0A01E1A7D4010A01E1B2D4030A01E102
:1016A000BDD4010A01E1C8D4070A01E1D3D4010A7B
:1016B00001E1DDD4030A01E1E7D4010A01E1F1D43B
:1016C0000F0A01E1FBD4010A01E105D5030A01E19A
:1016D0000FD5010A01E119D5070A01E123D5010A55
:1016E00001E12DD5030A01E137D5010A01E141D518
:1016F0001F0A01E14BD5010A01E155D5030A01E1B9
:101700005FD5010A01E169D5070A01E173D5010A34
:1017100001E17DD5030A01E187D5010A01E191D5F7
:101720000F0A01E19BD5010A01E1A5D5030A01E1F8
:10173000AFD5010A01E1B9D5070A01E1C3D5010A14
:1017400001E1CDD5030A01E1D7D5010A01E1E1D5D7
:101750003F0A01E1EBD5010A01E1F5D5030A01E1F8
:10176000FFD5010A01E109D6070A01E113D6010AF2
:1017700001E11DD6030A01E127D6010A01E131D6B4
:101780000F0A01E13BD6010A01E145D6030A01E156
:101790004FD6010A01E159D6070A01E163D6010AD1
:1017A00001E16DD6030A01E177D6010A01E181D694
:1017B0001F0A01E18BD6010A01E194D6030A01E177
:1017C0009ED6010A01E1A8D6070A01E1B2D6010AB4
:1017D00001E1AFD6030A01E1AED6010A01E1B8D6B4
:1017E000C4D64604471042E1480E236016D0AA0E24
:1017F00023240E6E0F6A000E0F2221C010F0ABECF6
:101800002DF0AA0E23240E6E0F6A000E0F22A8ECF4
:101810002EF0246E22EC28F029D0540E236010D034
:101820002350B80F226E22A002D0220601D0222A15
:10183000840E2224D96EDA6A010EDA22DF5015D026
:10184000620E236013D04A0E23240E6E0F6A000E20
:101850000F2221C010F0ABEC2DF04A0E23240E6EA7
:101860000F6A000E0F22A8EC2EF0246E24501200F6
:101870000F6AF30E0E6EA8EC2EF00001916F0F6A46
:10188000F20E0E6EA8EC2EF0196E00019151186E3A
:1018900031EC2DF01BC055F11AC054F119C053F1B1
:1018A00018C052F10101836B83C191F0010E000158
:1018B000926F912B02D0D8909237912FFCD79251F2
:1018C000B81501E1CCD201017B6B7C6B7D6B7E6B2B
:1018D000786B010E3C6E7B0E3B6ED8908335000119
:1018E000916F926B9237010178510C0D850EF324A4
:1018F0000001936F010EF420946F91519325D96EDE
:1019000092519421DA6EDF50956FD89001018335A2
:101910000001966F976B9737010178510C0D840E7B
:10192000F3240001986F010EF420996F96519825C9
:10193000D96E97519921DA6EDF50196E9551186E54
:1019400031EC2DF01BC040F01AC03FF019C03EF042
:1019500018C03DF0ABEC2AF00101782B4F0E7865F2
:10196000B8D7010E0001876F7B0E866F886B896B7D
:10197000A00E8A6F420E8B6FF9EC2AF001018351A1
:10198000020D500EF3240E6E000EF4200F6EA8EC24
:101990002EF00001916F01018351020D4F0EF324CF
:1019A0000E6E000EF4200F6EA8EC2EF00101736F86
:1019B000000191510101726F330E0001746F130E1B
:1019C000756F950E766FC30E776F72C118F073C185
:1019D00019F031EC2DF01BC073F01AC072F019C071
:1019E00071F018C070F078EC27F073C059F172C034
:1019F00058F171C057F170C056F156C186F057C109
:101A000087F058C188F059C189F03FEC1EF089C0B9
:101A10005DF188C05CF187C05BF186C05AF15AC1A4
:101A20001EF05BC11FF05CC120F05DC121F0226A95
:101A3000400E236E1C0E246E460E256EE1EC24F043
:101A400021C051F120C050F11FC04FF11EC04EF116
:101A5000226A236AA00E246E400E256E7BC11EF002
:101A60007CC11FF07DC120F07EC121F0E1EC24F0AB
:101A700021C073F020C072F01FC071F01EC070F062
:101A80000001746B200E756F800E766F440E776FB9
:101A900078EC27F073C071F172C070F171C06FF112
:101AA00070C06EF1226A400E236E1C0E246E460E2C
:101AB000256E6EC11EF06FC11FF070C120F071C1A4
:101AC00021F0E1EC24F021C06FF020C06EF01FC0C7
:101AD0006DF01EC06CF052C168F053C169F054C182
:101AE0006AF055C16BF05CEC2CF06BC073F06AC00F
:101AF00072F069C071F068C070F06EC174F06FC1AF
:101B000075F070C176F071C177F078EC27F073C092
:101B100077F172C076F171C075F170C074F14EC189
:101B200074F04FC175F050C176F051C177F074C1B7
:101B300070F075C171F076C172F077C173F078EC16
:101B400027F073C089F072C088F071C087F070C050
:101B500086F0CEEC22F089C061F188C060F187C0C8
:101B60005FF186C05EF172C118F073C119F031ECFB
:101B70002DF01BC073F01AC072F019C071F018C0BC
:101B800070F05EC174F05FC175F060C176F061C144
:101B900077F078EC27F073C082F172C081F171C0E8
:101BA00080F170C07FF10101010E3C6E7F0E3B6E33
:101BB000330E3D6E930E3E6E880E3F6E430E406EAA
:101BC000D2EC2AF001018351020DF3500001A00F65
:101BD000D96EDA6ADECF91F0DDCF92F091C093F04A
:101BE00092C094F0000E94BFFF0E956F966F0101A6
:101BF0008351B5EC2BF012C097F013C098F0000E93
:101C0000000198BFFF0E996F9A6F226A236AC80E6F
:101C1000246E420E256E7FC11EF080C11FF081C16F
:101C200020F082C121F0E1EC24F021C037F020C087
:101C300036F01FC035F01EC034F072EC28F0000101
:101C4000975134249B6F985135209C6F99513620C1
:101C50009D6F9A5137209E6F93519B253E6E9451F4
:101C60009C213F6E95519D21406E96519E21416E63
:101C7000020E426E000E436A446A456A68EC26F022
:101C800001018351020DF350A00FD96EDA6A3EC0F4
:101C9000DEFF3FC0DDFF8351020D7F0EF3240E6E89
:101CA000000EF4200F6EA8EC2EF00001926F916BE5
:101CB00001018351020D800EF3240E6E000EF420FC
:101CC0000F6EA8EC2EF000019127000E9223010167
:101CD0008351020DF3500001A00FD96EDA6ADECFF6
:101CE00093F0DDCF94F09451800A956F9151935DFC
:101CF0009251800A95593BE2D89001018335000149
:101D0000916F926B92377F0E91250E6E000E92218D
:101D10000F6E01018351020DF3500001A00FD96E27
:101D2000DA6ADECF93F0DDCF94F094C093F0946B39
:101D300093BF94699351106EABEC2DF0D8900101D4
:101D400083350001916F926B9237800E91250E6E54
:101D5000000E92210F6E01018351020DF35000011C
:101D6000A00FD96EDA6ADF50106EABEC2DF00101D6
:101D70008351020DF350A00FD96EDA6ADECF91F0D5
:101D8000DDCF92F08351020D8B0EF3240E6E000E08
:101D9000F4200F6EA8EC2EF00001946F936B0101FC
:101DA0008351020D8C0EF3240E6E000EF4200F6E84
:101DB000A8EC2EF000019327000E94239451800A82
:101DC000956F9151935D9251800A95593BE2D8905D
:101DD000010183350001916F926B92378B0E912533
:101DE0000E6E000E92210F6E01018351020DF35011
:101DF0000001A00FD96EDA6ADECF93F0DDCF94F048
:101E000094C093F0946B93BF94699351106EABECB4
:101E10002DF0D890010183350001916F926B9237BC
:101E20008C0E91250E6E000E92210F6E01018351D2
:101E3000020DF3500001A00FD96EDA6ADF50106E68
:101E4000ABEC2DF083C191F0010E0001926F912B4C
:101E500002D0D8909237912FFCD7921DB81701016C
:101E6000832B050E836520D50001C051030A01E0D4
:101E70003CD20101836B83C191F0010E0001926F8E
:101E8000912B02D0D8909237912FFCD79251BA154E
:101E900061E0D890010183350001916F926B923718
:101EA0005C0E91250E6E000E92210F6EA8EC2EF0A6
:101EB0000001936FD890010183350001946F956BF9
:101EC00095375B0E94250E6E000E95210F6EA8ECD3
:101ED0002EF00001976F966B970E010183250E6E11
:101EE0000F6A000E0F22A8EC2EF0640D000196512F
:101EF000F324986F9751F420996F9351982501011D
:101F0000796F0001000E992101017A6F8351020D52
:101F1000F350A00FD96EDA6ADECF91F0DDCF92F0E8
:101F20007A51800A0001936F91510101795D00019E
:101F30009251800A935901E3B8D083C191F0010E08
:101F4000926F912B02D0D8909237912FFCD7921D8F
:101F5000BA17ABD001018351020D5C0EF3240E6E53
:101F6000000EF4200F6EA8EC2EF00001916F01011D
:101F70008351020D5B0EF3240E6E000EF4200F6EE3
:101F8000A8EC2EF00001936F926B91519225010104
:101F9000796F0001000E932101017A6F8351020DC8
:101FA000F3500001A00FD96EDA6ADECF91F0DDCFD9
:101FB00092F09251800A936F010179510001915D75
:101FC00001017A51800A000193596FE283C191F0B7
:101FD000010E926F912B02D0D8909237912FFCD79F
:101FE0009251BA134A80430E010183250E6E0F6A87
:101FF000000E0F22A8EC2EF00001916F91A755D092
:10200000D26B010ED16F020ED36FD06B830ECF6FE8
:10201000430E010183250E6E0F6A000E0F22A8ECFD
:102020002EF00001916F91AB17D0430E0101832573
:102030000E6E0F6A000E0F22A8EC2EF00001916FB9
:1020400091AD05D0D26B1E0ED16F050E04D0D26BB0
:102050001E0ED16F060ED36F83C1D4F0D89001014C
:1020600083350001916F926B9237730E91250E6E3E
:10207000000E92210F6EA8EC2EF00001D56FD890C3
:10208000010183350001916F926B9237740E912597
:102090000E6E000E92210F6EA8EC2EF00001D66F8E
:1020A00084EC2DF0000901E148D783C191F0010EC5
:1020B000926F912B02D0D8909237912FFCD79251EA
:1020C000B91565E0D890010183350001916F926BDD
:1020D0009237670E91250E6E000E92210F6EA8ECBE
:1020E0002EF00001946F936BD890010183350001AD
:1020F000956F966B9637680E95250E6E000E96219D
:102100000F6EA8EC2EF000019327000E9423970E7B
:10211000010183250E6E0F6A000E0F22A8EC2EF02F
:10212000126E136A15689C0E146E98EC2CF0125007
:10213000000193250101796F1350000194210101E1
:102140007A6F8351020DF3500001A00FD96EDA6A45
:10215000DECF91F0DDCF92F09251800A936F0101B2
:1021600079510001915D01017A51800A0001935972
:1021700001E3B6D083C191F0010E926F912B02D092
:10218000D8909237912FFCD7921DB917A9D0010191
:102190008351020D680EF3240E6E000EF4200F6EB4
:1021A000A8EC2EF00001916F01018351020D670E22
:1021B000F3240E6E000EF4200F6EA8EC2EF000013A
:1021C000936F926B915192250101796F0001000E7E
:1021D000932101017A6F8351020DF350A00FD96E44
:1021E000DA6ADECF91F0DDCF92F07A51800A0001F9
:1021F000936F91510101795D00019251800A9359C9
:102200006FE283C191F0010E926F912B02D0D890B2
:102210009237912FFCD79251B9134A82430E010194
:1022200083250E6E0F6A000E0F22A8EC2EF000011F
:10223000916F91A955D0D26B010ED16F020ED36F61
:10224000D06B830ECF6F430E010183250E6E0F6A94
:10225000000E0F22A8EC2EF00001916F91AB17D069
:10226000430E010183250E6E0F6A000E0F22A8ECAB
:102270002EF00001916F91AD05D0D26B1E0ED16F83
:10228000060E04D0D26B1E0ED16F050ED36F83C124
:10229000D4F0D890010183350001916F926B923791
:1022A000730E91250E6E000E92210F6EA8EC2EF08B
:1022B0000001D56FD890010183350001916F926BB9
:1022C0009237740E91250E6E000E92210F6EA8ECBF
:1022D0002EF00001D66F84EC2DF0000901E14AD701
:1022E0000101832B050E8365C6D512000F6A410ECE
:1022F0000E6E000E106AABEC2DF00F6A410E0E6EE2
:10230000000E106AABEC2DF00F6A430E0E6E010E3C
:10231000106EABEC2DF00F6A440E0E6E010E106EB7
:10232000ABEC2DF00F6A450E0E6E010E106EABEC8D
:102330002DF00F6A460E0E6E010E106EABEC2DF0F6
:102340000F6A470E0E6E010E106EABEC2DF00F6A89
:10235000480E0E6E010E106EABEC2DF00F6A490E9A
:102360000E6E1E0E106EABEC2DF00F6A4A0E0E6E46
:10237000000E106AABEC2DF00F6A4B0E0E6E000EC5
:10238000106AABEC2DF00F6A4C0E0E6E000E106A48
:10239000ABEC2DF00F6A4D0E0E6E000E106AABEC1A
:1023A0002DF00F6A4E0E0E6E000E106AABEC2DF083
:1023B0000F6A4F0E0E6E0F0E106EABEC2DF00F6A03
:1023C000500E0E6E680E106EABEC2DF00F6A510EB3
:1023D0000E6E0D0E106EABEC2DF00F6A520E0E6EDF
:1023E0007F0E106EABEC2DF00F6A530E0E6E0D0EBD
:1023F000106EABEC2DF00F6A540E0E6E7F0E106E49
:10240000ABEC2DF00F6A550E0E6E0D0E106EABEC90
:102410002DF00F6A560E0E6E7F0E106EABEC2DF087
:102420000F6A570E0E6E0D0E106EABEC2DF00F6A8C
:10243000580E0E6E7F0E106EABEC2DF00F6A590E1B
:102440000E6E0D0E106EABEC2DF00F6A5A0E0E6E66
:102450007F0E106EABEC2DF00F6A5B0E0E6E800ED1
:10246000106EABEC2DF00F6A5C0E0E6EFF0E106856
:10247000ABEC2DF00F6A5D0E0E6E800E106EABECA5
:102480002DF00F6A5E0E0E6EFF0E1068ABEC2DF095
:102490000F6A5F0E0E6E800E106EABEC2DF00F6AA1
:1024A000600E0E6EFF0E1068ABEC2DF00F6A610E21
:1024B0000E6E800E106EABEC2DF00F6A620E0E6E7B
:1024C000FF0E1068ABEC2DF00F6A630E0E6E800EDF
:1024D000106EABEC2DF00F6A640E0E6EFF0E1068DE
:1024E000ABEC2DF00F6A650E0E6E800E106EABEC2D
:1024F0002DF00F6A660E0E6EFF0E1068ABEC2DF01D
:102500000F6A670E0E6E7F0E106EABEC2DF00F6A29
:10251000680E0E6EFF0E1068ABEC2DF00F6A690EA0
:102520000E6E7F0E106EABEC2DF00F6A6A0E0E6E03
:10253000FF0E1068ABEC2DF00F6A6B0E0E6E7F0E67
:10254000106EABEC2DF00F6A6C0E0E6EFF0E106865
:10255000ABEC2DF00F6A6D0E0E6E7F0E106EABECB5
:102560002DF00F6A6E0E0E6EFF0E1068ABEC2DF0A4
:102570000F6A6F0E0E6E7F0E106EABEC2DF00F6AB1
:10258000700E0E6EFF0E1068ABEC2DF00F6A710E20
:102590000E6E7F0E106EABEC2DF00F6A720E0E6E8B
:1025A000FF0E1068ABEC2DF00F6A730E0E6E000E6E
:1025B000106AABEC2DF00F6A740E0E6E000E106AEE
:1025C000ABEC2DF00F6A750E0E6E000E106AABECC0
:1025D0002DF00F6A760E0E6E000E106AABEC2DF029
:1025E0000F6A770E0E6E000E106AABEC2DF00F6ABC
:1025F000780E0E6E000E106AABEC2DF00F6A790E9D
:102600000E6E000E106AABEC2DF00F6A7A0E0E6E95
:10261000000E106AABEC2DF00F6A7B0E0E6E000EF2
:10262000106AABEC2DF00F6A7C0E0E6E000E106A75
:10263000ABEC2DF00F6A7D0E0E6E000E106AABEC47
:102640002DF00F6A7E0E0E6E000E106AABEC2DF0B0
:102650000F6A7F0E0E6E106EABEC2DF00F6A800EBF
:102660000E6EFF0E1068ABEC2DF00F6A810E0E6E31
:102670007F0E106EABEC2DF00F6A820E0E6EFF0E09
:102680001068ABEC2DF00F6A830E0E6E7F0E106E8D
:10269000ABEC2DF00F6A840E0E6EFF0E1068ABECE3
:1026A0002DF00F6A850E0E6E7F0E106EABEC2DF0C6
:1026B0000F6A860E0E6EFF0E1068ABEC2DF00F6ADF
:1026C000870E0E6E7F0E106EABEC2DF00F6A880E2B
:1026D0000E6EFF0E1068ABEC2DF00F6A890E0E6EB9
:1026E0007F0E106EABEC2DF00F6A8A0E0E6EFF0E91
:1026F0001068ABEC2DF00F6A8B0E0E6E800E106E14
:10270000ABEC2DF00F6A8C0E0E6E000E106AABEC67
:102710002DF00F6A8D0E0E6E800E106EABEC2DF04C
:102720000F6A8E0E0E6E000E106AABEC2DF00F6A63
:102730008F0E0E6E800E106EABEC2DF00F6A900EA9
:102740000E6E000E106AABEC2DF00F6A910E0E6E3D
:10275000800E106EABEC2DF00F6A920E0E6E000E16
:10276000106AABEC2DF00F6A930E0E6E800E106E99
:10277000ABEC2DF00F6A940E0E6E000E106AABECEF
:102780002DF00F6A950E0E6E800E106EABEC2DF0D4
:102790000F6A960E0E6E000E106AABEC2DF00F6AEB
:1027A000970E0E6E020E106EABEC2DF00F6A980EA7
:1027B0000E6E020E106EABEC2DF00F6A990E0E6EBF
:1027C000020E106EABEC2DF00F6A9A0E0E6E020E1A
:1027D000106EABEC2DF00F6A9B0E0E6E020E106E9B
:1027E000ABEC2DF00F6A9C0E0E6E020E106EABEC71
:1027F0002DF00F6AF20E0E6EC30E106EABEC2DF0C4
:102800000F6AF30E0E6E500E106EABEC2DF00F6AC9
:102810009E0E0E6E000E106AABEC2DF00F6A9F0E2E
:102820000E6E000E106AABEC2DF00F6AA00E0E6E4D
:10283000000E106AABEC2DF00F6AA10E0E6E000EAA
:10284000106AABEC2DF00F6AA20E0E6E000E106A2D
:10285000ABEC2DF00F6AA30E0E6E000E106AABECFF
:102860002DF00F6AA40E0E6E000E106AABEC2DF068
:102870000F6AA50E0E6E000E106AABEC2DF00F6AFB
:10288000A60E0E6E000E106AABEC2DF00F6AA70EAE
:102890000E6E000E106AABEC2DF00F6AA80E0E6ED5
:1028A000000E106AABEC2DF00F6AA90E0E6E000E32
:1028B000106AABEC2DF00F6AAA0E0E6E000E106AB5
:1028C000ABEC2DF00F6AAB0E0E6E000E106AABEC87
:1028D0002DF00F6AAC0E0E6E000E106AABEC2DF0F0
:1028E0000F6AAD0E0E6E000E106AABEC2DF00F6A83
:1028F000AE0E0E6E000E106AABEC2DF00F6AAF0E2E
:102900000E6E000E106AABEC2DF00F6AB00E0E6E5C
:10291000000E106AABEC2DF00F6AB10E0E6E000EB9
:10292000106AABEC2DF00F6AB20E0E6E000E106A3C
:10293000ABEC2DF00F6AB30E0E6E000E106AABEC0E
:102940002DF00F6AB40E0E6E000E106AABEC2DF077
:102950000F6AB50E0E6E000E106AABEC2DF0116A08
:1029600011500C0DB60EF3240E6E000EF4200F6EF7
:10297000000E106AABEC2DF011500C0DB70EF324C5
:102980000E6E000EF4200F6E000E106AABEC2DF0F0
:1029900011500C0DB80EF3240E6E000EF4200F6EC5
:1029A000000E106AABEC2DF011500C0DB90EF32493
:1029B0000E6E000EF4200F6E000E106AABEC2DF0C0
:1029C00011500C0DBA0EF3240E6E000EF4200F6E93
:1029D000000E106AABEC2DF011500C0DBB0EF32461
:1029E0000E6E000EF4200F6E000E106AABEC2DF090
:1029F00011500C0DBC0EF3240E6E000EF4200F6E61
:102A0000000E106AABEC2DF011500C0DBD0EF3242E
:102A10000E6E000EF4200F6E000E106AABEC2DF05F
:102A200011500C0DBE0EF3240E6E000EF4200F6E2E
:102A3000000E106AABEC2DF011500C0DBF0EF324FC
:102A40000E6E000EF4200F6E000E106AABEC2DF02F
:102A500011500C0DC00EF3240E6E000EF4200F6EFC
:102A6000000E106AABEC2DF011500C0DC10EF324CA
:102A70000E6E000EF4200F6E000E106AABEC2DF0FF
:102A8000112A050E11646CD7050CE8CF13F04750DE
:102A9000461001E150D294D30F6A410E0E6EA8EC9D
:102AA0002EF0BBD30F6A420E0E6EA8EC2EF0B5D3FB
:102AB0000F6A430E0E6EA8EC2EF0AFD30F6A440ED1
:102AC0000E6EA8EC2EF0A9D30F6A450E0E6EA8EC80
:102AD0002EF0A3D30F6A460E0E6EA8EC2EF09DD3F7
:102AE0000F6A470E0E6EA8EC2EF097D30F6A480EB1
:102AF0000E6EA8EC2EF091D3A1518FD3A0C014F08C
:102B00008DD3A3518AD3A2C014F088D3A55185D305
:102B1000A4C014F083D3A75180D3A6C014F07ED3F1
:102B2000A9517BD3A8C014F079D30F6A490E0E6E59
:102B3000A8EC2EF072D30F6A4A0E0E6EA8EC2EF09F
:102B40006CD30F6A4B0E0E6EA8EC2EF066D30F6A94
:102B50004C0E0E6EA8EC2EF060D30F6A4D0E0E6E6A
:102B6000A8EC2EF05AD30F6A4E0E0E6EA8EC2EF083
:102B700054D30F6A4F0E0E6EA8EC2EF04ED30F6A90
:102B8000500E0E6EA8EC2EF048D30F6A510E0E6E4A
:102B9000A8EC2EF042D30F6A520E0E6EA8EC2EF067
:102BA0003CD30F6A530E0E6EA8EC2EF036D30F6A8C
:102BB000540E0E6EA8EC2EF030D30F6A550E0E6E2A
:102BC000A8EC2EF02AD30F6A560E0E6EA8EC2EF04B
:102BD00024D30F6A570E0E6EA8EC2EF01ED30F6A88
:102BE000580E0E6EA8EC2EF018D30F6A590E0E6E0A
:102BF000A8EC2EF012D30F6A5A0E0E6EA8EC2EF02F
:102C00000CD30F6A5B0E0E6EA8EC2EF006D30F6A83
:102C10005C0E0E6EA8EC2EF000D30F6A5D0E0E6EE9
:102C2000A8EC2EF0FAD20F6A5E0E0E6EA8EC2EF013
:102C3000F4D20F6A5F0E0E6EA8EC2EF0EED20F6A81
:102C4000600E0E6EA8EC2EF0E8D20F6A610E0E6ECA
:102C5000A8EC2EF0E2D20F6A620E0E6EA8EC2EF0F7
:102C6000DCD20F6A630E0E6EA8EC2EF0D6D20F6A7D
:102C7000640E0E6EA8EC2EF0D0D20F6A650E0E6EAA
:102C8000A8EC2EF0CAD20F6A660E0E6EA8EC2EF0DB
:102C9000C4D20F6A670E0E6EA8EC2EF0BED20F6A79
:102CA000680E0E6EA8EC2EF0B8D20F6A690E0E6E8A
:102CB000A8EC2EF0B2D20F6A6A0E0E6EA8EC2EF0BF
:102CC000ACD20F6A6B0E0E6EA8EC2EF0A6D20F6A75
:102CD0006C0E0E6EA8EC2EF0A0D20F6A6D0E0E6E6A
:102CE000A8EC2EF09AD20F6A6E0E0E6EA8EC2EF0A3
:102CF00094D20F6A6F0E0E6EA8EC2EF08ED20F6A71
:102D0000700E0E6EA8EC2EF088D20F6A710E0E6E49
:102D1000A8EC2EF082D20F6A720E0E6EA8EC2EF086
:102D20007CD20F6A730E0E6EA8EC2EF076D20F6A6C
:102D3000740E0E6EA8EC2EF070D20F6A750E0E6E29
:102D4000A8EC2EF06AD20F6A760E0E6EA8EC2EF06A
:102D500064D20F6A770E0E6EA8EC2EF05ED20F6A68
:102D6000780E0E6EA8EC2EF058D20F6A790E0E6E09
:102D7000A8EC2EF052D20F6A7A0E0E6EA8EC2EF04E
:102D80004CD20F6A7B0E0E6EA8EC2EF046D20F6A64
:102D90007C0E0E6EA8EC2EF040D20F6A7D0E0E6EE9
:102DA000A8EC2EF03AD20F6A7E0E0E6EA8EC2EF032
:102DB00034D20F6A7F0E0E6EA8EC2EF02ED20F6A60
:102DC000800E0E6EA8EC2EF028D20F6A810E0E6EC9
:102DD000A8EC2EF022D20F6A820E0E6EA8EC2EF016
:102DE0001CD20F6A830E0E6EA8EC2EF016D20F6A5C
:102DF000840E0E6EA8EC2EF010D20F6A850E0E6EA9
:102E0000A8EC2EF00AD20F6A860E0E6EA8EC2EF0F9
:102E100004D20F6A870E0E6EA8EC2EF0FED10F6A58
:102E2000880E0E6EA8EC2EF0F8D10F6A890E0E6E89
:102E3000A8EC2EF0F2D10F6A8A0E0E6EA8EC2EF0DE
:102E4000ECD10F6A8B0E0E6EA8EC2EF0E6D10F6A55
:102E50008C0E0E6EA8EC2EF0E0D10F6A8D0E0E6E69
:102E6000A8EC2EF0DAD10F6A8E0E0E6EA8EC2EF0C2
:102E7000D4D10F6A8F0E0E6EA8EC2EF0CED10F6A51
:102E8000900E0E6EA8EC2EF0C8D10F6A910E0E6E49
:102E9000A8EC2EF0C2D10F6A920E0E6EA8EC2EF0A6
:102EA000BCD10F6A930E0E6EA8EC2EF0B6D10F6A4D
:102EB000940E0E6EA8EC2EF0B0D10F6A950E0E6E29
:102EC000A8EC2EF0AAD10F6A960E0E6EA8EC2EF08A
:102ED000A4D10F6A970E0E6EA8EC2EF09ED10F6A49
:102EE000980E0E6EA8EC2EF098D10F6A990E0E6E09
:102EF000A8EC2EF092D10F6A9A0E0E6EA8EC2EF06E
:102F00008CD10F6A9B0E0E6EA8EC2EF086D10F6A44
:102F10009C0E0E6EA8EC2EF080D1146A7FD10F6A41
:102F2000F20E0E6EA8EC2EF078D10F6AF30E0E6E34
:102F3000A8EC2EF072D1135001E1AED5010A01E1E7
:102F4000B1D5030A01E1B4D5010A01E1B7D5070AF9
:102F500001E1BAD5010A01E1BDD5030A01E1C0D5FD
:102F6000010A01E1C3D50F0A01E1C6D5010A01E159
:102F7000C5D5030A01E1C5D5010A01E1C4D5070A97
:102F800001E1C4D5010A01E1C3D5030A01E1C3D5BA
:102F9000010A01E1C2D51F0A01E1C2D5010A01E11E
:102FA000C1D5030A01E1BCD5010A01E1BBD5070A7D
:102FB00001E1BBD5010A01E1BED5030A01E1C1D59A
:102FC000010A01E1C4D50F0A01E1C7D5010A01E1F7
:102FD000CAD53F0A01E1CDD5010A01E1D0D50F0ADA
:102FE00001E1D3D5010A01E1D6D5030A01E1D9D522
:102FF000010A01E1DCD5070A01E1DFD5010A01E19F
:10300000E2D5030A01E1E5D5010A01E1E8D51F0A8D
:1030100001E1EBD5010A01E1EED5030A01E1F1D5A9
:10302000010A01E1F4D5070A01E1F7D5010A01E13E
:10303000FAD5030A01E1FDD5010A01E100D60F0A24
:1030400001E103D6010A01E106D6030A01E109D62E
:10305000010A01E10CD6070A01E10FD6010A01E1DC
:1030600012D6030A01E115D6010A01E118D67F0A3A
:1030700001E11BD6010A01E11ED6030A01E121D6B6
:10308000010A01E124D6070A01E127D6010A01E17C
:103090002AD6030A01E12DD6010A01E130D60F0A32
:1030A00001E133D6010A01E136D6030A01E139D63E
:1030B000010A01E13CD6070A01E13FD6010A01E11C
:1030C00042D6030A01E145D6010A01E148D61F0AAA
:1030D00001E14BD6010A01E14ED6030A01E151D6C6
:1030E000010A01E154D6070A01E157D6010A01E1BC
:1030F0005AD6030A01E15DD6010A01E160D60F0A42
:1031000001E163D6010A01E166D6030A01E169D64D
:10311000010A01E16CD6070A01E16FD6010A01E15B
:1031200072D6030A01E175D6010A01E178D63F0A99
:1031300001E17BD6010A01E17ED6030A01E181D6D5
:10314000010A01E184D6070A01E187D6010A01E1FB
:103150008AD6030A01E18DD6010A01E190D60F0A51
:1031600001E193D6010A01E196D6030A01E199D65D
:10317000010A01E19CD6070A01E19FD6010A01E19B
:10318000A2D6030A01E1A5D6010A01E1A8D61F0AC9
:1031900001E1ABD6010A01E1AED6030A01E1B1D6E5
:1031A000010A01E1B4D6070A01E1B7D6010A01E13B
:1031B000B4D6030A01E1B3D6010A01E1B6D6ADD611
:1031C000460447102BE1480E136009D0AA0E1324C1
:1031D0000E6E0F6A000E0F22A8EC2EF01ED0540EB9
:1031E000136010D01350B80F126E12A002D0120646
:1031F00001D0122A840E1224D96EDA6A010EDA2264
:10320000DF500BD0620E136009D04A0E13240E6EED
:103210000F6A000E0F22A8EC2EF0146E145012004C
:10322000C451C31101E1EFD21FD33DEC2CF01CD3EC
:1032300046EC2DF019D3D0EC2DF016D3EDEC2CF09C
:1032400013D3C1510F0B020A01E00ED3BF5120EE80
:10325000C7F0DF6209D3800EC86112D0C85145ECB7
:1032600015F00001D56FC8C0D4F0030ED06F820EE8
:10327000CF6FD16BD26B0A0ED36F84EC2DF0F4D2EA
:10328000C85132EC1FF0EDD7C1510F0B030A01E01A
:10329000EBD2BF5120EEC7F0DF62E6D2800EC861EC
:1032A00006D0C9C021F0C851B7EC05F0DAD7C9C0C3
:1032B00022F0C85165EC23F0D4D7BF5120EEC7F0FF
:1032C000DF62D2D2000E9EEC2EF00001C91901E09F
:1032D000CBD2030E9EEC2EF00001CA1901E0C4D23D
:1032E000050E9EEC2EF00001CB1901E0BDD2070EB9
:1032F0009EEC2EF00001CC1901E0B6D24750CD195A
:1033000001E0B2D2465020EECEF0DF62ADD2C8511D
:1033100072EC2EF0A9D2000E9EEC2EF00001C8191E
:1033200073E1010E9EEC2EF00001C9196DE1020E51
:103330009EEC2EF00001CA1967E1030E9EEC2EF000
:103340000001CB1961E14B885FD0040E9EEC2EF09A
:103350000001C81959E1050E9EEC2EF00001C919B3
:1033600053E1060E9EEC2EF00001CA194DE1070E46
:103370009EEC2EF00001CB1947E14B8A45D0080E98
:103380009EEC2EF00001C8193FE1090E9EEC2EF0D4
:103390000001C91939E10A0E9EEC2EF00001CA198C
:1033A00033E10B0E9EEC2EF00001CB192DE14B8C7E
:1033B0002BD00C0E9EEC2EF00001C81925E10D0E4D
:1033C0009EEC2EF00001C9191FE10E0E9EEC2EF0AE
:1033D0000001CA1919E10F0E9EEC2EF00001CB1965
:1033E00013E14B8E11D04B6A0FD0C7390F0B7F6F93
:1033F000806B8051F8E17F518EE0010AA6E0030A5C
:10340000BEE0010AD6E0EFD74B50F00BF00A01E026
:103410002BD2D9EC2BF028D2BF5120EEC7F0DF62BF
:1034200023D28B6BC8C08AF0C9C08DF0996B49D08C
:103430008A51992534EC2EF000017F6F070E0E6E35
:10344000995170EC2DF00001806F8051D50FD96E2D
:10345000DA6A7FC0DFFF070E0E6E995170EC2DF017
:10346000060A0BE0FF0E00018D257F6F806BFF0EBB
:10347000802399517F19801123E1070E0E6E000100
:10348000995170EC2DF0060A03E1070E000109D0F6
:10349000070E0E6E0001995170EC2DF000017F6F48
:1034A0007F298C6F8C51810FCF6F070ED06FD16B3E
:1034B000D26B1A0ED36F8BC0D4F084EC2DF08B2B13
:1034C000992B8D51995D01E3CFD1B2D7BF5120EE39
:1034D000C7F0DF62C9D1C8C08EF0C151FE0F070B23
:1034E0008F6F946B18D09451C90FD96EDA6ADF5080
:1034F000296E8E519425F4EC2DF000018E51942507
:1035000034EC2EF000017F6F9451D50FD96EDA6A3A
:103510007FC0DFFF942B8F51945DE5E3070ED06FE2
:10352000D16BD26B1A0ED36FD46B8F51810FCF6FCB
:10353000A4D6BF5120EEC7F0DF6296D1C85145EC4A
:1035400015F000017F6F7F29216EC851B7EC05F09F
:1035500088D6BF5120EEC7F0DF6286D1C85145EC56
:1035600015F000017F6F7F05216EC851B7EC05F0A3
:1035700078D6C751BF1903E0C72901E075D1936B15
:10358000030ED06F880ECF6FD16BD26B200ED36F2E
:10359000986B98C0D4F0010E9A6F9A51D40FD96EDF
:1035A000DA6A93510F089EEC2EF0DF6E0001932B28
:1035B000100E936501D004D09A2B070E9A65EDD7B3
:1035C000100E936501D006D084EC2DF0982B020EDE
:1035D0009865DFD79A6B9A5166EC2EF0000908E0E7
:1035E0009A51D70FD96EDA6A9A5166EC2EF005D04F
:1035F0009A51D70FD96EDA6A000EDF6E9A2B040E3D
:103600009A65E9D784EC2DF0050E936F030E986F41
:1036100098C0D4F0010E9A6F9A51D40FD96EDA6A1D
:10362000935166EC2EF0DF6E932B9A2B070E9A6562
:10363000F3D784EC2DF0982B060E9865E9D714D1BA
:10364000BF5120EEC7F0DF620FD1030ED06F870E9F
:10365000CF6FD16BD26B220ED36FD40E41EC2EF014
:103660000CD6BF5120EEC7F0DF62FED0956BC1C013
:103670007FF00F0E7F17040E7F5D12E3CBC096F034
:10368000976B9751961103E1010E976F966B010EA0
:10369000965D010E975907E3010E976F000E02D059
:1036A000976B010E966F46C086F047C087F0C951F0
:1036B000C8C07FF0806B7FC080F07F6B7F11466E4B
:1036C0008051476E070ED06FD16BD26B270ED36F30
:1036D000D46BC8C0D5F0C9C0D6F09551965D7F6F48
:1036E000000E9759806F040E7F5D000E805902E333
:1036F000040E02D09551965D906F9051840FCF6F5C
:10370000CA519525D76F916B0ED0CA519525912539
:1037100034EC2EF000017F6F9151D80FD96EDA6A28
:103720007FC0DFFF912B9051915DEFE384EC2DF092
:1037300090519527D42B95517F6F806B96517F5D6B
:1037400097518059CAE386C046F087C047F08CD0B5
:10375000BF5120EEC7F0DF6287D046C088F047C077
:1037600089F0C951C8C07FF0806B7FC080F07F6B4B
:103770007F11466E8051476ECAC092F014D0CA5174
:10378000CB089225D96EDA6ADF50296E9251F4EC9B
:103790002DF000017F6FCA51D8089225D96EDA6AE0
:1037A0007FC0DFFF922BC1510F0B7F6F806BCA511F
:1037B0007F27000E8023FC0E7F25816FFF0E802166
:1037C000826F9251836F846B8451800A856F81511F
:1037D000835D8251800A8559D2E388C046F089C052
:1037E00047F0070ED06FC1510F0B800FCF6FD16B19
:1037F000D26B270ED36FD46BC8C0D5F0C9C0D6F03A
:10380000CAC0D7F03AD5C551010A01E10ED5030A65
:1038100001E10ED5040A01E10ED50E0A01E10ED533
:10382000010A01E10ED5020A01E12ED5070A01E1E4
:1038300044D51B0A01E1D9D50F0A01E1EDD5010AF2
:1038400001E144D6040A01E174D6030A01E181D6FC
:10385000010A01E18ED63E0A01E1F2D6040A01E135
:1038600000D7030A01E174D71200E8CF1AF0486AC2
:103870007750C00B1C6E1C6632D060AE12D0A49084
:1038800074AE06D01750D96EDA6A000EDB86749ECD
:1038900060A002D0488001D048900F0E1F6E600ECD
:1038A0001AD00F0150AF19D0A49274AC06D01750A3
:1038B000D96EDA6A000EDB86749C5051070B486E95
:1038C000020E486005D01750D96EDA6A000EDB8E02
:1038D0000F0E1F6E500E1E6E65D0000ECCD01C5009
:1038E000400A46E160AE04D00F0E1F6E600E3ED05F
:1038F0000F0150AF04D00F0E1F6E500E37D00D01C8
:10390000F8B507D00E0120AF04D00E0E1F6E200EAA
:103910002DD00D01F8B707D00E0130AF04D00E0E38
:103920001F6E300E23D00D01F8B907D00E0140AF45
:1039300004D00E0E1F6E400E19D00D01F8BB05D03D
:103940000E0150AF02D00E0ED7D70D01F8BD05D035
:103950000E0160AF02D00E0EC8D70D01F8BFBDD763
:103960000E0170AFBAD70E0E1F6E700E1E6E0AD00B
:1039700074AEB3D76F50070B42EC2AF00EC01EF0A6
:103980000FC01FF01EC0D9FF1FC0DAFFDF501F0B92
:10399000486EA49274AC06D01750D96EDA6A000E45
:1039A000DB86749C1EC018F01FC019F01750D96E2A
:1039B000DA6ADF6A20EE05F01E50D9261F50DA229F
:1039C000DF501D6E1650D96EDA6A1D500F0BDF6E78
:1039D0001DAC05D01750D96EDA6A000EDB8C20EED4
:1039E00002F01E50D9261F50DA22DF501D6E1DA690
:1039F00008D01750D96EDA6A000EDB8A010E1D6EF0
:103A000001D01D6A1E280E6E000E1F200F6E1AC0F8
:103A100010F01DC011F074EC21F0060E1E26000EF1
:103A20001F221650D96EDA6ADF501D6E1B6A0DD048
:103A30001EC0D9FF1FC0DAFF1550E16EE26ADFCF6A
:103A4000E7FF1E4A1F2A152A1B2A1D501B5CF0E3A4
:103A5000A4AE06D01750D96EDA6A000EDB88A49E99
:103A600018C0D9FF19C0DAFF7F0EDF161C50800A7C
:103A7000D8B4749E010E1200C051030A01E0FED0BA
:103A8000966B490E96250E6E0F6A000E0F22A8EC5B
:103A90002EF00001956F955116E0000E9625D96E17
:103AA000DA6A010EDA22DF5095610DD096514EECA4
:103AB00029F0000908E0000E00019625D96EDA6AA7
:103AC000010EDA22DF6A430E000196250E6E0F6AA0
:103AD000000E0F22A8EC2EF00001936F93AFCAD016
:103AE00096C093F0010E946F932B02D0D890943728
:103AF000932FFCD79451BA1558E0430E96250E6EBD
:103B00000F6A000E0F22A8EC2EF00001936F93A70E
:103B10004CD0D06B830ECF6F430E96250E6E0F6A7E
:103B2000000E0F22A8EC2EF00001936F93AB16D07D
:103B3000430E96250E6E0F6A000E0F22A8EC2EF093
:103B40000001936F93AD05D0D26B1E0ED16F050EA1
:103B500009D0D26B1E0ED16F060E04D0D26B010EAF
:103B6000D16F020ED36F96C0D4F0D8909635936F74
:103B7000946B9437730E93250E6E000E94210F6E86
:103B8000A8EC2EF00001D56FD8909635936F946B0A
:103B90009437740E93250E6E000E94210F6EA8ECD0
:103BA0002EF00001D66F84EC2DF096C093F0010E3C
:103BB000946F932B02D0D8909437932FFCD79451C5
:103BC000B91558E0430E96250E6E0F6A000E0F22AF
:103BD000A8EC2EF00001936F93A94CD0D06B830E0C
:103BE000CF6F430E96250E6E0F6A000E0F22A8ECC3
:103BF0002EF00001936F93AB16D0430E96250E6EF8
:103C00000F6A000E0F22A8EC2EF00001936F93AD07
:103C100005D0D26B1E0ED16F060E09D0D26B1E0ED0
:103C2000D16F050E04D0D26B010ED16F020ED36F8F
:103C300096C0D4F0D8909635936F946B9437730EEA
:103C400093250E6E000E94210F6EA8EC2EF000014D
:103C5000D56FD8909635936F946B9437740E9325E7
:103C60000E6E000E94210F6EA8EC2EF00001D66FA0
:103C700084EC2DF0962B050E966503D712000001FB
:103C800020EE86F0DE50DE10DE10DE1007E1000EC2
:103C9000866F876F800E886F3F0E18D0180E0E6EDD
:103CA000720E0F6E310E106E440E116E86C012F041
:103CB00087C013F088C014F089C015F01FEC2BF0FA
:103CC00007E20001866987697F0E886F896FC9D016
:103CD00086C00EF087C00FF088C010F089C011F0C8
:103CE000870E126E480E136E3A0E146EC40E156EC9
:103CF0001FEC2BF002E200018ED00001010E89AF13
:103D0000000E906F905112E086C00EF087C00FF049
:103D100088C010F089C011F0BEEC2DF011C089F000
:103D200010C088F00FC087F00EC086F03B0E346ED6
:103D3000AA0E356EB80E366E3F0E376E860E90ECBC
:103D40002BF086C06BF087C06CF088C06DF089C026
:103D50006EF0E8EC23F06EC08DF06DC08CF06CC09E
:103D60008BF06BC08AF08AC034F08BC035F08CC009
:103D700036F08DC037F072EC28F034C08EF035C0CC
:103D80008FF00001000E3C6E860E3B6E8EC018F068
:103D90008FC019F0B5EC2CF01BC040F01AC03FF0FA
:103DA00019C03EF018C03DF0D2EC2AF086C03BF0BE
:103DB00087C03CF088C03DF089C03EF0200E3F6EC9
:103DC000416A090E406E49EC25F03EC06FF03DC0DF
:103DD0006EF03CC06DF03BC06CF08EC070F08FC0D8
:103DE00071F0CFEC27F06FC089F06EC088F06DC025
:103DF00087F06CC086F090512CE020EE86F0FF0E2C
:103E0000DE18FF0ED8B4DE187F0ED8B4DE187F0E91
:103E1000D8B4DE1805E1866B876B886B896B21D07F
:103E2000706B716B800E726F3F0E736F86C074F093
:103E300087C075F088C076F089C077F078EC27F0FD
:103E400073C089F072C088F071C087F070C086F0CE
:103E500008D086C086F087C087F088C088F089C007
:103E600089F01200E8CF23F0226A2350800A04E18F
:103E70004AC022F04A6ACBD02350810A02E1010EE7
:103E800081D02350820A02E1050E7CD02350830AA0
:103E900002E1226ABCD02350940A03E10CEC2FF01B
:103EA00071D02350950A03E10BEC2FF06BD0235017
:103EB000960A03E10AEC2FF065D0890E236005D045
:103EC00023507C0F94EC2EF05DD0880E236408D034
:103ED000910E236005D02350770F8AEC2EF052D03C
:103EE0002350910A03E1BFC022F091D02350930ADE
:103EF00003E146C022F08BD02350920A02E14750E2
:103F000041D02350970A03E109EC2FF03BD0235016
:103F1000980A03E108EC2FF035D02350990A03E109
:103F200007EC2FF02FD0990E23642ED09E0E236025
:103F30002BD0EEEC2EF011C01BF010C01AF00FC009
:103F400019F00EC018F02350660F206E20500308A1
:103F5000136ED8901336D8901336D890133613506A
:103F600018C014F019C015F01AC016F01BC017F0D5
:103F7000E82A05D0D8901732163215321432E82EBE
:103F8000F9D730D0226E43D09D0E23642DD0A20EDF
:103F900023602AD0E9EC2EF011C01FF010C01EF0F3
:103FA0000FC01DF00EC01CF02350620F216E215077
:103FB0000308136ED8901336D8901336D890133662
:103FC00013501CC014F01DC015F01EC016F01FC009
:103FD00017F0E82A05D0D89017321632153214326D
:103FE000E82EF9D71450CED7CF0E236408D0E00EB8
:103FF000236005D02350300F9EEC2EF0C3D7DF0E88
:10400000236405D02350200F66EC2EF0BBD722503E
:1040100012000001623563353A6E66356735396ED8
:104020003A5009E039503A600FD03A50395C346E5A
:10403000210E345C09E364C060F065C061F066C0C5
:1040400062F067C063F09CD0395009E03A503960A3
:104050000FD039503A5C346E210E345C09E360C0F5
:1040600060F061C061F062C062F063C063F088D04C
:10407000060E386E63BF388E67BF388C628F636BF5
:10408000668F676B39503A601AD00001D890643758
:10409000653766376737390639503A180CE0380605
:1040A0003850070B08E0F1D70001D8906333623332
:1040B000613360333A2A39503A62F6D71CD03A500D
:1040C000396019D00001D8906037613762376337A3
:1040D0003A0639503A180CE038063850070B08E019
:1040E000F1D70001D8906733663365336433392ADA
:1040F00039503A62F6D738AE0AD00001601F611F0E
:10410000621F631F602B000E61236223632338ACA0
:104110000AD00001641F651F661F671F642B000E15
:10412000652366236723386A000160516427615163
:104130006523625166236351672367AF0BD0641F09
:10414000651F661F671F642B000E652366236723A8
:10415000010E386E64C00EF065C00FF066C010F03E
:1041600067C011F03AC012F038C013F0A9EC25F086
:1041700011C063F010C062F00FC061F00EC060F0BB
:1041800012000F0E216E400E206E0F0E236E300EA9
:10419000226E0F0E256E200E246E0E0E276E200E40
:1041A000266E0E0E296E300E286E0E0E2B6E400EF1
:1041B0002A6E0E0E2D6E500E2C6E0E0E2F6E600E91
:1041C0002E6E0E0E316E700E306E7750C00B326E4A
:1041D000326602D0020E01D0080E336E0D01D89067
:1041E000F831356E396A7BD03950020DF350200F0B
:1041F000D96EDA6ADECF3AF0DDCF3BF03AC036F066
:104200003BC037F0020E396404D0D890353235A067
:1042100065D03AC0D9FF3BC0DAFFDF501F6E1FB632
:104220005DD03AC0D9FF3BC0DAFFFC0EDF161EC0DE
:104230001FF0030E1F163AC0D9FF3BC0DAFF1F5014
:10424000DF121EAC04D01D504009386E02D01DC0D4
:1042500038F020EE05F03A50D9263B50DA2238C02B
:10426000DFFF1EAA03D0010E386E01D0386A3A284B
:104270000E6E000E3B200F6E18C010F019C011F02A
:104280001AC012F01BC013F038C014F026EC22F054
:10429000060E3A26000E3B22346A0DD01C50D96E11
:1042A000DA6A3AC0E1FF3BC0E2FFDFCFE7FF1C2A3A
:1042B0003A4A3B2A342A1D50345CF0E336C0D9FF19
:1042C00037C0DAFFDF501F6E1FB406D036C0D9FFEB
:1042D00037C0DAFF000EDB86010E05D0392A3350D5
:1042E000395C82E3000E120010C014F0116646D053
:1042F0001450D96EDA6A0EC0E1FF0FC0E2FFE7503A
:10430000126ED8901236D8901236D8901234DF6ED2
:104310001450D96EDA6AD92ADA6A0EC0E1FF0FC0EA
:10432000E2FFE750126E050E136ED8901232132E74
:10433000FCD71250DF6E0E4A0F2A0EC0D9FF0FC0F5
:10434000DAFFDF50126E050E136ED8901232132E64
:10435000FCD71450D96EDA6A1250DF121450D96E9D
:10436000DA6A020ED926DA6ADF6A1450D96EDA6A7E
:10437000030ED926DA6A000EDF6E67D01450D96EAC
:10438000DA6A020ED926DA6A0EC0E1FF0FC0E2FF38
:10439000E750126E050E136ED8901236132EFCD70E
:1043A0001250DF6E1450D96EDA6A030ED926DA6A1B
:1043B0000EC0E1FF0FC0E2FFE750126ED89012323C
:1043C000D8901232D8901230DF6E0E4A0F2A0EC0EB
:1043D000D9FF0FC0DAFFDF50126E030E1216145011
:1043E000D96EDA6A020ED926DA6A1250DF120EC0CE
:1043F000D9FF0FC0DAFFDF50126ED8901232D8907A
:104400001232D89012321C0E12161450D96EDA6A7B
:10441000020ED926DA6A1250DF120E4A0F2A0EC097
:10442000D9FF0FC0DAFF1450E16EE26AE12AE26AB6
:10443000DFCFE7FF0E4A0F2A0EC0D9FF0FC0DAFF09
:104440001450E16EE26ADFCFE7FF1200100E176E24
:10445000146637D01750D96EDA6ADF50156ED890CF
:104460001532D8901532D89015300EC0D9FF0FC034
:10447000DAFFDF6E1750D96EDA6AD92ADA6ADF50AE
:10448000156E050E166ED8901536162EFCD70EC07A
:10449000D9FF0FC0DAFF1550DF120E4A0F2A17504E
:1044A000D96EDA6ADF50156E050E166ED890153685
:1044B000162EFCD715500EC0D9FF0FC0DAFFDF6EE5
:1044C0006CD01750D96EDA6A020ED926DA6ADF503C
:1044D000156E050E166ED8901532162EFCD7155097
:1044E0000EC0D9FF0FC0DAFFDF6E1750D96EDA6A3F
:1044F000030ED926DA6ADF50156ED8901536D8909B
:104500001536D89015360EC0D9FF0FC0DAFF1550FA
:10451000DF120E4A0F2A1750D96EDA6A020ED92618
:10452000DA6ADF50156ED8901536D8901536D890C7
:104530001534E00B0EC0D9FF0FC0DAFFDF6E0EC0DE
:10454000D9FF0FC0DAFF000EDB861750D96EDA6A8A
:10455000020ED926DA6ADF50156E030E15160EC04C
:10456000D9FF0FC0DAFF1550DF120E4A0F2A17507D
:10457000D96EDA6AD92ADA6A0EC0E1FF0FC0E2FF0B
:10458000DFCFE7FF0E4A0F2A1750D96EDA6A0EC046
:10459000E1FF0FC0E2FFDFCFE7FF1200000189BF9C
:1045A00007D020EE86F0DE50DE10DE10DE1005E1D2
:1045B000866B876B886B896B87D0226A236A246A33
:1045C000400E256E430E126E000E136E0F0E136E0C
:1045D0005F0E1264136A86C00EF087C00FF088C0A9
:1045E00010F089C011F00BEC29F011C021F010C0BF
:1045F00020F00FC01FF00EC01EF0E1EC24F021C02F
:1046000063F020C062F01FC061F01EC060F00001C6
:10461000646B656B800E666FBF0E676F09EC20F0F0
:1046200063C089F062C088F061C087F060C086F026
:104630004306D8A0440686C03BF087C03CF088C043
:104640003DF089C03EF0480E3F6E416A080E406E54
:1046500049EC25F03EC089F03DC088F03CC087F0B1
:104660003BC086F0180E226E720E236E310E246E41
:104670003F0E256E43C018F044C019F0B5EC2CF085
:104680001BC021F01AC020F019C01FF018C01EF086
:10469000E1EC24F021C063F020C062F01FC061F0A3
:1046A0001EC060F086C064F087C065F088C066F008
:1046B00089C067F009EC20F063C089F062C088F01F
:1046C00061C087F060C086F01200E8CF28F0221C9D
:1046D000276E830E28640ED0890E28600BD022C06E
:1046E00011F028507C0F5AEC2EF028507C0F94ECDF
:1046F0002EF069D02850920A0DE12250246E236AD0
:104700004650256E266A2310466E24502610476EAA
:10471000475059D02850930A0BE1236A4750246E22
:1047200022502310466E2450476E46C027F04ED0CC
:10473000880E286419D0910E286016D047C023F047
:1047400023C024F0256A242802E1462802E0221C26
:104750003AD022C011F02850770F4EEC2EF028509E
:10476000770F8AEC2EF02FD0CF0E286417D0E00EF2
:10477000286014D047C023F023C024F0256A2428E1
:10478000E6E14628E4E122C011F02850300F05ECA4
:104790002EF02850300F9EEC2EF015D02850A20A93
:1047A000D6E12250550A04E1B46BB56B550E0BD01F
:1047B0002250AA0A0BE1E80EB45D030EB55905E2DA
:1047C000FDEC2EF0AA0E276E01D0276A27501200AA
:1047D0006BC00EF06CC00FF06DC010F06EC011F029
:1047E0000001000E136E730E126E0BEC29F074AF05
:1047F0000FD06EAF08D0000E6B6F6C6F800E6D6FB8
:10480000BF0E6E6F64D06B6B6C6B6D6B6E6B5FD03D
:104810001D0E735D000E745909E36BC06BF06CC024
:104820006CF06DC06DF06EC06EF051D06BC034F0A6
:104830006CC035F06DC036F06EC037F072EC28F009
:1048400037C069F036C068F035C067F034C066F034
:104850006BEC2BF069C072F068C071F067C070F04B
:1048600066C06FF06BC00EF06CC00FF06DC010F042
:104870006EC011F06FC012F070C013F071C014F070
:1048800072C015F01FEC2BF01AE26FC060F070C020
:1048900061F071C062F072C063F00001646B656B1F
:1048A000800E666FBF0E676F09EC20F063C06EF07C
:1048B00062C06DF061C06CF060C06BF008D06FC07A
:1048C0006BF070C06CF071C06DF072C06EF01200D1
:1048D0007AEC2CF0E2EC2DF00009D8B476EC11F073
:1048E000D9EC2BF00400FA0E0001BE650CD0C00517
:1048F0000AE0BF690F6A010E0E6EFF0E1068ABEC86
:104900002DF0D9EC2BF0C16B5BEC2DF024D0BF293E
:1049100003E1010EC06F2BD0030EC06F16EC2EF01A
:1049200026D009EC26F023D0C1AF21D0C451C31149
:1049300003E110EC19F01BD0C3511E0AC41117E19A
:10494000C5511A0A14E18EEC29F011D001EC2FF0B8
:104950000ED0C06B0CD00001C051D9E0010AE1E0DB
:10496000030ADCE0010AE0E0070AF0E0F2D7E90E12
:104970000001AC5D030EAD59000EAE59000EAF59EB
:10498000B1E3AC6BAD6BAE6BAF6B3CEC1DF0BB2B16
:10499000C051030A0DE19F6B000E00019F25D96EE7
:1049A000DA6A010EDA22DF2A9F2B050E9F65F4D703
:1049B0003C0EBB6501D0BB6B45EC2BF038EC0CF02A
:1049C00091D7203421342D6E2D6601D005D02434AA
:1049D0002534336E336605D01E6A1F6A206A216A49
:1049E00057D033507B0F2D2621C033F02550331A7A
:1049F000800E3316208E248E000E25162E6A2F6A06
:104A0000306A316A070E326E1EA008D022502E2660
:104A100023502F222450302225503122D890213289
:104A200020321F321E32D8902236233624362536C5
:104A3000322EEAD7110E326E1EA008D022502E263A
:104A400023502F222450302225503122D890213259
:104A500020321F321E32D890313230322F322E3275
:104A6000322EEAD72EC00EF02FC00FF030C010F05B
:104A700031C011F02DC012F033C013F0A9EC25F0B5
:104A800011C021F010C020F00FC01FF00EC01EF0AA
:104A900012004050040D3F50F324426E42C0F6FF16
:104AA0000B0EF76E09000001F5CF68F00900F5CF95
:104AB00069F00900F5CF6AF00A00F5CF6BF03DD040
:104AC00068C022F069C023F06AC024F06BC025F0F2
:104AD0003BC01EF03CC01FF03DC020F03EC021F0A6
:104AE000E1EC24F021C063F020C062F01FC061F04F
:104AF0001EC060F04006D8A041064050040D3F5053
:104B0000F324426E42C0F6FF0B0EF76E090000015F
:104B1000F5CF64F00900F5CF65F00900F5CF66F038
:104B20000A00F5CF67F009EC20F063C06BF062C0BB
:104B30006AF061C069F060C068F041504010C0E1A7
:104B400068C03BF069C03CF06AC03DF06BC03EF00D
:104B50001200125005E011500E100F1010100BE152
:104B60000E6A0F6A106A116A53D0122AD890113255
:104B700010320F320E32146A156A166AFE0E1114C4
:104B8000176E17501410151016100CE0EED7122ADD
:104B90000E2A000E0F2210221122D890113210324C
:104BA0000F320E32146A156A166A1150176E1750BA
:104BB00014101510161007E0EAD71206D8900E361A
:104BC0000F361036113610AEF8D712B002D07F0E65
:104BD0001016D890123212C014F0156A166A176AAD
:104BE00014C017F0166A156A146A14500E12155084
:104BF0000F1216501012175011121350D8A4118E04
:104C00000EC00EF00FC00FF010C010F011C011F068
:104C1000120055D04F2811E0810E0001CF6FD06BEC
:104C2000D16BD26B020ED36F4FC0D4F084EC2DF059
:104C3000010E4E6EB66BB76B48D0040E0001C06F0C
:104C4000810ECF6FD469070ED06FD16BD26B030E7C
:104C5000D36F84EC2DF039D00001C1AF0FD0C45117
:104C6000C31133E1C551030A30E14F6603D0020E90
:104C7000C06FE0D74F2A4E6A506A27D0E90EB65D62
:104C8000030EB75922E3502A020E506416D04F6625
:104C900005D04F2A4E6AB66BB76BEED74FC0BFF048
:104CA000030EC06F4E6ABF51C4EC2EF0400EBBEC39
:104CB0002EF0506A16EC2EF008D04E6A06D04E50F8
:104CC000A9E0010AC9E0030AF8E10001C16B120082
:104CD000616B45AE0AD0451E441E431E426C000E59
:104CE000432244224522010E616F41AE0AD0411E8B
:104CF000401E3F1E3E6C000E3F2240224122010E0C
:104D0000611B626B636B646B656B455042104310B3
:104D1000441029E0010E606F06D0D8904236433629
:104D200044364536602B45AEF8D7D89062376337A6
:104D30006437653742503E5C43503F5844504058BA
:104D40004550415809E342503E5E43503F5A44505B
:104D5000405A4550415A6281D890453244324332DC
:104D60004232602FE2D7615108E0651F641F631F64
:104D7000626D000E63236423652362C03EF063C04E
:104D80003FF064C040F065C041F012008C6719D05C
:104D90008AC018F08BC019F0B5EC2CF01BC03EF0A7
:104DA0001AC03DF019C03CF018C03BF0D2EC2CF01A
:104DB0003EC090F03DC08FF03CC08EF03BC08DF007
:104DC0002AD08C51020A19E18AC018F08BC019F060
:104DD000B5EC2CF01BC089F01AC088F019C087F020
:104DE00018C086F007EC2AF089C090F088C08FF0D8
:104DF00087C08EF086C08DF00ED08AC018F08BC0B0
:104E000019F0B5EC2CF01BC090F01AC08FF019C04F
:104E10008EF018C08DF08DC034F08EC035F08FC08C
:104E200036F090C037F072EC28F034C091F035C005
:104E300092F000019251D66F91C0D7F0120062C07B
:104E400067F0686B696B6A6B69C06AF068C069F08B
:104E500067C068F0676B60516B6F61516C6F6D6B11
:104E60006E6B6CC06EF06BC06DF06C6B6B6B64C086
:104E70006FF0706B716B726B1A0ED8906F37703762
:104E800071377237E82EF9D76B516F11736F6C5110
:104E90007011746F6D517111756F6E517211766F63
:104EA00067517311776F68517411786F695175117B
:104EB000796F6A5176117A6F635177117B6F7851F0
:104EC0007C6F79517D6F7A517E6F7BC03CF07CC0E6
:104ED0003DF07DC03EF07EC03FF065C040F066C052
:104EE00041F005EC2DF00009000ED8A4010E1200CF
:104EF000000172357335846F846701D006D00001DC
:104F000076357735856F856705D0706B716B726B01
:104F1000736B44D08551890F845F73C085F00001A5
:104F20007751851B800E8517728F736B768F776B29
:104F3000200E7F6FD8908037813782378337745146
:104F4000705D75517159765172597751735909E3F2
:104F50007451705F7551715B7651725B7751735B01
:104F60008081D89070377137723773377F2FE2D7CF
:104F700080C00EF081C00FF082C010F083C011F02D
:104F800084C012F085C013F0A9EC25F011C073F0B5
:104F900010C072F00FC071F00EC070F0120000016E
:104FA00020EE6CF0DE50DE10DE10DE1014E06F51EB
:104FB0007F0B436ED8904334446E456A4536445067
:104FC0007027455071236E35E836010B7027000EAF
:104FD000712371AF05D06C6B6D6B6E6B6F6B31D0E5
:104FE0007151800A7F0F000ED8B4705D0EE36FAF71
:104FF00006D06C696D697F0E6E6FFF0E04D06C6910
:105000006D697F0E6E6F6F6F1CD071357131446E9C
:105010007031436E6F19800B43186F6F70C043F08F
:10502000010E4316433243326E5143187F0B43182F
:105030006E6F6CC06CF06DC06DF06EC06EF06FC0C6
:105040006FF012001D6A1E6A206A020E1F6E1F504A
:105050000208186E18501A0FD96EDA6A1DC012F0C5
:105060001EC013F0156A030E146E98EC2CF01F503E
:10507000122620501322AA0E12240E6E000E1320A8
:105080000F6EA8EC2EF0DF6E1F06D8A02006205071
:10509000800A800F010ED8B41F5CD9E21DC018F041
:1050A0001EC019F0D89018361936D890183619360F
:1050B0000101060E1824D96E010E1920DA6E1AC0ED
:1050C000DEFF1BC0DEFF1CC0DEFF1DC0DEFF1D4A71
:1050D0001E2A1E50800A800F060ED8B41D5CD8B060
:1050E0001200B2D7363437343D6E3D6605D0346A8F
:1050F000356A366A376A43D034C038F035C039F083
:1051000036C03AF037C03BF0200E05D0D8903B3285
:105110003A3239323832E82EF9D738503C6E368E72
:10512000376A960E3D5E3DAE0CD03D50800A970F1B
:10513000DEE3D89037323632353234323D3EF9D75D
:105140000CD01F0E3D6407D0D2D7D89034363536F8
:10515000363637363D063D66F8D73C5008E0371EF8
:10516000361E351E346C000E35223622372234C0EE
:1051700034F035C035F036C036F037C037F01200A5
:10518000800E7EEC2EF0090E706EFC0E716E010E1C
:10519000726E200E736E778E779C606A0F01506B73
:1051A0000E01206B306B406B506B606B706BE00ED0
:1051B0000D01F86F0F01006B080E016F026B036B9E
:1051C000046BE80E056F1A0E066F076B030E0D01D8
:1051D000D46FD56BE06B110EE16FE26FE36BE46BA4
:1051E000E56BE66BE76B540EF06F050EF16FF26B3B
:1051F000F26B0F0E0F01186FE00E196F1A6B1B6B1D
:1052000019870F0E1C6FE00E1D6F1E691F6B1D8727
:10521000000E7EEF2EF020EE0EF0DE50DE10DE10DF
:10522000DE100CE112C0D9FF13C0DAFF000EDE6AF7
:10523000DD6A0E6A0F6A106A116A2FD011507F0B57
:10524000146ED8901434156E166A163612C0D9FF33
:1052500013C0DAFF15C0DEFF16C0DDFF1034E836DC
:10526000010B12C0D9FF13C0DAFFDE12000EDD12EF
:1052700012C0D9FF13C0DAFF820EDE26FF0EDD2238
:105280001150800B3F09116E109E0EC00EF00FC022
:105290000FF010C010F011C011F01200E8CF45F06F
:1052A000030ED06F840ECF6FD26B0A0ED16F060E35
:1052B000D36F430E45240E6E0F6A000E0F22A8EC2A
:1052C0002EF0446E030E4416D8904436D8904436DF
:1052D000D8904434451080090001D46F820ED56FF8
:1052E0004550020DF350A00FD96EDA6ADECF8AF076
:1052F000DDCF8BF0430E45240E6E0F6A000E0F2299
:10530000A8EC2EF0030B00018C6FC6EC26F084ECA9
:105310002DF00009000ED8A4010E1200956BC829CB
:1053200010E0D8909535936F946B9437730E932556
:105330000E6E000E94210F6EA8EC2EF00001C8191D
:1053400025E1C92910E0D8909535936F946B943777
:10535000740E93250E6E000E94210F6EA8EC2EF0A5
:105360000001C91913E1B06BB16BB26BB36B09D01B
:10537000E90EB05D030EB159000EB259000EB359DB
:1053800005E295514EEC29F00009F2E0952B050E4F
:105390009565C5D7050CE8CF2DF027C020F028C0B3
:1053A00021F02E0E1BEC2DF0000902E1000E2ED094
:1053B0002550D96EDA6A2EC0DFFF2450D96EDA6A22
:1053C0002FC0DFFF3050296E010E31142A6E2D5090
:1053D000D96EDA6A29C0DEFF2AC0DDFF2650D96EF9
:1053E000DA6A2EC029F02FC02AF030C02BF031C06D
:1053F0002CF01B0E05D0D8902C322B322A322932B9
:10540000E82EF9D72950070BDF6E010E12000001BC
:10541000646B656B7A0E666F460E676F226A236A4D
:10542000100E246E410E256E86C01EF087C01FF040
:1054300088C020F089C021F0E1EC24F021C063F0A5
:1054400020C062F01FC061F01EC060F009EC20F0C7
:1054500063C073F062C072F061C071F060C070F040
:105460000001746B756BA00E766F400E776F78EC51
:1054700027F073C089F072C088F071C087F070C0E7
:1054800086F01200E8CF11F024D00F0E136E600EDC
:105490001ED00F010F0E136E500E19D00E010E0EFE
:1054A000136E200E14D00E010E0E136E300E0FD0A0
:1054B0000E010E0E136E400E0AD00E010E0EEBD72B
:1054C0000E010E0EE3D70E010E0E136E700E126E4D
:1054D0000FD01150DAE0010ADCE0030ADFE0010A34
:1054E000E2E0070AE5E0010AE8E0030AE9E0EBD7B9
:1054F00012C00EF013C00FF01200E8CF12F0C26A13
:10550000C06AD8900E303C0BC26E0EC010F0103A3C
:10551000F00E1016300E10160F500F0B1010C16E3B
:1055200012C010F0D8901036D8901036380E1016E1
:1055300012C011F0113A0F0E1116070E111612506B
:10554000800B11101010C06E0EAE03D09E9C9D8C6F
:10555000F28CC28012003BC0D9FF3CC0DAFF0001D0
:10556000DECF60F0DECF61F0DECF62F0DECF63F041
:105570003DC064F03EC065F03FC066F040C067F0DB
:1055800009EC20F03BC0D9FF3CC0DAFF000160C04D
:10559000DEFF61C0DEFF62C0DEFF63C0DDFFD90653
:1055A000D90612003BC0D9FF3CC0DAFF0001DECFB4
:1055B00068F0DECF69F0DECF6AF0DECF6BF03DC081
:1055C0006CF03EC06DF03FC06EF040C06FF05CEC20
:1055D0002CF03BC0D9FF3CC0DAFF000168C0DEFF01
:1055E00069C0DEFF6AC0DEFF6BC0DDFFD906D906E9
:1055F000120086C0D9FF87C0DAFFDECF70F0DECFA1
:1056000071F0DECF72F0DECF73F088C074F089C025
:1056100075F08AC076F08BC077F078EC27F086C002
:10562000D9FF87C0DAFF000170C0DEFF71C0DEFF66
:1056300072C0DEFF73C0DDFFD906D906120011AEBD
:1056400009D00E6C0F1ED8B00F2A101ED8B0102A29
:10565000800E115615AE09D0126C131ED8B0132A45
:10566000141ED8B0142A800E1556800E111A151A61
:1056700012500E5C13500F581450105815501158FA
:1056800002E2D89001D0D8801200512A3B0E51641A
:105690000CD0516A4D2AC051030A07E1DFEC2EF00D
:1056A000446EE4EC2EF098EC2DF03B0E4D6402D0ED
:1056B0004D6ABD2B170EBD6501D0BD6BC051030AED
:1056C00009E14B2A4BC07FF00F0E7F17020E7F5D62
:1056D000D8B04B6A120000016A6B69AF0AD0691F2B
:1056E000681F671F666D000E672368236923010E1C
:1056F0006A6F66C00EF067C00FF068C010F069C036
:1057000011F0960E126E6AC013F0A9EC25F011C0CC
:1057100069F010C068F00FC067F00EC066F01200AC
:10572000E8CF38F03850D96EDA6ADECF1EF0DECF1F
:105730001FF0DECF20F0DECF21F034C022F035C0E4
:1057400023F036C024F037C025F0E1EC24F03850C7
:10575000D96EDA6A1EC0DEFF1FC0DEFF20C0DEFF8A
:1057600021C0DDFFD906D9061200E8CF19F0195083
:10577000020D9F0EF3240E6E000EF4200F6EA8ECA7
:105780002EF0146E1950020D9E0EF3240E6E000EB4
:10579000F4200F6EA8EC2EF0166E156A1450152426
:1057A000176E000E1620186E17C012F018C013F0F6
:1057B0001200020E4C6EF3EC2EF00001BF6FBF67BB
:1057C00001D0BF69C16BC26BC36BC46BC56BCF6BC0
:1057D000D06BD16BD26BD36B4A6A4F6AC06B4E6A87
:1057E000506A466A476AB66BB76BB46BB56B516A61
:1057F0004D6ABD6B120001EE84F013EEC0F0EE6A4C
:10580000E550E150FCE1E250FAE101EE00F04E0E0D
:10581000EE6AE806FDE100EEA0F03C0EEE6AE80656
:10582000FDE100EE46F00D0EEE6AE806FDE1000E29
:10583000F86E000168EF24F00001AC6BAD6BAE6B4D
:10584000AF6BBB6B216A000E2124D96EDA6A010EA0
:10585000DA22DF6A2150020DF3500001A00FD96E49
:10586000DA6ADE6ADD6A212A050E2164ECD7B86B9C
:10587000496ABA6BB96B22EF28F0F8EC2EF00009F8
:1058800016E10001C1510F0B050A15E1F8EC2EF0ED
:105890000001C71910E0C751BBEC2EF00001BF6931
:1058A000FF0EC4EC2EF0010E0001C06F04D0000109
:1058B000C751BBEC2EF012000001800E6F1B68C0B8
:1058C00060F069C061F06AC062F06BC063F06CC0E8
:1058D00064F06DC065F06EC066F06FC067F009ECF3
:1058E00020F063C06BF062C06AF061C069F060C014
:1058F00068F012001CEC2CF0070E926E1B0E936EDB
:10590000010E946E826A920E25EC2EF0FB0E0F6E45
:105910001D0E0E6ECDEC2EF0840E0E6E0F0E0F6E61
:10592000EF0E7DEC2AF0C0EC28F0F28E03EF2FF0A2
:1059300012501402F3CF16F0F4CF17F012501502E4
:10594000F3CFF4FFF36AF3501626F45017221350E6
:105950001402F3CFF4FFF36AF3501626F450172223
:1059600016C012F017C013F012001D6A19AE05D050
:10597000186C191ED8B0192A1D2A18C00EF019C0AB
:105980000FF0106A116A960E126E1DC013F0A9EC8A
:1059900025F011C01BF010C01AF00FC019F00EC096
:1059A00018F012003BC060F03CC061F03DC062F0F6
:1059B0003EC063F00001646B680E656FD50E666FC4
:1059C000460E676F09EC20F063C03EF062C03DF008
:1059D00061C03CF060C03BF01200C1510F0B126E71
:1059E000125012E0BF5120EEC7F0DF620DD012045A
:1059F00005E0010E126408D0C86706D0BF69FF0E2B
:105A0000C4EC2EF0D9EC2BF01200BC6B3CC018F0AB
:105A10003DC019F03EC01AF03FC01BF041C01CF061
:105A200040C01DF0200E1E6EC1EC20F00009EEE01B
:105A30000001CF6B010CE8CF22F0C1AF02D0000E05
:105A40000FD021C015F020C016F0230E176E225083
:105A500035EC1CF00009F3E023AC23AAF0D7010ECB
:105A6000120018C00EF019C00FF0106A116A960EDD
:105A7000126E000E136AA9EC25F011C01BF010C0C5
:105A80001AF00FC019F00EC018F01200C1C044F097
:105A90000F0E441644040EE1BF5120EEC7F0DF6242
:105AA00009D0800ECF6FD06BD16BD26B030ED36F4A
:105AB00084EC2DF01200C1BF12D0C50E246EC60EAC
:105AC000256EC20E266EC10E276EC70E286EC30E3F
:105AD000CBEC29F0326E325002E00001C18F12008F
:105AE000E8CF0FF0080E106E116AD8900F34113401
:105AF000116ED8900F360E50115C02E30E50115EFD
:105B0000102EF3D711501200D1C060F0D2C061F056
:105B1000D3C062F0BFC063F0D0C064F0CF510F0BB0
:105B2000656FD40E666F1FEC27F0436E4350120072
:105B3000E8CF45F0830E0001CF6F070ED06FD26B18
:105B4000140ED16F090ED36FD46B45C0D5F044C08D
:105B5000D6F084EF2DF00EC0A9FF10C0A8FFA69EBE
:105B6000A69CA684F29E550EA76EAA0EA76EA682CC
:105B7000F28EA1A8FED7A198A694120020EE0EF0F6
:105B8000DE50DE10DE10DE1002E0800E111A0EC0B4
:105B90000EF00FC00FF010C010F011C011F0120085
:105BA000C1510F0B020A0DE1BF5120EEC7F0DF62B9
:105BB00008D0C8C0BFF0BF51C4EC2EF0400EBBEC03
:105BC0002EF01200F8EC2EF0C00B400A02E1010E9C
:105BD0000AD0FF0EC4EC2EF0000EBBEC2EF0A00E8F
:105BE000B2EC2EF0000E1200E8CF2AF07F0E2A64ED
:105BF00006D029C022F02A5065EC23F005D029C038
:105C000021F02A50B7EC05F01200E8CF12F00F0E89
:105C1000126401D00AD0110E12240E6E0F6A000E0B
:105C20000F2211C010F0ABEC2DF01200810E00011C
:105C3000CF6FD06BD16BD26B020ED36FBFC0D4F0DD
:105C400084EC2DF0010E4C6E010CE8CF0EF00E50DE
:105C50007F0BD56ED76AD66AF2940EAE02D0F28A66
:105C600001D0F29AD58E1200E8CF24F07F0E246482
:105C700004D0245032EC1FF003D0245045EC15F032
:105C80001200E8CF0EF00F6A0E500F24D96EDA6AB8
:105C9000DF6A0F2A070E0F64F7D7070CE8CF12F060
:105CA000090E12240E6E0F6A000E0F2211C010F0A2
:105CB000ABEF2DF0E8CF12F0040E12240E6E0F6A37
:105CC000000E0F2211C010F0ABEF2DF0E8CF0FF057
:105CD0000F50000F0E6E0EC0F6FF0B0EF76E080091
:105CE000F5501200E8CF11F0110407E10F6A0E6AB7
:105CF000FF0E1068ABEC2DF0FF001200E8CF0EF0A5
:105D00001F0E6F160E506F126F50E00B0E18D8B4A6
:105D10001200FAD7E8CF12F0090E12240E6E0F6AA5
:105D2000000E0F22A8EF2EF0E8CF12F0040E12247E
:105D30000E6E0F6A000E0F22A8EF2EF0E8CF12F0C1
:105D4000110E12240E6E0F6A000E0F22A8EF2EF015
:105D50000EC0A9FFA69EA69CA68000F0A8CF11F0B9
:105D600011501200E8CF11F00F6A030E0E6E11C031
:105D700010F0ABEF2DF0E8CF11F00F6A020E0E6EAF
:105D800011C010F0ABEF2DF0E8CF11F00F6A010E4B
:105D90000E6E11C010F0ABEF2DF00EC010F00FC062
:105DA00011F011C0D7FF10C0D6FF120001C003F0E0
:105DB00002C004F004C0D7FF03C0D6FF12000F6A70
:105DC000420E0E6EA8EF2EF00F6A410E0E6EA8EF77
:105DD0002EF00E6A0F6A106A116A12000E6A0F6ABC
:105DE000106A116A12000F6A010E0E6EA8EF2EF0F3
:105DF0000F6A020E0E6EA8EF2EF076EC11F01CEF7B
:105E00002CF04C6A1200C2821200C2821200010CF5
:0A5E1000080C010C020C020C010C3E
:020000040020DA
:08000000FFFFFFFFFFFFFFFF00
:020000040030CA
:0E000000FF061D0FFF8295FF0F800FE00F40DF
:00000001FF
