:040800005EEF05F0B2
:10081800D8CF07F0E8CF08F0E0CF09F0D9CF0AF039
:10082800DACF0BF0F3CF0CF0F4CF0DF0F2A401D037
:1008380001D048D0FB0E026E1D0E016E38EC30F070
:100848000001BF4BC02B01011C4B1D2B010E1227B1
:10085800000E1323000E1423000E1523010E162775
:10086800000E1723000E1823000E19231A4B1B2BFA
:1008780082B001D001D003D00001C62B02D0000104
:10088800C66B522A4D50020AD8A401D001D00ED00E
:10089800640E526401D001D009D082A201D001D0E7
:1008A80002D0829201D08282526A0BD04D04D8A421
:1008B80001D001D001D0F7D74D6601D001D001D0C9
:1008C800F0D7F2949EAC01D001D0E5D0C4D0495005
:1008D8000C0DA80EF324D96E010EF420DA6EC4CFE5
:1008E800DFFF49500C0DA90EF324D96E010EF42038
:1008F800DA6EC3CFDFFF090EC26E49504F0AD8A483
:1009080001D001D0C5D00001C181C2D049500C0D21
:10091800AA0EF324D96E010EF420DA6EC4CFDFFFDD
:1009280049500C0DAB0EF324D96E010EF420DA6E8B
:10093800C3CFDFFF050EC26E49504F0AD8A401D0BD
:1009480001D0A6D00001C183A3D049500C0DAC0E34
:10095800F324D96E010EF420DA6EC4CFDFFF4950BC
:100968000C0DAD0EF324D96E010EF420DA6EC3CF50
:10097800DFFF010EC26E49504F0AD8A401D001D042
:1009880087D00001C18584D049500C0DAE0EF324E8
:10099800D96E010EF420DA6EC4CFDFFF49500C0D7A
:1009A800AF0EF324D96E010EF420DA6EC3CFDFFF49
:1009B800250EC26E49504F0AD8A401D001D068D084
:1009C8000001C18765D049500C0DB00EF324D96ED3
:1009D800010EF420DA6EC4CFDFFF49500C0DB10EC2
:1009E800F324D96E010EF420DA6EC3CFDFFF210E97
:1009F800C26E49504F0AD8A401D001D049D0000195
:100A0800C18946D049500C0DB20EF324D96E010E9F
:100A1800F420DA6EC4CFDFFF49500C0DB30EF32477
:100A2800D96E010EF420DA6EC3CFDFFF290EC26E35
:100A380049504F0AD8A401D001D002D00001C18B7F
:100A4800492A4F0E496401D001D022D0496A20D0EA
:100A5800290EC26EFBD7C2503C0B056E066A0650C3
:100A6800000AD8B401D0F4D70550000AD8B48CD7FE
:100A7800040AD8B46AD70C0AD8B448D7280AD8B414
:100A8800C1D7040AD8B49FD70C0AD8B420D7E0D766
:100A980067EC30F09E9C0DC0F4FF0CC0F3FF0BC058
:100AA800DAFF0AC0D9FF09C0E0FF08C0E8FF07C0A5
:080AB800D8FF10006CEF2DF0D7
:100B00007777772E6575726F736F757263652E7365
:100B1000652F6E746331304B415F332E786D6C00FE
:100B20000000803F1872313FF0FD753E4758633D2D
:100B300058951D3C82C4AE3AA8782139EF9380378E
:100B4000A092A7354656153400000000C4FF7F3F31
:100B500080EFFFBE90E1A93EEC8276BE82AD2B3ED7
:100B60000E3CC3BD87D1133D4178D3BB0000E8CF15
:100B700023F0211C246E4750461002E17BEF0BF05E
:100B8000C2EF0CF05EEC30F00F6A410E0E6E21C029
:100B900010F08FEC2EF0176A410E166E26EC30F036
:100BA00005EF0DF05EEC30F00F6A420E0E6E21C0C4
:100BB00010F08FEC2EF0176A420E166E26EC30F015
:100BC00005EF0DF05EEC30F00F6A430E0E6E21C0A3
:100BD00010F08FEC2EF0176A430E166E26EC30F0F4
:100BE00005EF0DF05EEC30F00F6A440E0E6E21C082
:100BF00010F08FEC2EF0176A440E166E26EC30F0D3
:100C000005EF0DF05EEC30F00F6A450E0E6E21C060
:100C100010F08FEC2EF0176A450E166E26EC30F0B1
:100C200005EF0DF05EEC30F00F6A460E0E6E21C03F
:100C300010F08FEC2EF0176A460E166E26EC30F090
:100C400005EF0DF05EEC30F00F6A470E0E6E21C01E
:100C500010F08FEC2EF0176A470E166E26EC30F06F
:100C600005EF0DF05EEC30F00F6A480E0E6E21C0FD
:100C700010F08FEC2EF0176A480E166E26EC30F04E
:100C800005EF0DF05EEC30F00F6A490E0E6E21C0DC
:100C900010F08FEC2EF0176A490E166E26EC30F02D
:100CA00005EF0DF05EEC30F00F6A4A0E0E6E21C0BB
:100CB00010F08FEC2EF0176A4A0E166E26EC30F00C
:100CC00005EF0DF05EEC30F00F6A4B0E0E6E21C09A
:100CD00010F08FEC2EF0176A4B0E166E26EC30F0EB
:100CE00005EF0DF05EEC30F00F6A4C0E0E6E21C079
:100CF00010F08FEC2EF0176A4C0E166E26EC30F0CA
:100D000005EF0DF05EEC30F00F6A4D0E0E6E21C057
:100D100010F08FEC2EF0176A4D0E166E26EC30F0A8
:100D200005EF0DF05EEC30F00F6A4E0E0E6E21C036
:100D300010F08FEC2EF0176A4E0E166E26EC30F087
:100D400005EF0DF05EEC30F00F6A4F0E0E6E21C015
:100D500010F08FEC2EF0176A4F0E166E26EC30F066
:100D600005EF0DF05EEC30F00F6A500E0E6E21C0F4
:100D700010F08FEC2EF0176A500E166E26EC30F045
:100D800005EF0DF05EEC30F00F6A510E0E6E21C0D3
:100D900010F08FEC2EF0176A510E166E26EC30F024
:100DA00005EF0DF05EEC30F00F6A520E0E6E21C0B2
:100DB00010F08FEC2EF0176A520E166E26EC30F003
:100DC00005EF0DF05EEC30F00F6A530E0E6E21C091
:100DD00010F08FEC2EF0176A530E166E26EC30F0E2
:100DE00005EF0DF05EEC30F00F6A540E0E6E21C070
:100DF00010F08FEC2EF0176A540E166E26EC30F0C1
:100E000005EF0DF05EEC30F00F6A550E0E6E21C04E
:100E100010F08FEC2EF0176A550E166E26EC30F09F
:100E200005EF0DF05EEC30F00F6A560E0E6E21C02D
:100E300010F08FEC2EF0176A560E166E26EC30F07E
:100E400005EF0DF05EEC30F00F6A570E0E6E21C00C
:100E500010F08FEC2EF0176A570E166E26EC30F05D
:100E600005EF0DF05EEC30F00F6A580E0E6E21C0EB
:100E700010F08FEC2EF0176A580E166E26EC30F03C
:100E800005EF0DF05EEC30F00F6A590E0E6E21C0CA
:100E900010F08FEC2EF0176A590E166E26EC30F01B
:100EA00005EF0DF05EEC30F00F6A5A0E0E6E21C0A9
:100EB00010F08FEC2EF0176A5A0E166E26EC30F0FA
:100EC00005EF0DF05EEC30F00F6A5B0E0E6E21C088
:100ED00010F08FEC2EF0176A5B0E166E26EC30F0D9
:100EE00005EF0DF05EEC30F00F6A5C0E0E6E21C067
:100EF00010F08FEC2EF0176A5C0E166E26EC30F0B8
:100F000005EF0DF05EEC30F00F6A5D0E0E6E21C045
:100F100010F08FEC2EF0176A5D0E166E26EC30F096
:100F200005EF0DF05EEC30F00F6A5E0E0E6E21C024
:100F300010F08FEC2EF0176A5E0E166E26EC30F075
:100F400005EF0DF05EEC30F00F6A5F0E0E6E21C003
:100F500010F08FEC2EF0176A5F0E166E26EC30F054
:100F600005EF0DF05EEC30F00F6A600E0E6E21C0E2
:100F700010F08FEC2EF0176A600E166E26EC30F033
:100F800005EF0DF05EEC30F00F6A610E0E6E21C0C1
:100F900010F08FEC2EF0176A610E166E26EC30F012
:100FA00005EF0DF05EEC30F00F6A620E0E6E21C0A0
:100FB00010F08FEC2EF0176A620E166E26EC30F0F1
:100FC00005EF0DF05EEC30F00F6A630E0E6E21C07F
:100FD00010F08FEC2EF0176A630E166E26EC30F0D0
:100FE00005EF0DF05EEC30F00F6A640E0E6E21C05E
:100FF00010F08FEC2EF0176A640E166E26EC30F0AF
:1010000005EF0DF05EEC30F00F6A650E0E6E21C03C
:1010100010F08FEC2EF0176A650E166E26EC30F08D
:1010200005EF0DF05EEC30F00F6A660E0E6E21C01B
:1010300010F08FEC2EF0176A660E166E26EC30F06C
:1010400005EF0DF05EEC30F00F6A670E0E6E21C0FA
:1010500010F08FEC2EF0176A670E166E26EC30F04B
:1010600005EF0DF05EEC30F00F6A680E0E6E21C0D9
:1010700010F08FEC2EF0176A680E166E26EC30F02A
:1010800005EF0DF05EEC30F00F6A690E0E6E21C0B8
:1010900010F08FEC2EF0176A690E166E26EC30F009
:1010A00005EF0DF05EEC30F00F6A6A0E0E6E21C097
:1010B00010F08FEC2EF0176A6A0E166E26EC30F0E8
:1010C00005EF0DF05EEC30F00F6A6B0E0E6E21C076
:1010D00010F08FEC2EF0176A6B0E166E26EC30F0C7
:1010E00005EF0DF05EEC30F00F6A6C0E0E6E21C055
:1010F00010F08FEC2EF0176A6C0E166E26EC30F0A6
:1011000005EF0DF05EEC30F00F6A6D0E0E6E21C033
:1011100010F08FEC2EF0176A6D0E166E26EC30F084
:1011200005EF0DF05EEC30F00F6A6E0E0E6E21C012
:1011300010F08FEC2EF0176A6E0E166E26EC30F063
:1011400005EF0DF05EEC30F00F6A6F0E0E6E21C0F1
:1011500010F08FEC2EF0176A6F0E166E26EC30F042
:1011600005EF0DF05EEC30F00F6A700E0E6E21C0D0
:1011700010F08FEC2EF0176A700E166E26EC30F021
:1011800005EF0DF05EEC30F00F6A710E0E6E21C0AF
:1011900010F08FEC2EF0176A710E166E26EC30F000
:1011A00005EF0DF05EEC30F00F6A720E0E6E21C08E
:1011B00010F08FEC2EF0176A720E166E26EC30F0DF
:1011C00005EF0DF05EEC30F00F6A730E0E6E21C06D
:1011D00010F08FEC2EF0176A730E166E26EC30F0BE
:1011E00005EF0DF05EEC30F00F6A740E0E6E21C04C
:1011F00010F08FEC2EF0176A740E166E26EC30F09D
:1012000005EF0DF05EEC30F00F6A750E0E6E21C02A
:1012100010F08FEC2EF0176A750E166E26EC30F07B
:10122000F4D35EEC30F00F6A760E0E6E21C010F033
:101230008FEC2EF0176A760E166E26EC30F0E5D3A2
:101240005EEC30F00F6A770E0E6E21C010F08FEC5E
:101250002EF0176A770E166E26EC30F0D6D35EECC1
:1012600030F00F6A780E0E6E21C010F08FEC2EF069
:10127000176A780E166E26EC30F0C7D35EEC30F0AD
:101280000F6A790E0E6E21C010F08FEC2EF0176AE7
:10129000790E166E26EC30F0B8D35EEC30F00F6AA3
:1012A0007A0E0E6E21C010F08FEC2EF0176A7A0EB7
:1012B000166E26EC30F0A9D35EEC30F00F6A7B0E90
:1012C0000E6E21C010F08FEC2EF0176A7B0E166E9A
:1012D00026EC30F09AD35EEC30F00F6A7C0E0E6E86
:1012E00021C010F08FEC2EF0176A7C0E166E26ECE3
:1012F00030F08BD35EEC30F00F6A7D0E0E6E21C0A5
:1013000010F08FEC2EF0176A7D0E166E26EC30F082
:101310007CD35EEC30F00F6A7E0E0E6E21C010F0B2
:101320008FEC2EF0176A7E0E166E26EC30F06DD321
:101330005EEC30F00F6A7F0E0E6E21C010F08FEC65
:101340002EF0176A7F0E166E26EC30F05ED35EEC40
:1013500030F00F6A800E0E6E21C010F08FEC2EF070
:10136000176A800E166E26EC30F04FD35EEC30F02C
:101370000F6A810E0E6E21C010F08FEC2EF0176AEE
:10138000810E166E26EC30F040D35EEC30F00F6A22
:10139000820E0E6E21C010F08FEC2EF0176A820EB6
:1013A000166E26EC30F031D35EEC30F00F6A830E0F
:1013B0000E6E21C010F08FEC2EF0176A830E166EA1
:1013C00026EC30F022D35EEC30F00F6A840E0E6E05
:1013D00021C010F08FEC2EF0176A840E166E26ECEA
:1013E00030F013D35EEC30F00F6A850E0E6E21C024
:1013F00010F08FEC2EF0176A850E166E26EC30F08A
:1014000004D35EEC30F00F6A860E0E6E21C010F031
:101410008FEC2EF0176A860E166E26EC30F0F5D2A1
:101420005EEC30F00F6A870E0E6E21C010F08FEC6C
:101430002EF0176A870E166E26EC30F0E6D25EECC0
:1014400030F00F6A880E0E6E21C010F08FEC2EF077
:10145000176A880E166E26EC30F0D7D25EEC30F0AC
:101460000F6A890E0E6E21C010F08FEC2EF0176AF5
:10147000890E166E26EC30F0C8D25EEC30F00F6AA2
:101480008A0E0E6E21C010F08FEC2EF0176A8A0EB5
:10149000166E26EC30F0B9D25EEC30F00F6A8B0E8F
:1014A0000E6E21C010F08FEC2EF0176A8B0E166EA8
:1014B00026EC30F0AAD25EEC30F00F6A8C0E0E6E85
:1014C00021C010F08FEC2EF0176A8C0E166E26ECF1
:1014D00030F09BD25EEC30F00F6A8D0E0E6E21C0A4
:1014E00010F08FEC2EF0176A8D0E166E26EC30F091
:1014F0008CD25EEC30F00F6A8E0E0E6E21C010F0B2
:101500008FEC2EF0176A8E0E166E26EC30F07DD220
:101510005EEC30F00F6A8F0E0E6E21C010F08FEC73
:101520002EF0176A8F0E166E26EC30F06ED25EEC3F
:1015300030F00F6A900E0E6E21C010F08FEC2EF07E
:10154000176A900E166E26EC30F05FD25EEC30F02B
:101550000F6A910E0E6E21C010F08FEC2EF0176AFC
:10156000910E166E26EC30F050D25EEC30F00F6A21
:10157000920E0E6E21C010F08FEC2EF0176A920EB4
:10158000166E26EC30F041D25EEC30F00F6A930E0E
:101590000E6E21C010F08FEC2EF0176A930E166EAF
:1015A00026EC30F032D25EEC30F00F6A940E0E6E04
:1015B00021C010F08FEC2EF0176A940E166E26ECF8
:1015C00030F023D25EEC30F00F6A950E0E6E21C023
:1015D00010F08FEC2EF0176A950E166E26EC30F098
:1015E00014D25EEC30F00F6A960E0E6E21C010F031
:1015F0008FEC2EF0176A960E166E26EC30F005D2A0
:101600005EEC30F00F6A970E0E6E21C010F08FEC7A
:101610002EF0176A970E166E26EC30F0F6D15EECBF
:1016200030F00F6A980E0E6E21C010F08FEC2EF085
:10163000176A980E166E26EC30F0E7D15EEC30F0AB
:101640000F6A990E0E6E21C010F08FEC2EF0176A03
:10165000990E166E26EC30F05EEC30F00F6A9A0EA2
:101660000E6E21C010F08FEC2EF0176A9A0E166ED7
:1016700026EC30F0CAD15EEC30F00F6A9B0E0E6E95
:1016800021C010F08FEC2EF0176A9B0E166E26EC20
:1016900030F0BBD15EEC30F00F6A9C0E0E6E21C0B4
:1016A00010F08FEC2EF0176A9C0E166E26EC30F0C0
:1016B000ACD1246AABD15EEC30F00F6AF20E0E6E44
:1016C00021C010F08FEC2EF0176AF20E166E26EC89
:1016D00030F09BD15EEC30F00F6AF30E0E6E21C03D
:1016E00010F08FEC2EF0176AF30E166E26EC30F029
:1016F0008CD1211C8AD1235002E1C2EF05F0010AEE
:1017000002E1D2EF05F0030A02E1E2EF05F0010A7F
:1017100002E1F2EF05F0070A02E102EF06F0010A2A
:1017200002E112EF06F0030A02E122EF06F0010ADD
:1017300002E132EF06F0130A02E142EF06F0010A7D
:1017400002E152EF06F0030A02E162EF06F0010A3D
:1017500002E172EF06F00F0A02E182EF06F0010AE1
:1017600002E192EF06F03F0A02E1A2EF06F0010A61
:1017700002E1B2EF06F00F0A02E1C2EF06F0010A41
:1017800002E1D2EF06F0030A02E1E2EF06F0010AFD
:1017900002E1F2EF06F0070A02E102EF07F0010AA8
:1017A00002E112EF07F0030A02E122EF07F0010A5B
:1017B00002E132EF07F01F0A02E142EF07F0010AEF
:1017C00002E152EF07F0030A02E162EF07F0010ABB
:1017D00002E172EF07F0070A02E182EF07F0010A67
:1017E00002E192EF07F0030A02E1A2EF07F0010A1B
:1017F00002E1B2EF07F00F0A02E1C2EF07F0010ABF
:1018000002E1D2EF07F0030A02E1E2EF07F0010A7A
:1018100002E1F2EF07F0070A02E102EF08F0010A25
:1018200002E112EF08F0030A01E10CD4010A01E120
:1018300019D47F0A01E126D4010A01E133D4030A55
:1018400001E140D4010A01E14DD4070A01E15AD473
:10185000010A01E167D4030A01E174D4010A01E13C
:1018600081D40F0A01E18ED4010A01E19BD4030A5D
:1018700001E1A8D4010A01E1B5D4070A01E1C2D40B
:10188000010A01E1CED4030A01E1DAD4010A01E13F
:10189000E6D41F0A01E1F2D4010A01E1FED4030AF1
:1018A00001E10AD5010A01E116D5070A01E122D5B5
:1018B000010A01E12ED5030A01E13AD5010A01E14D
:1018C00046D50F0A01E152D5010A01E15ED5030AAE
:1018D00001E16AD5010A01E176D5070A01E182D565
:1018E000010A01E18ED5030A01E19AD5010A01E15D
:1018F000A6D53F0A01E1B2D5010A01E1BED5030A2E
:1019000001E1CAD5010A01E1D6D5070A01E1E2D514
:10191000010A01E1EED5030A01E1FAD5010A01E16C
:1019200006D60F0A01E112D6010A01E11ED6030A0A
:1019300001E12AD6010A01E136D6070A01E142D6C1
:10194000010A01E14ED6030A01E15AD6010A01E17A
:1019500066D61F0A01E172D6010A01E17DD6030AAB
:1019600001E189D6010A01E195D6070A01E1A1D674
:10197000010A01E19ED6030A01E19DD6010A01E1B7
:10198000A9D6B7D64604471041E1480E236018D0C7
:101990005EEC30F0AA0E23240E6E0F6A000E0F22AA
:1019A00021C010F08FEC2EF0AA0E2324166E176AB9
:1019B000000E172226EC30F0246E87EC29F026D09A
:1019C000540E23600BD02350B80F226EA80E222491
:1019D000D96EDA6A010EDA22DF5017D0620E236068
:1019E00015D05EEC30F04A0E23240E6E0F6A000E06
:1019F0000F2221C010F08FEC2EF04A0E2324166E19
:101A0000176A000E172226EC30F0246E24501200C4
:101A100000019A6B9A51020D7F0EF324166E000E90
:101A2000F420176E26EC30F00001916F906B9A5104
:101A3000020D800EF324166E000EF420176E26ECB5
:101A400030F000019027000E91239A51020D000EF4
:101A5000F324D96E010EF420DA6EDECF92F0DDCFE2
:101A600093F09351800A946F9051925D9151800A46
:101A700094593CE25EEC30F0D89000019A35906FBA
:101A8000916B91377F0E90250E6E000E91210F6E97
:101A90009A51020D000EF324D96E010EF420DA6E75
:101AA000DECF92F0DDCF93F093C092F0936B925122
:101AB000106E8FEC2EF05EEC30F0D89000019A356D
:101AC000906F916B9137800E90250E6E000E9121D4
:101AD0000F6E9A51020D0101000EF324D96E010E12
:101AE000F420DA6EDF50106E8FEC2EF000019A5168
:101AF000020D000EF324D96E010EF420DA6EDECF53
:101B000090F0DDCF91F09A51020D8B0EF324166EFA
:101B1000000EF420176E26EC30F00001936F926BEC
:101B20009A51020D8C0EF324166E000EF420176EDF
:101B300026EC30F000019227000E93239351800A87
:101B4000946F9051925D9151800A94593CE25EEC01
:101B500030F0D89000019A35906F916B91378B0ED1
:101B600090250E6E000E91210F6E9A51020D000EFF
:101B7000F324D96E010EF420DA6EDECF92F0DDCFC1
:101B800093F093C092F0936B9251106E8FEC2EF005
:101B90005EEC30F0D89000019A35906F916B9137E0
:101BA0008C0E90250E6E000E91210F6E9A51020D33
:101BB0000101000EF324D96E010EF420DA6EDF501D
:101BC000106E8FEC2EF0490E00019A25166E176AE2
:101BD000000E172226EC30F00001976F975116E0A7
:101BE0000C0E9A25D96EDA6A010EDA22DF5097615F
:101BF0000DD09A51A9EC2AF0000908E00C0E000162
:101C00009A25D96EDA6A010EDA22DF6A430E0001E4
:101C10009A25166E176A000E172226EC30F0000186
:101C2000906F90AFCBD09AC090F0010E916F902B37
:101C300002D0D8909137902FFCD79151C31558E01E
:101C4000430E9A25166E176A000E172226EC30F006
:101C50000001906F90A74CD0CB6B830ECA6F430EE0
:101C60009A25166E176A000E172226EC30F0000136
:101C7000906F90AB16D0430E9A25166E176A000E21
:101C8000172226EC30F00001906F90AD05D0CD6B9F
:101C90001E0ECC6F050E09D0CD6B1E0ECC6F060E3E
:101CA00004D0CD6B010ECC6F020ECE6F9AC0D0F077
:101CB000D8909A35906F916B9137730E9025166E70
:101CC000000E9121176E26EC30F00001D16FD890F4
:101CD0009A35906F916B9137740E9025166E000EA9
:101CE0009121176E26EC30F00001D26FC1EC2EF07E
:101CF0009AC090F0010E0001916F902B02D0D89005
:101D00009137902FFCD79151C21558E0430E9A2578
:101D1000166E176A000E172226EC30F00001906F45
:101D200090A94CD0CB6B830ECA6F430E9A25166ECA
:101D3000176A000E172226EC30F00001906F90AB6E
:101D400016D0430E9A25166E176A000E172226EC3F
:101D500030F00001906F90AD05D0CD6B1E0ECC6FB2
:101D6000060E09D0CD6B1E0ECC6F050E04D0CD6BC8
:101D7000010ECC6F020ECE6F9AC0D0F0D8909A357B
:101D8000906F916B9137730E9025166E000E912116
:101D9000176E26EC30F00001D16FD8909A35906F15
:101DA000916B9137740E9025166E000E9121176E6F
:101DB00026EC30F00001D26FC1EC2EF09AC090F00A
:101DC000010E0001916F902B02D0D8909137902F87
:101DD000FCD79151C31560E0970E9A25166E176ACD
:101DE000000E172226EC30F00001906FD8909A3543
:101DF000916F926B92375B0E9125166E000E9221B9
:101E0000176E26EC30F00001946F936BD8909A35E2
:101E1000956F966B96375C0E9525166E000E962183
:101E2000176E26EC30F000019327000E942390519A
:101E30009325986F000E9421996F9A51020D01011C
:101E4000000EF324D96E010EF420DA6EDECF90F08E
:101E5000DDCF91F098C00EF099C00FF0116A640EBA
:101E6000106E06EC2EF00F50800A0001926F905118
:101E70000E5C9151800A925901E3AFD09AC090F064
:101E8000010E0001916F902B02D0D8909137902FC6
:101E9000FCD7911DC317A1D09A51020D5C0EF324FB
:101EA000166E000EF420176E26EC30F00001906FD5
:101EB0009A51020D5B0EF324166E000EF420176E7D
:101EC00026EC30F00001996F9051986F98C00EF099
:101ED00099C00FF0116A640E106E06EC2EF000012E
:101EE0009A51020D000EF324D96E010EF420DA6E21
:101EF000DECF90F0DDCF91F09151800A926F0E50BD
:101F0000905D0F50800A925968E29AC090F0010EDD
:101F1000916F902B02D0D8909137902FFCD7915190
:101F2000C3134A80430E9A25166E176A000E1722B5
:101F300026EC30F00001906F90A74FD0CB6B830E52
:101F4000CA6F430E9A25166E176A000E172226ECEA
:101F500030F00001906F90AB16D0430E9A25166EAC
:101F6000176A000E172226EC30F00001906F90AD3A
:101F700005D0CD6B1E0ECC6F050E09D0CD6B1E0E9D
:101F8000CC6F060E04D0CD6B010ECC6F020ECE6F5F
:101F90009AC0D0F0D8909A35906F916B9137730EAC
:101FA0009025166E000E9121176E26EC30F0000180
:101FB000D16FD8909A35906F916B9137740E9025B0
:101FC000166E000E9121176E26EC30F00001D26FD4
:101FD000C1EC2EF0000901E151D79AC090F0010E3A
:101FE0000001916F902B02D0D8909137902FFCD7A1
:101FF0009151C2155EE0D8909A35906F916B9137F0
:10200000670E9025166E000E9121176E26EC30F0AB
:102010000001936F926BD8909A35946F956B9537BA
:10202000680E9425166E000E9521176E26EC30F082
:1020300000019227000E9323970E9A25166E176AB9
:10204000000E172226EC30F00001925D986F93513C
:10205000D8A09305996F98C00EF099C00FF0116A3F
:10206000640E106E06EC2EF000019A51020D000E67
:10207000F324D96E010EF420DA6EDECF90F0DDCFBE
:1020800091F09151800A926F0E50905D0F50800A2E
:10209000925901E3B0D09AC090F0010E0001916F07
:1020A000902B02D0D8909137902FFCD7911DC2175A
:1020B000A2D09A51020D680EF324166E000EF42081
:1020C000176E26EC30F00001906F9A51020D670EEA
:1020D000F324166E000EF420176E26EC30F000018B
:1020E000996F9051986F9A51020D0101000EF324DF
:1020F000D96E010EF420DA6EDECF90F0DDCF91F0D4
:1021000098C00EF099C00FF0116A640E106E06ECC4
:102110002EF00F50800A0001926F90510E5C915189
:10212000800A925968E29AC090F0010E916F902B4C
:1021300002D0D8909137902FFCD79151C2134A8288
:10214000430E9A25166E176A000E172226EC30F001
:102150000001906F90A94FD0CB6B830ECA6F430ED6
:102160009A25166E176A000E172226EC30F0000131
:10217000906F90AB16D0430E9A25166E176A000E1C
:10218000172226EC30F00001906F90AD05D0CD6B9A
:102190001E0ECC6F060E09D0CD6B1E0ECC6F050E39
:1021A00004D0CD6B010ECC6F020ECE6F9AC0D0F072
:1021B000D8909A35906F916B9137730E9025166E6B
:1021C000000E9121176E26EC30F00001D16FD890EF
:1021D0009A35906F916B9137740E9025166E000EA4
:1021E0009121176E26EC30F00001D26FC1EC2EF079
:1021F000000901E150D700019A2B050E9A650AD417
:10220000050CE8CF19F04750461001E15BD29FD38F
:10221000176A410E166E26EC30F0C1D3176A420ED3
:10222000166E26EC30F0BBD3176A430E166E26EC02
:1022300030F0B5D3176A440E166E26EC30F0AFD3EB
:10224000176A450E166E26EC30F0A9D3176A460EB3
:10225000166E26EC30F0A3D3176A470E166E26ECE6
:1022600030F09DD3176A480E166E26EC30F097D3E7
:102270000101015194D300C11AF092D3010103511D
:102280008ED302C11AF08CD30101055188D304C149
:102290001AF086D30101075182D306C11AF080D308
:1022A000010109517CD308C11AF07AD301010B5105
:1022B00076D30AC11AF074D3176A490E166E26EC4B
:1022C00030F06DD3176A4A0E166E26EC30F067D3E5
:1022D000176A4B0E166E26EC30F061D3176A4C0E5F
:1022E000166E26EC30F05BD3176A4D0E166E26EC98
:1022F00030F055D3176A4E0E166E26EC30F04FD3E1
:10230000176A4F0E166E26EC30F049D3176A500E3E
:10231000166E26EC30F043D3176A510E166E26EC7B
:1023200030F03DD3176A520E166E26EC30F037D3DC
:10233000176A530E166E26EC30F031D3176A540E1E
:10234000166E26EC30F02BD3176A550E166E26EC5F
:1023500030F025D3176A560E166E26EC30F01FD3D8
:10236000176A570E166E26EC30F019D3176A580EFE
:10237000166E26EC30F013D3176A590E166E26EC43
:1023800030F00DD3176A5A0E166E26EC30F007D3D4
:10239000176A5B0E166E26EC30F001D3176A5C0EDE
:1023A000166E26EC30F0FBD2176A5D0E166E26EC28
:1023B00030F0F5D2176A5E0E166E26EC30F0EFD2D2
:1023C000176A5F0E166E26EC30F0E9D2176A600EBF
:1023D000166E26EC30F0E3D2176A610E166E26EC0C
:1023E00030F0DDD2176A620E166E26EC30F0D7D2CE
:1023F000176A630E166E26EC30F0D1D2176A640E9F
:10240000166E26EC30F0CBD2176A650E166E26ECEF
:1024100030F0C5D2176A660E166E26EC30F0BFD2C9
:10242000176A670E166E26EC30F0B9D2176A680E7E
:10243000166E26EC30F0B3D2176A690E166E26ECD3
:1024400030F0ADD2176A6A0E166E26EC30F0A7D2C5
:10245000176A6B0E166E26EC30F0A1D2176A6C0E5E
:10246000166E26EC30F09BD2176A6D0E166E26ECB7
:1024700030F095D2176A6E0E166E26EC30F08FD2C1
:10248000176A6F0E166E26EC30F089D2176A700E3E
:10249000166E26EC30F083D2176A710E166E26EC9B
:1024A00030F07DD2176A720E166E26EC30F077D2BD
:1024B000176A730E166E26EC30F071D2176A740E1E
:1024C000166E26EC30F06BD2176A750E166E26EC7F
:1024D00030F065D2176A760E166E26EC30F05FD2B9
:1024E000176A770E166E26EC30F059D2176A780EFE
:1024F000166E26EC30F053D2176A790E166E26EC63
:1025000030F04DD2176A7A0E166E26EC30F047D2B4
:10251000176A7B0E166E26EC30F041D2176A7C0EDD
:10252000166E26EC30F03BD2176A7D0E166E26EC46
:1025300030F035D2176A7E0E166E26EC30F02FD2B0
:10254000176A7F0E166E26EC30F029D2176A800EBD
:10255000166E26EC30F023D2176A810E166E26EC2A
:1025600030F01DD2176A820E166E26EC30F017D2AC
:10257000176A830E166E26EC30F011D2176A840E9D
:10258000166E26EC30F00BD2176A850E166E26EC0E
:1025900030F005D2176A860E166E26EC30F0FFD1A9
:1025A000176A870E166E26EC30F0F9D1176A880E7E
:1025B000166E26EC30F0F3D1176A890E166E26ECF3
:1025C00030F0EDD1176A8A0E166E26EC30F0E7D1A6
:1025D000176A8B0E166E26EC30F0E1D1176A8C0E5E
:1025E000166E26EC30F0DBD1176A8D0E166E26ECD7
:1025F00030F0D5D1176A8E0E166E26EC30F0CFD1A2
:10260000176A8F0E166E26EC30F0C9D1176A900E3D
:10261000166E26EC30F0C3D1176A910E166E26ECBA
:1026200030F0BDD1176A920E166E26EC30F0B7D19D
:10263000176A930E166E26EC30F0B1D1176A940E1D
:10264000166E26EC30F0ABD1176A950E166E26EC9E
:1026500030F0A5D1176A960E166E26EC30F09FD199
:10266000176A970E166E26EC30F099D1176A980EFD
:10267000166E26EC30F093D1176A990E166E26EC82
:1026800030F08DD1176A9A0E166E26EC30F087D195
:10269000176A9B0E166E26EC30F081D1176A9C0EDD
:1026A000166E26EC30F07BD11A6A7AD1176AF20ED8
:1026B000166E26EC30F073D1176AF30E166E26EC08
:1026C00030F06DD1195001E1A3D5010A01E1A6D581
:1026D000030A01E1A9D5010A01E1ACD5070A01E12C
:1026E000AFD5010A01E1B2D5030A01E1B5D5010A6E
:1026F00001E1B8D50F0A01E1BBD5010A01E1BBD563
:10270000030A01E1BBD5010A01E1BBD5070A01E1DA
:10271000BBD5010A01E1BBD5030A01E1BBD5010A22
:1027200001E1BBD51F0A01E1BBD5010A01E1BBD51F
:10273000030A01E1BBD5010A01E1BBD5070A01E1AA
:10274000BBD5010A01E1BED5030A01E1C1D5010AE9
:1027500001E1C4D50F0A01E1C7D5010A01E1CAD5DB
:102760003F0A01E1CDD5010A01E1D0D50F0A01E10F
:10277000D3D5010A01E1D6D5030A01E1D9D5010A71
:1027800001E1DCD5070A01E1DFD5010A01E1E2D56B
:10279000030A01E1E5D5010A01E1E8D51F0A01E1DB
:1027A000EBD5010A01E1EED5030A01E1F1D5010AF9
:1027B00001E1F4D5070A01E1F7D5010A01E1FAD5F3
:1027C000030A01E1FDD5010A01E100D60F0A01E18A
:1027D00003D6010A01E106D6030A01E109D6010A7E
:1027E00001E10CD6070A01E10FD6010A01E112D678
:1027F000030A01E115D6010A01E118D67F0A01E1B9
:102800001BD6010A01E11ED6030A01E121D6010A05
:1028100001E124D6070A01E127D6010A01E12AD6FF
:10282000030A01E12DD6010A01E130D60F0A01E1C8
:1028300033D6010A01E136D6030A01E139D6010A8D
:1028400001E13CD6070A01E13FD6010A01E142D687
:10285000030A01E145D6010A01E148D61F0A01E158
:102860004BD6010A01E14ED6030A01E151D6010A15
:1028700001E154D6070A01E157D6010A01E15AD60F
:10288000030A01E15DD6010A01E160D60F0A01E108
:1028900063D6010A01E166D6030A01E169D6010A9D
:1028A00001E16CD6070A01E16FD6010A01E172D697
:1028B000030A01E175D6010A01E178D63F0A01E178
:1028C0007BD6010A01E17ED6030A01E181D6010A25
:1028D00001E184D6070A01E187D6010A01E18AD61F
:1028E000030A01E18DD6010A01E190D60F0A01E148
:1028F00093D6010A01E196D6030A01E199D6010AAD
:1029000001E19CD6070A01E19FD6010A01E1A2D6A6
:10291000030A01E1A5D6010A01E1A8D61F0A01E1D7
:10292000ABD6010A01E1AED6030A01E1B1D6010A34
:1029300001E1B4D6070A01E1B7D6010A01E1B4D634
:10294000030A01E1B3D6010A01E1B6D6ADD64604C9
:10295000471026E1480E196009D0AA0E1924166EF8
:10296000176A000E172226EC30F019D0540E1960A9
:102970000BD01950B80F186EA80E1824D96EDA6A49
:10298000010EDA22DF500BD0620E196009D04A0E18
:102990001924166E176A000E172226EC30F01A6EF4
:1029A0001A5012005EEC30F00F6A410E0E6E000EEF
:1029B000106A8FEC2EF05EEC30F00F6A410E0E6E56
:1029C000000E106A8FEC2EF05EEC30F00F6A430EB2
:1029D0000E6E010E106E8FEC2EF05EEC30F00F6A72
:1029E000440E0E6E010E106E8FEC2EF05EEC30F089
:1029F0000F6A450E0E6E010E106E8FEC2EF05EEC1F
:102A000030F00F6A460E0E6E010E106E8FEC2EF037
:102A10005EEC30F00F6A470E0E6E010E106E8FECFA
:102A20002EF05EEC30F00F6A480E0E6E010E106E46
:102A30008FEC2EF05EEC30F00F6A490E0E6E1E0E1B
:102A4000106E8FEC2EF05EEC30F00F6A4A0E0E6EB8
:102A5000000E106A8FEC2EF05EEC30F00F6A4B0E19
:102A60000E6E000E106A8FEC2EF05EEC30F00F6AE6
:102A70004C0E0E6E000E106A8FEC2EF05EEC30F0F5
:102A80000F6A4D0E0E6E000E106A8FEC2EF05EEC8B
:102A900030F00F6A4E0E0E6E000E106A8FEC2EF0A4
:102AA0005EEC30F00F6A4F0E0E6E0F0E106E8FEC54
:102AB0002EF05EEC30F00F6A500E0E6E680E106E47
:102AC0008FEC2EF05EEC30F00F6A510E0E6E0D0E94
:102AD000106E8FEC2EF05EEC30F00F6A520E0E6E20
:102AE0007F0E106E8FEC2EF05EEC30F00F6A530EFE
:102AF0000E6E0D0E106E8FEC2EF05EEC30F00F6A45
:102B0000540E0E6E7F0E106E8FEC2EF05EEC30F0D9
:102B10000F6A550E0E6E0D0E106E8FEC2EF05EECE1
:102B200030F00F6A560E0E6E7F0E106E8FEC2EF088
:102B30005EEC30F00F6A570E0E6E0D0E106E8FECBD
:102B40002EF05EEC30F00F6A580E0E6E7F0E106E97
:102B50008FEC2EF05EEC30F00F6A590E0E6E0D0EFB
:102B6000106E8FEC2EF05EEC30F00F6A5A0E0E6E87
:102B70007F0E106E8FEC2EF05EEC30F00F6A5B0E65
:102B80000E6E800E106E8FEC2EF05EEC30F00F6A41
:102B90005C0E0E6EFF0E10688FEC2EF05EEC30F0C7
:102BA0000F6A5D0E0E6E800E106E8FEC2EF05EECD6
:102BB00030F00F6A5E0E0E6EFF0E10688FEC2EF076
:102BC0005EEC30F00F6A5F0E0E6E800E106E8FECB2
:102BD0002EF05EEC30F00F6A600E0E6EFF0E106885
:102BE0008FEC2EF05EEC30F00F6A610E0E6E800EF0
:102BF000106E8FEC2EF05EEC30F00F6A620E0E6EEF
:102C0000FF0E10688FEC2EF05EEC30F00F6A630E52
:102C10000E6E800E106E8FEC2EF05EEC30F00F6AB0
:102C2000640E0E6EFF0E10688FEC2EF05EEC30F02E
:102C30000F6A650E0E6E800E106E8FEC2EF05EEC3D
:102C400030F00F6A660E0E6EFF0E10688FEC2EF0DD
:102C50005EEC30F00F6A670E0E6E7F0E106E8FEC1A
:102C60002EF05EEC30F00F6A680E0E6EFF0E1068EC
:102C70008FEC2EF05EEC30F00F6A690E0E6E7F0E58
:102C8000106E8FEC2EF05EEC30F00F6A6A0E0E6E56
:102C9000FF0E10688FEC2EF05EEC30F00F6A6B0EBA
:102CA0000E6E7F0E106E8FEC2EF05EEC30F00F6A21
:102CB0006C0E0E6EFF0E10688FEC2EF05EEC30F096
:102CC0000F6A6D0E0E6E7F0E106E8FEC2EF05EECA6
:102CD00030F00F6A6E0E0E6EFF0E10688FEC2EF045
:102CE0005EEC30F00F6A6F0E0E6E7F0E106E8FEC82
:102CF0002EF05EEC30F00F6A700E0E6EFF0E106854
:102D00008FEC2EF05EEC30F00F6A710E0E6E7F0EBF
:102D1000106E8FEC2EF05EEC30F00F6A720E0E6EBD
:102D2000FF0E10688FEC2EF05EEC30F00F6A730E21
:102D30000E6E000E106A8FEC2EF05EEC30F00F6A13
:102D4000740E0E6E000E106A8FEC2EF05EEC30F0FA
:102D50000F6A750E0E6E000E106A8FEC2EF05EEC90
:102D600030F00F6A760E0E6E000E106A8FEC2EF0A9
:102D70005EEC30F00F6A770E0E6E000E106A8FEC6C
:102D80002EF05EEC30F00F6A780E0E6E000E106AB8
:102D90008FEC2EF05EEC30F00F6A790E0E6E000EA6
:102DA000106A8FEC2EF05EEC30F00F6A7A0E0E6E29
:102DB000000E106A8FEC2EF05EEC30F00F6A7B0E86
:102DC0000E6E000E106A8FEC2EF05EEC30F00F6A83
:102DD0007C0E0E6E000E106A8FEC2EF05EEC30F062
:102DE0000F6A7D0E0E6E000E106A8FEC2EF05EECF8
:102DF00030F00F6A7E0E0E6E000E106A8FEC2EF011
:102E00005EEC30F00F6A7F0E0E6E106E8FEC2EF0BF
:102E10005EEC30F00F6A800E0E6EFF0E10688FECC5
:102E20002EF05EEC30F00F6A810E0E6E7F0E106E8B
:102E30008FEC2EF05EEC30F00F6A820E0E6EFF0EFD
:102E400010688FEC2EF05EEC30F00F6A830E0E6E81
:102E50007F0E106E8FEC2EF05EEC30F00F6A840E59
:102E60000E6EFF0E10688FEC2EF05EEC30F00F6AE5
:102E7000850E0E6E7F0E106E8FEC2EF05EEC30F035
:102E80000F6A860E0E6EFF0E10688FEC2EF05EEC51
:102E900030F00F6A870E0E6E7F0E106E8FEC2EF0E4
:102EA0005EEC30F00F6A880E0E6EFF0E10688FEC2D
:102EB0002EF05EEC30F00F6A890E0E6E7F0E106EF3
:102EC0008FEC2EF05EEC30F00F6A8A0E0E6EFF0E65
:102ED00010688FEC2EF05EEC30F00F6A8B0E0E6EE9
:102EE000800E106E8FEC2EF05EEC30F00F6A8C0EC0
:102EF0000E6E000E106A8FEC2EF05EEC30F00F6A52
:102F00008D0E0E6E800E106E8FEC2EF05EEC30F09B
:102F10000F6A8E0E0E6E000E106A8FEC2EF05EECB5
:102F200030F00F6A8F0E0E6E800E106E8FEC2EF04A
:102F30005EEC30F00F6A900E0E6E000E106A8FEC91
:102F40002EF05EEC30F00F6A910E0E6E800E106E59
:102F50008FEC2EF05EEC30F00F6A920E0E6E000ECB
:102F6000106A8FEC2EF05EEC30F00F6A930E0E6E4E
:102F7000800E106E8FEC2EF05EEC30F00F6A940E27
:102F80000E6E000E106A8FEC2EF05EEC30F00F6AC1
:102F9000950E0E6E800E106E8FEC2EF05EEC30F003
:102FA0000F6A960E0E6E000E106A8FEC2EF05EEC1D
:102FB00030F00F6A970E0E6E020E106E8FEC2EF030
:102FC0005EEC30F00F6A980E0E6E020E106E8FECF3
:102FD0002EF05EEC30F00F6A990E0E6E020E106E3F
:102FE0008FEC2EF05EEC30F00F6A9A0E0E6E020E31
:102FF000106E8FEC2EF05EEC30F00F6A9B0E0E6EB2
:10300000020E106E8FEC2EF05EEC30F00F6A9C0E0C
:103010000E6E020E106E8FEC2EF05EEC30F00F6A2A
:10302000F20E0E6EC30E106E8FEC2EF05EEC30F0D2
:103030000F6AF30E0E6E500E106E8FEC2EF05EECDB
:1030400030F00F6A9E0E0E6E000E106A8FEC2EF09E
:103050005EEC30F00F6A9F0E0E6E000E106A8FEC61
:103060002EF05EEC30F00F6AA00E0E6E000E106AAD
:103070008FEC2EF05EEC30F00F6AA10E0E6E000E9B
:10308000106A8FEC2EF05EEC30F00F6AA20E0E6E1E
:10309000000E106A8FEC2EF05EEC30F00F6AA30E7B
:1030A0000E6E000E106A8FEC2EF05EEC30F00F6AA0
:1030B000A40E0E6E000E106A8FEC2EF05EEC30F057
:1030C0000F6AA50E0E6E000E106A8FEC2EF05EECED
:1030D00030F00F6AA60E0E6E000E106A8FEC2EF006
:1030E0005EEC30F00F6AA70E0E6E000E106A8FECC9
:1030F0002EF05EEC30F00F6AA80E0E6E000E106A15
:103100008FEC2EF05EEC30F00F6AA90E0E6E106A96
:103110008FEF2EF06951681101E134D364D36FEC65
:1031200030F061D3A9EC2EF05ED34DEC2FF05BD3E1
:1031300040EC2EF058D366510F0B020A01E053D336
:103140000001C851010121EE6CF0DF624CD3800E0A
:103150006D6112D06D5101EC11F00001D16F6DC1A4
:10316000D0F0030ECB6F820ECA6FCC6BCD6B0A0E04
:10317000CE6FC1EC2EF037D36D5130EC20F0EDD78F
:1031800066510F0B030A01E02ED30001C851010163
:1031900021EE6CF0DF6227D3800E6D6106D06EC128
:1031A00021F06D51B7EC05F0D8D76EC119F06D5113
:1031B000E9EC24F0D2D70001C851010121EE6CF0F6
:1031C000DF6211D3000E1CEC30F001016E1901E03A
:1031D0000AD3030E1CEC30F001016F1901E003D398
:1031E000050E1CEC30F00101701901E0FCD2070E55
:1031F0001CEC30F00101711901E0F5D24750721951
:1032000001E0F1D2465021EE73F0DF62ECD26D5155
:1032100070EC2FF0E8D2000E1CEC30F001016D19BB
:1032200074E1010E1CEC30F001016E196EE1020E2A
:103230001CEC30F001016F1968E1030E1CEC30F05A
:103240000101701962E14C8860D0040E1CEC30F072
:1032500001016D195AE1050E1CEC30F001016E19E7
:1032600054E1060E1CEC30F001016F194EE1070E1F
:103270001CEC30F00101701948E14C8A46D0080E70
:103280001CEC30F001016D1940E1090E1CEC30F02E
:1032900001016E193AE10A0E1CEC30F001016F19C0
:1032A00034E10B0E1CEC30F0010170192EE14C8C56
:1032B0002CD00C0E1CEC30F001016D1926E10D0E26
:1032C0001CEC30F001016E1920E10E0E1CEC30F008
:1032D00001016F191AE10F0E1CEC30F00101701999
:1032E00014E14C8E12D04C6A10D06C390F0B0001D7
:1032F0007F6F806B8051F7E17F518DE0010AA5E07F
:10330000030ABDE0010AD5E0EED74C50F00BF00AFD
:1033100001E069D2D1EC2BF066D20001C851010165
:1033200021EE6CF0DF625FD200018B6B6DC18AF021
:103330006EC18DF0996B4AD08A519925CBEC2FF054
:1033400000017F6F070E0E6E9951EEEC2EF000011A
:10335000806F8051D10FD96EDA6A7FC0DFFF070E10
:103360000E6E9951EEEC2EF0060A0BE0FF0E0001F6
:103370008D257F6F806BFF0E802399517F198011FF
:1033800024E1070E0E6E00019951EEEC2EF0060AB4
:1033900003E1070E000109D0070E0E6E00019951DE
:1033A000EEEC2EF000017F6F7F298C6F8C51810F26
:1033B000CA6F070ECB6FCC6BCD6B1A0ECE6F8BC066
:1033C000D0F0C1EC2EF000018B2B992B8D51995D23
:1033D00001E309D2B1D70001C851010121EE6CF01F
:1033E000DF6201D26DC18EF06651FE0F070B000146
:1033F0008F6F946B1BD06E0E00019425D96EDA6A24
:10340000010EDA22DF50256E8E5194255FEC2FF0ED
:1034100000018E519425CBEC2FF000017F6F945169
:10342000D10FD96EDA6A7FC0DFFF942B8F51945D84
:10343000E2E3070ECB6FCC6BCD6B1A0ECE6FD06B69
:103440008F51810FCA6F95D60001C851010121EE3D
:103450006CF0DF62C8D16D5101EC11F000017F6F9B
:103460007F29216E01016D51B7EC05F076D6000180
:10347000C851010121EE6CF0DF62B5D16D5101EC54
:1034800011F000017F6F7F05216E01016D51B7ECD6
:1034900005F063D66C510001C81904E001016C29E4
:1034A00001E0A1D10001936B030ECB6F880ECA6FB0
:1034B000CC6BCD6B200ECE6F986B98C0D0F0010E08
:1034C0009A6F9A51D00FD96EDA6A93510F081CEC9B
:1034D00030F0DF6E0001932B100E936501D004D005
:1034E0009A2B070E9A65EDD7100E936501D007D081
:1034F000C1EC2EF00001982B020E9865DED79A6B76
:103500009A51E5EC2FF0000909E000019A51D30F20
:10351000D96EDA6A9A51E5EC2FF006D000019A5183
:10352000D30FD96EDA6A000EDF6E00019A2B040EFB
:103530009A65E6D7C1EC2EF0050E0001936F030EDD
:10354000986F98C0D0F0010E9A6F9A51D00FD96E33
:10355000DA6A9351E5EC2FF0DF6E0001932B9A2B82
:10356000070E9A65F2D7C1EC2EF00001982B060EDB
:103570009865E7D738D10001C851010121EE6CF000
:10358000DF6231D1030E0001CB6F870ECA6FCC6BA7
:10359000CD6B220ECE6FD00ED8EC2FF0EAD5000105
:1035A000C851010121EE6CF0DF621DD10001956B65
:1035B00066C17FF00F0E7F17040E7F5D12E370C1AE
:1035C00096F0976B9751961103E1010E976F966BEA
:1035D000010E965D010E975907E3010E976F000EDD
:1035E00002D0976B010E966F46C086F047C087F0F9
:1035F00001016E516DC17FF00001806B7FC080F0D2
:103600007F6B7F11466E8051476E070ECB6FCC6B80
:10361000CD6B270ECE6FD06B6DC1D1F06EC1D2F0E5
:103620009551965D7F6F000E9759806F040E7F5DF8
:10363000000E805902E3040E02D09551965D906F02
:103640009051840FCA6F01016F5100019525D36F0E
:10365000916B10D001016F51000195259125CBECA4
:103660002FF000017F6F9151D40FD96EDA6A7FC0BD
:10367000DFFF912B9051915DEDE3C1EC2EF0000145
:1036800090519527D02B95517F6F806B96517F5D20
:1036900097518059C5E386C046F087C047F0A3D054
:1036A0000001C851010121EE6CF0DF629CD046C0E0
:1036B00088F047C089F06E516DC17FF00001806BCA
:1036C0007FC080F07F6B7F11466E8051476E6FC167
:1036D00092F022D0700E7F6F010E806F92517F2783
:1036E000000E802301016F5100017F5DD96E805172
:1036F000D8A08005DA6EDF50256E92515FEC2FF076
:103700000001816F01016F510001D4089225D96E2B
:10371000DA6A81C0DFFF922B010166510F0B0001B5
:103720007F6F806B01016F5100017F27000E8023A6
:10373000FC0E7F25816FFF0E8021826F9251836F77
:10374000846B8451800A856F8151835D8251800A28
:103750008559C0E388C046F089C047F0070ECB6F9B
:10376000010166510F0B800F0001CA6FCC6BCD6B4E
:10377000270ECE6FD06B6DC1D1F06EC1D2F06FC18C
:10378000D3F0F7D46A51010A01E1C9D4030A01E177
:10379000C9D4040A01E1C9D40E0A01E1C9D4010A5D
:1037A00001E1C9D4020A01E1EBD4070A01E103D522
:1037B0001B0A01E19AD50F0A01E1AFD5010A01E127
:1037C0000AD6040A01E140D6030A01E150D6010AF3
:1037D00001E160D63E0A01E1CED6040A01E1DFD65E
:1037E000030A01E15DD71200176AF30E166E26EC8C
:1037F00030F00001AD6F176AF20E166E26EC30F055
:10380000196E0001AD51186ED9EC2EF01BC063F09B
:103810001AC062F019C061F018C060F00001646B5A
:10382000400E656F1C0E666F460E676F34EC28F015
:1038300063C097F162C096F161C095F160C094F1E8
:103840000101A76BA7C1ADF0010E0001AE6FAD2B5A
:1038500002D0D890AE37AD2FFCD7AE51C11501E1E3
:10386000FBD101019F6BA06BA16BA26B9E6B010E44
:103870002E6E9F0E2D6ED890A7350001AD6FAE6BEA
:10388000AE3701019E510C0DA90EF3240001AF6F5C
:10389000010EF420B06FAD51AF25D96EAE51B021FD
:1038A000DA6EDF50B16FD8900101A7350001B26F19
:1038B000B36BB33701019E510C0DA80EF324000128
:1038C000B46F010EF420B56FB251B425D96EB35167
:1038D000B521DA6EDF50196EB151186ED9EC2EF0A9
:1038E0001BC032F01AC031F019C030F018C02FF0F0
:1038F00095EC2CF001019E2B4F0E9E65B8D7010E62
:103900000001696F9F0E686F6A6B6B6BA00E6C6F26
:10391000420E6D6F23EC2CF00101A751020D500EE9
:10392000F324166E000EF420176E26EC30F0000122
:10393000AD6F0101A751020D4F0EF324166E000E5C
:10394000F420176E26EC30F00101996F0001AD51A3
:103950000101986F330E0001646F130E656F950EB1
:10396000666FC30E676F98C118F099C119F0D9EC52
:103970002EF01BC063F01AC062F019C061F018C0CD
:1039800060F034EC28F063C07BF162C07AF161C072
:1039900079F160C078F178C1A2F079C1A3F07AC161
:1039A000A4F07BC1A5F03DEC1FF0A5C07FF1A4C041
:1039B0007EF1A3C07DF1A2C07CF17CC168F07DC125
:1039C00069F07EC16AF07FC16BF000016C6B400E44
:1039D0006D6F1C0E6E6F460E6F6FF1EC25F06BC0B5
:1039E00077F16AC076F169C075F168C074F19FC162
:1039F0006CF0A0C16DF0A1C16EF0A2C16FF094C1D6
:103A000068F095C169F096C16AF097C16BF0F1EC6E
:103A100025F06BC063F06AC062F069C061F068C0F5
:103A200060F00001646B656B800E666F440E676F1B
:103A300034EC28F063C093F162C092F161C091F15F
:103A400060C090F100016C6B400E6D6F1C0E6E6FCC
:103A5000460E6F6F90C131F091C132F092C133F0D8
:103A600093C134F094C12DF095C12EF096C12FF082
:103A700097C130F0E9EC2DF030C06BF02FC06AF048
:103A80002EC069F02DC068F0F1EC25F06BC063F03A
:103A90006AC062F069C061F068C060F090C164F013
:103AA00091C165F092C166F093C167F034EC28F0E3
:103AB00063C09DF162C09CF161C09BF160C09AF14E
:103AC00074C164F075C165F076C166F077C167F0C6
:103AD0009AC160F09BC161F09CC162F09DC163F02E
:103AE00034EC28F063C08CF062C08BF061C08AF0C7
:103AF00060C089F0C5EC23F08CC083F18BC082F1EB
:103B00008AC081F189C080F198C118F099C119F07B
:103B1000D9EC2EF01BC063F01AC062F019C061F03E
:103B200018C060F080C164F081C165F082C166F0A8
:103B300083C167F034EC28F063C0A6F162C0A5F140
:103B400061C0A4F160C0A3F10101010E366EA30EA5
:103B5000356E330E376E930E386E880E396E430E07
:103B60003A6EBAEC2CF00101A751020D000EF324BD
:103B7000D96E010EF420DA6EDECFADF0DDCFAEF0FF
:103B8000ADC0AFF0AEC0B0F0000E0001B0BFFF0E90
:103B9000B16FB26F0101A7518DEC2DF018C0B3F0D9
:103BA00019C0B4F0000E0001B4BFFF0EB56FB66FC0
:103BB0006C6B6D6BC80E6E6F420E6F6FA3C168F0B9
:103BC000A4C169F0A5C16AF0A6C16BF0F1EC25F0C3
:103BD0006BC081F06AC080F069C07FF068C07EF081
:103BE00036EC29F0B3517E25B76FB4517F21B86F01
:103BF000B5518021B96FB6518121BA6FAF51B72548
:103C0000866FB051B821876FB151B921886FB25119
:103C1000BA21896F020E8A6F000E8B6B8C6B8D6BD5
:103C20007BEC27F00101A751020D000EF324D96EA1
:103C3000010EF420DA6E000186C0DEFF87C0DDFFD2
:103C4000A7C1ADF0010EAE6FAD2B02D0D890AE374C
:103C5000AD2FFCD7AE1DC1170101A72B050EA7651F
:103C6000F1D5050CE8CF1CF0486A7750C00B1E6EEA
:103C70001E6632D060AE12D0A49074AE06D0195039
:103C8000D96EDA6A000EDB86749E60A002D048808E
:103C900001D048900F0E216E600E1AD00F0150AF68
:103CA00019D0A49274AC06D01950D96EDA6A000EFD
:103CB000DB86749C5051070B486E020E486005D09D
:103CC0001950D96EDA6A000EDB8E0F0E216E500E7F
:103CD000206E65D0000ED0D01E50400A46E160AE86
:103CE00004D00F0E216E600E3ED00F0150AF04D0F5
:103CF0000F0E216E500E37D00D01F8B507D00E0112
:103D000020AF04D00E0E216E200E2DD00D01F8B77D
:103D100007D00E0130AF04D00E0E216E300E23D02E
:103D20000D01F8B907D00E0140AF04D00E0E216E80
:103D3000400E19D00D01F8BB05D00E0150AF02D0D6
:103D40000E0ED7D70D01F8BD05D00E0160AF02D021
:103D50000E0EC8D70D01F8BFBDD70E0170AFBAD790
:103D60000E0E216E700E206E0AD074AEB3D76F5057
:103D7000070B68EC2BF00EC020F00FC021F020C024
:103D8000D9FF21C0DAFFDF501F0B486EA49274AC3C
:103D900006D01950D96EDA6A000EDB86749C20C0FA
:103DA0001AF021C01BF01950D96EDA6ADF6A20EED2
:103DB00005F02050D9262150DA22DF501F6E1F5007
:103DC0000F0B17C0D9FF18C0DAFFDF6E1FAC05D08C
:103DD0001950D96EDA6A000EDB8C20EE02F020500A
:103DE000D9262150DA22DF501F6E1FA608D01950A5
:103DF000D96EDA6A000EDB8A010E1F6E01D01F6ACF
:103E000020280E6E000E21200F6E1CC010F01FC067
:103E100011F0BBEC21F0060E2026000E212217C067
:103E2000D9FF18C0DAFFDF501F6E1D6A0FD020C007
:103E3000D9FF21C0DAFF15C0E1FF16C0E2FFDFCFD6
:103E4000E7FF204A212A154A162A1D2A1F501D5C09
:103E5000EEE3A4AE06D01950D96EDA6A000EDB8804
:103E6000A49E1AC0D9FF1BC0DAFF7F0EDF161E50BA
:103E7000800AD8B4749E010E1200000120EEA2F058
:103E8000DE50DE10DE10DE1007E1000EA26FA36F21
:103E9000800EA46F3F0E18D0180E0E6E720E0F6EAD
:103EA000310E106E440E116EA2C012F0A3C013F0BA
:103EB000A4C014F0A5C015F049EC2CF007E20001F5
:103EC000A269A3697F0EA46FA56FC9D0A2C00EF02E
:103ED000A3C00FF0A4C010F0A5C011F0870E126EA1
:103EE000480E136E3A0E146EC40E156E49EC2CF08B
:103EF00002E200018ED00001010EA5AF000EAC6FF2
:103F0000AC5112E0A2C00EF0A3C00FF0A4C010F09C
:103F1000A5C011F03BEC2FF011C0A5F010C0A4F02B
:103F20000FC0A3F00EC0A2F03B0E7E6FAA0E7F6FF3
:103F3000B80E806F3F0E816FA20E6FEC2CF0A2C006
:103F400098F0A3C099F0A4C09AF0A5C09BF073ECC0
:103F500025F09BC0A9F09AC0A8F099C0A7F098C01E
:103F6000A6F0A6C07EF0A7C07FF0A8C080F0A9C0D0
:103F700081F036EC29F07EC0AAF07FC0ABF0000ED5
:103F8000366EA20E356EAAC018F0ABC019F023EC45
:103F90002EF01BC03AF01AC039F019C038F018C022
:103FA00037F0BAEC2CF0A2C07EF0A3C07FF0A4C022
:103FB00080F0A5C081F0200E0001826F846B090E95
:103FC000836F5CEC26F081C08CF080C08BF07FC0EA
:103FD0008AF07EC089F0AAC08DF0ABC08EF0E4EC10
:103FE00028F08CC0A5F08BC0A4F08AC0A3F089C0D3
:103FF000A2F0AC512CE020EEA2F0FF0EDE18FF0E76
:10400000D8B4DE187F0ED8B4DE187F0ED8B4DE1810
:1040100005E1A26BA36BA46BA56B21D0606B616BF8
:10402000800E626F3F0E636FA2C064F0A3C065F0A4
:10403000A4C066F0A5C067F034EC28F063C0A5F01A
:1040400062C0A4F061C0A3F060C0A2F008D0A2C01A
:10405000A2F0A3C0A3F0A4C0A4F0A5C0A5F01200D4
:10406000E8CF29F0286A2950800A04E14AC028F0E4
:104070004A6ACCD02950810A02E1010E82D029502F
:10408000820A02E1060E7DD02950830A03E14BC06B
:1040900028F0BCD02950940A03E16EEC30F071D0C6
:1040A0002950950A03E16DEC30F06BD02950960A47
:1040B00003E16CEC30F065D0890E296005D0295001
:1040C0007C0F12EC30F05DD0880E296408D0910E80
:1040D000296005D02950770F08EC30F052D02950D4
:1040E000910A03E1C8C028F091D02950930A03E156
:1040F00046C028F08BD02950920A02E1475041D0A7
:104100002950970A03E16BEC30F03BD02950980A14
:1041100003E16AEC30F035D02950990A03E169ECEB
:1041200030F02FD0990E29642ED09E0E29602BD00E
:1041300050EC30F011C021F010C020F00FC01FF083
:104140000EC01EF02950660F266E26500308196E09
:10415000D8901936D8901936D890193619501EC0F3
:104160001AF01FC01BF020C01CF021C01DF0E82A6F
:1041700005D0D8901D321C321B321A32E82EF9D7E6
:1041800030D0286E43D09D0E29642DD0A20E296018
:104190002AD04BEC30F011C025F010C024F00FC035
:1041A00023F00EC022F02950620F276E275003081B
:1041B000196ED8901936D8901936D89019361950EA
:1041C00022C01AF023C01BF024C01CF025C01DF033
:1041D000E82A05D0D8901D321C321B321A32E82E44
:1041E000F9D71A50CED7CF0E296408D0E00E296037
:1041F00005D02950300F1CEC30F0C3D7DF0E2964F6
:1042000005D02950200FE5EC2FF0BBD72850120025
:104210000F0E216E400E206E0F0E236E300E226E9A
:104220000F0E256E200E246E0E0E276E200E266EAB
:104230000E0E296E300E286E0E0E2B6E400E2A6E5C
:104240000E0E2D6E500E2C6E0E0E2F6E600E2E6EFC
:104250000E0E316E700E306E7750C00B326E3266BD
:1042600002D0020E01D0080E336E0D01D890F83145
:10427000356E396A7BD03950020DF350200FD96E5C
:10428000DA6ADECF3AF0DDCF3BF03AC036F03BC021
:1042900037F0020E396404D0D890353235A065D09D
:1042A0003AC0D9FF3BC0DAFFDF501F6E1FB65DD0AA
:1042B0003AC0D9FF3BC0DAFFFC0EDF161EC01FF06C
:1042C000030E1F163AC0D9FF3BC0DAFF1F50DF12A2
:1042D0001EAC04D01D504009386E02D01DC038F00D
:1042E00020EE05F03A50D9263B50DA2238C0DFFFE5
:1042F0001EAA03D0010E386E01D0386A3A280E6E1D
:10430000000E3B200F6E18C010F019C011F01AC03B
:1043100012F01BC013F038C014F01DEC23F0060E91
:104320003A26000E3B22346A0DD01C50D96EDA6A50
:104330003AC0E1FF3BC0E2FFDFCFE7FF1C2A3A4A69
:104340003B2A342A1D50345CF0E336C0D9FF37C015
:10435000DAFFDF501F6E1FB406D036C0D9FF37C05A
:10436000DAFF000EDB86010E05D0392A3350395CA6
:1043700082E3000E120010C014F0116646D01450F3
:10438000D96EDA6A0EC0E1FF0FC0E2FFE750126E8D
:10439000D8901236D8901236D8901234DF6E14505E
:1043A000D96EDA6AD92ADA6A0EC0E1FF0FC0E2FFDD
:1043B000E750126E050E136ED8901232132EFCD7F2
:1043C0001250DF6E0E4A0F2A0EC0D9FF0FC0DAFF5F
:1043D000DF50126E050E136ED8901232132EFCD7DA
:1043E0001450D96EDA6A1250DF121450D96EDA6A9C
:1043F000020ED926DA6ADF6A1450D96EDA6A030E21
:10440000D926DA6A000EDF6E67D01450D96EDA6AE8
:10441000020ED926DA6A0EC0E1FF0FC0E2FFE750B4
:10442000126E050E136ED8901236132EFCD7125052
:10443000DF6E1450D96EDA6A030ED926DA6A0EC01E
:10444000E1FF0FC0E2FFE750126ED8901232D89011
:104450001232D8901230DF6E0E4A0F2A0EC0D9FFEA
:104460000FC0DAFFDF50126E030E12161450D96E11
:10447000DA6A020ED926DA6A1250DF120EC0D9FFAC
:104480000FC0DAFFDF50126ED8901232D89012327D
:10449000D89012321C0E12161450D96EDA6A020E1F
:1044A000D926DA6A1250DF120E4A0F2A0EC0D9FF3F
:1044B0000FC0DAFF1450E16EE26AE12AE26ADFCF50
:1044C000E7FF0E4A0F2A0EC0D9FF0FC0DAFF1450C3
:1044D000E16EE26ADFCFE7FF1200203421342C6E58
:1044E000243425342B6E2C5009E02B502C600FD037
:1044F0002C502B5C266E210E265C09E322C01EF098
:1045000023C01FF024C020F025C021F095D02B50EF
:1045100009E02C502B600FD02B502C5C266E210E06
:10452000265C09E31EC01EF01FC01FF020C020F053
:1045300021C021F081D0060E2A6E21BE2A8E25BE12
:104540002A8C208E216A248E256A2B502C6018D04C
:10455000D89022362336243625362B062B502C189D
:104560000BE02A062A50070B07E0F2D7D890213239
:1045700020321F321E322C2A2B502C62F7D71AD031
:104580002C502B6017D0D8901E361F36203621367F
:104590002C062B502C180BE02A062A50070B07E09C
:1045A000F2D7D89025322432233222322B2A2B50B4
:1045B0002C62F7D72AAE09D01E1E1F1E201E211EF8
:1045C0001E2A000E1F22202221222AAC09D0221EE0
:1045D000231E241E251E222A000E232224222522E9
:1045E0002A6A1E5022261F502322205024222150A6
:1045F000252225AE0BD0221E231E241E251E222A74
:10460000000E232224222522010E2A6E22C00EF043
:1046100023C00FF024C010F025C011F02CC012F000
:104620002AC013F0BCEC26F011C021F010C020F01D
:104630000FC01FF00EC01EF01200100E176E146691
:1046400037D01750D96EDA6ADF50156ED890153210
:10465000D8901532D89015300EC0D9FF0FC0DAFFB0
:10466000DF6E1750D96EDA6AD92ADA6ADF50156E12
:10467000050E166ED8901536162EFCD70EC0D9FF33
:104680000FC0DAFF1550DF120E4A0F2A1750D96EED
:10469000DA6ADF50156E050E166ED8901536162E96
:1046A000FCD715500EC0D9FF0FC0DAFFDF6E6CD0FB
:1046B0001750D96EDA6A020ED926DA6ADF50156E03
:1046C000050E166ED8901532162EFCD715500EC05A
:1046D000D9FF0FC0DAFFDF6E1750D96EDA6A030E0A
:1046E000D926DA6ADF50156ED8901536D89015366F
:1046F000D89015360EC0D9FF0FC0DAFF1550DF1263
:104700000E4A0F2A1750D96EDA6A020ED926DA6AD3
:10471000DF50156ED8901536D8901536D8901534D0
:10472000E00B0EC0D9FF0FC0DAFFDF6E0EC0D9FF5D
:104730000FC0DAFF000EDB861750D96EDA6A020E60
:10474000D926DA6ADF50156E030E15160EC0D9FF92
:104750000FC0DAFF1550DF120E4A0F2A1750D96E1C
:10476000DA6AD92ADA6A0EC0E1FF0FC0E2FFDFCFB2
:10477000E7FF0E4A0F2A1750D96EDA6A0EC0E1FF22
:104780000FC0E2FFDFCFE7FF120000018CBF07D0B0
:1047900020EE89F0DE50DE10DE10DE1005E1896BC0
:1047A0008A6B8B6B8C6B87D06C6B6D6B6E6B400EFA
:1047B0006F6F440E126E000E136E0F0E136E5F0EAF
:1047C0001264136A89C00EF08AC00FF08BC010F01B
:1047D0008CC011F066EC2AF011C06BF010C06AF0CA
:1047E0000FC069F00EC068F0F1EC25F06BC021F04D
:1047F0006AC020F069C01FF068C01EF0226A236AF8
:10480000800E246EBF0E256E6DEC22F021C08CF060
:1048100020C08BF01FC08AF01EC089F04406D8A0CB
:10482000450689C07EF08AC07FF08BC080F08CC0C6
:1048300081F0480E0001826F846B080E836F5CEC80
:1048400026F081C08CF080C08BF07FC08AF07EC0E3
:1048500089F0180E6C6F720E6D6F310E6E6F3F0E19
:104860006F6F44C018F045C019F023EC2EF01BC048
:104870006BF01AC06AF019C069F018C068F0F1EC6A
:1048800025F06BC021F06AC020F069C01FF068C03D
:104890001EF089C022F08AC023F08BC024F08CC0A7
:1048A00025F06DEC22F021C08CF020C08BF01FC0F1
:1048B0008AF01EC089F01200CBEC2DF0ACEC2DF08C
:1048C0000009D8B4D2EC14F0D1EC2BF00400FA0EAD
:1048D0000001C6650ED0C9050CE0C8695EEC30F079
:1048E0000F6A010E0E6EFF0E10688FEC2EF0D1ECE9
:1048F0002BF00101666B4AEC2DF025D0C82903E1AD
:10490000010EC96F2CD0030EC96F91EC2FF027D088
:104910001CEC27F024D0010166AF21D06951681149
:1049200003E18AEC18F01BD068511E0A691117E1E7
:104930006A511A0A14E122EC2AF011D061EC30F02D
:104940000ED0C96B0CD00001C951D8E0010AE0E0DB
:10495000030ADBE0010ADFE0070AF0E0F2D7E90E24
:104960000101125D030E1359000E1459000E155962
:10497000ADE3126B136B146B156B08EC0DF0C42BCD
:10498000C951030A1AE1BB6BBC6BBD6BBE6B0C0E4D
:104990000001BB25D96E010EBC21DA6EDF2ABB2BCC
:1049A000000EBC23BD23BE23060EBB5D000EBC590A
:1049B000000EBD59000EBE59EAE33C0EC46501D09D
:1049C000C46BC951030AD8B4FCEC2BF0F4EC1BF017
:1049D0007DD7E8CF1FF0191C1E6E1F50830A02E11D
:1049E0004B6A7ED0830E1F640ED0890E1F600BD0E1
:1049F00019C012F01F507C0FBDEC2FF01F507C0F20
:104A000012EC30F06BD01F50920A0DE119501B6E62
:104A10001A6A46501C6E1D6A1A10466E1B501D10F5
:104A2000476E47505BD01F50930A0BE11A6A4750FC
:104A30001B6E19501A10466E1B50476E46C01EF072
:104A400050D0880E1F6419D0910E1F6016D047C039
:104A50001AF01AC01BF01C6A1B2802E1462802E06B
:104A6000191C3CD019C012F01F50770FAFEC2FF07B
:104A70001F50770F08EC30F031D0CF0E1F6417D0E5
:104A8000E00E1F6014D047C01AF01AC01BF01C6A59
:104A90001B28E6E14628E4E119C012F01F50300F50
:104AA00015EC2FF01F50300F1CEC30F017D01F50BA
:104AB000A20AD6E11950550A05E101011C6B1D6BD4
:104AC000550E0CD01950AA0A0CE1E80E01011C5D2C
:104AD000030E1D5905E25AEC30F0AA0E1E6E01D0ED
:104AE0001E6A1E50120098C00EF099C00FF09AC0B6
:104AF00010F09BC011F0000E136EA00E126E66EC4B
:104B00002AF0A1AF0FD09BAF08D0000E986F996F1D
:104B1000800E9A6FBF0E9B6F63D0986B996B9A6BE8
:104B20009B6B5ED01D0EA05D000EA15909E398C0DD
:104B300098F099C099F09AC09AF09BC09BF050D021
:104B400098C07EF099C07FF09AC080F09BC081F041
:104B500036EC29F081C097F080C096F07FC095F0C8
:104B60007EC094F0DFEC2CF097C09FF096C09EF0D2
:104B700095C09DF094C09CF098C00EF099C00FF0C5
:104B80009AC010F09BC011F09CC012F09DC013F0B1
:104B90009EC014F09FC015F049EC2CF019E29CC0A7
:104BA0001EF09DC01FF09EC020F09FC021F0226A21
:104BB000236A800E246EBF0E256E6DEC22F021C09C
:104BC0009BF020C09AF01FC099F01EC098F008D04A
:104BD0009CC098F09DC099F09EC09AF09FC09BF039
:104BE000120000016A356B35776F776701D006D008
:104BF00000016E356F357D6F7D6705D0686B696B21
:104C00006A6B6B6B58D07D517B0F77276BC07DF043
:104C100000016F517D1B800E7D176A8F6E8F000E15
:104C20006F17786B796B7A6B7B6B070E7C6F68A163
:104C300008D06C5178276D5179236E517A236F51CA
:104C40007B23D8906B336A3369336833D8906C37E1
:104C50006D376E376F377C2FEAD7110E7C6F68A1E6
:104C600008D06C5178276D5179236E517A236F519A
:104C70007B23D8906B336A3369336833D8907B33A6
:104C80007A33793378337C2FEAD778C00EF079C045
:104C90000FF07AC010F07BC011F077C012F07DC029
:104CA00013F0BCEC26F011C06BF010C06AF00FC01E
:104CB00069F00EC068F012008351040D8251F32494
:104CC000436E43C0F6FF0B0EF76E0900F5CF85F07B
:104CD0000900F5CF86F00900F5CF87F00A00F5CF7F
:104CE00088F03DD085C06CF086C06DF087C06EF056
:104CF00088C06FF07EC068F07FC069F080C06AF045
:104D000081C06BF0F1EC25F06BC021F06AC020F09F
:104D100069C01FF068C01EF000018307D8A0840797
:104D20008351040D8251F324436E43C0F6FF0B0EF2
:104D3000F76E0900F5CF22F00900F5CF23F0090046
:104D4000F5CF24F00A00F5CF25F06DEC22F021C05C
:104D500088F020C087F01FC086F01EC085F00001DB
:104D600084518311BFE185C07EF086C07FF087C08B
:104D700080F088C081F01200125005E011500E1032
:104D80000F1010100BE10E6A0F6A106A116A53D0EF
:104D9000122AD890113210320F320E32146A156A6C
:104DA000166AFE0E1114176E1750141015101610F7
:104DB0000CE0EED7122A0E2A000E0F22102211222A
:104DC000D890113210320F320E32146A156A166AF8
:104DD0001150176E175014101510161007E0EAD76F
:104DE0001206D8900E360F361036113610AEF8D7A0
:104DF00012B002D07F0E1016D890123212C014F0EA
:104E0000156A166A176A14C017F0166A156A146ACA
:104E100014500E1215500F12165010121750111276
:104E20001350D8A4118E0EC00EF00FC00FF010C09A
:104E300010F011C011F0120055D04F2812E0810E71
:104E40000001CA6FCB6BCC6BCD6B020ECE6F4FC027
:104E5000D0F0C1EC2EF0010E4E6E0001BF6BC06BA6
:104E600047D0040E0001C96F810ECA6FD069070ECA
:104E7000CB6FCC6BCD6B030ECE6FC1EC2EF038D068
:104E8000010166AF10D06951681132E16A51030A1D
:104E90002FE14F6604D0020E0001C96FDED74F2A02
:104EA0004E6A506A25D0E90E0001BF5D030EC0595D
:104EB0001FE3502A020E506413D04F6605D04F2ACC
:104EC0004E6ABF6BC06BEDD74FC0C8F0030EC96F01
:104ED0004E6AC851FDEC2FF0506A91EC2FF008D0CB
:104EE0004E6A06D04E50A9E0010ACAE0030AF8E172
:104EF0000101666B12008F6B8DAF0AD08D1F8C1F66
:104F00008B1F8A6D000E8B238C238D23010E8F6FD8
:104F100089AF0AD0891F881F871F866D000E8723DF
:104F200088238923010E8F1B906B916B926B936B7F
:104F30008D518A118B118C1129E0010E8E6F06D0D4
:104F4000D8908A378B378C378D378E2B8DAFF8D72B
:104F5000D89090379137923793378A51865D8B512D
:104F600087598C5188598D51895909E38A51865F37
:104F70008B51875B8C51885B8D51895B9081D89078
:104F80008D338C338B338A338E2FE2D78F5108E0E9
:104F9000931F921F911F906D000E912392239323D4
:104FA00090C086F091C087F092C088F093C089F0DD
:104FB000120062C067F0686B696B6A6B69C06AF067
:104FC00068C069F067C068F0676B60516B6F6151D2
:104FD0006C6F6D6B6E6B6CC06EF06BC06DF06C6B5C
:104FE0006B6B64C06FF0706B716B726B1A0ED89044
:104FF0006F37703771377237E82EF9D76B516F11F1
:10500000736F6C517011746F6D517111756F6E51BA
:105010007211766F67517311776F68517411786FE1
:1050200069517511796F6A5176117A6F63517711F1
:105030007B6F78517C6F79517D6F7A517E6F7BC029
:105040003CF07CC03DF07DC03EF07EC03FF065C0CE
:1050500040F066C041F003EC2DF0000903E14B2A5B
:10506000000E01D0010E1200000162356335416E61
:10507000416601D006D0000166356735426E426652
:1050800006D00001606B616B626B636B44D0425071
:10509000890F415E63C042F000016751421A800EE1
:1050A0004216628F636B668F676B200E406ED890DE
:1050B0003C363D363E363F366451605D6551615940
:1050C000665162596751635909E36451605F6551E4
:1050D000615B6651625B6751635B3C80D89060376F
:1050E000613762376337402EE2D73CC00EF03DC0D7
:1050F0000FF03EC010F03FC011F041C012F042C0AE
:1051000013F0BCEC26F011C063F010C062F00FC0C9
:1051100061F00EC060F01200886719D086C018F0E8
:1051200087C019F023EC2EF01BC030F01AC02FF00E
:1051300019C02EF018C02DF05BEC2EF030C08CF0B2
:105140002FC08BF02EC08AF02DC089F02AD0885154
:10515000020A19E186C018F087C019F023EC2EF07E
:105160001BC081F01AC080F019C07FF018C07EF01B
:105170002DEC2BF081C08CF080C08BF07FC08AF0CA
:105180007EC089F00ED086C018F087C019F023ECDD
:105190002EF01BC08CF01AC08BF019C08AF018C01A
:1051A00089F089C07EF08AC07FF08BC080F08CC00F
:1051B00081F036EC29F07EC08DF07FC08EF08E51EC
:1051C000D26F8DC0D3F0120020EE89F0DE50DE10D9
:1051D000DE10DE1014E08C517F0B8F6FD8908F356E
:1051E000906F916B913790518D2791518E238B3514
:1051F000E836010B8D27000E8E238EAF05D0896B0C
:105200008A6B8B6B8C6B31D08E51800A7F0F000EB6
:10521000D8B48D5D0EE38CAF06D089698A697F0EA4
:105220008B6FFF0E04D089698A697F0E8B6F8C6F3C
:105230001CD08E358E31906F8D318F6F8C19800B15
:105240008F198C6F8DC08FF0010E8F178F338F33B6
:105250008B518F197F0B8F198B6F89C089F08AC092
:105260008AF08BC08BF08CC08CF01200000180356E
:105270008135446E446606D000017E6B7F6B806B87
:10528000816B44D000017EC082F07FC083F080C07B
:1052900084F081C085F0200E05D0D890853384330A
:1052A00083338233E82EF9D78251436E808F816B2E
:1052B000960E445E44AE0CD04450800A970FDCE357
:1052C000D890813380337F337E33443EF9D70CD07E
:1052D0001F0E446407D0D0D7D8907E377F378037F1
:1052E000813744064466F8D7435008E0811F801F89
:1052F0007F1F7E6D000E7F23802381237EC07EF082
:105300007FC07FF080C080F081C081F012001D6AF4
:105310001E6A206A020E1F6E1F500208186E185077
:105320001A0FD96EDA6A1DC00EF01EC00FF0116A96
:10533000030E106E06EC2EF01F500E2620500F228A
:10534000AA0E0E24166E000E0F20176E26EC30F0FB
:10535000DF6E1F06D8A020062050800A800F010EA5
:10536000D8B41F5CD9E21DC018F01EC019F0D89047
:1053700018361936D8901836193601011E0E182421
:10538000D96E010E1920DA6E1AC0DEFF1BC0DEFFD7
:105390001CC0DEFF1DC0DEFF1D4A1E2A1E50800AF3
:1053A000800F060ED8B41D5CD8B01200B2D7800EA4
:1053B000F1EC2FF0090E706EFC0E716E010E726E24
:1053C000200E736E778E779C606A0F01506B0E0112
:1053D000206B306B406B506B606B706BE00E0D019F
:1053E000F86F0F01006B080E016F026B036B046B0B
:1053F000E80E056F1A0E066F076B030E0D01D46FD2
:10540000D56BE06B110EE16FE26FE36BE46BE56B64
:10541000E66BE76B540EF06F050EF16FF26BF26BFB
:105420000F0E0F01186FE00E196F1A6B1B6B1987A7
:105430000F0E1C6FE00E1D6F1E691F6B1D87000E87
:10544000F1EF2FF00001926B01016D2911E0D8906E
:1054500000019235906F916B9137730E9025166E07
:10546000000E9121176E26EC30F001016D1928E134
:105470006E2911E0D89000019235906F916B9137B1
:10548000740E9025166E000E9121176E26EC30F0EA
:1054900001016E1915E1166B176B186B196B0AD0A9
:1054A000E90E0101165D030E1759000E1859000E82
:1054B000195906E200019251A9EC2AF00009F0E026
:1054C0000001922B050E9265BFD7050C20EE0EF061
:1054D000DE50DE10DE10DE100CE112C0D9FF13C06A
:1054E000DAFF000EDE6ADD6A0E6A0F6A106A116A60
:1054F0002FD011507F0B146ED8901434156E166A8D
:10550000163612C0D9FF13C0DAFF15C0DEFF16C071
:10551000DDFF1034E836010B12C0D9FF13C0DAFFEB
:10552000DE12000EDD1212C0D9FF13C0DAFF820EA8
:10553000DE26FF0EDD221150800B3F09116E109EFA
:105540000EC00EF00FC00FF010C010F011C011F01F
:105550001200E8CF8FF0030ECB6F840ECA6FCD6BB5
:105560000A0ECC6F060ECE6F430E8F25166E176A8D
:10557000000E172226EC30F0456E030E4516D8902B
:105580004536D8904536D890453400018F118009B2
:10559000D06F820ED16F8F51020D000EF324D96EA1
:1055A000010EF420DA6EDECF86F0DDCF87F0430EF9
:1055B0008F25166E176A000E172226EC30F0030BAB
:1055C0000001886F8CEC28F0C1EC2EF00009000E71
:1055D000D8A4010E120030C022F031C023F032C036
:1055E00024F033C025F0380E75EC2EF0000902E1EE
:1055F000000E32D02CC0D9FF2DC0DAFF38C0DFFF3B
:105600002AC0D9FF2BC0DAFF39C0DFFF3A50346E11
:10561000010E3B14356E28C0D9FF29C0DAFF34C013
:10562000DEFF35C0DDFF38C034F039C035F03AC098
:1056300036F03BC037F01B0E05D0D89037323632EB
:1056400035323432E82EF9D73450070B2EC0D9FF4B
:105650002FC0DAFFDF6E010E1200226A236A7A0E73
:10566000246E460E256E00016C6B6D6B100E6E6F16
:10567000410E6F6F7EC068F07FC069F080C06AF035
:1056800081C06BF0F1EC25F06BC021F06AC020F016
:1056900069C01FF068C01EF06DEC22F021C063F0FD
:1056A00020C062F01FC061F01EC060F00001646B9A
:1056B000656BA00E666F400E676F34EC28F063C018
:1056C00081F062C080F061C07FF060C07EF01200A7
:1056D000E8CF11F024D00F0E136E600E1ED00F0114
:1056E0000F0E136E500E19D00E010E0E136E200EFB
:1056F00014D00E010E0E136E300E0FD00E010E0ED2
:10570000136E400E0AD00E010E0EEBD70E010E0ED8
:10571000E3D70E010E0E136E700E126E0FD01150E5
:10572000DAE0010ADCE0030ADFE0010AE2E0070A4E
:10573000E5E0010AE8E0030AE9E0EBD712C00EF069
:1057400013C00FF01200E8CF12F0C26AC06AD890FE
:105750000E303C0BC26E0EC010F0103AF00E101658
:10576000300E10160F500F0B1010C16E12C010F03B
:10577000D8901036D8901036380E101612C011F08E
:10578000113A0F0E1116070E11161250800B111040
:105790001010C06E0EAE03D09E9C9D8CF28CC28009
:1057A0001200010E4D6E55EC30F00001C86FC86755
:1057B00001D0C869C82902E1020E4D6E0101666B75
:1057C000676B686B696B6A6B0001CA6BCB6BCC6BE8
:1057D000CD6BCE6B4B6A4A6A4F6AC96B4E6A506A90
:1057E000466A476ABF6BC06B01011C6B1D6B516A37
:1057F0000001C76BC56B1200512A3B0E51640CD0DF
:10580000516AC72BC951030A07E141EC30F0446EDD
:1058100046EC30F002EC2FF03B0E0001C76502D0E1
:10582000C76BC52B170EC56501D0C56BC951030ADF
:1058300009E14C2A4CC07FF00F0E7F17020E7F5DEE
:10584000D8B04C6A120068C0D9FF69C0DAFFDECF59
:1058500060F0DECF61F0DECF62F0DECF63F06AC0D1
:1058600064F06BC065F06CC066F06DC067F034EC3E
:1058700028F068C0D9FF69C0DAFF000160C0DEFF10
:1058800061C0DEFF62C0DEFF63C0DDFFD906D9065E
:10589000120011AE09D00E6C0F1ED8B00F2A101EC8
:1058A000D8B0102A800E115615AE09D0126C131EF6
:1058B000D8B0132A141ED8B0142A800E1556800EA4
:1058C000111A151A12500E5C13500F58145010581C
:1058D0001550115802E2D89001D0D8801200E8CFBC
:1058E00043F04350D96EDA6ADECF68F0DECF69F05C
:1058F000DECF6AF0DECF6BF07EC06CF07FC06DF063
:1059000080C06EF081C06FF0F1EC25F04350D96E8D
:10591000DA6A000168C0DEFF69C0DEFF6AC0DEFF30
:105920006BC0DDFFD906D90612002DC0D9FF2EC0ED
:10593000DAFFDECF1EF0DECF1FF0DECF20F0DECFAD
:1059400021F02FC022F030C023F031C024F032C04B
:1059500025F06DEC22F02DC0D9FF2EC0DAFF1EC05D
:10596000DEFF1FC0DEFF20C0DEFF21C0DDFFD90645
:10597000D906120035C0D9FF36C0DAFFDECF2DF0D0
:10598000DECF2EF0DECF2FF0DECF30F037C031F09B
:1059900038C032F039C033F03AC034F0E9EC2DF0C1
:1059A00035C0D9FF36C0DAFF2DC0DEFF2EC0DEFFC6
:1059B0002FC0DEFF30C0DDFFD906D9061200456AD0
:1059C00097AF0AD0971F961F951F946D000E9523D1
:1059D00096239723010E456E94C00EF095C00FF0EC
:1059E00096C010F097C011F0960E126E45C013F0DD
:1059F000BCEC26F011C097F010C096F00FC095F0E7
:105A00000EC094F01200426A01011A6B1B6B15D094
:105A10003CC018F03DC019F03EC01AF03FC01BF06A
:105A200041C01CF040C01DF0200E1E6E08EC21F09D
:105A3000000903E0010E426E06D0E80E01011A5D76
:105A4000030E1B59E5E30001CA6B4250120001012D
:105A5000126B136B146B156B0001C46B0E6A0C0E8A
:105A60000E24D96EDA6A010EDA22DF6A0E50020DB8
:105A7000000EF324D96E010EF420DA6EDE6ADD6AC0
:105A80000E2A050E0E64EBD70001C16B496AC36B89
:105A9000C26B120066BF1FD0010E296E680E286E01
:105AA000010E2B6E6A0E2A6E010E2D6E6B0E2C6E81
:105AB000010E2F6E670E2E6E010E316E660E306E69
:105AC000010E336E6C0E326EEBEC2AF03C6E3C50E5
:105AD00002E00101668F120001EEA8F013EEC0F0A3
:105AE000EE6AE550E150FCE1E250FAE101EE00F02F
:105AF000740EEE6AE806FDE100EEBFF0190EEE6AE4
:105B0000E806FDE100EE46F00D0EEE6AE806FDE166
:105B1000000EF86E00015CEF24F0E8CF1DF01D5080
:105B2000020D9F0EF324166E000EF420176E26EC65
:105B300030F01A6E1D50020D9E0EF324166E000EEC
:105B4000F420176E26EC30F01C6E1A501B6E1BC032
:105B500018F01CC019F01200000E81EC2FF0550A4D
:105B600007E1010E81EC2FF0AA0A02E1010E12D02A
:105B7000020E4D6E63EC30F0FF0EFDEC2FF0550E73
:105B8000126E000E28EC2FF0AA0E126E010E28ECF9
:105B90002FF0000E120027EC2DF0070E926E1B0E58
:105BA000936E010E946E826A920EA0EC2FF0FB0EA3
:105BB0000F6E1D0E0E6E2FEC30F0840E0E6E0F0E5B
:105BC0000F6EAF0EA3EC2BF0D7EC29F0F28E65EF41
:105BD00030F0800E341A2DC01EF02EC01FF02FC0E2
:105BE00020F030C021F031C022F032C023F033C0A9
:105BF00024F034C025F06DEC22F021C030F020C03C
:105C00002FF01FC02EF01EC02DF012000E501002FB
:105C1000F3CF14F0F4CF15F00E501102F3CFF4FFD0
:105C2000F36AF3501426F45015220F501002F3CFEC
:105C3000F4FFF36AF3501426F450152214C00EF04A
:105C400015C00FF012001D6A19AE05D0186C191E90
:105C5000D8B0192A1D2A18C00EF019C00FF0106A0A
:105C6000116A960E126E1DC013F0BCEC26F011C026
:105C70001BF010C01AF00FC019F00EC018F012007F
:105C800066510F0B186E185015E00001C851010144
:105C900021EE6CF0DF620ED0180405E0010E1864EE
:105CA00009D06D6707D00001C869FF0EFDEC2FF029
:105CB000D1EC2BF012002DC01EF02EC01FF02FC013
:105CC00020F030C021F0226A680E236ED50E246EBB
:105CD000460E256E6DEC22F021C030F020C02FF072
:105CE0001FC02EF01EC02DF01200E8CF26F066AFC8
:105CF00002D0000E13D024C015F025C016F022C02B
:105D000017F023C018F0270E196E265032EC1EF043
:105D10000009EFE027AC27AAECD7010E12000EC055
:105D2000A9FF10C0A8FFA69EA69CA684000EF2BEE6
:105D3000010E116EF29E550EA76EAA0EA76EA682D8
:105D4000A6B2FED711B002D0F29E01D0F28EA69478
:105D5000120066C144F00F0E4416440411E1000124
:105D6000C851010121EE6CF0DF620AD0800E000103
:105D7000CA6FCB6BCC6BCD6B030ECE6FC1EC2EF02C
:105D80001200CCC060F0CDC061F0CEC062F0C8C0DF
:105D900063F0CBC064F00001CA510F0B656FD00EE9
:105DA000666FD9EC27F0436E436601D04B2A43500F
:105DB000120018C00EF019C00FF0106A116A960E8A
:105DC000126E000E136ABCEC26F011C01BF010C05E
:105DD0001AF00FC019F00EC018F01200E8CF0FF043
:105DE000080E106E116AD8900F341134116ED890CD
:105DF0000F360E50115C02E30E50115E102EF3D7D9
:105E000011501200E8CF45F0830E0001CA6F070E53
:105E1000CB6FCD6B140ECC6F090ECE6FD06B45C01F
:105E2000D1F044C0D2F0C1EF2EF0E8CF13F00F0E46
:105E3000136401D00CD05EEC30F0120E13240E6E01
:105E40000F6A000E0F2212C010F08FEC2EF012001D
:105E5000E8CF13F0010E136401D00CD05EEC30F0EB
:105E6000030E13240E6E0F6A000E0F2212C010F0E4
:105E70008FEC2EF0120020EE0EF0DE50DE10DE1061
:105E8000DE1002E0800E111A0EC00EF00FC00FF0EF
:105E900010C010F011C011F0120066510F0B020A71
:105EA0000DE10001C851010121EE6CF0DF6206D066
:105EB0006DC1C8F00001C851FDEC2FF01200E8CF11
:105EC00026F07F0E266406D025C019F02650E9EC96
:105ED00024F005D025C021F02650B7EC05F01200C3
:105EE000E8CF12F012040CE15EEC30F00F6A0E6A9B
:105EF000FF0E10688FEC2EF0800EF1EC2FF0FF00FB
:105F00001200E8CF18F0010E186402D0000E08D07D
:105F1000030E1824166E176A000E172226EC30F0B6
:105F20001200810E0001CA6FCB6BCC6BCD6B020EE1
:105F3000CE6FC8C0D0F0C1EC2EF0010E4D6E010C3A
:105F4000E8CF0EF00E507F0BD56ED76AD66AF2946A
:105F50000EAE02D0F28A01D0F29AD58E1200E8CFAE
:105F600013F05EEC30F00A0E13240E6E0F6A000E72
:105F70000F2212C010F08FEF2EF0E8CF13F05EEC7E
:105F800030F0050E13240E6E0F6A000E0F2212C0A1
:105F900010F08FEF2EF0E8CF2AF07F0E2A6404D0A5
:105FA0002A5030EC20F003D02A5001EC11F01200FE
:105FB000E8CF0EF00F6A0E500F24D96EDA6ADF6A4E
:105FC0000F2A070E0F64F7D7070CE8CF0FF00F501A
:105FD000000F0E6E0EC0F6FF0B0EF76E0800F550A8
:105FE0001200E8CF0EF01F0E6F160E506F126F509A
:105FF000E00B0E18D8B41200FAD7E8CF12F05EEC1E
:1060000030F00F6A010E0E6E12C010F08FEF2EF0FE
:10601000E8CF18F00A0E1824166E176A000E172221
:1060200026EF30F0E8CF18F0050E1824166E176A28
:10603000000E172226EF30F0E8CF18F0120E1824C9
:10604000166E176A000E172226EF30F016C0A9FF51
:10605000A69CA69EA68000F000F0A85012000EC0DC
:1060600010F00FC011F011C0D7FF10C0D6FF120002
:1060700001C003F002C004F004C0D7FF03C0D6FF84
:106080001200176A420E166E26EF30F0176A410EA4
:10609000166E26EF30F00E6A0F6A106A116A12004F
:1060A0000E6A0F6A106A116A1200176A010E166EE4
:1060B00026EF30F0D2EC14F027EF2DF0A6A212005C
:1060C000FDD74D6A1200D2EF14F0C2821200C282D4
:1060D0001200010C080C010C060C020C010C120041
:020000040020DA
:08000000FFFFFFFFFFFFFFFF00
:020000040030CA
:0E000000FF061D0FFF8295FF0F800FE00F40DF
:00000001FF
