:040800005EEF05F0B2
:10081800D8CF07F0E8CF08F0E0CF09F0D9CF0AF039
:10082800DACF0BF0F3CF0CF0F4CF0DF0F2A401D037
:1008380001D048D0FB0E026E1D0E016E58EC32F04E
:10084800484A492A0001BF4BC02B010E010112275B
:10085800000E1323000E1423000E1523010E162775
:10086800000E1723000E1823000E19231A4B1B2BFA
:1008780082B001D001D003D01C4B1D2B02D01C6BC1
:100888001D6B522A4F50020AD8A401D001D00ED0B5
:10089800640E526401D001D009D082A201D001D0E7
:1008A80002D0829201D08282526A0BD04F04D8A41F
:1008B80001D001D001D0F7D74F6601D001D001D0C7
:1008C800F0D7F2949EAC01D001D0E5D0C4D04B5003
:1008D8000C0DA80EF324D96E010EF420DA6EC4CFE5
:1008E800DFFF4B500C0DA90EF324D96E010EF42036
:1008F800DA6EC3CFDFFF090EC26E4B504F0AD8A481
:1009080001D001D0C5D00001C181C2D04B500C0D1F
:10091800AA0EF324D96E010EF420DA6EC4CFDFFFDD
:100928004B500C0DAB0EF324D96E010EF420DA6E89
:10093800C3CFDFFF050EC26E4B504F0AD8A401D0BB
:1009480001D0A6D00001C183A3D04B500C0DAC0E32
:10095800F324D96E010EF420DA6EC4CFDFFF4B50BA
:100968000C0DAD0EF324D96E010EF420DA6EC3CF50
:10097800DFFF010EC26E4B504F0AD8A401D001D040
:1009880087D00001C18584D04B500C0DAE0EF324E6
:10099800D96E010EF420DA6EC4CFDFFF4B500C0D78
:1009A800AF0EF324D96E010EF420DA6EC3CFDFFF49
:1009B800250EC26E4B504F0AD8A401D001D068D082
:1009C8000001C18765D04B500C0DB00EF324D96ED1
:1009D800010EF420DA6EC4CFDFFF4B500C0DB10EC0
:1009E800F324D96E010EF420DA6EC3CFDFFF210E97
:1009F800C26E4B504F0AD8A401D001D049D0000193
:100A0800C18946D04B500C0DB20EF324D96E010E9D
:100A1800F420DA6EC4CFDFFF4B500C0DB30EF32475
:100A2800D96E010EF420DA6EC3CFDFFF290EC26E35
:100A38004B504F0AD8A401D001D002D00001C18B7D
:100A48004B2A4F0E4B6401D001D022D04B6A20D0E4
:100A5800290EC26EFBD7C2507C0B056E066A065083
:100A6800000AD8B401D0F4D70550000AD8B48CD7FE
:100A7800040AD8B46AD70C0AD8B448D7280AD8B414
:100A8800C1D7040AD8B49FD70C0AD8B420D7E0D766
:100A980087EC32F09E9C0DC0F4FF0CC0F3FF0BC036
:100AA800DAFF0AC0D9FF09C0E0FF08C0E8FF07C0A5
:080AB800D8FF1000A4EF2FF09D
:100F00007777772E6575726F736F757263652E7361
:100F1000652F6E746331304B415F332E786D6C00FA
:100F20000000803F1872313FF0FD753E4758633D29
:100F300058951D3C82C4AE3AA8782139EF9380378A
:100F4000A092A7354656153400000000C4FF7F3F2D
:100F500080EFFFBE90E1A93EEC8276BE82AD2B3ED3
:100F60000E3CC3BD87D1133D4178D3BB0000E8CF11
:100F700023F0211C246E4750461002E17BEF0DF058
:100F8000C2EF0EF07EEC32F00F6A410E0E6E21C001
:100F900010F057EC30F0176A410E166E03EC32F089
:100FA00005EF0FF07EEC32F00F6A420E0E6E21C09C
:100FB00010F057EC30F0176A420E166E03EC32F068
:100FC00005EF0FF07EEC32F00F6A430E0E6E21C07B
:100FD00010F057EC30F0176A430E166E03EC32F047
:100FE00005EF0FF07EEC32F00F6A440E0E6E21C05A
:100FF00010F057EC30F0176A440E166E03EC32F026
:1010000005EF0FF07EEC32F00F6A450E0E6E21C038
:1010100010F057EC30F0176A450E166E03EC32F004
:1010200005EF0FF07EEC32F00F6A460E0E6E21C017
:1010300010F057EC30F0176A460E166E03EC32F0E3
:1010400005EF0FF07EEC32F00F6A470E0E6E21C0F6
:1010500010F057EC30F0176A470E166E03EC32F0C2
:1010600005EF0FF07EEC32F00F6A480E0E6E21C0D5
:1010700010F057EC30F0176A480E166E03EC32F0A1
:1010800005EF0FF07EEC32F00F6A490E0E6E21C0B4
:1010900010F057EC30F0176A490E166E03EC32F080
:1010A00005EF0FF07EEC32F00F6A4A0E0E6E21C093
:1010B00010F057EC30F0176A4A0E166E03EC32F05F
:1010C00005EF0FF07EEC32F00F6A4B0E0E6E21C072
:1010D00010F057EC30F0176A4B0E166E03EC32F03E
:1010E00005EF0FF07EEC32F00F6A4C0E0E6E21C051
:1010F00010F057EC30F0176A4C0E166E03EC32F01D
:1011000005EF0FF07EEC32F00F6A4D0E0E6E21C02F
:1011100010F057EC30F0176A4D0E166E03EC32F0FB
:1011200005EF0FF07EEC32F00F6A4E0E0E6E21C00E
:1011300010F057EC30F0176A4E0E166E03EC32F0DA
:1011400005EF0FF07EEC32F00F6A4F0E0E6E21C0ED
:1011500010F057EC30F0176A4F0E166E03EC32F0B9
:1011600005EF0FF07EEC32F00F6A500E0E6E21C0CC
:1011700010F057EC30F0176A500E166E03EC32F098
:1011800005EF0FF07EEC32F00F6A510E0E6E21C0AB
:1011900010F057EC30F0176A510E166E03EC32F077
:1011A00005EF0FF07EEC32F00F6A520E0E6E21C08A
:1011B00010F057EC30F0176A520E166E03EC32F056
:1011C00005EF0FF07EEC32F00F6A530E0E6E21C069
:1011D00010F057EC30F0176A530E166E03EC32F035
:1011E00005EF0FF07EEC32F00F6A540E0E6E21C048
:1011F00010F057EC30F0176A540E166E03EC32F014
:1012000005EF0FF07EEC32F00F6A550E0E6E21C026
:1012100010F057EC30F0176A550E166E03EC32F0F2
:1012200005EF0FF07EEC32F00F6A560E0E6E21C005
:1012300010F057EC30F0176A560E166E03EC32F0D1
:1012400005EF0FF07EEC32F00F6A570E0E6E21C0E4
:1012500010F057EC30F0176A570E166E03EC32F0B0
:1012600005EF0FF07EEC32F00F6A580E0E6E21C0C3
:1012700010F057EC30F0176A580E166E03EC32F08F
:1012800005EF0FF07EEC32F00F6A590E0E6E21C0A2
:1012900010F057EC30F0176A590E166E03EC32F06E
:1012A00005EF0FF07EEC32F00F6A5A0E0E6E21C081
:1012B00010F057EC30F0176A5A0E166E03EC32F04D
:1012C00005EF0FF07EEC32F00F6A5B0E0E6E21C060
:1012D00010F057EC30F0176A5B0E166E03EC32F02C
:1012E00005EF0FF07EEC32F00F6A5C0E0E6E21C03F
:1012F00010F057EC30F0176A5C0E166E03EC32F00B
:1013000005EF0FF07EEC32F00F6A5D0E0E6E21C01D
:1013100010F057EC30F0176A5D0E166E03EC32F0E9
:1013200005EF0FF07EEC32F00F6A5E0E0E6E21C0FC
:1013300010F057EC30F0176A5E0E166E03EC32F0C8
:1013400005EF0FF07EEC32F00F6A5F0E0E6E21C0DB
:1013500010F057EC30F0176A5F0E166E03EC32F0A7
:1013600005EF0FF07EEC32F00F6A600E0E6E21C0BA
:1013700010F057EC30F0176A600E166E03EC32F086
:1013800005EF0FF07EEC32F00F6A610E0E6E21C099
:1013900010F057EC30F0176A610E166E03EC32F065
:1013A00005EF0FF07EEC32F00F6A620E0E6E21C078
:1013B00010F057EC30F0176A620E166E03EC32F044
:1013C00005EF0FF07EEC32F00F6A630E0E6E21C057
:1013D00010F057EC30F0176A630E166E03EC32F023
:1013E00005EF0FF07EEC32F00F6A640E0E6E21C036
:1013F00010F057EC30F0176A640E166E03EC32F002
:1014000005EF0FF07EEC32F00F6A650E0E6E21C014
:1014100010F057EC30F0176A650E166E03EC32F0E0
:1014200005EF0FF07EEC32F00F6A660E0E6E21C0F3
:1014300010F057EC30F0176A660E166E03EC32F0BF
:1014400005EF0FF07EEC32F00F6A670E0E6E21C0D2
:1014500010F057EC30F0176A670E166E03EC32F09E
:1014600005EF0FF07EEC32F00F6A680E0E6E21C0B1
:1014700010F057EC30F0176A680E166E03EC32F07D
:1014800005EF0FF07EEC32F00F6A690E0E6E21C090
:1014900010F057EC30F0176A690E166E03EC32F05C
:1014A00005EF0FF07EEC32F00F6A6A0E0E6E21C06F
:1014B00010F057EC30F0176A6A0E166E03EC32F03B
:1014C00005EF0FF07EEC32F00F6A6B0E0E6E21C04E
:1014D00010F057EC30F0176A6B0E166E03EC32F01A
:1014E00005EF0FF07EEC32F00F6A6C0E0E6E21C02D
:1014F00010F057EC30F0176A6C0E166E03EC32F0F9
:1015000005EF0FF07EEC32F00F6A6D0E0E6E21C00B
:1015100010F057EC30F0176A6D0E166E03EC32F0D7
:1015200005EF0FF07EEC32F00F6A6E0E0E6E21C0EA
:1015300010F057EC30F0176A6E0E166E03EC32F0B6
:1015400005EF0FF07EEC32F00F6A6F0E0E6E21C0C9
:1015500010F057EC30F0176A6F0E166E03EC32F095
:1015600005EF0FF07EEC32F00F6A700E0E6E21C0A8
:1015700010F057EC30F0176A700E166E03EC32F074
:1015800005EF0FF07EEC32F00F6A710E0E6E21C087
:1015900010F057EC30F0176A710E166E03EC32F053
:1015A00005EF0FF07EEC32F00F6A720E0E6E21C066
:1015B00010F057EC30F0176A720E166E03EC32F032
:1015C00005EF0FF07EEC32F00F6A730E0E6E21C045
:1015D00010F057EC30F0176A730E166E03EC32F011
:1015E00005EF0FF07EEC32F00F6A740E0E6E21C024
:1015F00010F057EC30F0176A740E166E03EC32F0F0
:1016000005EF0FF07EEC32F00F6A750E0E6E21C002
:1016100010F057EC30F0176A750E166E03EC32F0CE
:10162000F4D37EEC32F00F6A760E0E6E21C010F00D
:1016300057EC30F0176A760E166E03EC32F0E5D3F5
:101640007EEC32F00F6A770E0E6E21C010F057EC70
:1016500030F0176A770E166E03EC32F0D6D37EECBC
:1016600032F00F6A780E0E6E21C010F057EC30F099
:10167000176A780E166E03EC32F0C7D37EEC32F0A8
:101680000F6A790E0E6E21C010F057EC30F0176A19
:10169000790E166E03EC32F0B8D37EEC32F00F6A9E
:1016A0007A0E0E6E21C010F057EC30F0176A7A0EE9
:1016B000166E03EC32F0A9D37EEC32F00F6A7B0E8B
:1016C0000E6E21C010F057EC30F0176A7B0E166ECC
:1016D00003EC32F09AD37EEC32F00F6A7C0E0E6E81
:1016E00021C010F057EC30F0176A7C0E166E03EC38
:1016F00032F08BD37EEC32F00F6A7D0E0E6E21C07D
:1017000010F057EC30F0176A7D0E166E03EC32F0D5
:101710007CD37EEC32F00F6A7E0E0E6E21C010F08C
:1017200057EC30F0176A7E0E166E03EC32F06DD374
:101730007EEC32F00F6A7F0E0E6E21C010F057EC77
:1017400030F0176A7F0E166E03EC32F05ED37EEC3B
:1017500032F00F6A800E0E6E21C010F057EC30F0A0
:10176000176A800E166E03EC32F04FD37EEC32F027
:101770000F6A810E0E6E21C010F057EC30F0176A20
:10178000810E166E03EC32F040D37EEC32F00F6A1D
:10179000820E0E6E21C010F057EC30F0176A820EE8
:1017A000166E03EC32F031D37EEC32F00F6A830E0A
:1017B0000E6E21C010F057EC30F0176A830E166ED3
:1017C00003EC32F022D37EEC32F00F6A840E0E6E00
:1017D00021C010F057EC30F0176A840E166E03EC3F
:1017E00032F013D37EEC32F00F6A850E0E6E21C0FC
:1017F00010F057EC30F0176A850E166E03EC32F0DD
:1018000004D37EEC32F00F6A860E0E6E21C010F00B
:1018100057EC30F0176A860E166E03EC32F0F5D2F4
:101820007EEC32F00F6A870E0E6E21C010F057EC7E
:1018300030F0176A870E166E03EC32F0E6D27EECBB
:1018400032F00F6A880E0E6E21C010F057EC30F0A7
:10185000176A880E166E03EC32F0D7D27EEC32F0A7
:101860000F6A890E0E6E21C010F057EC30F0176A27
:10187000890E166E03EC32F0C8D27EEC32F00F6A9D
:101880008A0E0E6E21C010F057EC30F0176A8A0EE7
:10189000166E03EC32F0B9D27EEC32F00F6A8B0E8A
:1018A0000E6E21C010F057EC30F0176A8B0E166EDA
:1018B00003EC32F0AAD27EEC32F00F6A8C0E0E6E80
:1018C00021C010F057EC30F0176A8C0E166E03EC46
:1018D00032F09BD27EEC32F00F6A8D0E0E6E21C07C
:1018E00010F057EC30F0176A8D0E166E03EC32F0E4
:1018F0008CD27EEC32F00F6A8E0E0E6E21C010F08C
:1019000057EC30F0176A8E0E166E03EC32F07DD273
:101910007EEC32F00F6A8F0E0E6E21C010F057EC85
:1019200030F0176A8F0E166E03EC32F06ED27EEC3A
:1019300032F00F6A900E0E6E21C010F057EC30F0AE
:10194000176A900E166E03EC32F05FD27EEC32F026
:101950000F6A910E0E6E21C010F057EC30F0176A2E
:10196000910E166E03EC32F050D27EEC32F00F6A1C
:10197000920E0E6E21C010F057EC30F0176A920EE6
:10198000166E03EC32F041D27EEC32F00F6A930E09
:101990000E6E21C010F057EC30F0176A930E166EE1
:1019A00003EC32F032D27EEC32F00F6A940E0E6EFF
:1019B00021C010F057EC30F0176A940E166E03EC4D
:1019C00032F023D27EEC32F00F6A950E0E6E21C0FB
:1019D00010F057EC30F0176A950E166E03EC32F0EB
:1019E00014D27EEC32F00F6A960E0E6E21C010F00B
:1019F00057EC30F0176A960E166E03EC32F005D2F3
:101A00007EEC32F00F6A970E0E6E21C010F057EC8C
:101A100030F0176A970E166E03EC32F0F6D17EECBA
:101A200032F00F6A980E0E6E21C010F057EC30F0B5
:101A3000176A980E166E03EC32F0E7D17EEC32F0A6
:101A40000F6A990E0E6E21C010F057EC30F0176A35
:101A5000990E166E03EC32F07EEC32F00F6A9A0E9D
:101A60000E6E21C010F057EC30F0176A9A0E166E09
:101A700003EC32F0CAD17EEC32F00F6A9B0E0E6E90
:101A800021C010F057EC30F0176A9B0E166E03EC75
:101A900032F0BBD17EEC32F00F6A9C0E0E6E21C08C
:101AA00010F057EC30F0176A9C0E166E03EC32F013
:101AB000ACD1246AABD17EEC32F00F6AF20E0E6E1E
:101AC00021C010F057EC30F0176AF20E166E03ECDE
:101AD00032F09BD17EEC32F00F6AF30E0E6E21C015
:101AE00010F057EC30F0176AF30E166E03EC32F07C
:101AF0008CD1211C8AD1235002E1C2EF07F0010AE8
:101B000002E1D2EF07F0030A02E1E2EF07F0010A77
:101B100002E1F2EF07F0070A02E102EF08F0010A22
:101B200002E112EF08F0030A02E122EF08F0010AD5
:101B300002E132EF08F0130A02E142EF08F0010A75
:101B400002E152EF08F0030A02E162EF08F0010A35
:101B500002E172EF08F00F0A02E182EF08F0010AD9
:101B600002E192EF08F03F0A02E1A2EF08F0010A59
:101B700002E1B2EF08F00F0A02E1C2EF08F0010A39
:101B800002E1D2EF08F0030A02E1E2EF08F0010AF5
:101B900002E1F2EF08F0070A02E102EF09F0010AA0
:101BA00002E112EF09F0030A02E122EF09F0010A53
:101BB00002E132EF09F01F0A02E142EF09F0010AE7
:101BC00002E152EF09F0030A02E162EF09F0010AB3
:101BD00002E172EF09F0070A02E182EF09F0010A5F
:101BE00002E192EF09F0030A02E1A2EF09F0010A13
:101BF00002E1B2EF09F00F0A02E1C2EF09F0010AB7
:101C000002E1D2EF09F0030A02E1E2EF09F0010A72
:101C100002E1F2EF09F0070A02E102EF0AF0010A1D
:101C200002E112EF0AF0030A01E10CD4010A01E11A
:101C300019D47F0A01E126D4010A01E133D4030A51
:101C400001E140D4010A01E14DD4070A01E15AD46F
:101C5000010A01E167D4030A01E174D4010A01E138
:101C600081D40F0A01E18ED4010A01E19BD4030A59
:101C700001E1A8D4010A01E1B5D4070A01E1C2D407
:101C8000010A01E1CED4030A01E1DAD4010A01E13B
:101C9000E6D41F0A01E1F2D4010A01E1FED4030AED
:101CA00001E10AD5010A01E116D5070A01E122D5B1
:101CB000010A01E12ED5030A01E13AD5010A01E149
:101CC00046D50F0A01E152D5010A01E15ED5030AAA
:101CD00001E16AD5010A01E176D5070A01E182D561
:101CE000010A01E18ED5030A01E19AD5010A01E159
:101CF000A6D53F0A01E1B2D5010A01E1BED5030A2A
:101D000001E1CAD5010A01E1D6D5070A01E1E2D510
:101D1000010A01E1EED5030A01E1FAD5010A01E168
:101D200006D60F0A01E112D6010A01E11ED6030A06
:101D300001E12AD6010A01E136D6070A01E142D6BD
:101D4000010A01E14ED6030A01E15AD6010A01E176
:101D500066D61F0A01E172D6010A01E17DD6030AA7
:101D600001E189D6010A01E195D6070A01E1A1D670
:101D7000010A01E19ED6030A01E19DD6010A01E1B3
:101D8000A9D6B7D64604471041E1480E236018D0C3
:101D90007EEC32F0AA0E23240E6E0F6A000E0F2284
:101DA00021C010F057EC30F0AA0E2324166E176AEB
:101DB000000E172203EC32F0246E9FEC2BF026D09D
:101DC000540E23600BD02350B80F226EA80E22248D
:101DD000D96EDA6A010EDA22DF5017D0620E236064
:101DE00015D07EEC32F04A0E23240E6E0F6A000EE0
:101DF0000F2221C010F057EC30F04A0E2324166E4B
:101E0000176A000E172203EC32F0246E24501200E1
:101E100000019A6B9A51020D7F0EF324166E000E8C
:101E2000F420176E03EC32F00001916F906B9A5121
:101E3000020D800EF324166E000EF420176E03ECD4
:101E400032F000019027000E91239A51020D000EEE
:101E5000F324D96E010EF420DA6EDECF92F0DDCFDE
:101E600093F09351800A946F9051925D9151800A42
:101E700094593CE27EEC32F0D89000019A35906F94
:101E8000916B91377F0E90250E6E000E91210F6E93
:101E90009A51020D000EF324D96E010EF420DA6E71
:101EA000DECF92F0DDCF93F093C092F0936B92511E
:101EB000106E57EC30F07EEC32F0D89000019A357D
:101EC000906F916B9137800E90250E6E000E9121D0
:101ED0000F6E9A51020D0101000EF324D96E010E0E
:101EE000F420DA6EDF50106E57EC30F000019A519A
:101EF000020D000EF324D96E010EF420DA6EDECF4F
:101F000090F0DDCF91F09A51020D8B0EF324166EF6
:101F1000000EF420176E03EC32F00001936F926B09
:101F20009A51020D8C0EF324166E000EF420176EDB
:101F300003EC32F000019227000E93239351800AA4
:101F4000946F9051925D9151800A94593CE27EECDD
:101F500032F0D89000019A35906F916B91378B0ECB
:101F600090250E6E000E91210F6E9A51020D000EFB
:101F7000F324D96E010EF420DA6EDECF92F0DDCFBD
:101F800093F093C092F0936B9251106E57EC30F037
:101F90007EEC32F0D89000019A35906F916B9137BA
:101FA0008C0E90250E6E000E91210F6E9A51020D2F
:101FB0000101000EF324D96E010EF420DA6EDF5019
:101FC000106E57EC30F0490E00019A25166E176A14
:101FD000000E172203EC32F00001976F975116E0C4
:101FE0000C0E9A25D96EDA6A010EDA22DF5097615B
:101FF0000DD09A51BEEC2CF0000908E00C0E000147
:102000009A25D96EDA6A010EDA22DF6A430E0001E0
:102010009A25166E176A000E172203EC32F00001A3
:10202000906F90AFCBD09AC090F0010E916F902B33
:1020300002D0D8909137902FFCD79151C31558E01A
:10204000430E9A25166E176A000E172203EC32F023
:102050000001906F90A74CD0CC6B830ECB6F430EDA
:102060009A25166E176A000E172203EC32F0000153
:10207000906F90AB16D0430E9A25166E176A000E1D
:10208000172203EC32F00001906F90AD05D0CE6BBB
:102090001E0ECD6F050E09D0CE6B1E0ECD6F060E37
:1020A00004D0CE6B010ECD6F020ECF6F9AC0D1F06F
:1020B000D8909A35906F916B9137730E9025166E6C
:1020C000000E9121176E03EC32F00001D26FD89010
:1020D0009A35906F916B9137740E9025166E000EA5
:1020E0009121176E03EC32F00001D36FDEEC30F07B
:1020F0009AC090F0010E0001916F902B02D0D89001
:102100009137902FFCD79151C21558E0430E9A2574
:10211000166E176A000E172203EC32F00001906F62
:1021200090A94CD0CC6B830ECB6F430E9A25166EC4
:10213000176A000E172203EC32F00001906F90AB8B
:1021400016D0430E9A25166E176A000E172203EC5E
:1021500032F00001906F90AD05D0CE6B1E0ECD6FAA
:10216000060E09D0CE6B1E0ECD6F050E04D0CE6BC1
:10217000010ECD6F020ECF6F9AC0D1F0D8909A3574
:10218000906F916B9137730E9025166E000E912112
:10219000176E03EC32F00001D26FD8909A35906F31
:1021A000916B9137740E9025166E000E9121176E6B
:1021B00003EC32F00001D36FDEEC30F09AC090F007
:1021C000010E0001916F902B02D0D8909137902F83
:1021D000FCD79151C31560E0970E9A25166E176AC9
:1021E000000E172203EC32F00001906FD8909A3560
:1021F000916F926B92375B0E9125166E000E9221B5
:10220000176E03EC32F00001946F936BD8909A35FF
:10221000956F966B96375C0E9525166E000E96217F
:10222000176E03EC32F000019327000E94239051B7
:102230009325986F000E9421996F9A51020D010118
:10224000000EF324D96E010EF420DA6EDECF90F08A
:10225000DDCF91F098C00EF099C00FF0116A640EB6
:10226000106E1DEC30F00F50800A0001926F9051FB
:102270000E5C9151800A925901E3AFD09AC090F060
:10228000010E0001916F902B02D0D8909137902FC2
:10229000FCD7911DC317A1D09A51020D5C0EF324F7
:1022A000166E000EF420176E03EC32F00001906FF2
:1022B0009A51020D5B0EF324166E000EF420176E79
:1022C00003EC32F00001996F9051986F98C00EF0B6
:1022D00099C00FF0116A640E106E1DEC30F0000111
:1022E0009A51020D000EF324D96E010EF420DA6E1D
:1022F000DECF90F0DDCF91F09151800A926F0E50B9
:10230000905D0F50800A925968E29AC090F0010ED9
:10231000916F902B02D0D8909137902FFCD791518C
:10232000C3134C80430E9A25166E176A000E1722AF
:1023300003EC32F00001906F90A74FD0CC6B830E6E
:10234000CB6F430E9A25166E176A000E172203EC08
:1023500032F00001906F90AB16D0430E9A25166EA6
:10236000176A000E172203EC32F00001906F90AD57
:1023700005D0CE6B1E0ECD6F050E09D0CE6B1E0E96
:10238000CD6F060E04D0CE6B010ECD6F020ECF6F57
:102390009AC0D1F0D8909A35906F916B9137730EA7
:1023A0009025166E000E9121176E03EC32F000019D
:1023B000D26FD8909A35906F916B9137740E9025AB
:1023C000166E000E9121176E03EC32F00001D36FF0
:1023D000DEEC30F0000901E151D79AC090F0010E17
:1023E0000001916F902B02D0D8909137902FFCD79D
:1023F0009151C2155EE0D8909A35906F916B9137EC
:10240000670E9025166E000E9121176E03EC32F0C8
:102410000001936F926BD8909A35946F956B9537B6
:10242000680E9425166E000E9521176E03EC32F09F
:1024300000019227000E9323970E9A25166E176AB5
:10244000000E172203EC32F00001925D986F935159
:10245000D8A09305996F98C00EF099C00FF0116A3B
:10246000640E106E1DEC30F000019A51020D000E4A
:10247000F324D96E010EF420DA6EDECF90F0DDCFBA
:1024800091F09151800A926F0E50905D0F50800A2A
:10249000925901E3B0D09AC090F0010E0001916F03
:1024A000902B02D0D8909137902FFCD7911DC21756
:1024B000A2D09A51020D680EF324166E000EF4207D
:1024C000176E03EC32F00001906F9A51020D670E07
:1024D000F324166E000EF420176E03EC32F00001A8
:1024E000996F9051986F9A51020D0101000EF324DB
:1024F000D96E010EF420DA6EDECF90F0DDCF91F0D0
:1025000098C00EF099C00FF0116A640E106E1DECA9
:1025100030F00F50800A0001926F90510E5C915183
:10252000800A925968E29AC090F0010E916F902B48
:1025300002D0D8909137902FFCD79151C2134C8282
:10254000430E9A25166E176A000E172203EC32F01E
:102550000001906F90A94FD0CC6B830ECB6F430ED0
:102560009A25166E176A000E172203EC32F000014E
:10257000906F90AB16D0430E9A25166E176A000E18
:10258000172203EC32F00001906F90AD05D0CE6BB6
:102590001E0ECD6F060E09D0CE6B1E0ECD6F050E32
:1025A00004D0CE6B010ECD6F020ECF6F9AC0D1F06A
:1025B000D8909A35906F916B9137730E9025166E67
:1025C000000E9121176E03EC32F00001D26FD8900B
:1025D0009A35906F916B9137740E9025166E000EA0
:1025E0009121176E03EC32F00001D36FDEEC30F076
:1025F000000901E150D700019A2B050E9A650AD413
:10260000050CE8CF19F04750461001E15BD29FD38B
:10261000176A410E166E03EC32F0C1D3176A420EF0
:10262000166E03EC32F0BBD3176A430E166E03EC42
:1026300032F0B5D3176A440E166E03EC32F0AFD306
:10264000176A450E166E03EC32F0A9D3176A460ED0
:10265000166E03EC32F0A3D3176A470E166E03EC26
:1026600032F09DD3176A480E166E03EC32F097D302
:102670000101015194D300C11AF092D30101035119
:102680008ED302C11AF08CD30101055188D304C145
:102690001AF086D30101075182D306C11AF080D304
:1026A000010109517CD308C11AF07AD301010B5101
:1026B00076D30AC11AF074D3176A490E166E03EC6A
:1026C00032F06DD3176A4A0E166E03EC32F067D300
:1026D000176A4B0E166E03EC32F061D3176A4C0E7C
:1026E000166E03EC32F05BD3176A4D0E166E03ECD8
:1026F00032F055D3176A4E0E166E03EC32F04FD3FC
:10270000176A4F0E166E03EC32F049D3176A500E5B
:10271000166E03EC32F043D3176A510E166E03ECBB
:1027200032F03DD3176A520E166E03EC32F037D3F7
:10273000176A530E166E03EC32F031D3176A540E3B
:10274000166E03EC32F02BD3176A550E166E03EC9F
:1027500032F025D3176A560E166E03EC32F01FD3F3
:10276000176A570E166E03EC32F019D3176A580E1B
:10277000166E03EC32F013D3176A590E166E03EC83
:1027800032F00DD3176A5A0E166E03EC32F007D3EF
:10279000176A5B0E166E03EC32F001D3176A5C0EFB
:1027A000166E03EC32F0FBD2176A5D0E166E03EC68
:1027B00032F0F5D2176A5E0E166E03EC32F0EFD2ED
:1027C000176A5F0E166E03EC32F0E9D2176A600EDC
:1027D000166E03EC32F0E3D2176A610E166E03EC4C
:1027E00032F0DDD2176A620E166E03EC32F0D7D2E9
:1027F000176A630E166E03EC32F0D1D2176A640EBC
:10280000166E03EC32F0CBD2176A650E166E03EC2F
:1028100032F0C5D2176A660E166E03EC32F0BFD2E4
:10282000176A670E166E03EC32F0B9D2176A680E9B
:10283000166E03EC32F0B3D2176A690E166E03EC13
:1028400032F0ADD2176A6A0E166E03EC32F0A7D2E0
:10285000176A6B0E166E03EC32F0A1D2176A6C0E7B
:10286000166E03EC32F09BD2176A6D0E166E03ECF7
:1028700032F095D2176A6E0E166E03EC32F08FD2DC
:10288000176A6F0E166E03EC32F089D2176A700E5B
:10289000166E03EC32F083D2176A710E166E03ECDB
:1028A00032F07DD2176A720E166E03EC32F077D2D8
:1028B000176A730E166E03EC32F071D2176A740E3B
:1028C000166E03EC32F06BD2176A750E166E03ECBF
:1028D00032F065D2176A760E166E03EC32F05FD2D4
:1028E000176A770E166E03EC32F059D2176A780E1B
:1028F000166E03EC32F053D2176A790E166E03ECA3
:1029000032F04DD2176A7A0E166E03EC32F047D2CF
:10291000176A7B0E166E03EC32F041D2176A7C0EFA
:10292000166E03EC32F03BD2176A7D0E166E03EC86
:1029300032F035D2176A7E0E166E03EC32F02FD2CB
:10294000176A7F0E166E03EC32F029D2176A800EDA
:10295000166E03EC32F023D2176A810E166E03EC6A
:1029600032F01DD2176A820E166E03EC32F017D2C7
:10297000176A830E166E03EC32F011D2176A840EBA
:10298000166E03EC32F00BD2176A850E166E03EC4E
:1029900032F005D2176A860E166E03EC32F0FFD1C4
:1029A000176A870E166E03EC32F0F9D1176A880E9B
:1029B000166E03EC32F0F3D1176A890E166E03EC33
:1029C00032F0EDD1176A8A0E166E03EC32F0E7D1C1
:1029D000176A8B0E166E03EC32F0E1D1176A8C0E7B
:1029E000166E03EC32F0DBD1176A8D0E166E03EC17
:1029F00032F0D5D1176A8E0E166E03EC32F0CFD1BD
:102A0000176A8F0E166E03EC32F0C9D1176A900E5A
:102A1000166E03EC32F0C3D1176A910E166E03ECFA
:102A200032F0BDD1176A920E166E03EC32F0B7D1B8
:102A3000176A930E166E03EC32F0B1D1176A940E3A
:102A4000166E03EC32F0ABD1176A950E166E03ECDE
:102A500032F0A5D1176A960E166E03EC32F09FD1B4
:102A6000176A970E166E03EC32F099D1176A980E1A
:102A7000166E03EC32F093D1176A990E166E03ECC2
:102A800032F08DD1176A9A0E166E03EC32F087D1B0
:102A9000176A9B0E166E03EC32F081D1176A9C0EFA
:102AA000166E03EC32F07BD11A6A7AD1176AF20EF5
:102AB000166E03EC32F073D1176AF30E166E03EC48
:102AC00032F06DD1195001E1A3D5010A01E1A6D57B
:102AD000030A01E1A9D5010A01E1ACD5070A01E128
:102AE000AFD5010A01E1B2D5030A01E1B5D5010A6A
:102AF00001E1B8D50F0A01E1BBD5010A01E1BBD55F
:102B0000030A01E1BBD5010A01E1BBD5070A01E1D6
:102B1000BBD5010A01E1BBD5030A01E1BBD5010A1E
:102B200001E1BBD51F0A01E1BBD5010A01E1BBD51B
:102B3000030A01E1BBD5010A01E1BBD5070A01E1A6
:102B4000BBD5010A01E1BED5030A01E1C1D5010AE5
:102B500001E1C4D50F0A01E1C7D5010A01E1CAD5D7
:102B60003F0A01E1CDD5010A01E1D0D50F0A01E10B
:102B7000D3D5010A01E1D6D5030A01E1D9D5010A6D
:102B800001E1DCD5070A01E1DFD5010A01E1E2D567
:102B9000030A01E1E5D5010A01E1E8D51F0A01E1D7
:102BA000EBD5010A01E1EED5030A01E1F1D5010AF5
:102BB00001E1F4D5070A01E1F7D5010A01E1FAD5EF
:102BC000030A01E1FDD5010A01E100D60F0A01E186
:102BD00003D6010A01E106D6030A01E109D6010A7A
:102BE00001E10CD6070A01E10FD6010A01E112D674
:102BF000030A01E115D6010A01E118D67F0A01E1B5
:102C00001BD6010A01E11ED6030A01E121D6010A01
:102C100001E124D6070A01E127D6010A01E12AD6FB
:102C2000030A01E12DD6010A01E130D60F0A01E1C4
:102C300033D6010A01E136D6030A01E139D6010A89
:102C400001E13CD6070A01E13FD6010A01E142D683
:102C5000030A01E145D6010A01E148D61F0A01E154
:102C60004BD6010A01E14ED6030A01E151D6010A11
:102C700001E154D6070A01E157D6010A01E15AD60B
:102C8000030A01E15DD6010A01E160D60F0A01E104
:102C900063D6010A01E166D6030A01E169D6010A99
:102CA00001E16CD6070A01E16FD6010A01E172D693
:102CB000030A01E175D6010A01E178D63F0A01E174
:102CC0007BD6010A01E17ED6030A01E181D6010A21
:102CD00001E184D6070A01E187D6010A01E18AD61B
:102CE000030A01E18DD6010A01E190D60F0A01E144
:102CF00093D6010A01E196D6030A01E199D6010AA9
:102D000001E19CD6070A01E19FD6010A01E1A2D6A2
:102D1000030A01E1A5D6010A01E1A8D61F0A01E1D3
:102D2000ABD6010A01E1AED6030A01E1B1D6010A30
:102D300001E1B4D6070A01E1B7D6010A01E1B4D630
:102D4000030A01E1B3D6010A01E1B6D6ADD64604C5
:102D5000471026E1480E196009D0AA0E1924166EF4
:102D6000176A000E172203EC32F019D0540E1960C6
:102D70000BD01950B80F186EA80E1824D96EDA6A45
:102D8000010EDA22DF500BD0620E196009D04A0E14
:102D90001924166E176A000E172203EC32F01A6E11
:102DA0001A5012007EEC32F00F6A410E0E6E000EC9
:102DB000106A57EC30F07EEC32F00F6A410E0E6E66
:102DC000000E106A57EC30F07EEC32F00F6A430EC2
:102DD0000E6E010E106E57EC30F07EEC32F00F6A82
:102DE000440E0E6E010E106E57EC30F07EEC32F099
:102DF0000F6A450E0E6E010E106E57EC30F07EEC31
:102E000032F00F6A460E0E6E010E106E57EC30F067
:102E10007EEC32F00F6A470E0E6E010E106E57EC0C
:102E200030F07EEC32F00F6A480E0E6E010E106E1E
:102E300057EC30F07EEC32F00F6A490E0E6E1E0E2B
:102E4000106E57EC30F07EEC32F00F6A4A0E0E6EC8
:102E5000000E106A57EC30F07EEC32F00F6A4B0E29
:102E60000E6E000E106A57EC30F07EEC32F00F6AF6
:102E70004C0E0E6E000E106A57EC30F07EEC32F005
:102E80000F6A4D0E0E6E000E106A57EC30F07EEC9D
:102E900032F00F6A4E0E0E6E000E106A57EC30F0D4
:102EA0007EEC32F00F6A4F0E0E6E0F0E106E57EC66
:102EB00030F07EEC32F00F6A500E0E6E680E106E1F
:102EC00057EC30F07EEC32F00F6A510E0E6E0D0EA4
:102ED000106E57EC30F07EEC32F00F6A520E0E6E30
:102EE0007F0E106E57EC30F07EEC32F00F6A530E0E
:102EF0000E6E0D0E106E57EC30F07EEC32F00F6A55
:102F0000540E0E6E7F0E106E57EC30F07EEC32F0E9
:102F10000F6A550E0E6E0D0E106E57EC30F07EECF3
:102F200032F00F6A560E0E6E7F0E106E57EC30F0B8
:102F30007EEC32F00F6A570E0E6E0D0E106E57ECCF
:102F400030F07EEC32F00F6A580E0E6E7F0E106E6F
:102F500057EC30F07EEC32F00F6A590E0E6E0D0E0B
:102F6000106E57EC30F07EEC32F00F6A5A0E0E6E97
:102F70007F0E106E57EC30F07EEC32F00F6A5B0E75
:102F80000E6E800E106E57EC30F07EEC32F00F6A51
:102F90005C0E0E6EFF0E106857EC30F07EEC32F0D7
:102FA0000F6A5D0E0E6E800E106E57EC30F07EECE8
:102FB00032F00F6A5E0E0E6EFF0E106857EC30F0A6
:102FC0007EEC32F00F6A5F0E0E6E800E106E57ECC4
:102FD00030F07EEC32F00F6A600E0E6EFF0E10685D
:102FE00057EC30F07EEC32F00F6A610E0E6E800E00
:102FF000106E57EC30F07EEC32F00F6A620E0E6EFF
:10300000FF0E106857EC30F07EEC32F00F6A630E62
:103010000E6E800E106E57EC30F07EEC32F00F6AC0
:10302000640E0E6EFF0E106857EC30F07EEC32F03E
:103030000F6A650E0E6E800E106E57EC30F07EEC4F
:1030400032F00F6A660E0E6EFF0E106857EC30F00D
:103050007EEC32F00F6A670E0E6E7F0E106E57EC2C
:1030600030F07EEC32F00F6A680E0E6EFF0E1068C4
:1030700057EC30F07EEC32F00F6A690E0E6E7F0E68
:10308000106E57EC30F07EEC32F00F6A6A0E0E6E66
:10309000FF0E106857EC30F07EEC32F00F6A6B0ECA
:1030A0000E6E7F0E106E57EC30F07EEC32F00F6A31
:1030B0006C0E0E6EFF0E106857EC30F07EEC32F0A6
:1030C0000F6A6D0E0E6E7F0E106E57EC30F07EECB8
:1030D00032F00F6A6E0E0E6EFF0E106857EC30F075
:1030E0007EEC32F00F6A6F0E0E6E7F0E106E57EC94
:1030F00030F07EEC32F00F6A700E0E6EFF0E10682C
:1031000057EC30F07EEC32F00F6A710E0E6E7F0ECF
:10311000106E57EC30F07EEC32F00F6A720E0E6ECD
:10312000FF0E106857EC30F07EEC32F00F6A730E31
:103130000E6E000E106A57EC30F07EEC32F00F6A23
:10314000740E0E6E000E106A57EC30F07EEC32F00A
:103150000F6A750E0E6E000E106A57EC30F07EECA2
:1031600032F00F6A760E0E6E000E106A57EC30F0D9
:103170007EEC32F00F6A770E0E6E000E106A57EC7E
:1031800030F07EEC32F00F6A780E0E6E000E106A90
:1031900057EC30F07EEC32F00F6A790E0E6E000EB6
:1031A000106A57EC30F07EEC32F00F6A7A0E0E6E39
:1031B000000E106A57EC30F07EEC32F00F6A7B0E96
:1031C0000E6E000E106A57EC30F07EEC32F00F6A93
:1031D0007C0E0E6E000E106A57EC30F07EEC32F072
:1031E0000F6A7D0E0E6E000E106A57EC30F07EEC0A
:1031F00032F00F6A7E0E0E6E000E106A57EC30F041
:103200007EEC32F00F6A7F0E0E6E106E57EC30F0CF
:103210007EEC32F00F6A800E0E6EFF0E106857ECD7
:1032200030F07EEC32F00F6A810E0E6E7F0E106E63
:1032300057EC30F07EEC32F00F6A820E0E6EFF0E0D
:10324000106857EC30F07EEC32F00F6A830E0E6E91
:103250007F0E106E57EC30F07EEC32F00F6A840E69
:103260000E6EFF0E106857EC30F07EEC32F00F6AF5
:10327000850E0E6E7F0E106E57EC30F07EEC32F045
:103280000F6A860E0E6EFF0E106857EC30F07EEC63
:1032900032F00F6A870E0E6E7F0E106E57EC30F014
:1032A0007EEC32F00F6A880E0E6EFF0E106857EC3F
:1032B00030F07EEC32F00F6A890E0E6E7F0E106ECB
:1032C00057EC30F07EEC32F00F6A8A0E0E6EFF0E75
:1032D000106857EC30F07EEC32F00F6A8B0E0E6EF9
:1032E000800E106E57EC30F07EEC32F00F6A8C0ED0
:1032F0000E6E000E106A57EC30F07EEC32F00F6A62
:103300008D0E0E6E800E106E57EC30F07EEC32F0AB
:103310000F6A8E0E0E6E000E106A57EC30F07EECC7
:1033200032F00F6A8F0E0E6E800E106E57EC30F07A
:103330007EEC32F00F6A900E0E6E000E106A57ECA3
:1033400030F07EEC32F00F6A910E0E6E800E106E31
:1033500057EC30F07EEC32F00F6A920E0E6E000EDB
:10336000106A57EC30F07EEC32F00F6A930E0E6E5E
:10337000800E106E57EC30F07EEC32F00F6A940E37
:103380000E6E000E106A57EC30F07EEC32F00F6AD1
:10339000950E0E6E800E106E57EC30F07EEC32F013
:1033A0000F6A960E0E6E000E106A57EC30F07EEC2F
:1033B00032F00F6A970E0E6E020E106E57EC30F060
:1033C0007EEC32F00F6A980E0E6E020E106E57EC05
:1033D00030F07EEC32F00F6A990E0E6E020E106E17
:1033E00057EC30F07EEC32F00F6A9A0E0E6E020E41
:1033F000106E57EC30F07EEC32F00F6A9B0E0E6EC2
:10340000020E106E57EC30F07EEC32F00F6A9C0E1C
:103410000E6E020E106E57EC30F07EEC32F00F6A3A
:10342000F20E0E6EC30E106E57EC30F07EEC32F0E2
:103430000F6AF30E0E6E500E106E57EC30F07EECED
:1034400032F00F6A9E0E0E6E000E106A57EC30F0CE
:103450007EEC32F00F6A9F0E0E6E000E106A57EC73
:1034600030F07EEC32F00F6AA00E0E6E000E106A85
:1034700057EC30F07EEC32F00F6AA10E0E6E000EAB
:10348000106A57EC30F07EEC32F00F6AA20E0E6E2E
:10349000000E106A57EC30F07EEC32F00F6AA30E8B
:1034A0000E6E000E106A57EC30F07EEC32F00F6AB0
:1034B000A40E0E6E000E106A57EC30F07EEC32F067
:1034C0000F6AA50E0E6E000E106A57EC30F07EECFF
:1034D00032F00F6AA60E0E6E000E106A57EC30F036
:1034E0007EEC32F00F6AA70E0E6E000E106A57ECDB
:1034F00030F07EEC32F00F6AA80E0E6E000E106AED
:1035000057EC30F07EEC32F00F6AA90E0E6E106AA6
:1035100057EF30F069516811D8A412003DD3120062
:10352000C6EF30F0E2EF2FF091EF30F066510F0B65
:10353000020AD8A412000001C751010121EE6CF06B
:10354000DF621200800E6D6111D06D5101EC13F03D
:103550000001D26F6DC1D1F0030ECC6F820ECB6F24
:10356000CD6BCE6B0A0ECF6FDEEF30F06D5134ECC9
:1035700022F0EED766510F0B030AD8A41200000107
:10358000C751010121EE6CF0DF621200800E6D6107
:1035900006D06EC121F06D51B7EC07F0D9D76EC1DE
:1035A00019F06D51F2EC26F0D3D70001C75101019B
:1035B00021EE6CF0DF621200000E45EC32F00101EA
:1035C0006E19D8A41200030E45EC32F001016F19F8
:1035D000D8A41200050E45EC32F001017019D8A4F0
:1035E0001200070E45EC32F001017119D8A4120047
:1035F00047507219D8A41200465021EE73F0DF62D2
:1036000012006D516DEF31F0000E45EC32F001010A
:103610006D1974E1010E45EC32F001016E196EE195
:10362000020E45EC32F001016F1968E1030E45EC22
:1036300032F00101701962E14E8860D0040E45EC51
:1036400032F001016D195AE1050E45EC32F001012D
:103650006E1954E1060E45EC32F001016F194EE18E
:10366000070E45EC32F00101701948E14E8A46D050
:10367000080E45EC32F001016D1940E1090E45ECF0
:1036800032F001016E193AE10A0E45EC32F0010107
:103690006F1934E10B0E45EC32F0010170192EE187
:1036A0004E8C2CD00C0E45EC32F001016D1926E148
:1036B0000D0E45EC32F001016E1920E10E0E45ECC5
:1036C00032F001016F191AE10F0E45EC32F00101E1
:1036D000701914E14E8E12D04E6A10D06C390F0B57
:1036E00000017F6F806B8051F7E17F518DE0010A0F
:1036F000A5E0030ABDE0010AD5E0EED74E50F00B7D
:10370000F00AD8B4B9EC2DF012000001C751010144
:1037100021EE6CF0DF62120000018D6B6DC18CF048
:103720006EC18FF09B6B4AD08C519B251BEC32F005
:1037300000017F6F070E0E6E9B5122EC31F00001ED
:10374000806F8051D20FD96EDA6A7FC0DFFF070E1B
:103750000E6E9B5122EC31F0060A0BE0FF0E0001C9
:103760008F257F6F806BFF0E80239B517F19801107
:1037700024E1070E0E6E00019B5122EC31F0060A87
:1037800003E1070E000109D0070E0E6E00019B51E8
:1037900022EC31F000017F6F7F298E6F8E51810FF7
:1037A000CB6F070ECC6FCD6BCE6B1A0ECF6F8DC06B
:1037B000D1F0DEEC30F000018D2B9B2B8F519B5D07
:1037C000D8B01200B1D70001C751010121EE6CF051
:1037D000DF6212006DC190F06651FE0F070B000111
:1037E000916F966B1BD06E0E00019625D96EDA6A2A
:1037F000010EDA22DF50256E9051962591EC31F0C2
:103800000001905196251BEC32F000017F6F96511C
:10381000D20FD96EDA6A7FC0DFFF962B9151965D89
:10382000E2E3070ECC6FCD6BCE6B1A0ECF6FD16B70
:103830009151810FCB6FDEEF30F00001C7510101D4
:1038400021EE6CF0DF6212006D5101EC13F000010B
:103850007F6F7F29216E01016D51B7EC07F078D69B
:103860000001C751010121EE6CF0DF6212006D51C1
:1038700001EC13F000017F6F7F05216E01016D5196
:10388000B7EC07F065D66C510001C71904E00101DF
:103890006C29D8A412000001956B030ECC6F880E22
:1038A000CB6FCD6BCE6B200ECF6F9A6B9AC0D1F0E1
:1038B000010E9C6F9C51D10FD96EDA6A95510F0899
:1038C00045EC32F0DF6E0001952B100E956501D0AE
:1038D00004D09C2B070E9C65EDD7100E956501D08A
:1038E00007D0DEEC30F000019A2B020E9A65DED78D
:1038F0009C6B9C51DAEC31F0000909E000019C510D
:10390000D40FD96EDA6A9C51DAEC31F006D000019E
:103910009C51D40FD96EDA6A000EDF6E00019C2B29
:10392000040E9C65E6D7DEEC30F0050E0001956FC5
:10393000030E9A6F9AC0D1F0010E9C6F9C51D10F6B
:10394000D96EDA6A9551DAEC31F0DF6E0001952B11
:103950009C2B070E9C65F2D7DEEC30F000019A2B11
:10396000060E9A65E7D7060C0001C751010121EE4A
:103970006CF0DF621200030E0001CC6F870ECB6F7C
:10398000CD6BCE6B220ECF6FD10EF6EC31F0DEEFA9
:1039900030F00001C751010121EE6CF0DF6212002E
:1039A0000001976B66C17FF00F0E7F17040E7F5DDD
:1039B00012E370C198F0996B9951981103E1010ECF
:1039C000996F986B010E985D010E995907E3010EEE
:1039D000996F000E02D0996B010E986F46C086F069
:1039E00047C087F001016E516DC17FF00001806B0F
:1039F0007FC080F07F6B7F11466E8051476E070E4F
:103A0000CC6FCD6BCE6B270ECF6FD16B6DC1D2F06B
:103A10006EC1D3F09751985D7F6F000E9959806FFA
:103A2000040E7F5D000E805902E3040E02D0975110
:103A3000985D926F9251840FCB6F01016F5100011D
:103A40009725D46F936B10D001016F51000197251A
:103A500093251BEC32F000017F6F9351D50FD96E87
:103A6000DA6A7FC0DFFF932B9251935DEDE348C08C
:103A700088F049C089F0DEEC30F0020E00018825A4
:103A80007F6F000E8921806F7F51485C80514958BB
:103A9000F4E392519727D12B97517F6F806B985108
:103AA0007F5D99518059B6E386C046F087C047F0E4
:103AB00012000001C751010121EE6CF0DF6212001B
:103AC00046C08AF047C08BF06E516DC17FF0000197
:103AD000806B7FC080F07F6B7F11466E8051476E98
:103AE0006FC194F022D0700E7F6F010E806F9451E1
:103AF0007F27000E802301016F5100017F5DD96E89
:103B00008051D8A08005DA6EDF50256E945191EC7B
:103B100031F00001816F01016F510001D50894253A
:103B2000D96EDA6A81C0DFFF942B010166510F0B59
:103B300000017F6F806B01016F5100017F27000E34
:103B40008023FC0E7F25816FFF0E8021826F9451B0
:103B5000836F846B8451800A856F8151835D8251AC
:103B6000800A8559C0E38AC046F08BC047F0070E33
:103B7000CC6F010166510F0B800F0001CB6FCD6B35
:103B8000CE6B270ECF6FD16B6DC1D2F06EC1D3F06B
:103B90006FC1D4F0DEEF30F06A51010A01E1BFD409
:103BA000030A01E1BDD4040A01E1BCD40E0A01E11B
:103BB000BBD4010A01E1BAD4020A01E1DBD4070A4D
:103BC00001E1F3D41B0A01E189D50F0A01E19DD57A
:103BD000010A01E1F8D5040A01E12FD6030A01E147
:103BE0003FD6010A01E14FD63E0A01E1BDD6040AE3
:103BF00001E1CFD6030AD8A412005BD7176AF30EEF
:103C0000166E03EC32F00001AD6F176AF20E166EFD
:103C100003EC32F0196E0001AD51186E0DEC31F06D
:103C20001BC063F01AC062F019C061F018C060F0E8
:103C30000001646B400E656F1C0E666F460E676F69
:103C4000EBEC29F063C097F162C096F161C095F189
:103C500060C094F10101A76BA7C1ADF0010E000196
:103C6000AE6FAD2B02D0D890AE37AD2FFCD7AE5192
:103C7000C11501E1FBD101019F6BA06BA16BA26B90
:103C80009E6B010E2E6E9F0E2D6ED890A7350001F3
:103C9000AD6FAE6BAE3701019E510C0DA90EF32432
:103CA0000001AF6F010EF420B06FAD51AF25D96E9A
:103CB000AE51B021DA6EDF50B16FD8900101A73557
:103CC0000001B26FB36BB33701019E510C0DA80E0A
:103CD000F3240001B46F010EF420B56FB251B42586
:103CE000D96EB351B521DA6EDF50196EB151186E2D
:103CF0000DEC31F01BC032F01AC031F019C030F0B9
:103D000018C02FF0A7EC2EF001019E2B4F0E9E65E0
:103D1000B8D7010E0001696F9F0E686F6A6B6B6BFD
:103D2000A00E6C6F420E6D6F35EC2EF00101A751A5
:103D3000020D500EF324166E000EF420176E03ECE5
:103D400032F00001AD6F0101A751020D4F0EF324B7
:103D5000166E000EF420176E03EC32F00101996F1D
:103D60000001AD510101986F330E0001646F130E15
:103D7000656F950E666FC30E676F98C118F099C195
:103D800019F00DEC31F01BC063F01AC062F019C0DD
:103D900061F018C060F0EBEC29F063C07BF162C009
:103DA0007AF161C079F160C078F178C1A2F079C18F
:103DB000A3F07AC1A4F07BC1A5F03CEC21F0A5C032
:103DC0007FF1A4C07EF1A3C07DF1A2C07CF17CC1D3
:103DD00068F07DC169F07EC16AF07FC16BF00001BF
:103DE0006C6B400E6D6F1C0E6E6F460E6F6FFAECB3
:103DF00027F06BC077F16AC076F169C075F168C0D1
:103E000074F19FC16CF0A0C16DF0A1C16EF0A2C1B0
:103E10006FF094C168F095C169F096C16AF097C1DE
:103E20006BF0FAEC27F06BC063F06AC062F069C017
:103E300061F068C060F00001646B656B800E666FB6
:103E4000450E676FEBEC29F063C093F162C092F10D
:103E500061C091F160C090F100016C6B400E6D6F1C
:103E60001C0E6E6F460E6F6F90C131F091C132F033
:103E700092C133F093C134F094C12DF095C12EF06E
:103E800096C12FF097C130F000EC30F030C06BF0ED
:103E90002FC06AF02EC069F02DC068F0FAEC27F050
:103EA0006BC063F06AC062F069C061F068C060F026
:103EB00090C164F091C165F092C166F093C167F062
:103EC000EBEC29F063C09DF162C09CF161C09BF1F5
:103ED00060C09AF174C164F075C165F076C166F096
:103EE00077C167F09AC160F09BC161F09CC162F03C
:103EF0009DC163F0EBEC29F063C08CF062C08BF0E5
:103F000061C08AF060C089F0C6EC25F08CC083F1F6
:103F10008BC082F18AC081F189C080F198C118F00C
:103F200099C119F00DEC31F01BC063F01AC062F0BA
:103F300019C061F018C060F080C164F081C165F003
:103F400082C166F083C167F0EBEC29F063C0A6F193
:103F500062C0A5F161C0A4F160C0A3F10101010E2E
:103F6000366EA30E356E330E376E930E386E880E96
:103F7000396E430E3A6ECCEC2EF00101A751020DC2
:103F8000000EF324D96E010EF420DA6EDECFADF010
:103F9000DDCFAEF0ADC0AFF0AEC0B0F0000E0001AE
:103FA000B0BFFF0EB16FB26F0101A751C3EC2FF08C
:103FB00018C0B3F019C0B4F0000E0001B4BFFF0E7A
:103FC000B56FB66F6C6B6D6BC80E6E6F420E6F6F18
:103FD000A3C168F0A4C169F0A5C16AF0A6C16BF0E5
:103FE000FAEC27F06BC081F06AC080F069C07FF006
:103FF00068C07EF04EEC2BF0B3517E25B76FB45104
:104000007F21B86FB5518021B96FB6518121BA6F48
:10401000AF51B725866FB051B821876FB151B92123
:10402000886FB251BA21896F020E8A6F000E8B6BB6
:104030008C6B8D6B8DEC29F00101A751020D000EE8
:10404000F324D96E010EF420DA6E000186C0DEFF83
:1040500087C0DDFFA7C1ADF0010EAE6FAD2B02D062
:10406000D890AE37AD2FFCD7AE1DC1170101A72BDD
:10407000050EA765F1D5050CE8CF1CF04A6A725011
:10408000C00B1E6E1E6630D060AE12D0779071AE3F
:1040900006D01950D96EDA6A000EDB86719E60A0D8
:1040A00002D04A8001D04A900F0E216E600E1AD0C5
:1040B0000F0130AF000C779271AC06D01950D96E59
:1040C000DA6A000EDB86719C3051070B4A6E020ED5
:1040D0004A6005D01950D96EDA6A000EDB8E0F0ED9
:1040E000216E300E206E5BD01E50400A3EE160AE65
:1040F00004D00F0E216E600E36D00F0130AF04D009
:104100000F0E216E300E2FD00E017DA580AF04D092
:104110000E0E216E800E27D00E017DA790AF04D029
:104120000E0E216E900E1FD00E017DA9A0AF04D0FF
:104130000E0E216EA00E17D00E017DABB0AF04D0D5
:104140000E0E216EB00E0FD00E017DADC0AF04D0AB
:104150000E0E216EC00E07D00E017DAFD0AF000C49
:104160000E0E216ED00E206E0AD071AE000C6F5074
:10417000070B3FEC2DF00EC020F00FC021F020C047
:10418000D9FF21C0DAFFDF501F0B4A6E779271AC66
:1041900006D01950D96EDA6A000EDB86719C20C0F9
:1041A0001AF021C01BF01950D96EDA6ADF6A20EECE
:1041B00005F02050D9262150DA22DF501F6E1F5003
:1041C0000F0B17C0D9FF18C0DAFFDF6E1FAC05D088
:1041D0001950D96EDA6A000EDB8C20EE02F0205006
:1041E000D9262150DA22DF501F6E1FA608D01950A1
:1041F000D96EDA6A000EDB8A010E1F6E01D01F6ACB
:1042000020280E6E000E21200F6E1CC010F01FC063
:1042100011F00CEC23F0060E2026000E212217C010
:10422000D9FF18C0DAFFDF501F6E1D6A0FD020C003
:10423000D9FF21C0DAFF15C0E1FF16C0E2FFDFCFD2
:10424000E7FF204A212A154A162A1D2A1F501D5C05
:10425000EEE377AE06D01950D96EDA6A000EDB882D
:10426000779E1AC0D9FF1BC0DAFF7F0EDF161E50E3
:10427000800AD8B4719E010C000120EEA2F0DE503D
:10428000DE10DE10DE1008E1000EA26FA36F800EBC
:10429000A46F3F0EA56F3F0C180E0E6E720E0F6EC0
:1042A000310E106E440E116EA2C012F0A3C013F0B6
:1042B000A4C014F0A5C015F05BEC2EF007E20001DD
:1042C000A269A3697F0EA46FA56F7F0CA2C00EF038
:1042D000A3C00FF0A4C010F0A5C011F0870E126E9D
:1042E000480E136E3A0E146EC40E156E5BEC2EF073
:1042F00006E20001A26BA36BA46BA56B1200000188
:10430000010EA5AF000EAC6FAC5112E0A2C00EF0D2
:10431000A3C00FF0A4C010F0A5C011F049EC31F01B
:1043200011C0A5F010C0A4F00FC0A3F00EC0A2F001
:104330003B0E7E6FAA0E7F6FB80E806F3F0E816FAF
:10434000A20E81EC2EF0A2C098F0A3C099F0A4C0F8
:104350009AF0A5C09BF07CEC27F09BC0A9F09AC016
:10436000A8F099C0A7F098C0A6F0A6C07EF0A7C09C
:104370007FF0A8C080F0A9C081F04EEC2BF07EC089
:10438000AAF07FC0ABF0000E366EA20E356EAAC04A
:1043900018F0ABC019F074EC30F01BC03AF01AC042
:1043A00039F019C038F018C037F0CCEC2EF0A2C0AC
:1043B0007EF0A3C07FF0A4C080F0A5C081F0200EE5
:1043C0000001826F846B090E836F69EC28F081C055
:1043D0008CF080C08BF07FC08AF07EC089F0AAC0CC
:1043E0008DF0ABC08EF0F7EC2AF08CC0A5F08BC03E
:1043F000A4F08AC0A3F089C0A2F0AC512CE020EE5A
:10440000A2F0FF0EDE18FF0ED8B4DE187F0ED8B46F
:10441000DE187F0ED8B4DE1805E1A26BA36BA46B87
:10442000A56B1200606B616B800E626F3F0E636F55
:10443000A2C064F0A3C065F0A4C066F0A5C067F098
:10444000EBEC29F063C0A5F062C0A4F061C0A3F05A
:1044500060C0A2F01200A2C0A2F0A3C0A3F0A4C04A
:10446000A4F0A5C0A5F01200E8CF29F0286A2950D1
:10447000800A04E14CC028F04C6ACCD02950810A53
:1044800002E1010E82D02950820A02E1060E7DD09F
:104490002950830A03E14DC028F0BCD02950940A6A
:1044A00003E18EEC32F071D02950950A03E18DECD6
:1044B00032F06BD02950960A03E18CEC32F065D0D3
:1044C000890E296005D029507C0F3BEC32F05DD07D
:1044D000880E296408D0910E296005D02950770FE5
:1044E00031EC32F052D02950910A03E1C7C028F0D4
:1044F00091D02950930A03E146C028F08BD029506F
:10450000920A02E1475041D02950970A03E18BEC0F
:1045100032F03BD02950980A03E18AEC32F035D0D2
:104520002950990A03E189EC32F02FD0990E2964C1
:104530002ED09E0E29602BD070EC32F011C021F0ED
:1045400010C020F00FC01FF00EC01EF02950660FE3
:10455000266E26500308196ED8901936D890193651
:10456000D890193619501EC01AF01FC01BF020C079
:104570001CF021C01DF0E82A05D0D8901D321C3255
:104580001B321A32E82EF9D730D0286E43D09D0E58
:1045900029642DD0A20E29602AD06BEC32F011C014
:1045A00025F010C024F00FC023F00EC022F02950D7
:1045B000620F276E27500308196ED8901936D890CD
:1045C0001936D8901936195022C01AF023C01BF0A2
:1045D00024C01CF025C01DF0E82A05D0D8901D325B
:1045E0001C321B321A32E82EF9D71A50CED7CF0E12
:1045F000296408D0E00E296005D02950300F45EC21
:1046000032F0C3D7DF0E296405D02950200FDAEC31
:1046100031F0BBD72850120010C014F0116646D0FC
:104620001450D96EDA6A0EC0E1FF0FC0E2FFE75006
:10463000126ED8901236D8901236D8901234DF6E9F
:104640001450D96EDA6AD92ADA6A0EC0E1FF0FC0B7
:10465000E2FFE750126E050E136ED8901232132E41
:10466000FCD71250DF6E0E4A0F2A0EC0D9FF0FC0C2
:10467000DAFFDF50126E050E136ED8901232132E31
:10468000FCD71450D96EDA6A1250DF121450D96E6A
:10469000DA6A020ED926DA6ADF6A1450D96EDA6A4B
:1046A000030ED926DA6A000EDF6E000C1450D96EA4
:1046B000DA6A020ED926DA6A0EC0E1FF0FC0E2FF05
:1046C000E750126E050E136ED8901236132EFCD7DB
:1046D0001250DF6E1450D96EDA6A030ED926DA6AE8
:1046E0000EC0E1FF0FC0E2FFE750126ED890123209
:1046F000D8901232D8901230DF6E0E4A0F2A0EC0B8
:10470000D9FF0FC0DAFFDF50126E030E12161450DD
:10471000D96EDA6A020ED926DA6A1250DF120EC09A
:10472000D9FF0FC0DAFFDF50126ED8901232D89046
:104730001232D89012321C0E12161450D96EDA6A48
:10474000020ED926DA6A1250DF120E4A0F2A0EC064
:10475000D9FF0FC0DAFF1450E16EE26AE12AE26A83
:10476000DFCFE7FF0E4A0F2A0EC0D9FF0FC0DAFFD6
:104770001450E16EE26ADFCFE7FF120020342134EB
:104780002C6E243425342B6E2C5009E02B502C60D9
:104790000FD02C502B5C266E210E265C09E322C024
:1047A0001EF023C01FF024C020F025C021F012000D
:1047B0002B5009E02C502B600FD02B502C5C266E18
:1047C000210E265C09E31EC01EF01FC01FF020C092
:1047D00020F021C021F01200060E2A6E21BE2A8E82
:1047E00025BE2A8C208E216A248E256A2B502C60AF
:1047F00018D0D89022362336243625362B062B5057
:104800002C180BE02A062A50070B07E0F2D7D890A5
:10481000213220321F321E322C2A2B502C62F7D725
:104820001AD02C502B6017D0D8901E361F36203649
:1048300021362C062B502C180BE02A062A50070B89
:1048400007E0F2D7D89025322432233222322B2AA5
:104850002B502C62F7D72AAE09D01E1E1F1E201E19
:10486000211E1E2A000E1F22202221222AAC09D03E
:10487000221E231E241E251E222A000E232224224D
:1048800025222A6A1E5022261F502322205024222D
:104890002150252225AE0BD0221E231E241E251EAC
:1048A000222A000E232224222522010E2A6E22C053
:1048B0000EF023C00FF024C010F025C011F02CC062
:1048C00012F02AC013F02DEC29F011C021F010C015
:1048D00020F00FC01FF00EC01EF012000F0E216E50
:1048E000200E206E0F0E236E100E226E0F0E256E00
:1048F000246A0E010E0E276E800E266E0E0E296E95
:10490000900E286E0E0E2B6EA00E2A6E0E0E2D6EC1
:10491000B00E2C6E0E0E2F6EC00E2E6E0E0E316E61
:10492000D00E306E7250C00B326E326602D0020E64
:1049300001D0080E336ED8907D31356E396A7AD049
:104940003950020DF350200FD96EDA6ADECF3AF0FB
:10495000DDCF3BF03AC036F03BC037F0020E396491
:1049600004D0D890353235A064D03AC0D9FF3BC0CE
:10497000DAFFDF501F6E1FB65CD03AC0D9FF3BC0D4
:10498000DAFFFC0EDF161EC01FF0030E1F163AC022
:10499000D9FF3BC0DAFF1F50DF121EAC04D01D5000
:1049A0004009386E02D01DC038F020EE05F03A50B4
:1049B000D9263B50DA2238C0DFFF1EAA03D0010EF1
:1049C000386E01D0386A3A280E6E000E3B200F6E0A
:1049D00018C010F019C011F01AC012F01BC013F06B
:1049E00038C014F01EEC25F0060E3A26000E3B22CD
:1049F000346A0DD01C50D96EDA6A3AC0E1FF3BC070
:104A0000E2FFDFCFE7FF1C2A3A4A3B2A342A1D5037
:104A1000345CF0E336C0D9FF37C0DAFFDF501F6ED9
:104A20001FB4010C36C0D9FF37C0DAFF000EDB8699
:104A3000010C392A3350395C83E3000C100E176ED9
:104A4000146637D01750D96EDA6ADF50156ED890D9
:104A50001532D8901532D89015300EC0D9FF0FC03E
:104A6000DAFFDF6E1750D96EDA6AD92ADA6ADF50B8
:104A7000156E050E166ED8901536162EFCD70EC084
:104A8000D9FF0FC0DAFF1550DF120E4A0F2A175058
:104A9000D96EDA6ADF50156E050E166ED89015368F
:104AA000162EFCD715500EC0D9FF0FC0DAFFDF6EEF
:104AB00012001750D96EDA6A020ED926DA6ADF5070
:104AC000156E050E166ED8901532162EFCD71550A1
:104AD0000EC0D9FF0FC0DAFFDF6E1750D96EDA6A49
:104AE000030ED926DA6ADF50156ED8901536D890A5
:104AF0001536D89015360EC0D9FF0FC0DAFF155005
:104B0000DF120E4A0F2A1750D96EDA6A020ED92622
:104B1000DA6ADF50156ED8901536D8901536D890D1
:104B20001534E00B0EC0D9FF0FC0DAFFDF6E0EC0E8
:104B3000D9FF0FC0DAFF000EDB861750D96EDA6A94
:104B4000020ED926DA6ADF50156E030E15160EC056
:104B5000D9FF0FC0DAFF1550DF120E4A0F2A175087
:104B6000D96EDA6AD92ADA6A0EC0E1FF0FC0E2FF15
:104B7000DFCFE7FF0E4A0F2A1750D96EDA6A0EC050
:104B8000E1FF0FC0E2FFDFCFE7FF120000018CAFB3
:104B900005D0896B8A6B8B6B8C6B120020EE89F0D1
:104BA000DE50DE10DE10DE1005E1896B8A6B8B6B48
:104BB0008C6B12006C6B6D6B6E6B400E6F6F440EE6
:104BC000126E000E136E0F0E136E5F0E1264136AD8
:104BD00089C00EF08AC00FF08BC010F08CC011F0AD
:104BE0007BEC2CF011C06BF010C06AF00FC069F0C4
:104BF0000EC068F0FAEC27F06BC021F06AC020F01C
:104C000069C01FF068C01EF0226A236A800E246EFD
:104C1000BF0E256EBEEC23F021C08CF020C08BF0BF
:104C20001FC08AF01EC089F04406D8A0450689C07E
:104C30007EF08AC07FF08BC080F08CC081F0480E7F
:104C40000001826F846B080E836F69EC28F081C0CD
:104C50008CF080C08BF07FC08AF07EC089F0180E87
:104C60006C6F720E6D6F310E6E6F3F0E6F6F44C0C2
:104C700018F045C019F074EC30F01BC06BF01AC08E
:104C80006AF019C069F018C068F0FAEC27F06BC040
:104C900021F06AC020F069C01FF068C01EF089C012
:104CA00022F08AC023F08BC024F08CC025F0BEEC2B
:104CB00023F021C08CF020C08BF01FC08AF01EC0F2
:104CC00089F012000DEC2EF03AEC30F00009D8B467
:104CD000D2EC16F0B9EC2DF00400C50E01011C5DFC
:104CE000090E1D590FE30001C8050CE0C7697EECF1
:104CF00032F00F6A010E0E6EFF0E106857EC30F0A6
:104D0000B9EC2DF00101666B5EEC2FF025D0C729C0
:104D100003E1010EC86F2CD0030EC86FA0EC31F078
:104D200027D0CDEC28F024D0010166AF21D0695105
:104D3000681103E18AEC1AF01BD068511E0A691150
:104D400017E16A511A0A14E137EC2CF011D081EC0A
:104D500032F00ED0C86B0CD00001C851D8E0010A67
:104D6000E0E0030ADBE0010ADFE0070AF0E0F2D747
:104D7000E90E0101125D030E1359000E1459000EC5
:104D80001559AAE3126B136B146B156B08EC0FF03B
:104D9000C42BC851030A1AE1BB6BBC6BBD6BBE6B65
:104DA0000C0E0001BB25D96E010EBC21DA6EDF2A84
:104DB000BB2B000EBC23BD23BE23060EBB5D000E25
:104DC000BC59000EBD59000EBE59EAE33B0EC46546
:104DD00001D0C46BC851030AD8B4E5EC2DF0FEEC49
:104DE0001DF07AD7E8CF1FF0191C1E6E1F50830AE2
:104DF00002E14D6A7ED0830E1F640ED0890E1F60C3
:104E00000BD019C012F01F507C0FCCEC31F01F50AA
:104E10007C0F3BEC32F06BD01F50920A0DE1195021
:104E20001B6E1A6A46501C6E1D6A1A10466E1B5085
:104E30001D10476E47505BD01F50930A0BE11A6A52
:104E400047501B6E19501A10466E1B50476E46C0D5
:104E50001EF050D0880E1F6419D0910E1F6016D01E
:104E600047C01AF01AC01BF01C6A1B2802E1462832
:104E700002E0191C3CD019C012F01F50770FBEEC95
:104E800031F01F50770F31EC32F031D0CF0E1F646C
:104E900017D0E00E1F6014D047C01AF01AC01BF0E4
:104EA0001C6A1B28E6E14628E4E119C012F01F50F5
:104EB000300F5BEC31F01F50300F45EC32F017D063
:104EC0001F50A20AD6E11950550A05E10001BF6B37
:104ED000C06B550E0CD01950AA0A0CE1E80E000167
:104EE000BF5D030EC05905E27AEC32F0AA0E1E6EC9
:104EF00001D01E6A1E50120098C00EF099C00FF02B
:104F00009AC010F09BC011F0000E136EA00E126E2E
:104F10007BEC2CF0A1AF0FD09BAF08D0000E986FA8
:104F2000996F800E9A6FBF0E9B6FBF0C986B996B39
:104F30009A6B9B6B12001D0EA05D000EA15909E338
:104F400098C098F099C099F09AC09AF09BC09BF0D5
:104F5000120098C07EF099C07FF09AC080F09BC08C
:104F600081F04EEC2BF081C097F080C096F07FC0AE
:104F700095F07EC094F016EC2FF097C09FF096C08D
:104F80009EF095C09DF094C09CF098C00EF099C022
:104F90000FF09AC010F09BC011F09CC012F09DC0A1
:104FA00013F09EC014F09FC015F05BEC2EF019E2D8
:104FB0009CC01EF09DC01FF09EC020F09FC021F03D
:104FC000226A236A800E246EBF0E256EBEEC23F08B
:104FD00021C09BF020C09AF01FC099F01EC098F02D
:104FE00012009CC098F09DC099F09EC09AF09FC09E
:104FF0009BF0120000016A356B35776F776705D03B
:10500000686B696B6A6B6B6B120000016E356F35F4
:105010007D6F7D6705D0686B696B6A6B6B6B120087
:105020007D517B0F77276BC07DF000016F517D1B99
:10503000800E7D176A8F6E8F000E6F17786B796BFD
:105040007A6B7B6B070E7C6F68A108D06C51782758
:105050006D5179236E517A236F517B23D8906B3336
:105060006A3369336833D8906C376D376E376F3772
:105070007C2FEAD7110E7C6F68A108D06C5178277D
:105080006D5179236E517A236F517B23D8906B3306
:105090006A3369336833D8907B337A337933783322
:1050A0007C2FEAD778C00EF079C00FF07AC010F0EC
:1050B0007BC011F077C012F07DC013F02DEC29F009
:1050C00011C06BF010C06AF00FC069F00EC068F03C
:1050D00012008351040D8251F324436E43C0F6FF46
:1050E0000F0EF76E000EF86E0900F5CF85F009007F
:1050F000F5CF86F00900F5CF87F00A00F5CF88F0EC
:105100003FD085C06CF086C06DF087C06EF088C05F
:105110006FF07EC068F07FC069F080C06AF081C027
:105120006BF0FAEC27F06BC021F06AC020F069C088
:105130001FF068C01EF000018307D8A084078351C8
:10514000040D8251F324436E43C0F6FF0F0EF76E39
:10515000000EF86E0900F5CF22F00900F5CF23F01C
:105160000900F5CF24F00A00F5CF25F0BEEC23F0BE
:1051700021C088F020C087F01FC086F01EC085F0D7
:10518000000184518311BDE185C07EF086C07FF0AF
:1051900087C080F088C081F0120056D0512811E0FD
:1051A000810E0001CB6FCC6BCD6BCE6B020ECF6F3F
:1051B00051C0D1F0DEEC30F0010E506E486A496A01
:1051C00049D0040E0001C86F810ECB6FD169070E64
:1051D000CC6FCD6BCE6B030ECF6FDEEC30F03AD0E0
:1051E000010166AF11D06951681134E16A51030AB7
:1051F00031E1516604D0020E0001C86FDFD7512A99
:10520000506A0001C96B26D0E90E485C030E49586C
:1052100021E30001C92B020EC96514D0516605D0E7
:10522000512A506A486A496AECD751C0C7F0030E48
:10523000C86F506AC75126EC32F00001C96BA0EC70
:1052400031F008D0506A06D05050A8E0010AC8E0FA
:10525000030AF8E10101666B1200125005E01150DB
:105260000E100F1010100BE10E6A0F6A106A116A0F
:105270001200122AD890113210320F320E32146AF4
:10528000156A166AFE0E1114176E175014101510B9
:1052900016100CE0EED7122A0E2A000E0F22102252
:1052A0001122D890113210320F320E32146A156A60
:1052B000166A1150176E175014101510161007E0CB
:1052C000EAD71206D8900E360F361036113610AEC9
:1052D000F8D712B002D07F0E1016D890123212C03A
:1052E00014F0156A166A176A14C017F0166A156A60
:1052F000146A14500E1215500F1216501012175037
:1053000011121350D8A4118E0EC00EF00FC00FF062
:1053100010C010F011C011F012008F6B8DAF0AD0C9
:105320008D1F8C1F8B1F8A6D000E8B238C238D236A
:10533000010E8F6F89AF0AD0891F881F871F866D66
:10534000000E872388238923010E8F1B906B916B9E
:10535000926B936B8D518A118B118C1129E0010E88
:105360008E6F06D0D8908A378B378C378D378E2B3F
:105370008DAFF8D7D89090379137923793378A51BD
:10538000865D8B5187598C5188598D51895909E314
:105390008A51865F8B51875B8C51885B8D51895B0D
:1053A0009081D8908D338C338B338A338E2FE2D714
:1053B0008F5108E0931F921F911F906D000E912353
:1053C0009223932390C086F091C087F092C088F01A
:1053D00093C089F01200000162356335416E416669
:1053E00005D0606B616B626B636B12000001663508
:1053F0006735426E426605D0606B616B626B636BB2
:1054000012004250890F415E63C042F000016751B3
:10541000421A800E4216628F636B668F676B200E96
:10542000406ED8903C363D363E363F366451605D26
:1054300065516159665162596751635909E3645175
:10544000605F6551615B6651625B6751635B3C8085
:10545000D8906037613762376337402EE2D73CC05F
:105460000EF03DC00FF03EC010F03FC011F041C043
:1054700012F042C013F02DEC29F011C063F010C0FF
:1054800062F00FC061F00EC060F0120062C067F001
:10549000686B696B6A6B69C06AF068C069F067C065
:1054A00068F0676B60516B6F61516C6F6D6B6E6B09
:1054B0006CC06EF06BC06DF06C6B6B6B64C06FF0AA
:1054C000706B716B726B1A0ED8906F3770377137C3
:1054D0007237E82EF9D76B516F11736F6C517011E1
:1054E000746F6D517111756F6E517211766F6751D6
:1054F0007311776F68517411786F69517511796FF5
:105500006A5176117A6F635177117B6F78517C6F96
:1055100079517D6F7A517E6F7BC03CF07CC03DF04D
:105520007DC03EF07EC03FF065C040F066C041F0F7
:105530003AEC2FF0000902E14D2A000C010C8867BB
:1055400019D086C018F087C019F074EC30F01BC079
:1055500030F01AC02FF019C02EF018C02DF0ACECAE
:1055600030F030C08CF02FC08BF02EC08AF02DC0F0
:1055700089F02AD08851020A19E186C018F087C044
:1055800019F074EC30F01BC081F01AC080F019C023
:105590007FF018C07EF07EEC2DF081C08CF080C0D2
:1055A0008BF07FC08AF07EC089F00ED086C018F0E4
:1055B00087C019F074EC30F01BC08CF01AC08BF06F
:1055C00019C08AF018C089F089C07EF08AC07FF0C7
:1055D0008BC080F08CC081F04EEC2BF07EC08DF043
:1055E0007FC08EF08E51D36F8DC0D4F0120020EEAC
:1055F00089F0DE50DE10DE10DE1005E1896B8A6B6B
:105600008B6B8C6B12008C517F0B8F6FD8908F350A
:10561000906F916B913790518D2791518E238B35DF
:10562000E836010B8D27000E8E238EAF05D0896BD7
:105630008A6B8B6B8C6B12008E51800A7F0F000E71
:10564000D8B48D5D0EE38CAF06D089698A697F0E70
:105650008B6F8C69FF0C89698A697F0E8B6F8C6FE9
:105660007F0C8E358E31906F8D318F6F8C19800B42
:105670008F198C6F8DC08FF0010E8F178F338F3382
:105680008B518F197F0B8F198B6F89C089F08AC05E
:105690008AF08BC08BF08CC08CF01200000180353A
:1056A0008135446E446606D000017E6B7F6B806B53
:1056B000816B120000017EC082F07FC083F080C049
:1056C00084F081C085F0200E05D0D89085338433D6
:1056D00083338233E82EF9D78251436E808F816BFA
:1056E000960E445E44AE0CD04450800A970FDCE323
:1056F000D890813380337F337E33443EF9D70CD04A
:105700001F0E446407D0D0D7D8907E377F378037BC
:10571000813744064466F8D7435008E0811F801F54
:105720007F1F7E6D000E7F23802381237EC07EF04D
:105730007FC07FF080C080F081C081F012001D6AC0
:105740001E6A206A020E1F6E1F500208186E185043
:105750001A0FD96EDA6A1DC00EF01EC00FF0116A62
:10576000030E106E1DEC30F01F500E2620500F223D
:10577000AA0E0E24166E000E0F20176E03EC32F0E8
:10578000DF6E1F06D8A020062050800A800F010E71
:10579000D8B41F5CD9E21DC018F01EC019F0D89013
:1057A00018361936D8901836193601011E0E1824ED
:1057B000D96E010E1920DA6E1AC0DEFF1BC0DEFFA3
:1057C0001CC0DEFF1DC0DEFF1D4A1E2A1E50800ABF
:1057D000800F060ED8B41D5CD8B01200B2D7800E70
:1057E0000FEC32F0090E0E01436FFC0E446F010EF8
:1057F000456F200E706E728E729C606A0F01306B66
:105800000E01806B906BA06BB06BC06BD06BE00E29
:105810007D6FE06B080EE16FE26BE36BE46BE80E0B
:10582000E56F1A0EE66FE76B030E466F476B716B01
:10583000110E726F736F746B756B766B776B786B21
:10584000540E796F050E7A6F7B6B7B6B0F0EF86FC2
:10585000E00EF96FFA6BFB6BF9870F0EFC6FE00E31
:10586000FD6FFE69FF6BFD87000E0FEF32F0000148
:10587000926B01016D2911E0D89000019235906F73
:10588000916B9137730E9025166E000E9121176E55
:1058900003EC32F001016D1928E16E2911E0D89076
:1058A00000019235906F916B9137740E9025166EB2
:1058B000000E9121176E03EC32F001016E1915E113
:1058C000166B176B186B196B0AD0E90E0101165D88
:1058D000030E1759000E1859000E195906E200015F
:1058E0009251BEEC2CF00009F0E00001922B050E65
:1058F0009265BFD7050C20EE0EF0DE50DE10DE10F4
:10590000DE100CE112C0D9FF13C0DAFF000EDE6A10
:10591000DD6A0E6A0F6A106A116A120011507F0B5D
:10592000146ED8901434156E166A163612C0D9FF4C
:1059300013C0DAFF15C0DEFF16C0DDFF1034E836F5
:10594000010B12C0D9FF13C0DAFFDE12000EDD1208
:1059500012C0D9FF13C0DAFF820EDE26FF0EDD2251
:105960001150800B3F09116E109E0EC00EF00FC03B
:105970000FF010C010F011C011F01200E8CF8FF03E
:10598000030ECC6F840ECB6FCE6B0A0ECD6F060E5E
:10599000CF6F430E8F25166E176A000E172203EC89
:1059A00032F0456E030E4516D8904536D8904536F0
:1059B000D890453400018F118009D16F820ED26FCB
:1059C0008F51020D000EF324D96E010EF420DA6E11
:1059D000DECF86F0DDCF87F0430E8F25166E176A77
:1059E000000E172203EC32F0030B0001886F9FECCE
:1059F0002AF0DEEC30F0000901E1000C010C30C0AF
:105A000022F031C023F032C024F033C025F0380E2C
:105A1000F6EC30F0000901E1000C2CC0D9FF2DC0DC
:105A2000DAFF38C0DFFF2AC0D9FF2BC0DAFF39C048
:105A3000DFFF3A50346E010E3B14356E28C0D9FF9B
:105A400029C0DAFF34C0DEFF35C0DDFF38C034F0D6
:105A500039C035F03AC036F03BC037F01B0E05D0E8
:105A6000D8903732363235323432E82EF9D73450C6
:105A7000070B2EC0D9FF2FC0DAFFDF6E010CE8CF75
:105A800011F028D00F0E136E600E22D00F010F0EF2
:105A9000136E300E1DD00E010E0E136E800E18D038
:105AA0000E010E0E136E900E13D00E010E0E136E1D
:105AB000A00E0ED00E010E0E136EB00E09D00E0108
:105AC0000E0E136EC00E04D00E010E0E136ED00E0D
:105AD000126E0FD01150D6E0010AD8E0030ADBE0C5
:105AE000010ADEE0070AE1E0010AE4E0030AE7E078
:105AF000EBD712C00EF013C00FF01200226A236A17
:105B00007A0E246E460E256E00016C6B6D6B100EC6
:105B10006E6F410E6F6F7EC068F07FC069F080C00D
:105B20006AF081C06BF0FAEC27F06BC021F06AC01C
:105B300020F069C01FF068C01EF0BEEC23F021C049
:105B400063F020C062F01FC061F01EC060F0000171
:105B5000646B656BA00E666F400E676FEBEC29F00F
:105B600063C081F062C080F061C07FF060C07EF0F1
:105B7000120001011C6B1D6B010E4F6E75EC32F0B3
:105B80000001C76FC76701D0C769C72902E1020ECC
:105B90004F6E0101666B676B686B696B6A6B000126
:105BA000CB6BCC6BCD6BCE6BCF6B4D6A4C6A516AB5
:105BB000C86B506AC96B466A476A486A496ABF6BD4
:105BC000C06BCA6BC66BC56B1200CA2B3B0ECA6595
:105BD0000CD0CA6BC62BC851030A07E161EC32F046
:105BE000446E66EC32F036EC31F03B0E0001C665D7
:105BF00002D0C66BC52B170EC56501D0C56BC85149
:105C0000030AD8A412004E2A4EC07FF00F0E7F1751
:105C1000020E7F5DD8B04E6A120081EC2FF0170E95
:105C2000926E1B0E936E010E946E826A920EAFEC12
:105C300031F0FB0E0F6E1D0E0E6E4FEC32F00F01A9
:105C40005F6B5E6BB56A5D815D835D855C815C8346
:105C50005C85830E0E6EC00E0F6EAF0EF1EC2EF053
:105C6000EFEC2BF0F28E85EF32F068C0D9FF69C0FF
:105C7000DAFFDECF60F0DECF61F0DECF62F0DECFA4
:105C800063F06AC064F06BC065F06CC066F06DC014
:105C900067F0EBEC29F068C0D9FF69C0DAFF0001BA
:105CA00060C0DEFF61C0DEFF62C0DEFF63C0DDFFFB
:105CB000D906D906120011AE09D00E6C0F1ED8B04D
:105CC0000F2A101ED8B0102A800E115615AE09D01A
:105CD000126C131ED8B0132A141ED8B0142A800ECA
:105CE0001556800E111A151A12500E5C13500F58CB
:105CF000145010581550115802E2D8901200D88054
:105D00001200E8CF43F04350D96EDA6ADECF68F074
:105D1000DECF69F0DECF6AF0DECF6BF07EC06CF0D4
:105D20007FC06DF080C06EF081C06FF0FAEC27F09C
:105D30004350D96EDA6A000168C0DEFF69C0DEFF39
:105D40006AC0DEFF6BC0DDFFD906D90612002DC088
:105D5000D9FF2EC0DAFFDECF1EF0DECF1FF0DECF80
:105D600020F0DECF21F02FC022F030C023F031C070
:105D700024F032C025F0BEEC23F02DC0D9FF2EC098
:105D8000DAFF1EC0DEFF1FC0DEFF20C0DEFF21C025
:105D9000DDFFD906D906120035C0D9FF36C0DAFFBB
:105DA000DECF2DF0DECF2EF0DECF2FF0DECF30F0C5
:105DB00037C031F038C032F039C033F03AC034F077
:105DC00000EC30F035C0D9FF36C0DAFF2DC0DEFF61
:105DD0002EC0DEFF2FC0DEFF30C0DDFFD906D906A2
:105DE0001200E8CF12F0C26AC16AC06A0E507C0B82
:105DF000C26E0FC0C1FF12C010F0D8901036D890FC
:105E00001036380E101612C011F0113A0F0E11167E
:105E1000070E11161250800B11101010C06E0EAE2E
:105E200003D09E9C9D8CF28CC2801200456A97AF75
:105E30000AD0971F961F951F946D000E95239623E9
:105E40009723010E456E94C00EF095C00FF096C0DA
:105E500010F097C011F0960E126E45C013F02DECA5
:105E600029F011C097F010C096F00FC095F00EC049
:105E700094F01200426A01011A6B1B6B15D03CC0F2
:105E800018F03DC019F03EC01AF03FC01BF041C0F1
:105E90001CF040C01DF0200E1E6E6EEC24F00009B8
:105EA00003E0010E426E06D0E80E01011A5D030EFA
:105EB0001B59E5E30001CB6B4250120066BF120094
:105EC000010E296E680E286E010E2B6E6A0E2A6E68
:105ED000010E2D6E6B0E2C6E010E2F6E670E2E6E48
:105EE000010E316E660E306E010E336E6C0E326E28
:105EF000FFEC2CF03C6E3C50D8B412000101668FD0
:105F000012000101126B136B146B156B0001C46B53
:105F10000E6A0C0E0E24D96EDA6A010EDA22DF6ADE
:105F20000E50020D000EF324D96E010EF420DA6E2D
:105F3000DE6ADD6A0E2A050E0E64EBD70001C16B26
:105F40004B6AC36BC26B120001EEA8F013EEC0F0F7
:105F5000EE6AE550E150FCE1E250FAE101EE00F0BA
:105F6000740EEE6AE806FDE100EEBFF01A0EEE6A6E
:105F7000E806FDE100EE46F00D0EEE6AE806FDE1F2
:105F8000000162EF26F0E8CF1DF01D50020D9F0EBC
:105F9000F324166E000EF420176E03EC32F01A6E26
:105FA0001D50020D9E0EF324166E000EF420176E87
:105FB00003EC32F01C6E1A501B6E1BC018F01CC094
:105FC00019F0120066510F0B020AD8A4120000014A
:105FD000C751010121EE6CF0DF6212006DC1C7F004
:105FE0000001C75126EC32F0810E0001CB6FCC6B63
:105FF000CD6BCE6B070ECF6FC7C0D1F0DEEF30F0A8
:10600000800E341A2DC01EF02EC01FF02FC020F0BD
:1060100030C021F031C022F032C023F033C024F070
:1060200034C025F0BEEC23F021C030F020C02FF0AA
:106030001FC02EF01EC02DF012000E501002F3CF24
:1060400014F0F4CF15F00E501102F3CFF4FFF36A01
:10605000F3501426F45015220F501002F3CFF4FF22
:10606000F36AF3501426F450152214C00EF015C034
:106070000FF01200000EE8EC31F0550A06E1010EB7
:10608000E8EC31F0AA0A01E1010C020E4F6E83EC3C
:1060900032F0FF0E26EC32F0550E126E000E7FEC41
:1060A00031F0AA0E126E010E7FEC31F0000C0F5091
:1060B000030B756E0EC074FF10C073FF7F9E7F9C34
:1060C0007F84000EF2BE010E116EF29E550E7E6EA2
:1060D000AA0E7E6E7F827FB2FED711B002D0F29EF2
:1060E00001D0F28E7F9412001D6A19AE05D0186C93
:1060F000191ED8B0192A1D2A18C00EF019C00FF0A9
:10610000106A116A960E126E1DC013F02DEC29F064
:1061100011C01BF010C01AF00FC019F00EC018F01B
:10612000120066510F0B186E1850D8B412000001FF
:10613000C751010121EE6CF0DF621200180405E086
:10614000010E1864010C6D67010C0001C769FF0E98
:1061500026EC32F0B9EF2DF02DC01EF02EC01FF04E
:106160002FC020F030C021F0226A680E236ED50EB9
:10617000246E460E256EBEEC23F021C030F020C008
:106180002FF01FC02EF01EC02DF0120066C144F08B
:106190000F0E44164404D8A412000001C751010197
:1061A00021EE6CF0DF621200800E0001CB6FCC6B31
:1061B000CD6BCE6B030ECF6FDEEF30F0CDC060F055
:1061C000CEC061F0CFC062F0C7C063F0CCC064F055
:1061D0000001CB510F0B656FD10E666F46EC2AF0B4
:1061E000436E436601D04D2A43501200E8CF26F09B
:1061F00066BF000C24C015F025C016F022C017F0B1
:1062000023C018F0270E196E26503CEC20F0000930
:10621000F0E027AC27AA000C010C18C00EF019C042
:106220000FF0106A116A960E126E000E136A2DECB2
:1062300029F011C01BF010C01AF00FC019F00EC0E9
:1062400018F01200E8CF0FF0080E106E116AD89007
:106250000F341134116ED8900F360E50115C02E3DA
:106260000E50115E102EF3D711501200E8CF45F0FA
:10627000830E0001CB6F070ECC6FCE6B140ECD6F6B
:10628000090ECF6FD16B45C0D2F044C0D3F0DEEF22
:1062900030F020EE0EF0DE50DE10DE10DE1002E0F8
:1062A000800E111A0EC00EF00FC00FF010C010F0CB
:1062B00011C011F01200E8CF13F00F0E136401D0DB
:1062C0000F0C7EEC32F0120E13240E6E0F6A000ECD
:1062D0000F2212C010F057EF30F0E8CF12F0120486
:1062E000D8A412007EEC32F00F6A0E6AFF0E10681E
:1062F00057EC30F0800E0FEC32F0FF001200E8CFC8
:1063000013F0010E136401D0010C7EEC32F0030E89
:1063100013240E6E0F6A000E0F2212C010F057EFFA
:1063200030F0E8CF26F07F0E266405D025C019F0A6
:106330002650F2EF26F025C021F02650B7EF07F0E7
:10634000810E0001CB6FCC6BCD6BCE6B020ECF6F8D
:10635000C7C0D1F0DEEC30F0010E4F6E010CE8CF7B
:106360000EF00E507F0BD56ED76AD66AF2940EAE41
:1063700002D0F28A01D0F29AD58E1200E8CF13F043
:106380007EEC32F00A0E13240E6E0F6A000E0F22FE
:1063900012C010F057EF30F0E8CF13F07EEC32F07F
:1063A000050E13240E6E0F6A000E0F2212C010F09D
:1063B00057EF30F0E8CF0FF00F50000F0E6E0EC009
:1063C000F6FF0F0EF76E000EF86E0800F550120083
:1063D000E8CF18F0010E186401D0000C030E182449
:1063E000166E176A000E172203EF32F0E8CF0EF098
:1063F0000F6A0E500F24D96EDA6ADF6A0F2A070E71
:106400000F64F7D7070C1750030B756E16C074FF97
:106410007F9C7F9E7F8000F000F073501200E8CFD9
:106420000EF01F0E6F160E506F126F50E00B0E180D
:10643000D8B41200FAD7E8CF2AF07F0E2A6403D02E
:106440002A5034EF22F02A5001EF13F0E8CF12F077
:106450007EEC32F00F6A010E0E6E12C010F057EF94
:1064600030F0E8CF18F00A0E1824166E176A000EE6
:10647000172203EF32F0E8CF18F0050E1824166E3D
:10648000176A000E172203EF32F0E8CF18F0120E51
:106490001824166E176A000E172203EF32F00EC092
:1064A00010F00FC011F011C0D7FF10C0D6FF1200BE
:1064B00001C003F002C004F004C0D7FF03C0D6FF40
:1064C0001200176A420E166E03EF32F0176A410E81
:1064D000166E03EF32F00E6A0F6A106A116A12002C
:1064E0000E6A0F6A106A116A1200176A010E166EA0
:1064F00003EF32F0D2EC16F081EF2FF07FA2120002
:10650000FDD74F6A1200D2EF16F0C2821200C2828B
:106510001200010C080C010C070C020C010C1200FB
:020000040020DA
:08000000FFFFFFFFFFFFFFFF00
:020000040030CA
:0E0000001512677EFF8991FF0FC00FE00F40C1
:00000001FF
