:040800005BEF05F0B5
:10081800D8CF07F0E8CF08F0E0CF09F0D9CF0AF039
:10082800DACF0BF0F3CF0CF0F4CF0DF0F2A401D037
:1008380001D045D0FB0E026E1D0E016EA8EC2EF005
:1008480001011C4B1D2B1A4B1B2B010E1227000EEE
:100858001323000E1423000E1523010E1627000E75
:100868001723000E1823000E192382B001D001D0DF
:1008780003D00001B82B02D00001B86B522A4D50AA
:10088800020AD8A401D001D00ED0640E526401D05F
:1008980001D009D082A201D001D002D0829201D029
:1008A8008282526A0BD04D04D8A401D001D001D065
:1008B800F7D74D6601D001D001D0F0D7F2949EACA5
:1008C80001D001D0E5D0C4D049500C0D9C0EF324C2
:1008D800D96E010EF420DA6EC4CFDFFF49500C0D3B
:1008E8009D0EF324D96E010EF420DA6EC3CFDFFF1C
:1008F800090EC26E49504F0AD8A401D001D0C5D004
:100908000001B381C2D049500C0D9E0EF324D96E5C
:10091800010EF420DA6EC4CFDFFF49500C0D9F0E94
:10092800F324D96E010EF420DA6EC3CFDFFF050E73
:10093800C26E49504F0AD8A401D001D0A6D00001F8
:10094800B383A3D049500C0DA00EF324D96E010E29
:10095800F420DA6EC4CFDFFF49500C0DA10EF3244A
:10096800D96E010EF420DA6EC3CFDFFF010EC26E1E
:1009780049504F0AD8A401D001D087D00001B385CF
:1009880084D049500C0DA20EF324D96E010EF42028
:10099800DA6EC4CFDFFF49500C0DA30EF324D96ED5
:1009A800010EF420DA6EC3CFDFFF250EC26E495068
:1009B8004F0AD8A401D001D068D00001B38765D010
:1009C80049500C0DA40EF324D96E010EF420DA6EF2
:1009D800C4CFDFFF49500C0DA50EF324D96E010ECC
:1009E800F420DA6EC3CFDFFF210EC26E49504F0AE2
:1009F800D8A401D001D049D00001B38946D04950CC
:100A08000C0DA60EF324D96E010EF420DA6EC4CFB5
:100A1800DFFF49500C0DA70EF324D96E010EF42008
:100A2800DA6EC3CFDFFF290EC26E49504F0AD8A431
:100A380001D001D002D00001B38B492A4F0E49647E
:100A480001D001D022D0496A20D0290EC26EFBD72E
:100A5800C2503C0B056E066A0650000AD8B401D095
:100A6800F4D70550000AD8B48CD7040AD8B46AD78A
:100A78000C0AD8B448D7280AD8B4C1D7040AD8B4BD
:100A88009FD70C0AD8B420D7E0D7D7EC2EF09E9C7D
:100A98000DC0F4FF0CC0F3FF0BC0DAFF0AC0D9FF8A
:100AA80009C0E0FF08C0E8FF07C0D8FF1000E8EF62
:020AB8002BF021
:100B00007777772E6575726F736F757263652E7365
:100B1000652F6E746331304B415F332E786D6C00FE
:100B20000000803F1872313FF0FD753E4758633D2D
:100B300058951D3C82C4AE3AA8782139EF9380378E
:100B4000A092A7354656153400000000C4FF7F3F31
:100B500080EFFFBE90E1A93EEC8276BE82AD2B3ED7
:100B60000E3CC3BD87D1133D4178D3BB0000E8CF15
:100B700023F0211C246E4750461002E1B7EF0AF023
:100B8000F1EF0BF00F6A410E0E6E21C010F07EECFB
:100B90002DF00F6A410E0E6E8DEC2EF035EF0CF03D
:100BA0000F6A420E0E6E21C010F07EEC2DF00F6A1F
:100BB000420E0E6E8DEC2EF035EF0CF00F6A430EE8
:100BC0000E6E21C010F07EEC2DF00F6A430E0E6EFB
:100BD0008DEC2EF035EF0CF00F6A440E0E6E21C036
:100BE00010F07EEC2DF00F6A440E0E6E8DEC2EF0A0
:100BF00035EF0CF00F6A450E0E6E21C010F07EEC42
:100C00002DF00F6A450E0E6E8DEC2EF035EF0CF0C8
:100C10000F6A460E0E6E21C010F07EEC2DF00F6AAA
:100C2000460E0E6E8DEC2EF035EF0CF00F6A470E6F
:100C30000E6E21C010F07EEC2DF00F6A470E0E6E86
:100C40008DEC2EF035EF0CF00F6A480E0E6E21C0C1
:100C500010F07EEC2DF00F6A480E0E6E8DEC2EF02B
:100C600035EF0CF00F6A490E0E6E21C010F07EECCD
:100C70002DF00F6A490E0E6E8DEC2EF035EF0CF054
:100C80000F6A4A0E0E6E21C010F07EEC2DF00F6A36
:100C90004A0E0E6E8DEC2EF035EF0CF00F6A4B0EF7
:100CA0000E6E21C010F07EEC2DF00F6A4B0E0E6E12
:100CB0008DEC2EF035EF0CF00F6A4C0E0E6E21C04D
:100CC00010F07EEC2DF00F6A4C0E0E6E8DEC2EF0B7
:100CD00035EF0CF00F6A4D0E0E6E21C010F07EEC59
:100CE0002DF00F6A4D0E0E6E8DEC2EF035EF0CF0E0
:100CF0000F6A4E0E0E6E21C010F07EEC2DF00F6AC2
:100D00004E0E0E6E8DEC2EF035EF0CF00F6A4F0E7E
:100D10000E6E21C010F07EEC2DF00F6A4F0E0E6E9D
:100D20008DEC2EF035EF0CF00F6A500E0E6E21C0D8
:100D300010F07EEC2DF00F6A500E0E6E8DEC2EF042
:100D400035EF0CF00F6A510E0E6E21C010F07EECE4
:100D50002DF00F6A510E0E6E8DEC2EF035EF0CF06B
:100D60000F6A520E0E6E21C010F07EEC2DF00F6A4D
:100D7000520E0E6E8DEC2EF035EF0CF00F6A530E06
:100D80000E6E21C010F07EEC2DF00F6A530E0E6E29
:100D90008DEC2EF035EF0CF00F6A540E0E6E21C064
:100DA00010F07EEC2DF00F6A540E0E6E8DEC2EF0CE
:100DB00035EF0CF00F6A550E0E6E21C010F07EEC70
:100DC0002DF00F6A550E0E6E8DEC2EF035EF0CF0F7
:100DD0000F6A560E0E6E21C010F07EEC2DF00F6AD9
:100DE000560E0E6E8DEC2EF035EF0CF00F6A570E8E
:100DF0000E6E21C010F07EEC2DF00F6A570E0E6EB5
:100E00008DEC2EF035EF0CF00F6A580E0E6E21C0EF
:100E100010F07EEC2DF00F6A580E0E6E8DEC2EF059
:100E200035EF0CF00F6A590E0E6E21C010F07EECFB
:100E30002DF00F6A590E0E6E8DEC2EF035EF0CF082
:100E40000F6A5A0E0E6E21C010F07EEC2DF00F6A64
:100E50005A0E0E6E8DEC2EF035EF0CF00F6A5B0E15
:100E60000E6E21C010F07EEC2DF00F6A5B0E0E6E40
:100E70008DEC2EF035EF0CF00F6A5C0E0E6E21C07B
:100E800010F07EEC2DF00F6A5C0E0E6E8DEC2EF0E5
:100E900035EF0CF00F6A5D0E0E6E21C010F07EEC87
:100EA0002DF00F6A5D0E0E6E8DEC2EF035EF0CF00E
:100EB0000F6A5E0E0E6E21C010F07EEC2DF00F6AF0
:100EC0005E0E0E6E8DEC2EF035EF0CF00F6A5F0E9D
:100ED0000E6E21C010F07EEC2DF00F6A5F0E0E6ECC
:100EE0008DEC2EF035EF0CF00F6A600E0E6E21C007
:100EF00010F07EEC2DF00F6A600E0E6E8DEC2EF071
:100F000035EF0CF00F6A610E0E6E21C010F07EEC12
:100F10002DF00F6A610E0E6E8DEC2EF035EF0CF099
:100F20000F6A620E0E6E21C010F07EEC2DF00F6A7B
:100F3000620E0E6E8DEC2EF035EF0CF00F6A630E24
:100F40000E6E21C010F07EEC2DF00F6A630E0E6E57
:100F50008DEC2EF035EF0CF00F6A640E0E6E21C092
:100F600010F07EEC2DF00F6A640E0E6E8DEC2EF0FC
:100F700035EF0CF00F6A650E0E6E21C010F07EEC9E
:100F80002DF00F6A650E0E6E8DEC2EF035EF0CF025
:100F90000F6A660E0E6E21C010F07EEC2DF00F6A07
:100FA000660E0E6E8DEC2EF035EF0CF00F6A670EAC
:100FB0000E6E21C010F07EEC2DF00F6A670E0E6EE3
:100FC0008DEC2EF035EF0CF00F6A680E0E6E21C01E
:100FD00010F07EEC2DF00F6A680E0E6E8DEC2EF088
:100FE00035EF0CF00F6A690E0E6E21C010F07EEC2A
:100FF0002DF00F6A690E0E6E8DEC2EF035EF0CF0B1
:101000000F6A6A0E0E6E21C010F07EEC2DF00F6A92
:101010006A0E0E6E8DEC2EF035EF0CF00F6A6B0E33
:101020000E6E21C010F07EEC2DF00F6A6B0E0E6E6E
:101030008DEC2EF035EF0CF00F6A6C0E0E6E21C0A9
:1010400010F07EEC2DF00F6A6C0E0E6E8DEC2EF013
:1010500035EF0CF00F6A6D0E0E6E21C010F07EECB5
:101060002DF00F6A6D0E0E6E8DEC2EF0FED30F6A12
:101070006E0E0E6E21C010F07EEC2DF00F6A6E0E1B
:101080000E6E8DEC2EF0F1D30F6A6F0E0E6E21C036
:1010900010F07EEC2DF00F6A6F0E0E6E8DEC2EF0C0
:1010A000E4D30F6A700E0E6E21C010F07EEC2DF0AE
:1010B0000F6A700E0E6E8DEC2EF0D7D30F6A710E84
:1010C0000E6E21C010F07EEC2DF00F6A710E0E6EC8
:1010D0008DEC2EF0CAD30F6A720E0E6E21C010F086
:1010E0007EEC2DF00F6A720E0E6E8DEC2EF0BDD3DD
:1010F0000F6A730E0E6E21C010F07EEC2DF00F6A99
:10110000730E0E6E8DEC2EF0B0D30F6A740E0E6E51
:1011100021C010F07EEC2DF00F6A740E0E6E8DEC77
:101120002EF0A3D30F6A750E0E6E21C010F07EEC68
:101130002DF00F6A750E0E6E8DEC2EF096D30F6AA1
:10114000760E0E6E21C010F07EEC2DF00F6A760E3A
:101150000E6E8DEC2EF089D30F6A770E0E6E21C0C5
:1011600010F07EEC2DF00F6A770E0E6E8DEC2EF0E7
:101170007CD30F6A780E0E6E21C010F07EEC2DF03D
:101180000F6A780E0E6E8DEC2EF06FD30F6A790E0B
:101190000E6E21C010F07EEC2DF00F6A790E0E6EEF
:1011A0008DEC2EF062D30F6A7A0E0E6E21C010F015
:1011B0007EEC2DF00F6A7A0E0E6E8DEC2EF055D36C
:1011C0000F6A7B0E0E6E21C010F07EEC2DF00F6AC0
:1011D0007B0E0E6E8DEC2EF048D30F6A7C0E0E6ED9
:1011E00021C010F07EEC2DF00F6A7C0E0E6E8DEC9F
:1011F0002EF03BD30F6A7D0E0E6E21C010F07EECF8
:101200002DF00F6A7D0E0E6E8DEC2EF02ED30F6A30
:101210007E0E0E6E21C010F07EEC2DF00F6A7E0E59
:101220000E6E8DEC2EF021D30F6A7F0E0E6E21C054
:1012300010F07EEC2DF00F6A7F0E0E6E8DEC2EF00E
:1012400014D30F6A800E0E6E21C010F07EEC2DF0CC
:101250000F6A800E0E6E8DEC2EF007D30F6A810E92
:101260000E6E21C010F07EEC2DF00F6A810E0E6E16
:101270008DEC2EF0FAD20F6A820E0E6E21C010F0A5
:101280007EEC2DF00F6A820E0E6E8DEC2EF0EDD2FC
:101290000F6A830E0E6E21C010F07EEC2DF00F6AE7
:1012A000830E0E6E8DEC2EF0E0D20F6A840E0E6E61
:1012B00021C010F07EEC2DF00F6A840E0E6E8DECC6
:1012C0002EF0D3D20F6A850E0E6E21C010F07EEC88
:1012D0002DF00F6A850E0E6E8DEC2EF0C6D20F6AC1
:1012E000860E0E6E21C010F07EEC2DF00F6A860E79
:1012F0000E6E8DEC2EF0B9D20F6A870E0E6E21C0E5
:1013000010F07EEC2DF00F6A870E0E6E8DEC2EF035
:10131000ACD20F6A880E0E6E21C010F07EEC2DF05C
:101320000F6A880E0E6E8DEC2EF09FD20F6A890E1A
:101330000E6E21C010F07EEC2DF00F6A890E0E6E3D
:101340008DEC2EF092D20F6A8A0E0E6E21C010F034
:101350007EEC2DF00F6A8A0E0E6E8DEC2EF085D28B
:101360000F6A8B0E0E6E21C010F07EEC2DF00F6A0E
:101370008B0E0E6E8DEC2EF078D20F6A8C0E0E6EE8
:1013800021C010F07EEC2DF00F6A8C0E0E6E8DECED
:101390002EF06BD20F6A8D0E0E6E21C010F07EEC17
:1013A0002DF00F6A8D0E0E6E8DEC2EF05ED20F6A50
:1013B0008E0E0E6E21C010F07EEC2DF00F6A8E0E98
:1013C0000E6E8DEC2EF051D20F6A8F0E0E6E21C074
:1013D00010F07EEC2DF00F6A8F0E0E6E8DEC2EF05D
:1013E00044D20F6A900E0E6E21C010F07EEC2DF0EC
:1013F0000F6A900E0E6E8DEC2EF037D20F6A910EA2
:101400000E6E21C010F07EEC2DF00F6A910E0E6E64
:101410008DEC2EF02AD20F6A920E0E6E21C010F0C3
:101420007EEC2DF00F6A920E0E6E8DEC2EF01DD21A
:101430000F6A930E0E6E21C010F07EEC2DF00F6A35
:10144000930E0E6E8DEC2EF010D20F6A940E0E6E6F
:1014500021C010F07EEC2DF00F6A940E0E6E8DEC14
:101460002EF003D20F6A950E0E6E21C010F07EECA6
:101470002DF00F6A950E0E6E8DEC2EF0F6D10F6AE0
:10148000960E0E6E21C010F07EEC2DF00F6A960EB7
:101490000E6E8DEC2EF0E9D10F6A970E0E6E21C004
:1014A00010F07EEC2DF00F6A970E0E6E8DEC2EF084
:1014B000DCD10F6A980E0E6E21C010F07EEC2DF07C
:1014C0000F6A980E0E6E8DEC2EF0CFD10F6A990E2A
:1014D0000E6E21C010F07EEC2DF00F6A990E0E6E8C
:1014E0008DEC2EF00F6A9A0E0E6E21C010F07EEC7D
:1014F0002DF00F6A9A0E0E6E8DEC2EF0B6D10F6A9B
:101500009B0E0E6E21C010F07EEC2DF00F6A9B0E2C
:101510000E6E8DEC2EF0A9D10F6A9C0E0E6E21C0BE
:1015200010F07EEC2DF00F6A9C0E0E6E8DEC2EF0FE
:101530009CD1246A9BD10F6AF20E0E6E21C010F06E
:101540007EEC2DF00F6AF20E0E6E8DEC2EF08DD12A
:101550000F6AF30E0E6E21C010F07EEC2DF00F6AB4
:10156000F30E0E6E8DEC2EF080D1211C7ED1235017
:1015700002E1C2EF05F0010A02E1D0EF05F0030A33
:1015800002E1DEEF05F0010A02E1ECEF05F0070AE7
:1015900002E1FAEF05F0010A02E108EF06F0030AA2
:1015A00002E116EF06F0010A02E124EF06F0130A49
:1015B00002E132EF06F0010A02E140EF06F0030A11
:1015C00002E14EEF06F0010A02E15CEF06F00F0ABD
:1015D00002E16AEF06F0010A02E178EF06F03F0A45
:1015E00002E186EF06F0010A02E194EF06F00F0A2D
:1015F00002E1A2EF06F0010A02E1B0EF06F0030AF1
:1016000002E1BEEF06F0010A02E1CCEF06F0070AA4
:1016100002E1DAEF06F0010A02E1E8EF06F0030A60
:1016200002E1F6EF06F0010A02E104EF07F01F0AFB
:1016300002E112EF07F0010A01E102D4030A01E11D
:101640000DD4010A01E118D4070A01E123D4010AEB
:1016500001E12ED4030A01E139D4010A01E144D4A5
:101660000F0A01E14FD4010A01E15AD4030A01E152
:1016700065D4010A01E170D4070A01E17BD4010AB3
:1016800001E186D4030A01E191D4010A01E19CD46D
:101690007F0A01E1A7D4010A01E1B2D4030A01E102
:1016A000BDD4010A01E1C8D4070A01E1D3D4010A7B
:1016B00001E1DDD4030A01E1E7D4010A01E1F1D43B
:1016C0000F0A01E1FBD4010A01E105D5030A01E19A
:1016D0000FD5010A01E119D5070A01E123D5010A55
:1016E00001E12DD5030A01E137D5010A01E141D518
:1016F0001F0A01E14BD5010A01E155D5030A01E1B9
:101700005FD5010A01E169D5070A01E173D5010A34
:1017100001E17DD5030A01E187D5010A01E191D5F7
:101720000F0A01E19BD5010A01E1A5D5030A01E1F8
:10173000AFD5010A01E1B9D5070A01E1C3D5010A14
:1017400001E1CDD5030A01E1D7D5010A01E1E1D5D7
:101750003F0A01E1EBD5010A01E1F5D5030A01E1F8
:10176000FFD5010A01E109D6070A01E113D6010AF2
:1017700001E11DD6030A01E127D6010A01E131D6B4
:101780000F0A01E13BD6010A01E145D6030A01E156
:101790004FD6010A01E159D6070A01E163D6010AD1
:1017A00001E16DD6030A01E177D6010A01E181D694
:1017B0001F0A01E18BD6010A01E194D6030A01E177
:1017C0009ED6010A01E1A8D6070A01E1B2D6010AB4
:1017D00001E1AFD6030A01E1AED6010A01E1B8D6B4
:1017E000C4D64604471042E1480E236016D0AA0E24
:1017F00023240E6E0F6A000E0F2221C010F07EEC23
:101800002DF0AA0E23240E6E0F6A000E0F228DEC0F
:101810002EF0246EE6EC27F029D0540E236010D071
:101820002350B80F226E22A002D0220601D0222A15
:101830009C0E2224D96EDA6A010EDA22DF5015D00E
:10184000620E236013D04A0E23240E6E0F6A000E20
:101850000F2221C010F07EEC2DF04A0E23240E6ED4
:101860000F6A000E0F228DEC2EF0246E2450120011
:101870000F6AF30E0E6E8DEC2EF00001A46F0F6A4E
:10188000F20E0E6E8DEC2EF0196E0001A451186E42
:1018900004EC2DF01BC06DF11AC06CF119C06BF196
:1018A00018C06AF101019B6B9BC1A4F0010E0001FD
:1018B000A56FA42B02D0D890A537A42FFCD7A55193
:1018C000B31501E1DAD20101916B926B936B946BCA
:1018D000906B010E2D6E910E2C6ED8909B350001F1
:1018E000A46FA56BA537010190510C0D9D0EF3243B
:1018F0000001A66F010EF420A76FA451A625D96E92
:10190000A551A721DA6EDF50A86FD89001019B3551
:101910000001A96FAA6BAA37010190510C0D9C0E12
:10192000F3240001AB6F010EF420AC6FA951AB257D
:10193000D96EAA51AC21DA6EDF50196EA851186E1B
:1019400004EC2DF01BC031F01AC030F019C02FF09C
:1019500018C02EF033EC2BF00101902B4F0E906548
:10196000B8D7010E0001616F910E606F626B636BFF
:10197000A00E646F420E656F0EEC2BF001019B51BF
:10198000020D500EF3240E6E000EF4200F6E8DEC3F
:101990002EF00001A46F01019B51020D4F0EF324A4
:1019A0000E6E000EF4200F6E8DEC2EF001018B6F89
:1019B0000001A45101018A6F330E306E130E316E97
:1019C000950E326EC30E336E8AC118F08BC119F0BA
:1019D00004EC2DF01BC02FF01AC02EF019C02DF012
:1019E00018C02CF040EC27F02FC071F12EC070F120
:1019F0002DC06FF12CC06EF16EC199F06FC19AF0DD
:101A000070C19BF071C19CF00EEC1EF09CC075F192
:101A10009BC074F19AC073F199C072F172C160F009
:101A200073C161F074C162F075C163F00001646B51
:101A3000400E656F1C0E666F460E676FA4EC24F0B7
:101A400063C069F162C068F161C067F160C066F1AE
:101A50000001646B656BA00E666F400E676F91C1ED
:101A600060F092C161F093C162F094C163F0A4ECA4
:101A700024F063C02FF062C02EF061C02DF060C072
:101A80002CF0306A200E316E800E326E440E336EB2
:101A900040EC27F02FC089F12EC088F12DC087F1CE
:101AA0002CC086F10001646B400E656F1C0E666FE2
:101AB000460E676F86C160F087C161F088C162F031
:101AC00089C163F0A4EC24F063C07DF062C07CF0B7
:101AD00061C07BF060C07AF06AC176F06BC177F0CC
:101AE0006CC178F06DC179F028EC2CF079C02FF042
:101AF00078C02EF077C02DF076C02CF086C130F083
:101B000087C131F088C132F089C133F040EC27F051
:101B10002FC08FF12EC08EF12DC08DF12CC08CF115
:101B200066C130F067C131F068C132F069C133F08D
:101B30008CC12CF08DC12DF08EC12EF08FC12FF0F5
:101B400040EC27F02FC084F02EC083F02DC082F02F
:101B50002CC081F0A3EC22F084C079F183C078F12D
:101B600082C077F181C076F18AC118F08BC119F07B
:101B700004EC2DF01BC02FF01AC02EF019C02DF070
:101B800018C02CF076C130F077C131F078C132F056
:101B900079C133F040EC27F02FC09AF12EC099F1B3
:101BA0002DC098F12CC097F1010E00017F6F970EA8
:101BB0007E6F330E806F930E816F880E826F430E9F
:101BC000836F75EC2AF001019B51020D000EF32486
:101BD000D96E010EF420DA6EDECFA4F0DDCFA5F0D1
:101BE000A4C0A6F0A5C0A7F0000E0001A7BFFF0E7D
:101BF000A86FA96F01019B5158EC2BF012C0AAF0FD
:101C000013C0ABF0000E0001ABBFFF0EAC6FAD6FA9
:101C1000646B656BC80E666F420E676F97C160F0AC
:101C200098C161F099C162F09AC163F0A4EC24F00C
:101C300063C079F062C078F061C077F060C076F080
:101C400036EC28F0AA517625AE6FAB517721AF6FF5
:101C5000AC517821B06FAD517921B16FA651AE254D
:101C60007C6FA751AF217D6FA851B0217E6FA95124
:101C7000B1217F6F020E806F000E816B826B836BD0
:101C800031EC26F001019B51020D000EF324D96EB8
:101C9000010EF420DA6E7CC0DEFF7DC0DDFF9B51BB
:101CA000020D7F0EF3240E6E000EF4200F6E8DECED
:101CB0002EF00001A56FA46B01019B51020D800E57
:101CC000F3240E6E000EF4200F6E8DEC2EF000014A
:101CD000A427000EA52301019B51020D000EF32441
:101CE000D96E010EF420DA6EDECFA6F0DDCFA7F0BC
:101CF0000001A751800AA86FA451A65DA551800AD2
:101D0000A8593EE2D89001019B350001A46FA56B54
:101D1000A5377F0EA4250E6E000EA5210F6E0101C2
:101D20009B51020D000EF324D96E010EF420DA6EE1
:101D3000DECFA6F0DDCFA7F0A7C0A6F00001A76B0D
:101D4000A6BFA769A651106E7EEC2DF0D8900101B8
:101D50009B350001A46FA56BA537800EA4250E6EE0
:101D6000000EA5210F6E01019B51020D000EF32400
:101D7000D96E010EF420DA6EDF50106E7EEC2DF07D
:101D800001019B51020D000EF324D96E010EF420C7
:101D9000DA6EDECFA4F0DDCFA5F09B51020D8B0EE5
:101DA000F3240E6E000EF4200F6E8DEC2EF0000169
:101DB000A76FA66B01019B51020D8C0EF3240E6ED2
:101DC000000EF4200F6E8DEC2EF00001A627000E01
:101DD000A723A751800AA86FA451A65DA551800A28
:101DE000A8593EE2D89001019B350001A46FA56B74
:101DF000A5378B0EA4250E6E000EA5210F6E0101D6
:101E00009B51020D000EF324D96E010EF420DA6E00
:101E1000DECFA6F0DDCFA7F0A7C0A6F00001A76B2C
:101E2000A6BFA769A651106E7EEC2DF0D8900101D7
:101E30009B350001A46FA56BA5378C0EA4250E6EF3
:101E4000000EA5210F6E01019B51020D000EF3241F
:101E5000D96E010EF420DA6EDF50106E7EEC2DF09C
:101E60009BC1A4F0010E0001A56FA42B02D0D89055
:101E7000A537A42FFCD7A51DB31701019B2B050E79
:101E80009B6512D50001BB51030A01E044D2010158
:101E90009B6B9BC1A4F0010E0001A56FA42B02D087
:101EA000D890A537A42FFCD7A551B51563E0D890DD
:101EB00001019B350001A46FA56BA5375C0EA4251D
:101EC0000E6E000EA5210F6E8DEC2EF00001A66F98
:101ED000D89001019B350001A76FA86BA8375B0E56
:101EE000A7250E6E000EA8210F6E8DEC2EF00001BE
:101EF000AA6FA96B970E01019B250E6E0F6A000E4B
:101F00000F228DEC2EF0640D0001A951F324AB6F6C
:101F1000AA51F420AC6FA651AB250101956F0001C9
:101F2000000EAC210101966F9B51020D000EF324AF
:101F3000D96E010EF420DA6EDECFA4F0DDCFA5F06D
:101F40009651800A0001A66FA4510101955D000120
:101F5000A551800AA65901E3BAD09BC1A4F0010E95
:101F6000A56FA42B02D0D890A537A42FFCD7A51D10
:101F7000B517ADD001019B51020D5C0EF3240E6E1E
:101F8000000EF4200F6E8DEC2EF00001A46F010105
:101F90009B51020D5B0EF3240E6E000EF4200F6EAB
:101FA0008DEC2EF00001A66FA56BA451A5250101B3
:101FB000956F0001000EA6210101966F9B51020D45
:101FC000000EF324D96E010EF420DA6EDECFA4F0F9
:101FD000DDCFA5F00001A551800AA66F0101955142
:101FE0000001A45D01019651800A0001A6596FE22B
:101FF0009BC1A4F0010EA56FA42B02D0D890A537E9
:10200000A42FFCD7A551B5134B80430E01019B258E
:102010000E6E0F6A000E0F228DEC2EF00001A46FE1
:10202000A4A755D0CD6B010ECC6F020ECE6FCB6B3B
:10203000830ECA6F430E01019B250E6E0F6A000EC0
:102040000F228DEC2EF00001A46FA4AB17D0430E2D
:1020500001019B250E6E0F6A000E0F228DEC2EF0F3
:102060000001A46FA4AD05D0CD6B1E0ECC6F050E84
:1020700004D0CD6B1E0ECC6F060ECE6F9BC1CFF081
:10208000D89001019B350001A46FA56BA537730E95
:10209000A4250E6E000EA5210F6E8DEC2EF0000112
:1020A000D06FD89001019B350001A46FA56BA537B7
:1020B000740EA4250E6E000EA5210F6E8DEC2EF071
:1020C0000001D16F57EC2DF0000901E146D79BC10B
:1020D000A4F0010EA56FA42B02D0D890A537A42F91
:1020E000FCD7A551B41567E0D89001019B350001DC
:1020F000A46FA56BA537670EA4250E6E000EA52153
:102100000F6E8DEC2EF00001A76FA66BD890010129
:102110009B350001A86FA96BA937680EA8250E6E24
:10212000000EA9210F6E8DEC2EF00001A627000EE7
:10213000A723970E01019B250E6E0F6A000E0F223A
:102140008DEC2EF0126E136A15689C0E146E82ECE4
:102150002CF012500001A6250101956F13500001CB
:10216000A7210101966F9B51020D000EF324D96E39
:10217000010EF420DA6EDECFA4F0DDCFA5F0000171
:10218000A551800AA66F010195510001A45D0101CE
:102190009651800A0001A65901E3B8D09BC1A4F072
:1021A000010EA56FA42B02D0D890A537A42FFCD781
:1021B000A51DB417ABD001019B51020D680EF3248D
:1021C0000E6E000EF4200F6E8DEC2EF00001A46F49
:1021D00001019B51020D670EF3240E6E000EF420D8
:1021E0000F6E8DEC2EF00001A66FA56BA451A525F6
:1021F0000101956F0001000EA6210101966F9B5110
:10220000020D000EF324D96E010EF420DA6EDECF3B
:10221000A4F0DDCFA5F09651800A0001A66FA4516D
:102220000101955D0001A551800AA6596FE29BC18D
:10223000A4F0010EA56FA42B02D0D890A537A42F2F
:10224000FCD7A551B4134B82430E01019B250E6EA2
:102250000F6A000E0F228DEC2EF00001A46FA4A9CE
:1022600055D0CD6B010ECC6F020ECE6FCB6B830EB3
:10227000CA6F430E01019B250E6E0F6A000E0F22DE
:102280008DEC2EF00001A46FA4AB17D0430E01011A
:102290009B250E6E0F6A000E0F228DEC2EF00001B2
:1022A000A46FA4AD05D0CD6B1E0ECC6F060E04D06E
:1022B000CD6B1E0ECC6F050ECE6F9BC1CFF0D890AC
:1022C00001019B350001A46FA56BA537730EA425F2
:1022D0000E6E000EA5210F6E8DEC2EF00001D06F5A
:1022E000D89001019B350001A46FA56BA537740E32
:1022F000A4250E6E000EA5210F6E8DEC2EF00001B0
:10230000D16F57EC2DF0000901E148D701019B2B5B
:10231000050E9B65BED512000F6A410E0E6E000EB3
:10232000106A7EEC2DF00F6A410E0E6E000E106AE0
:102330007EEC2DF00F6A430E0E6E010E106E7EECD9
:102340002DF00F6A440E0E6E010E106E7EEC2DF015
:102350000F6A450E0E6E010E106E7EEC2DF00F6AA8
:10236000460E0E6E010E106E7EEC2DF00F6A470EBB
:102370000E6E010E106E7EEC2DF00F6A480E0E6E82
:10238000010E106E7EEC2DF00F6A490E0E6E1E0EC1
:10239000106E7EEC2DF00F6A4A0E0E6E000E106A63
:1023A0007EEC2DF00F6A4B0E0E6E000E106A7EEC66
:1023B0002DF00F6A4C0E0E6E000E106A7EEC2DF0A2
:1023C0000F6A4D0E0E6E000E106A7EEC2DF00F6A35
:1023D0004E0E0E6E000E106A7EEC2DF00F6A4F0E40
:1023E0000E6E0F0E106E7EEC2DF00F6A500E0E6EFC
:1023F000680E106E7EEC2DF00F6A510E0E6E0D0EF3
:10240000106E7EEC2DF00F6A520E0E6E7F0E106E67
:102410007EEC2DF00F6A530E0E6E0D0E106E7EECDC
:102420002DF00F6A540E0E6E7F0E106E7EEC2DF0A6
:102430000F6A550E0E6E0D0E106E7EEC2DF00F6AAB
:10244000560E0E6E7F0E106E7EEC2DF00F6A570E3C
:102450000E6E0D0E106E7EEC2DF00F6A580E0E6E85
:102460007F0E106E7EEC2DF00F6A590E0E6E0D0E63
:10247000106E7EEC2DF00F6A5A0E0E6E7F0E106EEF
:102480007EEC2DF00F6A5B0E0E6E800E106E7EECF1
:102490002DF00F6A5C0E0E6EFF0E10687EEC2DF0B4
:1024A0000F6A5D0E0E6E800E106E7EEC2DF00F6AC0
:1024B0005E0E0E6EFF0E10687EEC2DF00F6A5F0E42
:1024C0000E6E800E106E7EEC2DF00F6A600E0E6E9A
:1024D000FF0E10687EEC2DF00F6A610E0E6E800EFE
:1024E000106E7EEC2DF00F6A620E0E6EFF0E1068FD
:1024F0007EEC2DF00F6A630E0E6E800E106E7EEC79
:102500002DF00F6A640E0E6EFF0E10687EEC2DF03B
:102510000F6A650E0E6E800E106E7EEC2DF00F6A47
:10252000660E0E6EFF0E10687EEC2DF00F6A670EC1
:102530000E6E7F0E106E7EEC2DF00F6A680E0E6E22
:10254000FF0E10687EEC2DF00F6A690E0E6E7F0E86
:10255000106E7EEC2DF00F6A6A0E0E6EFF0E106884
:102560007EEC2DF00F6A6B0E0E6E7F0E106E7EEC01
:102570002DF00F6A6C0E0E6EFF0E10687EEC2DF0C3
:102580000F6A6D0E0E6E7F0E106E7EEC2DF00F6AD0
:102590006E0E0E6EFF0E10687EEC2DF00F6A6F0E41
:1025A0000E6E7F0E106E7EEC2DF00F6A700E0E6EAA
:1025B000FF0E10687EEC2DF00F6A710E0E6E7F0E0E
:1025C000106E7EEC2DF00F6A720E0E6EFF0E10680C
:1025D0007EEC2DF00F6A730E0E6E000E106A7EEC0C
:1025E0002DF00F6A740E0E6E000E106A7EEC2DF048
:1025F0000F6A750E0E6E000E106A7EEC2DF00F6ADB
:10260000760E0E6E000E106A7EEC2DF00F6A770EBD
:102610000E6E000E106A7EEC2DF00F6A780E0E6EB4
:10262000000E106A7EEC2DF00F6A790E0E6E000E11
:10263000106A7EEC2DF00F6A7A0E0E6E000E106A94
:102640007EEC2DF00F6A7B0E0E6E000E106A7EEC93
:102650002DF00F6A7C0E0E6E000E106A7EEC2DF0CF
:102660000F6A7D0E0E6E000E106A7EEC2DF00F6A62
:102670007E0E0E6E000E106A7EEC2DF00F6A7F0E3D
:102680000E6E106E7EEC2DF00F6A800E0E6EFF0E39
:1026900010687EEC2DF00F6A810E0E6E7F0E106EAC
:1026A0007EEC2DF00F6A820E0E6EFF0E10687EEC2F
:1026B0002DF00F6A830E0E6E7F0E106E7EEC2DF0E5
:1026C0000F6A840E0E6EFF0E10687EEC2DF00F6AFE
:1026D000850E0E6E7F0E106E7EEC2DF00F6A860E4C
:1026E0000E6EFF0E10687EEC2DF00F6A870E0E6ED8
:1026F0007F0E106E7EEC2DF00F6A880E0E6EFF0EB0
:1027000010687EEC2DF00F6A890E0E6E7F0E106E33
:102710007EEC2DF00F6A8A0E0E6EFF0E10687EECB6
:102720002DF00F6A8B0E0E6E800E106E7EEC2DF06B
:102730000F6A8C0E0E6E000E106A7EEC2DF00F6A82
:102740008D0E0E6E800E106E7EEC2DF00F6A8E0ECA
:102750000E6E000E106A7EEC2DF00F6A8F0E0E6E5C
:10276000800E106E7EEC2DF00F6A900E0E6E000E35
:10277000106A7EEC2DF00F6A910E0E6E800E106EB8
:102780007EEC2DF00F6A920E0E6E000E106A7EEC3B
:102790002DF00F6A930E0E6E800E106E7EEC2DF0F3
:1027A0000F6A940E0E6E000E106A7EEC2DF00F6A0A
:1027B000950E0E6E800E106E7EEC2DF00F6A960E4A
:1027C0000E6E000E106A7EEC2DF00F6A970E0E6EE4
:1027D000020E106E7EEC2DF00F6A980E0E6E020E39
:1027E000106E7EEC2DF00F6A990E0E6E020E106EBA
:1027F0007EEC2DF00F6A9A0E0E6E020E106E7EECBD
:102800002DF00F6A9B0E0E6E020E106E7EEC2DF0F8
:102810000F6A9C0E0E6E020E106E7EEC2DF00F6A8B
:10282000F20E0E6EC30E106E7EEC2DF00F6AF30EDC
:102830000E6E500E106E7EEC2DF00F6A9E0E0E6E18
:10284000000E106A7EEC2DF00F6A9F0E0E6E000EC9
:10285000106A7EEC2DF00F6AA00E0E6E000E106A4C
:102860007EEC2DF00F6AA10E0E6E000E106A7EEC4B
:102870002DF00F6AA20E0E6E000E106A7EEC2DF087
:102880000F6AA30E0E6E000E106A7EEC2DF00F6A1A
:10289000A40E0E6E000E106A7EEC2DF00F6AA50ECF
:1028A0000E6E000E106A7EEC2DF00F6AA60E0E6EF4
:1028B000000E106A7EEC2DF00F6AA70E0E6E000E51
:1028C000106A7EEC2DF00F6AA80E0E6E000E106AD4
:1028D0007EEC2DF00F6AA90E0E6E000E106A7EECD3
:1028E0002DF00F6AAA0E0E6E000E106A7EEC2DF00F
:1028F0000F6AAB0E0E6E000E106A7EEC2DF00F6AA2
:10290000AC0E0E6E000E106A7EEC2DF00F6AAD0E4E
:102910000E6E000E106A7EEC2DF00F6AAE0E0E6E7B
:10292000000E106A7EEC2DF00F6AAF0E0E6E000ED8
:10293000106A7EEC2DF00F6AB00E0E6E000E106A5B
:102940007EEC2DF00F6AB10E0E6E000E106A7EEC5A
:102950002DF00F6AB20E0E6E000E106A7EEC2DF096
:102960000F6AB30E0E6E000E106A7EEC2DF00F6A29
:10297000B40E0E6E000E106A7EEC2DF00F6AB50ECE
:102980000E6E000E106A7EEC2DF0116A11500C0DC7
:10299000B60EF3240E6E000EF4200F6E000E106AB9
:1029A0007EEC2DF011500C0DB70EF3240E6E000EC0
:1029B000F4200F6E000E106A7EEC2DF011500C0DFD
:1029C000B80EF3240E6E000EF4200F6E000E106A87
:1029D0007EEC2DF011500C0DB90EF3240E6E000E8E
:1029E000F4200F6E000E106A7EEC2DF011500C0DCD
:1029F000BA0EF3240E6E000EF4200F6E000E106A55
:102A00007EEC2DF011500C0DBB0EF3240E6E000E5B
:102A1000F4200F6E000E106A7EEC2DF011500C0D9C
:102A2000BC0EF3240E6E000EF4200F6E000E106A22
:102A30007EEC2DF011500C0DBD0EF3240E6E000E29
:102A4000F4200F6E000E106A7EEC2DF011500C0D6C
:102A5000BE0EF3240E6E000EF4200F6E000E106AF0
:102A60007EEC2DF011500C0DBF0EF3240E6E000EF7
:102A7000F4200F6E000E106A7EEC2DF011500C0D3C
:102A8000C00EF3240E6E000EF4200F6E000E106ABE
:102A90007EEC2DF011500C0DC10EF3240E6E000EC5
:102AA000F4200F6E000E106A7EEC2DF0112A050E38
:102AB00011646CD7050CE8CF13F04750461001E1C4
:102AC00019D25DD30F6A410E0E6E8DEC2EF084D3B9
:102AD0000F6A420E0E6E8DEC2EF07ED30F6A430EFF
:102AE0000E6E8DEC2EF078D30F6A440E0E6E8DECC8
:102AF0002EF072D30F6A450E0E6E8DEC2EF06CD355
:102B00000F6A460E0E6E8DEC2EF066D30F6A470EDE
:102B10000E6E8DEC2EF060D30F6A480E0E6E8DECAB
:102B20002EF05AD30101015157D300C114F055D3EF
:102B30000101035151D302C114F04FD301010551DA
:102B40004BD304C114F049D30101075145D306C149
:102B500014F043D3010109513FD308C114F03DD310
:102B60000F6A490E0E6E8DEC2EF036D30F6A4A0EA8
:102B70000E6E8DEC2EF030D30F6A4B0E0E6E8DEC78
:102B80002EF02AD30F6A4C0E0E6E8DEC2EF024D34D
:102B90000F6A4D0E0E6E8DEC2EF01ED30F6A4E0E88
:102BA0000E6E8DEC2EF018D30F6A4F0E0E6E8DEC5C
:102BB0002EF012D30F6A500E0E6E8DEC2EF00CD349
:102BC0000F6A510E0E6E8DEC2EF006D30F6A520E68
:102BD0000E6E8DEC2EF000D30F6A530E0E6E8DEC40
:102BE0002EF0FAD20F6A540E0E6E8DEC2EF0F4D247
:102BF0000F6A550E0E6E8DEC2EF0EED20F6A560E49
:102C00000E6E8DEC2EF0E8D20F6A570E0E6E8DEC24
:102C10002EF0E2D20F6A580E0E6E8DEC2EF0DCD242
:102C20000F6A590E0E6E8DEC2EF0D6D20F6A5A0E28
:102C30000E6E8DEC2EF0D0D20F6A5B0E0E6E8DEC08
:102C40002EF0CAD20F6A5C0E0E6E8DEC2EF0C4D23E
:102C50000F6A5D0E0E6E8DEC2EF0BED20F6A5E0E08
:102C60000E6E8DEC2EF0B8D20F6A5F0E0E6E8DECEC
:102C70002EF0B2D20F6A600E0E6E8DEC2EF0ACD23A
:102C80000F6A610E0E6E8DEC2EF0A6D20F6A620EE8
:102C90000E6E8DEC2EF0A0D20F6A630E0E6E8DECD0
:102CA0002EF09AD20F6A640E0E6E8DEC2EF094D236
:102CB0000F6A650E0E6E8DEC2EF08ED20F6A660EC8
:102CC0000E6E8DEC2EF088D20F6A670E0E6E8DECB4
:102CD0002EF082D20F6A680E0E6E8DEC2EF07CD232
:102CE0000F6A690E0E6E8DEC2EF076D20F6A6A0EA8
:102CF0000E6E8DEC2EF070D20F6A6B0E0E6E8DEC98
:102D00002EF06AD20F6A6C0E0E6E8DEC2EF064D22D
:102D10000F6A6D0E0E6E8DEC2EF05ED20F6A6E0E87
:102D20000E6E8DEC2EF058D20F6A6F0E0E6E8DEC7B
:102D30002EF052D20F6A700E0E6E8DEC2EF04CD229
:102D40000F6A710E0E6E8DEC2EF046D20F6A720E67
:102D50000E6E8DEC2EF040D20F6A730E0E6E8DEC5F
:102D60002EF03AD20F6A740E0E6E8DEC2EF034D225
:102D70000F6A7F0E0E6E8DEC2EF02ED20F6A800E33
:102D80000E6E8DEC2EF028D20F6A810E0E6E8DEC39
:102D90002EF022D20F6A820E0E6E8DEC2EF01CD217
:102DA0000F6A830E0E6E8DEC2EF016D20F6A840E13
:102DB0000E6E8DEC2EF010D20F6A850E0E6E8DEC1D
:102DC0002EF00AD20F6A860E0E6E8DEC2EF004D213
:102DD0000F6A870E0E6E8DEC2EF0FED10F6A880EF4
:102DE0000E6E8DEC2EF0F8D10F6A890E0E6E8DEC02
:102DF0002EF0F2D10F6A8A0E0E6E8DEC2EF0ECD111
:102E00000F6A8B0E0E6E8DEC2EF0E6D10F6A8C0ED3
:102E10000E6E8DEC2EF0E0D10F6A8D0E0E6E8DECE5
:102E20002EF0DAD10F6A8E0E0E6E8DEC2EF0D4D10C
:102E30000F6A8F0E0E6E8DEC2EF0CED10F6A900EB3
:102E40000E6E8DEC2EF0C8D10F6A910E0E6E8DECC9
:102E50002EF0C2D10F6A920E0E6E8DEC2EF0BCD108
:102E60000F6A930E0E6E8DEC2EF0B6D10F6A940E93
:102E70000E6E8DEC2EF0B0D10F6A950E0E6E8DECAD
:102E80002EF0AAD10F6A960E0E6E8DEC2EF0A4D104
:102E90000F6A970E0E6E8DEC2EF09ED10F6A980E73
:102EA0000E6E8DEC2EF098D10F6A990E0E6E8DEC91
:102EB0002EF092D10F6A9A0E0E6E8DEC2EF08CD100
:102EC0000F6A9B0E0E6E8DEC2EF086D10F6A9C0E53
:102ED0000E6E8DEC2EF080D1146A7FD10F6AF20E47
:102EE0000E6E8DEC2EF078D10F6AF30E0E6E8DEC17
:102EF0002EF072D1135001E1E5D5010A01E1E8D5C8
:102F0000030A01E1EBD5010A01E1EED5070A01E16F
:102F1000F1D5010A01E1F4D5030A01E1F7D5010A6F
:102F200001E1FAD50F0A01E1FDD5010A01E1FDD564
:102F3000030A01E1FDD5010A01E1FDD5070A01E11E
:102F4000FDD5010A01E1FDD5030A01E1FDD5010A24
:102F500001E1FDD51F0A01E1FDD5010A01E1FDD521
:102F6000030A01E1F7D5010A01E1F7D5070A01E1FA
:102F7000F7D5010A01E1FAD5030A01E1FDD5010AFD
:102F800001E100D60F0A01E103D6010A01E106D6EC
:102F90003F0A01E109D6010A01E10CD60F0A01E15D
:102FA0000FD6010A01E112D6030A01E115D6010A82
:102FB00001E118D6070A01E11BD6010A01E11ED67C
:102FC000030A01E121D6010A01E124D61F0A01E129
:102FD00027D6010A01E12AD6030A01E12DD6010A0A
:102FE00001E130D6070A01E133D6010A01E136D604
:102FF000030A01E139D6010A01E13CD60F0A01E1D9
:103000003FD6010A01E142D6030A01E145D6010A91
:1030100001E148D6070A01E14BD6010A01E14ED68B
:10302000030A01E151D6010A01E154D67F0A01E108
:1030300057D6010A01E15AD6030A01E15DD6010A19
:1030400001E160D6070A01E163D6010A01E166D613
:10305000030A01E169D6010A01E16CD60F0A01E118
:103060006FD6010A01E172D6030A01E175D6010AA1
:1030700001E178D6070A01E16FD6010A01E172D6B3
:10308000030A01E169D6010A01E16CD61F0A01E1D8
:1030900063D6010A01E166D6030A01E15DD6010AA1
:1030A00001E160D6070A01E157D6010A01E15AD6CB
:1030B000030A01E15DD6010A01E160D60F0A01E1D0
:1030C00063D6010A01E166D6030A01E169D6010A65
:1030D00001E16CD6070A01E16FD6010A01E172D65F
:1030E000030A01E175D6010A01E178D63F0A01E140
:1030F0007BD6010A01E17ED6030A01E181D6010AED
:1031000001E184D6070A01E187D6010A01E18AD6E6
:10311000030A01E18DD6010A01E190D60F0A01E10F
:1031200093D6010A01E196D6030A01E199D6010A74
:1031300001E19CD6070A01E19FD6010A01E1A2D66E
:10314000030A01E1A5D6010A01E1A8D61F0A01E19F
:10315000ABD6010A01E1AED6030A01E1B1D6010AFC
:1031600001E1B4D6070A01E1B7D6010A01E1B4D6FC
:10317000030A01E1B3D6010A01E1B6D6ADD6460491
:1031800047102BE1480E136009D0AA0E13240E6ECF
:103190000F6A000E0F228DEC2EF01ED0540E13601D
:1031A00010D01350B80F126E12A002D0120601D028
:1031B000122A9C0E1224D96EDA6A010EDA22DF502E
:1031C0000BD0620E136009D04A0E13240E6E0F6AE4
:1031D000000E0F228DEC2EF0146E14501200BF5111
:1031E000BE1101E1DED20ED309EC2CF00BD319ECA9
:1031F0002DF008D3A3EC2DF005D3D6EC2CF002D3A0
:10320000BC510F0B020A01E0FDD2BA5120EEC2F010
:10321000DF62F8D2800EC36112D0C3515BEC15F0AF
:103220000001D06FC3C0CFF0030ECB6F820ECA6F08
:10323000CC6BCD6B0A0ECE6F57EC2DF0E3D2C351A1
:1032400032EC24F0EDD7BC510F0B030A01E0DAD2C7
:10325000BA5120EEC2F0DF62D5D2800EC36106D033
:10326000C4C021F0C351B7EC05F0DAD7C4C022F0D6
:10327000C35100EC1FF0D4D7BA5120EEC2F0DF6288
:10328000C1D2000E71EC2EF00001C41901E0BAD2D7
:10329000030E71EC2EF00001C51901E0B3D2050E4A
:1032A00071EC2EF00001C61901E0ACD2070E71ECF2
:1032B0002EF00001C71901E0A5D24750C81901E05E
:1032C000A1D2465020EEC9F0DF629CD2C35145EC3A
:1032D0002EF098D2000E71EC2EF00001C31973E1AC
:1032E000010E71EC2EF00001C4196DE1020E71ECBB
:1032F0002EF00001C51967E1030E71EC2EF00001FC
:10330000C61961E14C885FD0040E71EC2EF000010B
:10331000C31959E1050E71EC2EF00001C41953E1F7
:10332000060E71EC2EF00001C5194DE1070E71EC8F
:103330002EF00001C61947E14C8A45D0080E71EC09
:103340002EF00001C3193FE1090E71EC2EF00001CF
:10335000C41939E10A0E71EC2EF00001C51933E1F0
:103360000B0E71EC2EF00001C6192DE14C8C2BD008
:103370000C0E71EC2EF00001C31925E10D0E71EC5D
:103380002EF00001C4191FE10E0E71EC2EF00001A9
:10339000C51919E10F0E71EC2EF00001C61913E1E9
:1033A0004C8E11D04C6A0FD0C2390F0B7F6F806BDF
:1033B0008051F8E17F518EE0010AA6E0030ABEE0E9
:1033C000010AD6E0EFD74C50F00BF00A01E01AD218
:1033D000A0EC2BF017D2BA5120EEC2F0DF6212D26D
:1033E0008B6BC3C08AF0C4C08DF0986B49D08A51F2
:1033F000982507EC2EF000017F6F070E0E6E985196
:1034000043EC2DF00001806F8051D00FD96EDA6A45
:103410007FC0DFFF070E0E6E985143EC2DF0060AB9
:103420000BE0FF0E00018D257F6F806BFF0E802368
:1034300098517F19801123E1070E0E6E00019851FB
:1034400043EC2DF0060A03E1070E000109D0070E38
:103450000E6E0001985143EC2DF000017F6F7F2923
:103460008C6F8C51810FCA6F030ECB6FCC6BCD6B01
:103470001A0ECE6F8BC0CFF057EC2DF08B2B982B04
:103480008D51985D01E3BED1B2D7BA5120EEC2F0A2
:10349000DF62B8D1C3C08EF0BC51FE0F070B8F6F37
:1034A000956B18D09551C40FD96EDA6ADF50346E1F
:1034B0008E519525C7EC2DF000018E51952507EC16
:1034C0002EF000017F6F9551D00FD96EDA6A7FC060
:1034D000DFFF952B8F51955DE5E3030ECB6FCC6B32
:1034E000CD6B1A0ECE6FCF6B8F51810FCA6FA4D6E2
:1034F000BA5120EEC2F0DF6285D1C3515BEC15F00A
:1035000000017F6F7F29216EC351B7EC05F088D68B
:10351000BA5120EEC2F0DF6275D1C3515BEC15F0F9
:1035200000017F6F7F05216EC351B7EC05F078D69F
:10353000C251BA1903E0C22901E064D1936B030EB2
:10354000CB6F880ECA6FCC6BCD6B200ECE6F976B96
:1035500097C0CFF0010E996F9951CF0FD96EDA6AEB
:1035600093510F0871EC2EF0DF6E0001932B100EBB
:10357000936501D004D0992B070E9965EDD7100EF5
:10358000936501D006D057EC2DF0972B020E97656E
:10359000DFD7996B995139EC2EF0000908E0995169
:1035A000D20FD96EDA6A995139EC2EF005D09951C3
:1035B000D20FD96EDA6A000EDF6E992B040E996570
:1035C000E9D757EC2DF0050E936F030E976F97C058
:1035D000CFF0010E996F9951CF0FD96EDA6A9351DE
:1035E00039EC2EF0DF6E932B992B070E9965F3D7EC
:1035F00057EC2DF0972B060E9765E9D703D1BA51FA
:1036000020EEC2F0DF62FED0030ECB6F870ECA6FD2
:10361000CC6BCD6B220ECE6FCF0E14EC2EF00CD6F1
:10362000BA5120EEC2F0DF62EDD0966BBCC07FF0E5
:103630000F0E7F17040E7F5D04E3C6C094F09467FD
:1036400002D0010E946F46C086F047C087F0C45187
:10365000C3C07FF0806B7FC080F07F6B7F11466EB0
:103660008051476E030ECB6FCC6BCD6B270ECE6FA8
:10367000CF6BC3C0D0F0C4C0D1F0965194C07FF0DE
:10368000806B7F5F000E805B8051800A800F040E8C
:10369000D8B47F5D02E3040E02D09651945D906F22
:1036A0009051840FCA6FC5519625D26F916B0ED081
:1036B000C5519625912507EC2EF000017F6F9151A1
:1036C000D30FD96EDA6A7FC0DFFF912B9051915DE5
:1036D000EFE357EC2DF090519627CF2B9451965D48
:1036E000CCE386C046F087C047F08CD0BA5120EEBC
:1036F000C2F0DF6287D046C088F047C089F0C4516D
:10370000C3C07FF0806B7FC080F07F6B7F11466EFF
:103710008051476EC5C092F014D0C551C60892259D
:10372000D96EDA6ADF50346E9251C7EC2DF0000189
:103730007F6FC551D3089225D96EDA6A7FC0DFFF4B
:10374000922BBC510F0B7F6F806BC5517F27000EF2
:103750008023FC0E7F25816FFF0E8021826F9251A6
:10376000836F846B8451800A856F8151835D8251A0
:10377000800A8559D2E388C046F089C047F0030E1D
:10378000CB6FBC510F0B800FCA6FCC6BCD6B270E6C
:10379000CE6FCF6BC3C0D0F0C4C0D1F0C5C0D2F0E3
:1037A0004BD5C051010A01E11FD5030A01E11FD524
:1037B000040A01E11FD50E0A01E11FD5010A01E14A
:1037C0001FD5020A01E13FD5070A01E155D51B0AC1
:1037D00001E1EAD50F0A01E1FED5010A01E155D662
:1037E000040A01E185D6030A01E192D6010A01E14A
:1037F0009FD63E0A01E103D7040A01E111D7030A6B
:1038000001E174D71200E8CF1AF0486A7750C00B74
:103810001C6E1C6632D060AE12D0A49074AE06D07E
:103820001750D96EDA6A000EDB86749E60A002D053
:10383000488001D048900F0E1F6E600E1AD00F0105
:1038400050AF19D0A49274AC06D01750D96EDA6A72
:10385000000EDB86749C5051070B486E020E4860C8
:1038600005D01750D96EDA6A000EDB8E0F0E1F6E70
:10387000500E1E6E65D0000ECCD01C50400A46E1A2
:1038800060AE04D00F0E1F6E600E3ED00F0150AF21
:1038900004D00F0E1F6E500E37D00D01F8B507D0B3
:1038A0000E0120AF04D00E0E1F6E200E2DD00D0184
:1038B000F8B707D00E0130AF04D00E0E1F6E300ED9
:1038C00023D00D01F8B907D00E0140AF04D00E0E81
:1038D0001F6E400E19D00D01F8BB05D00E0150AF80
:1038E00002D00E0ED7D70D01F8BD05D00E0160AF86
:1038F00002D00E0EC8D70D01F8BFBDD70E0170AFB4
:10390000BAD70E0E1F6E700E1E6E0AD074AEB3D7ED
:103910006F50070BD2EC29F00EC01EF00FC01FF045
:103920001EC0D9FF1FC0DAFFDF501F0B486EA492E4
:1039300074AC06D01750D96EDA6A000EDB86749C20
:103940001EC018F01FC019F01750D96EDA6ADF6A6E
:1039500020EE05F01E50D9261F50DA22DF501D6ED2
:103960001650D96EDA6A1D500F0BDF6E1DAC05D0F4
:103970001750D96EDA6A000EDB8C20EE02F01E5072
:10398000D9261F50DA22DF501D6E1DA608D0175011
:10399000D96EDA6A000EDB8A010E1D6E01D01D6A37
:1039A0001E280E6E000E1F200F6E1AC010F01DC0D4
:1039B00011F099EC20F0060E1E26000E1F22165064
:1039C000D96EDA6ADF501D6E1B6A0DD01EC0D9FF9A
:1039D0001FC0DAFF1550E16EE26ADFCFE7FF1E4A33
:1039E0001F2A152A1B2A1D501B5CF0E3A4AE06D02B
:1039F0001750D96EDA6A000EDB88A49E18C0D9FF72
:103A000019C0DAFF7F0EDF161C50800AD8B4749EEE
:103A1000010E12000001BB51030A01E0FED08A6BC7
:103A2000490E8A250E6E0F6A000E0F228DEC2EF0C5
:103A30000001896F895116E00C0E8A25D96EDA6A69
:103A4000010EDA22DF5089610DD08A5113EC29F082
:103A5000000908E00C0E00018A25D96EDA6A010E11
:103A6000DA22DF6A430E00018A250E6E0F6A000E0D
:103A70000F228DEC2EF00001876F87AFCAD08AC06D
:103A800087F0010E886F872B02D0D8908837872F58
:103A9000FCD78851B51558E0430E8A250E6E0F6A83
:103AA000000E0F228DEC2EF00001876F87A74CD0FF
:103AB000CB6B830ECA6F430E8A250E6E0F6A000E03
:103AC0000F228DEC2EF00001876F87AB16D0430ECE
:103AD0008A250E6E0F6A000E0F228DEC2EF000016B
:103AE000876F87AD05D0CD6B1E0ECC6F050E09D04C
:103AF000CD6B1E0ECC6F060E04D0CD6B010ECC6FBD
:103B0000020ECE6F8AC0CFF0D8908A35876F886B4F
:103B10008837730E87250E6E000E88210F6E8DEC90
:103B20002EF00001D06FD8908A35876F886B883768
:103B3000740E87250E6E000E88210F6E8DEC2EF010
:103B40000001D16F57EC2DF08AC087F0010E886F0D
:103B5000872B02D0D8908837872FFCD78851B4158F
:103B600058E0430E8A250E6E0F6A000E0F228DEC70
:103B70002EF00001876F87A94CD0CB6B830ECA6FE4
:103B8000430E8A250E6E0F6A000E0F228DEC2EF06A
:103B90000001876F87AB16D0430E8A250E6E0F6A21
:103BA000000E0F228DEC2EF00001876F87AD05D03F
:103BB000CD6B1E0ECC6F060E09D0CD6B1E0ECC6FDA
:103BC000050E04D0CD6B010ECC6F020ECE6F8AC0F5
:103BD000CFF0D8908A35876F886B8837730E87252A
:103BE0000E6E000E88210F6E8DEC2EF00001D06F4E
:103BF000D8908A35876F886B8837740E87250E6E4C
:103C0000000E88210F6E8DEC2EF00001D16F57EC65
:103C10002DF08A2B050E8A6503D71200000120EED5
:103C200099F0DE50DE10DE10DE1007E1000E996F15
:103C30009A6F800E9B6F3F0E18D0180E0E6E720E8C
:103C40000F6E310E106E440E116E99C012F09AC0B4
:103C500013F09BC014F09CC015F09CEC2AF007E216
:103C6000000199699A697F0E9B6F9C6FC8D099C0BB
:103C70000EF09AC00FF09BC010F09CC011F0870EA0
:103C8000126E480E136E3A0E146EC40E156E9CEC36
:103C90002AF002E200018DD00001010E9CAF000E5F
:103CA000A36FA35112E099C00EF09AC00FF09BC011
:103CB00010F09CC011F091EC2DF011C09CF010C0E0
:103CC0009BF00FC09AF00EC099F03B0E766FAA0ED3
:103CD000776FB80E786F3F0E796F990EC2EC2AF0AD
:103CE00099C08FF09AC090F09BC091F09CC092F068
:103CF0003AEC23F092C0A0F091C09FF090C09EF0EB
:103D00008FC09DF09DC076F09EC077F09FC078F088
:103D1000A0C079F036EC28F076C0A1F077C0A2F010
:103D2000000E7F6F990E7E6FA1C018F0A2C019F02F
:103D30009FEC2CF01BC083F01AC082F019C081F0F8
:103D400018C080F075EC2AF099C076F09AC077F030
:103D50009BC078F09CC079F0200E7A6F7C6B090EC6
:103D60007B6F71EC25F079C084F078C083F077C068
:103D700082F076C081F0A1C085F0A2C086F094ECFC
:103D800027F084C09CF083C09BF082C09AF081C071
:103D900099F0A3512CE020EE99F0FF0EDE18FF0EF3
:103DA000D8B4DE187F0ED8B4DE187F0ED8B4DE1873
:103DB00005E1996B9A6B9B6B9C6B21D02C6A2D6AE9
:103DC000800E2E6E3F0E2F6E99C030F09AC031F0EB
:103DD0009BC032F09CC033F040EC27F02FC09CF029
:103DE0002EC09BF02DC09AF02CC099F008D099C03D
:103DF00099F09AC09AF09BC09BF09CC09CF0120076
:103E0000E8CF33F0221C326E830E33640ED0890E5D
:103E100033600BD022C011F033507C0F2DEC2EF00C
:103E200033507C0F67EC2EF083D03350920A0DE1B3
:103E30002250246E236A4650256E266A2310466E51
:103E400024502610476E475073D03350930A0BE12D
:103E5000236A4750246E22502310466E2450476E2A
:103E600046C032F0B1D0880E336419D0910E336061
:103E700016D047C023F023C024F0256A242802E18D
:103E8000462802E0221C54D022C011F03350770F94
:103E900021EC2EF03350770F5DEC2EF049D0CF0E91
:103EA000336417D0E00E336014D047C023F023C032
:103EB00024F0256A2428E6E14628E4E122C011F036
:103EC0003350300FD8EC2DF03350300F71EC2EF012
:103ED0002FD0990E33642ED09E0E33602BD0C0ECC1
:103EE0002EF011C02BF010C02AF00FC029F00EC028
:103EF00028F03350660F306E30500308236ED89090
:103F00002336D8902336D8902336235028C024F067
:103F100029C025F02AC026F02BC027F0E82A05D0BA
:103F2000D8902732263225322432E82EF9D730D0E5
:103F3000326E4AD09D0E33642DD0A20E33602AD04B
:103F4000BBEC2EF011C02FF010C02EF00FC02DF0E2
:103F50000EC02CF03350620F316E31500308236EC7
:103F6000D8902336D8902336D890233623502CC0AF
:103F700024F02DC025F02EC026F02FC027F0E82A0F
:103F800005D0D8902732263225322432E82EF9D7B0
:103F90002450CED73350A20A01E074D72250550ADC
:103FA00005E101011A6B1B6B550EC2D72250AA0AFC
:103FB0000BE1E80E01011A5D030E1B5904E2CFEC80
:103FC0002EF0AA0EB5D7326A325012000F0E216EB3
:103FD000400E206E0F0E236E300E226E0F0E256ED9
:103FE000200E246E0E0E276E200E266E0E0E296EEB
:103FF000300E286E0E0E2B6E400E2A6E0E0E2D6E9B
:10400000500E2C6E0E0E2F6E600E2E6E0E0E316E3A
:10401000700E306E7750C00B326E326602D0020ED8
:1040200001D0080E336E0D01D890F831356E396A23
:104030007BD03950020DF350200FD96EDA6ADECFF3
:104040003AF0DDCF3BF03AC036F03BC037F0020E1D
:10405000396404D0D890353235A065D03AC0D9FF44
:104060003BC0DAFFDF501F6E1FB65DD03AC0D9FFEC
:104070003BC0DAFFFC0EDF161EC01FF0030E1F163A
:104080003AC0D9FF3BC0DAFF1F50DF121EAC04D08C
:104090001D504009386E02D01DC038F020EE05F0EA
:1040A0003A50D9263B50DA2238C0DFFF1EAA03D08F
:1040B000010E386E01D0386A3A280E6E000E3B2091
:1040C0000F6E18C010F019C011F01AC012F01BC00A
:1040D00013F038C014F0FBEC21F0060E3A26000E67
:1040E0003B22346A0DD01C50D96EDA6A3AC0E1FF27
:1040F0003BC0E2FFDFCFE7FF1C2A3A4A3B2A342AC3
:104100001D50345CF0E336C0D9FF37C0DAFFDF5012
:104110001F6E1FB406D036C0D9FF37C0DAFF000EBD
:10412000DB86010E05D0392A3350395C82E3000E5C
:10413000120010C014F0116646D01450D96EDA6A1D
:104140000EC0E1FF0FC0E2FFE750126ED8901236AA
:10415000D8901236D8901234DF6E1450D96EDA6AC5
:10416000D92ADA6A0EC0E1FF0FC0E2FFE750126EF3
:10417000050E136ED8901232132EFCD71250DF6E3C
:104180000E4A0F2A0EC0D9FF0FC0DAFFDF50126EA1
:10419000050E136ED8901232132EFCD71450D96E20
:1041A000DA6A1250DF121450D96EDA6A020ED9267A
:1041B000DA6ADF6A1450D96EDA6A030ED926DA6A2F
:1041C000000EDF6E67D01450D96EDA6A020ED9265F
:1041D000DA6A0EC0E1FF0FC0E2FFE750126E050E73
:1041E000136ED8901236132EFCD71250DF6E145077
:1041F000D96EDA6A030ED926DA6A0EC0E1FF0FC063
:10420000E2FFE750126ED8901232D8901232D89056
:104210001230DF6E0E4A0F2A0EC0D9FF0FC0DAFF30
:10422000DF50126E030E12161450D96EDA6A020EA7
:10423000D926DA6A1250DF120EC0D9FF0FC0DAFF9A
:10424000DF50126ED8901232D8901232D8901232BB
:104250001C0E12161450D96EDA6A020ED926DA6ACA
:104260001250DF120E4A0F2A0EC0D9FF0FC0DAFF1C
:104270001450E16EE26AE12AE26ADFCFE7FF0E4AFC
:104280000F2A0EC0D9FF0FC0DAFF1450E16EE26AA8
:10429000DFCFE7FF12001F3420342B6E2334243489
:1042A0002A6E2B5009E02A502B600FD02B502A5C2D
:1042B000256E210E255C09E321C01DF022C01EF0F1
:1042C00023C01FF024C020F095D02A5009E02B50C5
:1042D0002A600FD02A502B5C256E210E255C09E345
:1042E0001DC01DF01EC01EF01FC01FF020C020F01A
:1042F00081D0060E296E20BE298E24BE298C1F8EE9
:10430000206A238E246A2A502B6018D0D890213638
:104310002236233624362A062A502B180BE029068B
:104320002950070B07E0F2D7D89020321F321E32F7
:104330001D322B2A2A502B62F7D71AD02B502A6015
:1043400017D0D8901D361E361F3620362B062A5021
:104350002B180BE029062950070B07E0F2D7D8905D
:1043600024322332223221322A2A2A502B62F7D7D2
:1043700029AE09D01D1E1E1E1F1E201E1D2A000E46
:104380001E221F22202229AC09D0211E221E231EFC
:10439000241E212A000E222223222422296A1D50B3
:1043A00021261E5022221F5023222050242224AED8
:1043B0000BD0211E221E231E241E212A000E222283
:1043C00023222422010E296E21C00EF022C00FF0FC
:1043D00023C010F024C011F02BC012F029C013F03C
:1043E000D1EC25F011C020F010C01FF00FC01EF05E
:1043F0000EC01DF01200100E176E146637D0175045
:10440000D96EDA6ADF50156ED8901532D890153211
:10441000D89015300EC0D9FF0FC0DAFFDF6E1750ED
:10442000D96EDA6AD92ADA6ADF50156E050E166E71
:10443000D8901536162EFCD70EC0D9FF0FC0DAFF64
:104440001550DF120E4A0F2A1750D96EDA6ADF5064
:10445000156E050E166ED8901536162EFCD7155013
:104460000EC0D9FF0FC0DAFFDF6E6CD01750D96EC7
:10447000DA6A020ED926DA6ADF50156E050E166E5C
:10448000D8901532162EFCD715500EC0D9FF0FC08C
:10449000DAFFDF6E1750D96EDA6A030ED926DA6AB0
:1044A000DF50156ED8901536D8901536D890153641
:1044B0000EC0D9FF0FC0DAFF1550DF120E4A0F2AC7
:1044C0001750D96EDA6A020ED926DA6ADF50156EF5
:1044D000D8901536D8901536D8901534E00B0EC00C
:1044E000D9FF0FC0DAFFDF6E0EC0D9FF0FC0DAFFB1
:1044F000000EDB861750D96EDA6A020ED926DA6A08
:10450000DF50156E030E15160EC0D9FF0FC0DAFF6F
:104510001550DF120E4A0F2A1750D96EDA6AD92ABF
:10452000DA6A0EC0E1FF0FC0E2FFDFCFE7FF0E4AFD
:104530000F2A1750D96EDA6A0EC0E1FF0FC0E2FFF2
:10454000DFCFE7FF1200000184BF07D020EE81F02B
:10455000DE50DE10DE10DE1005E1816B826B836BB6
:10456000846B87D0646B656B666B400E676F430E20
:10457000126E000E136E0F0E136E5F0E1264136A2E
:1045800081C00EF082C00FF083C010F084C011F023
:10459000D0EC28F011C063F010C062F00FC061F0E1
:1045A0000EC060F0A4EC24F063C020F062C01FF0E5
:1045B00061C01EF060C01DF0216A226A800E236E69
:1045C000BF0E246E4BEC21F020C084F01FC083F09E
:1045D0001EC082F01DC081F04306D8A0440681C0F1
:1045E00076F082C077F083C078F084C079F0480E0E
:1045F00000017A6F7C6B080E7B6F71EC25F079C03F
:1046000084F078C083F077C082F076C081F0180E15
:10461000646F720E656F310E666F3F0E676F43C039
:1046200018F044C019F09FEC2CF01BC063F01AC0C6
:1046300062F019C061F018C060F0A4EC24F063C00F
:1046400020F062C01FF061C01EF060C01DF081C08C
:1046500021F082C022F083C023F084C024F04BEC10
:1046600021F020C084F01FC083F01EC082F01DC066
:1046700081F012008FC00EF090C00FF091C010F0CA
:1046800092C011F0000E136E970E126ED0EC28F04F
:1046900098AF0FD092AF08D0000E8F6F906F800E42
:1046A000916FBF0E926F63D08F6B906B916B926B1B
:1046B0005ED01D0E975D000E985909E38FC08FF0F4
:1046C00090C090F091C091F092C092F050D08FC005
:1046D00076F090C077F091C078F092C079F036EC27
:1046E00028F079C08DF078C08CF077C08BF076C060
:1046F0008AF07CEC2BF08DC096F08CC095F08BC0CE
:1047000094F08AC093F08FC00EF090C00FF091C06B
:1047100010F092C011F093C012F094C013F095C045
:1047200014F096C015F09CEC2AF019E293C01DF02D
:1047300094C01EF095C01FF096C020F0216A226A36
:10474000800E236EBF0E246E4BEC21F020C092F041
:104750001FC091F01EC090F01DC08FF008D093C014
:104760008FF094C090F095C091F096C092F0120036
:1047700064EC2CF0B5EC2DF00009D8B48CEC11F001
:10478000A0EC2BF00400FA0E0001B8650CD0BB05BC
:104790000AE0BA690F6A010E0E6EFF0E10687EEC19
:1047A0002DF0A0EC2BF0BC6B2EEC2DF024D0BA2910
:1047B00003E1010EBB6F2BD0030EBB6FE9EC2DF0B4
:1047C00026D00FEC25F023D0BCAF21D0BF51BE11B5
:1047D00003E1EFEC18F01BD0BE511E0ABF1117E128
:1047E000C0511A0A14E155EC29F011D0D3EC2EF087
:1047F0000ED0BB6B0CD00001BB51D9E0010AE1E047
:10480000030ADCE0010AE0E0070AF0E0F2D7E90E73
:104810000101125D030E1359000E1459000E1559B3
:10482000B1E3126B136B146B156B0AEC1DF0B62B16
:104830004A2ABB51030A0DE1B26B0C0E0001B225EE
:10484000D96EDA6A010EDA22DF2AB22B050EB265C2
:10485000F4D73C0EB66501D0B66BE8EC2AF038EC24
:104860000CF090D7E8CF14F01450800A04E14BC04C
:1048700013F04B6A67D01450810A02E1010E61D037
:104880001450820A02E1050E5CD01450830A02E142
:10489000136A58D01450940A03E1DEEC2EF051D084
:1048A0001450950A03E1DDEC2EF04BD01450960A1B
:1048B00003E1DCEC2EF045D0890E146005D01450D5
:1048C0007C0F67EC2EF03DD0880E146408D0910E5A
:1048D000146005D01450770F5DEC2EF032D01450D8
:1048E000910A03E1BAC013F02DD01450930A03E1EA
:1048F00046C013F027D01450920A02E1475021D04D
:104900001450970A03E1DBEC2EF01BD01450980AE8
:1049100003E1DAEC2EF015D01450990A03E1D9EC3A
:104920002EF00FD0CF0E146408D0E00E146005D026
:104930001450300F71EC2EF004D01450200F39ECCD
:104940002EF0136E135012000001623563356F6F45
:104950006F6701D006D0000166356735756F7567E2
:1049600005D0606B616B626B636B58D075517B0FC8
:104970006F2763C075F000016751751B800E7517B6
:10498000628F668F000E6717706B716B726B736B43
:10499000070E746F60A108D06451702765517123B0
:1049A0006651722367517323D89063336233613346
:1049B0006033D8906437653766376737742FEAD726
:1049C000110E746F60A108D0645170276551712376
:1049D0006651722367517323D89063336233613316
:1049E0006033D8907333723371337033742FEAD7D6
:1049F00070C00EF071C00FF072C010F073C011F0F3
:104A00006FC012F075C013F0D1EC25F011C063F047
:104A100010C062F00FC061F00EC060F0120058D0FC
:104A20004F2812E0810E0001CA6FCB6BCC6BCD6BAF
:104A3000020ECE6F4FC0CFF057EC2DF0010E4E6E30
:104A400001011C6B1D6B4AD0040E0001BB6F810E6F
:104A5000CA6FCF69070ECB6FCC6BCD6B030ECE6FD9
:104A600057EC2DF03BD00001BCAF0FD0BF51BE11B1
:104A700035E1C051030A32E14F6603D0020EBB6F2D
:104A8000DFD74F2A4E6A506A29D0E90E01011C5D1A
:104A9000030E1D5923E3502A020E506417D04F66AF
:104AA00005D04F2A4E6A1C6B1D6BEDD74FC0BAF074
:104AB000030E0001BB6F4E6ABA5196EC2EF0400E09
:104AC00084EC2EF0506AE9EC2DF008D04E6A06D046
:104AD0004E50A6E0010AC7E0030AF8E10001BC6BF2
:104AE00012007B51040D7A51F324426E42C0F6FF4E
:104AF0000B0EF76E0900F5CF7DF00900F5CF7EF0C3
:104B00000900F5CF7FF00A00F5CF80F03DD07DC0E1
:104B100064F07EC065F07FC066F080C067F076C04C
:104B200060F077C061F078C062F079C063F0A4EC07
:104B300024F063C020F062C01FF061C01EF060C0AE
:104B40001DF000017B07D8A07C077B51040D7A5132
:104B5000F324426E42C0F6FF0B0EF76E0900F5CF4C
:104B600021F00900F5CF22F00900F5CF23F00A006B
:104B7000F5CF24F04BEC21F020C080F01FC07FF077
:104B80001EC07EF01DC07DF000017C517B11BFE195
:104B90007DC076F07EC077F07FC078F080C079F07D
:104BA0001200125005E011500E100F1010100BE102
:104BB0000E6A0F6A106A116A53D0122AD890113205
:104BC00010320F320E32146A156A166AFE0E111474
:104BD000176E17501410151016100CE0EED7122A8D
:104BE0000E2A000E0F2210221122D89011321032FC
:104BF0000F320E32146A156A166A1150176E17506A
:104C000014101510161007E0EAD71206D8900E36C9
:104C10000F361036113610AEF8D712B002D07F0E14
:104C20001016D890123212C014F0156A166A176A5C
:104C300014C017F0166A156A146A14500E12155033
:104C40000F1216501012175011121350D8A4118EB3
:104C50000EC00EF00FC00FF010C010F011C011F018
:104C60001200856B83AF0AD0831F821F811F806D66
:104C7000000E812382238323010E856F7FAF0AD02C
:104C80007F1F7E1F7D1F7C6D000E7D237E237F2373
:104C9000010E851B866B876B886B896B8351801136
:104CA0008111821129E0010E846F06D0D8908037DF
:104CB000813782378337842B83AFF8D7D8908637F4
:104CC00087378837893780517C5D81517D59825182
:104CD0007E5983517F5909E380517C5F81517D5B0F
:104CE00082517E5B83517F5B8681D8908333823390
:104CF00081338033842FE2D7855108E0891F881FD4
:104D0000871F866D000E87238823892386C07CF049
:104D100087C07DF088C07EF089C07FF0120062C03D
:104D200067F0686B696B6A6B69C06AF068C069F0AC
:104D300067C068F0676B60516B6F61516C6F6D6B32
:104D40006E6B6CC06EF06BC06DF06C6B6B6B64C0A7
:104D50006FF0706B716B726B1A0ED8906F37703783
:104D600071377237E82EF9D76B516F11736F6C5131
:104D70007011746F6D517111756F6E517211766F84
:104D800067517311776F68517411786F695175119C
:104D9000796F6A5176117A6F635177117B6F785111
:104DA0007C6F79517D6F7A517E6F7BC03CF07CC007
:104DB0003DF07DC03EF07EC03FF065C040F066C073
:104DC00041F046EC2CF00009000ED8A4010E1200B0
:104DD0007E6719D07CC018F07DC019F09FEC2CF0D4
:104DE0001BC02FF01AC02EF019C02DF018C02CF0E7
:104DF000BCEC2CF02FC082F02EC081F02DC080F0D2
:104E00002CC07FF02AD07E51020A19E17CC018F034
:104E10007DC019F09FEC2CF01BC079F01AC078F01F
:104E200019C077F018C076F00DEC2AF079C082F046
:104E300078C081F077C080F076C07FF00ED07CC063
:104E400018F07DC019F09FEC2CF01BC082F01AC046
:104E500081F019C080F018C07FF07FC076F080C06C
:104E600077F081C078F082C079F036EC28F076C017
:104E700083F077C084F08451D16F83C0D2F01200E8
:104E80002E342F34406E406601D005D03234333496
:104E9000416E416605D02C6A2D6A2E6A2F6A43D076
:104EA0004150890F405E2FC041F03350411A800EAF
:104EB00041162E8E2F6A328E336A200E3F6ED890A6
:104EC0003B363C363D363E3630502C5C31502D580A
:104ED00032502E5833502F5809E330502C5E315049
:104EE0002D5A32502E5A33502F5A3B80D8902C36A0
:104EF0002D362E362F363F2EE2D73BC00EF03CC06B
:104F00000FF03DC010F03EC011F040C012F041C0A3
:104F100013F0D1EC25F011C02FF010C02EF00FC00F
:104F20002DF00EC02CF0120020EE81F0DE50DE10CD
:104F3000DE10DE1014E084517F0B436ED8904334B2
:104F4000446E456A4536445085274550862383354F
:104F5000E836010B8527000E862386AF05D0816BCE
:104F6000826B836B846B31D08651800A7F0F000E79
:104F7000D8B4855D0EE384AF06D0816982697F0E67
:104F8000836FFF0E04D0816982697F0E836F846F07
:104F90001CD086358631446E8531436E8419800B72
:104FA0004318846F85C043F0010E431643324332E9
:104FB000835143187F0B4318836F81C081F082C0F7
:104FC00082F083C083F084C084F012001D6A1E6AE0
:104FD000206A020E1F6E1F500208186E18501A0F1A
:104FE000D96EDA6A1DC012F01EC013F0156A030EE6
:104FF000146E82EC2CF01F50122620501322AA0EA1
:1050000012240E6E000E13200F6E8DEC2EF0DF6E4C
:105010001F06D8A020062050800A800F010ED8B4A9
:105020001F5CD9E21DC018F01EC019F0D8901836C8
:105030001936D8901836193601011E0E1824D96E6B
:10504000010E1920DA6E1AC0DEFF1BC0DEFF1CC085
:10505000DEFF1DC0DEFF1D4A1E2A1E50800A800F83
:10506000060ED8B41D5CD8B01200B2D70001783556
:1050700079357B6F7B6705D0766B776B786B796B57
:1050800043D076C042F077C043F078C044F079C096
:1050900045F0200E05D0D89045324432433242329A
:1050A000E82EF9D742507A6F788F796B960E7B5F36
:1050B0007BAF0CD07B51800A970FDEE3D890793319
:1050C0007833773376337B3FF9D70CD01F0E7B656F
:1050D00007D0D2D7D89076377737783779377B07AC
:1050E0007B67F8D77A5108E0791F781F771F766DB4
:1050F000000E77237823792376C076F077C077F097
:1051000078C078F079C079F01200800E51EC2EF062
:10511000090E706EFC0E716E010E726E200E736EB3
:10512000778E779C606A0F01506B0E01206B306B9D
:10513000406B506B606B706BE00E0D01F86F0F01F0
:10514000006B080E016F026B036B046BE80E056FBA
:105150001A0E066F076B030E0D01D46FD56BE06B53
:10516000110EE16FE26FE36BE46BE56BE66BE76BEF
:10517000540EF06F050EF16FF26BF26B0F0E0F0114
:10518000186FE00E196F1A6B1B6B19870F0E1C6FCF
:10519000E00E1D6F1E691F6B1D87000E51EF2EF074
:1051A00020EE0EF0DE50DE10DE10DE100CE112C03C
:1051B000D9FF13C0DAFF000EDE6ADD6A0E6A0F6ADD
:1051C000106A116A2FD011507F0B146ED8901434CE
:1051D000156E166A163612C0D9FF13C0DAFF15C055
:1051E000DEFF16C0DDFF1034E836010B12C0D9FF18
:1051F00013C0DAFFDE12000EDD1212C0D9FF13C099
:10520000DAFF820EDE26FF0EDD221150800B3F09F1
:10521000116E109E0EC00EF00FC00FF010C010F0F7
:1052200011C011F01200E8CF86F0030ECB6F840E90
:10523000CA6FCD6B0A0ECC6F060ECE6F430E86255D
:105240000E6E0F6A000E0F228DEC2EF00001856F9E
:10525000030E8517D8908537D8908537D890853537
:1052600086118009CF6F820ED06F8651020D000E1D
:10527000F324D96E010EF420DA6EDECF7CF0DDCFA0
:105280007DF0430E86250E6E0F6A000E0F228DEC08
:105290002EF0030B00017E6FE8EC26F057EC2DF0AA
:1052A0000009000ED8A4010E1200896BC32910E179
:1052B000D8908935876F886B8837730E87250E6E77
:1052C000000E88210F6E8DEC2EF00001C31928E02E
:1052D000C42910E1D8908935876F886B8837740EA0
:1052E00087250E6E000E88210F6E8DEC2EF00001CA
:1052F000C41916E00101166B176B186B196B0AD0F5
:10530000E90E0101165D030E1759000E1859000E23
:10531000195906E20001895113EC29F00009F0E067
:105320000001892B050E8965C1D7050CE8CF2DF04A
:1053300027C020F028C021F02E0EEEEC2CF0000942
:1053400002E1000E2ED02550D96EDA6A2EC0DFFFA2
:105350002450D96EDA6A2FC0DFFF3050296E010E5B
:1053600031142A6E2D50D96EDA6A29C0DEFF2AC0A8
:10537000DDFF2650D96EDA6A2EC029F02FC02AF040
:1053800030C02BF031C02CF01B0E05D0D8902C3241
:105390002B322A322932E82EF9D72950070BDF6E3B
:1053A000010E1200E8CF11F024D00F0E136E600E24
:1053B0001ED00F010F0E136E500E19D00E010E0EDF
:1053C000136E200E14D00E010E0E136E300E0FD081
:1053D0000E010E0E136E400E0AD00E010E0EEBD70C
:1053E0000E010E0EE3D70E010E0E136E700E126E2E
:1053F0000FD01150DAE0010ADCE0030ADFE0010A15
:10540000E2E0070AE5E0010AE8E0030AE9E0EBD799
:1054100012C00EF013C00FF01200216A226A7A0E39
:10542000236E460E246E0001646B656B100E666F72
:10543000410E676F76C060F077C061F078C062F0AF
:1054400079C063F0A4EC24F063C020F062C01FF0C8
:1054500061C01EF060C01DF04BEC21F020C02FF0A9
:105460001FC02EF01EC02DF01DC02CF0306A316A16
:10547000A00E326E400E336E40EC27F02FC079F054
:105480002EC078F02DC077F02CC076F01200E8CF57
:1054900012F0C26AC06AD8900E303C0BC26E0EC0C9
:1054A00010F0103AF00E1016300E10160F500F0BB1
:1054B0001010C16E12C010F0D8901036D89010366F
:1054C000380E101612C011F0113A0F0E1116070EF9
:1054D00011161250800B11101010C06E0EAE03D0BA
:1054E0009E9C9D8CF28CC28012007EC0D9FF7FC032
:1054F000DAFF0001DECF76F0DECF77F0DECF78F096
:10550000DECF79F080C07AF081C07BF082C07CF081
:1055100083C07DF028EC2CF07EC0D9FF7FC0DAFF7D
:10552000000176C0DEFF77C0DEFF78C0DEFF79C005
:10553000DDFFD906D906120011AE09D00E6C0F1E80
:10554000D8B00F2A101ED8B0102A800E115615AEF2
:1055500009D0126C131ED8B0132A141ED8B0142A06
:10556000800E1556800E111A151A12500E5C13502B
:105570000F58145010581550115802E2D89001D00D
:10558000D8801200E8CF42F04250D96EDA6ADECFFE
:1055900060F0DECF61F0DECF62F0DECF63F076C088
:1055A00064F077C065F078C066F079C067F0A4EC6D
:1055B00024F04250D96EDA6A000160C0DEFF61C09B
:1055C000DEFF62C0DEFF63C0DDFFD906D906120030
:1055D000512A3B0E51640CD0516AB92BBB51030ABE
:1055E00007E1B1EC2EF0446EB6EC2EF06BEC2DF032
:1055F0003B0EB96502D0B96BB72B170EB76501D05A
:10560000B76BBB51030A09E14C2A4CC07FF00F0E67
:105610007F17020E7F5DD8B04C6A120060C0D9FFC0
:1056200061C0DAFFDECF2CF0DECF2DF0DECF2EF022
:10563000DECF2FF062C030F063C031F064C032F0D2
:1056400065C033F040EC27F060C0D9FF61C0DAFFDD
:105650002CC0DEFF2DC0DEFF2EC0DEFF2FC0DDFF21
:10566000D906D90612002CC0D9FF2DC0DAFFDECF33
:105670001DF0DECF1EF0DECF1FF0DECF20F02EC0FB
:1056800021F02FC022F030C023F031C024F04BECC9
:1056900021F02CC0D9FF2DC0DAFF1DC0DEFF1EC0D7
:1056A000DEFF1FC0DEFF20C0DDFFD906D9061200D5
:1056B000E8CF19F01950020D9F0EF3240E6E000E64
:1056C000F4200F6E8DEC2EF0146E1950020D9E0E0C
:1056D000F3240E6E000EF4200F6E8DEC2EF0166E7D
:1056E000156A14501524176E000E1620186E17C078
:1056F00012F018C013F012008E6B8DAF0AD08D1F00
:105700008C1F8B1F8A6D000E8B238C238D23010E23
:105710008E6F8AC00EF08BC00FF08CC010F08DC061
:1057200011F0960E126E8EC013F0D1EC25F011C060
:105730008DF010C08CF00FC08BF00EC08AF01200FC
:10574000020E4D6EC5EC2EF00001BA6FBA6701D0A3
:10575000BA69BC6BBD6BBE6BBF6BC06BCA6BCB6BEE
:10576000CC6BCD6BCE6B4B6A4F6ABB6B4E6A506A8B
:10577000466A476A01011C6B1D6B1A6B1B6B516AF1
:105780000001B96BB76B12000101126B136B146B44
:10579000156B0001B66B216A0C0E2124D96EDA6AF2
:1057A000010EDA22DF6A2150020D000EF324D96EB9
:1057B000010EF420DA6EDE6ADD6A212A050E21640C
:1057C000EBD70001B36B496AB56BB46BE6EF27F01A
:1057D00001EE9CF013EEC0F0EE6AE550E150FCE102
:1057E000E250FAE101EE00F0660EEE6AE806FDE135
:1057F00000EEB3F0240EEE6AE806FDE100EE46F09E
:105800000D0EEE6AE806FDE1000EF86E0001B8EF3D
:1058100023F0CAEC2EF0000916E10001BC510F0B79
:10582000050A15E1CAEC2EF00001C21910E0C251C0
:1058300084EC2EF00001BA69FF0E96EC2EF0010EFA
:105840000001BB6F04D00001C25184EC2EF01200A5
:105850000001800E7D1B76C01DF077C01EF078C061
:105860001FF079C020F07AC021F07BC022F07CC00C
:1058700023F07DC024F04BEC21F020C079F01FC054
:1058800078F01EC077F01DC076F01200426A4A6AB6
:1058900015D03CC018F03DC019F03EC01AF03FC012
:1058A0001BF041C01CF040C01DF0200E1E6EE6EC47
:1058B0001FF0000903E0010E426E02D04A50E9E0F9
:1058C0000001CA6B42501200C4EC2BF0070E926E1E
:1058D0001B0E936E010E946E826A920EF8EC2DF000
:1058E000FB0E0F6E1D0E0E6E9FEC2EF0840E0E6ED4
:1058F0000F0E0F6EEF0E47EC2AF085EC28F0F28EBB
:10590000D5EF2EF012501402F3CF16F0F4CF17F0AB
:1059100012501502F3CFF4FFF36AF3501626F45039
:10592000172213501402F3CFF4FFF36AF350162634
:10593000F450172216C012F017C013F012001E6A9E
:1059400019AE05D0186C191ED8B0192A1E2A18C015
:105950000EF019C00FF0106A116A960E126E1EC07A
:1059600013F0D1EC25F011C01BF010C01AF00FC0DD
:1059700019F00EC018F012002CC01DF02DC01EF042
:105980002EC01FF02FC020F0216A680E226ED50EA7
:10599000236E460E246E4BEC21F020C02FF01FC06A
:1059A0002EF01EC02DF01DC02CF01200BC510F0BAC
:1059B000126E125012E0BA5120EEC2F0DF620DD02A
:1059C000120405E0010E126408D0C36706D0BA695C
:1059D000FF0E96EC2EF0A0EC2BF01200E8CF22F098
:1059E000BCAF02D0000E0FD021C015F020C016F0C1
:1059F000230E176E225003EC1CF00009F3E023ACD9
:105A000023AAF0D7010E120018C00EF019C00FF033
:105A1000106A116A960E126E000E136AD1EC25F010
:105A200011C01BF010C01AF00FC019F00EC018F012
:105A30001200BCC044F00F0E441644040EE1BA51EB
:105A400020EEC2F0DF6209D0800ECA6FCB6BCC6B48
:105A5000CD6B030ECE6F57EC2DF01200BCBF12D0F1
:105A6000C00E246EC10E256EBD0E266EBC0E276EB6
:105A7000C20E286EBE0E96EC29F0326E325002E055
:105A80000001BC8F1200E8CF0FF0080E106E116AF3
:105A9000D8900F341134116ED8900F360E50115C1F
:105AA00002E30E50115E102EF3D711501200CCC03D
:105AB00060F0CDC061F0CEC062F0BAC063F0CBC080
:105AC00064F0CA510F0B656FCF0E666F8FEC26F036
:105AD000436E43501200E8CF45F0830E0001CA6FB9
:105AE000070ECB6FCD6B140ECC6F090ECE6FCF6B44
:105AF00045C0D0F044C0D1F057EF2DF00EC0A9FF43
:105B000010C0A8FFA69EA69CA684F29E550EA76E66
:105B1000AA0EA76EA682F28EA1A8FED7A198A6947F
:105B2000120020EE0EF0DE50DE10DE10DE1002E07D
:105B3000800E111A0EC00EF00FC00FF010C010F042
:105B400011C011F01200BC510F0B020A0DE1BA5145
:105B500020EEC2F0DF6208D0C3C0BAF0BA5196ECB2
:105B60002EF0400E84EC2EF01200CAEC2EF0C00B8A
:105B7000400A02E1010E0AD0FF0E96EC2EF0000E54
:105B800084EC2EF0A00E7BEC2EF0000E1200E8CF7D
:105B900035F07F0E356406D034C022F0355000EC6D
:105BA0001FF005D034C021F03550B7EC05F01200DD
:105BB000E8CF12F00F0E126401D00AD0110E122499
:105BC0000E6E0F6A000E0F2211C010F07EEC2DF049
:105BD0001200810E0001CA6FCB6BCC6BCD6B020E35
:105BE000CE6FBAC0CFF057EC2DF0010E4D6E010C08
:105BF000E8CF0EF00E507F0BD56ED76AD66AF294BE
:105C00000EAE02D0F28A01D0F29AD58E1200E8CF01
:105C100015F07F0E156404D0155032EC24F003D03B
:105C200015505BEC15F01200E8CF0EF00F6A0E5025
:105C30000F24D96EDA6ADF6A0F2A070E0F64F7D7CE
:105C4000070CE8CF12F0090E12240E6E0F6A000E38
:105C50000F2211C010F07EEF2DF0E8CF12F0040EED
:105C600012240E6E0F6A000E0F2211C010F07EEF8C
:105C70002DF0E8CF0FF00F50000F0E6E0EC0F6FFA4
:105C80000B0EF76E0800F5501200E8CF11F011046A
:105C900007E10F6A0E6AFF0E10687EEC2DF0FF0020
:105CA0001200E8CF0EF01F0E6F160E506F126F50DD
:105CB000E00B0E18D8B41200FAD7E8CF12F0090E94
:105CC00012240E6E0F6A000E0F228DEF2EF0E8CF19
:105CD00012F0040E12240E6E0F6A000E0F228DEFCA
:105CE0002EF0E8CF12F0110E12240E6E0F6A000E85
:105CF0000F228DEF2EF0E8CF11F00F6A030E0E6E1B
:105D000011C010F07EEF2DF0E8CF11F00F6A020EF7
:105D10000E6E11C010F07EEF2DF00EC0A9FFA69EF2
:105D2000A69CA680A8CF11F011501200E8CF11F068
:105D30000F6A010E0E6E11C010F07EEF2DF00EC036
:105D400010F00FC011F011C0D7FF10C0D6FF120025
:105D500001C003F002C004F004C0D7FF03C0D6FFA7
:105D600012000F6A420E0E6E8DEF2EF00F6A410E7A
:105D70000E6E8DEF2EF00E6A0F6A106A116A120015
:105D80000E6A0F6A106A116A12000F6A010E0E6E17
:105D90008DEF2EF00F6A020E0E6E8DEF2EF08CEC52
:105DA00011F0C4EF2BF04D6A1200C2821200C282C1
:0E5DB0001200010C080C010C010C020C010C7D
:020000040020DA
:08000000FFFFFFFFFFFFFFFF00
:020000040030CA
:0E000000FF061D0FFF8295FF0F800FE00F40DF
:00000001FF
