:040800005DEF05F0B3
:10081800D8CF07F0E8CF08F0E0CF09F0D9CF0AF039
:10082800DACF0BF0F3CF0CF0F4CF0DF0F2A401D037
:1008380001D047D0FB0E026E1D0E016EBFEC2FF0EB
:1008480001011E4B1F2B1C4B1D2B010E1227000EE6
:100858001323000E1423000E1523010E1627000E75
:100868001723000E1823000E19231A4B1B2B82B0D6
:1008780001D001D003D00001BA2B02D00001BA6B1D
:10088800522A4D50020AD8A401D001D00ED0640ECD
:10089800526401D001D009D082A201D001D002D087
:1008A800829201D08282526A0BD04D04D8A401D022
:1008B80001D001D0F7D74D6601D001D001D0F0D7D3
:1008C800F2949EAC01D001D0E5D0C4D049500C0DB3
:1008D8009E0EF324D96E010EF420DA6EC4CFDFFF2A
:1008E80049500C0D9F0EF324D96E010EF420DA6ED8
:1008F800C3CFDFFF090EC26E49504F0AD8A401D0FA
:1009080001D0C5D00001B681C2D049500C0DA00E4F
:10091800F324D96E010EF420DA6EC4CFDFFF4950FC
:100928000C0DA10EF324D96E010EF420DA6EC3CF9C
:10093800DFFF050EC26E49504F0AD8A401D001D07E
:10094800A6D00001B683A3D049500C0DA20EF32403
:10095800D96E010EF420DA6EC4CFDFFF49500C0DBA
:10096800A30EF324D96E010EF420DA6EC3CFDFFF95
:10097800010EC26E49504F0AD8A401D001D087D0C9
:100988000001B68584D049500C0DA40EF324D96E0D
:10099800010EF420DA6EC4CFDFFF49500C0DA50E0E
:1009A800F324D96E010EF420DA6EC3CFDFFF250ED3
:1009B800C26E49504F0AD8A401D001D068D00001B6
:1009C800B68765D049500C0DA60EF324D96E010EDA
:1009D800F420DA6EC4CFDFFF49500C0DA70EF324C4
:1009E800D96E010EF420DA6EC3CFDFFF210EC26E7E
:1009F80049504F0AD8A401D001D049D00001B68986
:100A080046D049500C0DA80EF324D96E010EF420DF
:100A1800DA6EC4CFDFFF49500C0DA90EF324D96E4E
:100A2800010EF420DA6EC3CFDFFF290EC26E4950E3
:100A38004F0AD8A401D001D002D00001B68B492AB0
:100A48004F0E496401D001D022D0496A20D0290E26
:100A5800C26EFBD7C2503C0B056E066A0650000AF0
:100A6800D8B401D0F4D70550000AD8B48CD7040AFA
:100A7800D8B46AD70C0AD8B448D7280AD8B4C1D78A
:100A8800040AD8B49FD70C0AD8B420D7E0D7EEEC24
:100A98002FF09E9C0DC0F4FF0CC0F3FF0BC0DAFFD3
:100AA8000AC0D9FF09C0E0FF08C0E8FF07C0D8FFA7
:060AB8001000EBEF2CF032
:100B00007777772E6575726F736F757263652E7365
:100B1000652F6E746331304B415F332E786D6C00FE
:100B20000000803F1872313FF0FD753E4758633D2D
:100B300058951D3C82C4AE3AA8782139EF9380378E
:100B4000A092A7354656153400000000C4FF7F3F31
:100B500080EFFFBE90E1A93EEC8276BE82AD2B3ED7
:100B60000E3CC3BD87D1133D4178D3BB0000E8CF15
:100B700023F0211C246E4750461002E17BEF0BF05E
:100B8000C2EF0CF0E5EC2FF00F6A410E0E6E21C0A3
:100B900010F0DAEC2DF0176A410E166EADEC2FF066
:100BA0000AEF0DF0E5EC2FF00F6A420E0E6E21C039
:100BB00010F0DAEC2DF0176A420E166EADEC2FF045
:100BC0000AEF0DF0E5EC2FF00F6A430E0E6E21C018
:100BD00010F0DAEC2DF0176A430E166EADEC2FF024
:100BE0000AEF0DF0E5EC2FF00F6A440E0E6E21C0F7
:100BF00010F0DAEC2DF0176A440E166EADEC2FF003
:100C00000AEF0DF0E5EC2FF00F6A450E0E6E21C0D5
:100C100010F0DAEC2DF0176A450E166EADEC2FF0E1
:100C20000AEF0DF0E5EC2FF00F6A460E0E6E21C0B4
:100C300010F0DAEC2DF0176A460E166EADEC2FF0C0
:100C40000AEF0DF0E5EC2FF00F6A470E0E6E21C093
:100C500010F0DAEC2DF0176A470E166EADEC2FF09F
:100C60000AEF0DF0E5EC2FF00F6A480E0E6E21C072
:100C700010F0DAEC2DF0176A480E166EADEC2FF07E
:100C80000AEF0DF0E5EC2FF00F6A490E0E6E21C051
:100C900010F0DAEC2DF0176A490E166EADEC2FF05D
:100CA0000AEF0DF0E5EC2FF00F6A4A0E0E6E21C030
:100CB00010F0DAEC2DF0176A4A0E166EADEC2FF03C
:100CC0000AEF0DF0E5EC2FF00F6A4B0E0E6E21C00F
:100CD00010F0DAEC2DF0176A4B0E166EADEC2FF01B
:100CE0000AEF0DF0E5EC2FF00F6A4C0E0E6E21C0EE
:100CF00010F0DAEC2DF0176A4C0E166EADEC2FF0FA
:100D00000AEF0DF0E5EC2FF00F6A4D0E0E6E21C0CC
:100D100010F0DAEC2DF0176A4D0E166EADEC2FF0D8
:100D20000AEF0DF0E5EC2FF00F6A4E0E0E6E21C0AB
:100D300010F0DAEC2DF0176A4E0E166EADEC2FF0B7
:100D40000AEF0DF0E5EC2FF00F6A4F0E0E6E21C08A
:100D500010F0DAEC2DF0176A4F0E166EADEC2FF096
:100D60000AEF0DF0E5EC2FF00F6A500E0E6E21C069
:100D700010F0DAEC2DF0176A500E166EADEC2FF075
:100D80000AEF0DF0E5EC2FF00F6A510E0E6E21C048
:100D900010F0DAEC2DF0176A510E166EADEC2FF054
:100DA0000AEF0DF0E5EC2FF00F6A520E0E6E21C027
:100DB00010F0DAEC2DF0176A520E166EADEC2FF033
:100DC0000AEF0DF0E5EC2FF00F6A530E0E6E21C006
:100DD00010F0DAEC2DF0176A530E166EADEC2FF012
:100DE0000AEF0DF0E5EC2FF00F6A540E0E6E21C0E5
:100DF00010F0DAEC2DF0176A540E166EADEC2FF0F1
:100E00000AEF0DF0E5EC2FF00F6A550E0E6E21C0C3
:100E100010F0DAEC2DF0176A550E166EADEC2FF0CF
:100E20000AEF0DF0E5EC2FF00F6A560E0E6E21C0A2
:100E300010F0DAEC2DF0176A560E166EADEC2FF0AE
:100E40000AEF0DF0E5EC2FF00F6A570E0E6E21C081
:100E500010F0DAEC2DF0176A570E166EADEC2FF08D
:100E60000AEF0DF0E5EC2FF00F6A580E0E6E21C060
:100E700010F0DAEC2DF0176A580E166EADEC2FF06C
:100E80000AEF0DF0E5EC2FF00F6A590E0E6E21C03F
:100E900010F0DAEC2DF0176A590E166EADEC2FF04B
:100EA0000AEF0DF0E5EC2FF00F6A5A0E0E6E21C01E
:100EB00010F0DAEC2DF0176A5A0E166EADEC2FF02A
:100EC0000AEF0DF0E5EC2FF00F6A5B0E0E6E21C0FD
:100ED00010F0DAEC2DF0176A5B0E166EADEC2FF009
:100EE0000AEF0DF0E5EC2FF00F6A5C0E0E6E21C0DC
:100EF00010F0DAEC2DF0176A5C0E166EADEC2FF0E8
:100F00000AEF0DF0E5EC2FF00F6A5D0E0E6E21C0BA
:100F100010F0DAEC2DF0176A5D0E166EADEC2FF0C6
:100F20000AEF0DF0E5EC2FF00F6A5E0E0E6E21C099
:100F300010F0DAEC2DF0176A5E0E166EADEC2FF0A5
:100F40000AEF0DF0E5EC2FF00F6A5F0E0E6E21C078
:100F500010F0DAEC2DF0176A5F0E166EADEC2FF084
:100F60000AEF0DF0E5EC2FF00F6A600E0E6E21C057
:100F700010F0DAEC2DF0176A600E166EADEC2FF063
:100F80000AEF0DF0E5EC2FF00F6A610E0E6E21C036
:100F900010F0DAEC2DF0176A610E166EADEC2FF042
:100FA0000AEF0DF0E5EC2FF00F6A620E0E6E21C015
:100FB00010F0DAEC2DF0176A620E166EADEC2FF021
:100FC0000AEF0DF0E5EC2FF00F6A630E0E6E21C0F4
:100FD00010F0DAEC2DF0176A630E166EADEC2FF000
:100FE0000AEF0DF0E5EC2FF00F6A640E0E6E21C0D3
:100FF00010F0DAEC2DF0176A640E166EADEC2FF0DF
:101000000AEF0DF0E5EC2FF00F6A650E0E6E21C0B1
:1010100010F0DAEC2DF0176A650E166EADEC2FF0BD
:101020000AEF0DF0E5EC2FF00F6A660E0E6E21C090
:1010300010F0DAEC2DF0176A660E166EADEC2FF09C
:101040000AEF0DF0E5EC2FF00F6A670E0E6E21C06F
:1010500010F0DAEC2DF0176A670E166EADEC2FF07B
:101060000AEF0DF0E5EC2FF00F6A680E0E6E21C04E
:1010700010F0DAEC2DF0176A680E166EADEC2FF05A
:101080000AEF0DF0E5EC2FF00F6A690E0E6E21C02D
:1010900010F0DAEC2DF0176A690E166EADEC2FF039
:1010A0000AEF0DF0E5EC2FF00F6A6A0E0E6E21C00C
:1010B00010F0DAEC2DF0176A6A0E166EADEC2FF018
:1010C0000AEF0DF0E5EC2FF00F6A6B0E0E6E21C0EB
:1010D00010F0DAEC2DF0176A6B0E166EADEC2FF0F7
:1010E0000AEF0DF0E5EC2FF00F6A6C0E0E6E21C0CA
:1010F00010F0DAEC2DF0176A6C0E166EADEC2FF0D6
:101100000AEF0DF0E5EC2FF00F6A6D0E0E6E21C0A8
:1011100010F0DAEC2DF0176A6D0E166EADEC2FF0B4
:101120000AEF0DF0E5EC2FF00F6A6E0E0E6E21C087
:1011300010F0DAEC2DF0176A6E0E166EADEC2FF093
:101140000AEF0DF0E5EC2FF00F6A6F0E0E6E21C066
:1011500010F0DAEC2DF0176A6F0E166EADEC2FF072
:101160000AEF0DF0E5EC2FF00F6A700E0E6E21C045
:1011700010F0DAEC2DF0176A700E166EADEC2FF051
:101180000AEF0DF0E5EC2FF00F6A710E0E6E21C024
:1011900010F0DAEC2DF0176A710E166EADEC2FF030
:1011A0000AEF0DF0E5EC2FF00F6A720E0E6E21C003
:1011B00010F0DAEC2DF0176A720E166EADEC2FF00F
:1011C0000AEF0DF0E5EC2FF00F6A730E0E6E21C0E2
:1011D00010F0DAEC2DF0176A730E166EADEC2FF0EE
:1011E0000AEF0DF0E5EC2FF00F6A740E0E6E21C0C1
:1011F00010F0DAEC2DF0176A740E166EADEC2FF0CD
:101200000AEF0DF0E5EC2FF00F6A750E0E6E21C09F
:1012100010F0DAEC2DF0176A750E166EADEC2FF0AB
:10122000F9D3E5EC2FF00F6A760E0E6E21C010F0A8
:10123000DAEC2DF0176A760E166EADEC2FF0EAD3CD
:10124000E5EC2FF00F6A770E0E6E21C010F0DAEC8D
:101250002DF0176A770E166EADEC2FF0DBD3E5ECB0
:101260002FF00F6A780E0E6E21C010F0DAEC2DF020
:10127000176A780E166EADEC2FF0CCD3E5EC2FF09C
:101280000F6A790E0E6E21C010F0DAEC2DF0176A9D
:10129000790E166EADEC2FF0BDD3E5EC2FF00F6A92
:1012A0007A0E0E6E21C010F0DAEC2DF0176A7A0E6D
:1012B000166EADEC2FF0AED3E5EC2FF00F6A7B0E7F
:1012C0000E6E21C010F0DAEC2DF0176A7B0E166E50
:1012D000ADEC2FF09FD3E5EC2FF00F6A7C0E0E6E75
:1012E00021C010F0DAEC2DF0176A7C0E166EADEC12
:1012F0002FF090D3E5EC2FF00F6A7D0E0E6E21C01B
:1013000010F0DAEC2DF0176A7D0E166EADEC2FF0B2
:1013100081D3E5EC2FF00F6A7E0E0E6E21C010F027
:10132000DAEC2DF0176A7E0E166EADEC2FF072D34C
:10133000E5EC2FF00F6A7F0E0E6E21C010F0DAEC94
:101340002DF0176A7F0E166EADEC2FF063D3E5EC2F
:101350002FF00F6A800E0E6E21C010F0DAEC2DF027
:10136000176A800E166EADEC2FF054D3E5EC2FF01B
:101370000F6A810E0E6E21C010F0DAEC2DF0176AA4
:10138000810E166EADEC2FF045D3E5EC2FF00F6A11
:10139000820E0E6E21C010F0DAEC2DF0176A820E6C
:1013A000166EADEC2FF036D3E5EC2FF00F6A830EFE
:1013B0000E6E21C010F0DAEC2DF0176A830E166E57
:1013C000ADEC2FF027D3E5EC2FF00F6A840E0E6EF4
:1013D00021C010F0DAEC2DF0176A840E166EADEC19
:1013E0002FF018D3E5EC2FF00F6A850E0E6E21C09A
:1013F00010F0DAEC2DF0176A850E166EADEC2FF0BA
:1014000009D3E5EC2FF00F6A860E0E6E21C010F0A6
:10141000DAEC2DF0176A860E166EADEC2FF0FAD2CC
:10142000E5EC2FF00F6A870E0E6E21C010F0DAEC9B
:101430002DF0176A870E166EADEC2FF0EBD2E5ECAF
:101440002FF00F6A880E0E6E21C010F0DAEC2DF02E
:10145000176A880E166EADEC2FF0DCD2E5EC2FF09B
:101460000F6A890E0E6E21C010F0DAEC2DF0176AAB
:10147000890E166EADEC2FF0CDD2E5EC2FF00F6A91
:101480008A0E0E6E21C010F0DAEC2DF0176A8A0E6B
:10149000166EADEC2FF0BED2E5EC2FF00F6A8B0E7E
:1014A0000E6E21C010F0DAEC2DF0176A8B0E166E5E
:1014B000ADEC2FF0AFD2E5EC2FF00F6A8C0E0E6E74
:1014C00021C010F0DAEC2DF0176A8C0E166EADEC20
:1014D0002FF0A0D2E5EC2FF00F6A8D0E0E6E21C01A
:1014E00010F0DAEC2DF0176A8D0E166EADEC2FF0C1
:1014F00091D2E5EC2FF00F6A8E0E0E6E21C010F027
:10150000DAEC2DF0176A8E0E166EADEC2FF082D24B
:10151000E5EC2FF00F6A8F0E0E6E21C010F0DAECA2
:101520002DF0176A8F0E166EADEC2FF073D2E5EC2E
:101530002FF00F6A900E0E6E21C010F0DAEC2DF035
:10154000176A900E166EADEC2FF064D2E5EC2FF01A
:101550000F6A910E0E6E21C010F0DAEC2DF0176AB2
:10156000910E166EADEC2FF055D2E5EC2FF00F6A10
:10157000920E0E6E21C010F0DAEC2DF0176A920E6A
:10158000166EADEC2FF046D2E5EC2FF00F6A930EFD
:101590000E6E21C010F0DAEC2DF0176A930E166E65
:1015A000ADEC2FF037D2E5EC2FF00F6A940E0E6EF3
:1015B00021C010F0DAEC2DF0176A940E166EADEC27
:1015C0002FF028D2E5EC2FF00F6A950E0E6E21C099
:1015D00010F0DAEC2DF0176A950E166EADEC2FF0C8
:1015E00019D2E5EC2FF00F6A960E0E6E21C010F0A6
:1015F000DAEC2DF0176A960E166EADEC2FF00AD2CB
:10160000E5EC2FF00F6A970E0E6E21C010F0DAECA9
:101610002DF0176A970E166EADEC2FF0FBD1E5ECAE
:101620002FF00F6A980E0E6E21C010F0DAEC2DF03C
:10163000176A980E166EADEC2FF0ECD1E5EC2FF09A
:101640000F6A990E0E6E21C010F0DAEC2DF0176AB9
:10165000990E166EADEC2FF0E5EC2FF00F6A9A0E96
:101660000E6E21C010F0DAEC2DF0176A9A0E166E8D
:10167000ADEC2FF0CFD1E5EC2FF00F6A9B0E0E6E84
:1016800021C010F0DAEC2DF0176A9B0E166EADEC4F
:101690002FF0C0D1E5EC2FF00F6A9C0E0E6E21C02A
:1016A00010F0DAEC2DF0176A9C0E166EADEC2FF0F0
:1016B000B1D1246AB0D1E5EC2FF00F6AF20E0E6EB4
:1016C00021C010F0DAEC2DF0176AF20E166EADECB8
:1016D0002FF0A0D1E5EC2FF00F6AF30E0E6E21C0B3
:1016E00010F0DAEC2DF0176AF30E166EADEC2FF059
:1016F00091D1211C8FD1235002E1C2EF05F0010AE4
:1017000002E1D2EF05F0030A02E1E2EF05F0010A7F
:1017100002E1F2EF05F0070A02E102EF06F0010A2A
:1017200002E112EF06F0030A02E122EF06F0010ADD
:1017300002E132EF06F0130A02E142EF06F0010A7D
:1017400002E152EF06F0030A02E162EF06F0010A3D
:1017500002E172EF06F00F0A02E182EF06F0010AE1
:1017600002E192EF06F03F0A02E1A2EF06F0010A61
:1017700002E1B2EF06F00F0A02E1C2EF06F0010A41
:1017800002E1D2EF06F0030A02E1E2EF06F0010AFD
:1017900002E1F2EF06F0070A02E102EF07F0010AA8
:1017A00002E112EF07F0030A02E122EF07F0010A5B
:1017B00002E132EF07F01F0A02E142EF07F0010AEF
:1017C00002E152EF07F0030A02E162EF07F0010ABB
:1017D00002E172EF07F0070A02E182EF07F0010A67
:1017E00002E192EF07F0030A02E1A2EF07F0010A1B
:1017F00002E1B2EF07F00F0A02E1C2EF07F0010ABF
:1018000002E1D2EF07F0030A02E1E2EF07F0010A7A
:1018100002E1F2EF07F0070A02E102EF08F0010A25
:1018200002E112EF08F0030A01E10CD4010A01E120
:1018300019D47F0A01E126D4010A01E133D4030A55
:1018400001E140D4010A01E14DD4070A01E15AD473
:10185000010A01E167D4030A01E174D4010A01E13C
:1018600081D40F0A01E18ED4010A01E19BD4030A5D
:1018700001E1A8D4010A01E1B5D4070A01E1C2D40B
:10188000010A01E1CED4030A01E1DAD4010A01E13F
:10189000E6D41F0A01E1F2D4010A01E1FED4030AF1
:1018A00001E10AD5010A01E116D5070A01E122D5B5
:1018B000010A01E12ED5030A01E13AD5010A01E14D
:1018C00046D50F0A01E152D5010A01E15ED5030AAE
:1018D00001E16AD5010A01E176D5070A01E182D565
:1018E000010A01E18ED5030A01E19AD5010A01E15D
:1018F000A6D53F0A01E1B2D5010A01E1BED5030A2E
:1019000001E1CAD5010A01E1D6D5070A01E1E2D514
:10191000010A01E1EED5030A01E1FAD5010A01E16C
:1019200006D60F0A01E112D6010A01E11ED6030A0A
:1019300001E12AD6010A01E136D6070A01E142D6C1
:10194000010A01E14ED6030A01E15AD6010A01E17A
:1019500066D61F0A01E172D6010A01E17DD6030AAB
:1019600001E189D6010A01E195D6070A01E1A1D674
:10197000010A01E19ED6030A01E19DD6010A01E1B7
:10198000A9D6B7D64604471046E1480E236018D0C2
:10199000E5EC2FF0AA0E23240E6E0F6A000E0F2224
:1019A00021C010F0DAEC2DF0AA0E2324166E176A6F
:1019B000000E1722ADEC2FF0246EE2EC28F02BD0B5
:1019C000540E236010D02350B80F226E22A002D0F4
:1019D000220601D0222A9E0E2224D96EDA6A010E36
:1019E000DA22DF5017D0620E236015D0E5EC2FF01D
:1019F0004A0E23240E6E0F6A000E0F2221C010F033
:101A0000DAEC2DF04A0E2324166E176A000E172208
:101A1000ADEC2FF0246E245012000001916B915117
:101A2000020D7F0EF324166E000EF420176EADEC3F
:101A30002FF00001886F876B9151020D800EF32407
:101A4000166E000EF420176EADEC2FF00001872704
:101A5000000E88239151020D000EF324D96E010E61
:101A6000F420DA6EDECF89F0DDCF8AF08A51800A69
:101A70008B6F8751895D8851800A8B593CE2E5EC78
:101A80002FF0D89000019135876F886B88377F0ED3
:101A900087250E6E000E88210F6E9151020D000EEB
:101AA000F324D96E010EF420DA6EDECF89F0DDCF9B
:101AB0008AF08AC089F08A6B8951106EDAEC2DF0B9
:101AC000E5EC2FF0D89000019135876F886B88374F
:101AD000800E87250E6E000E88210F6E9151020D2B
:101AE0000101000EF324D96E010EF420DA6EDF50EE
:101AF000106EDAEC2DF000019151020D000EF3246E
:101B0000D96E010EF420DA6EDECF87F0DDCF88F0DB
:101B10009151020D8B0EF324166E000EF420176EF9
:101B2000ADEC2FF000018A6F896B9151020D8C0E84
:101B3000F324166E000EF420176EADEC2FF00001AA
:101B40008927000E8A238A51800A8B6F8751895D0D
:101B50008851800A8B593CE2E5EC2FF0D8900001C7
:101B60009135876F886B88378B0E87250E6E000E38
:101B700088210F6E9151020D000EF324D96E010ED3
:101B8000F420DA6EDECF89F0DDCF8AF08AC089F0EA
:101B90008A6B8951106EDAEC2DF0E5EC2FF0D890BD
:101BA00000019135876F886B88378C0E87250E6E04
:101BB000000E88210F6E9151020D0101000EF324D9
:101BC000D96E010EF420DA6EDF50106EDAEC2DF0D3
:101BD000490E00019125166E176A000E1722ADEC12
:101BE0002FF000018E6F8E5116E00C0E9125D96EEC
:101BF000DA6A010EDA22DF508E610DD091510FECBE
:101C00002AF0000908E00C0E00019125D96EDA6A6D
:101C1000010EDA22DF6A430E00019125166E176A63
:101C2000000E1722ADEC2FF00001876F87AFCBD0ED
:101C300091C087F0010E886F872B02D0D89088372B
:101C4000872FFCD78851B81558E0430E9125166EA2
:101C5000176A000E1722ADEC2FF00001876F87A7DF
:101C60004CD0CC6B830ECB6F430E9125166E176A4A
:101C7000000E1722ADEC2FF00001876F87AB16D056
:101C8000430E9125166E176A000E1722ADEC2FF049
:101C90000001876F87AD05D0CE6B1E0ECD6F050E90
:101CA00009D0CE6B1E0ECD6F060E04D0CE6B010E8A
:101CB000CD6F020ECF6F91C0D1F0D8909135876F64
:101CC000886B8837730E8725166E000E8821176E75
:101CD000ADEC2FF00001D26FD8909135876F886BF3
:101CE0008837740E8725166E000E8821176EADECAE
:101CF0002FF00001D36F0CEC2EF091C087F0010E95
:101D00000001886F872B02D0D8908837872FFCD7A7
:101D10008851B71558E0430E9125166E176A000ECC
:101D20001722ADEC2FF00001876F87A94CD0CC6B48
:101D3000830ECB6F430E9125166E176A000E172285
:101D4000ADEC2FF00001876F87AB16D0430E9125C5
:101D5000166E176A000E1722ADEC2FF00001876F88
:101D600087AD05D0CE6B1E0ECD6F060E09D0CE6BA3
:101D70001E0ECD6F050E04D0CE6B010ECD6F020E80
:101D8000CF6F91C0D1F0D8909135876F886B88372D
:101D9000730E8725166E000E8821176EADEC2FF09E
:101DA0000001D26FD8909135876F886B8837740E99
:101DB0008725166E000E8821176EADEC2FF00001FE
:101DC000D36F0CEC2EF091C087F0010E0001886FEC
:101DD000872B02D0D8908837872FFCD78851B81529
:101DE00060E0970E9125166E176A000E1722ADEC73
:101DF0002FF00001876FD8909135886F896B8937F4
:101E00005B0E8825166E000E8921176EADEC2FF043
:101E100000018B6F8A6BD89091358C6F8D6B8D37ED
:101E20005C0E8C25166E000E8D21176EADEC2FF01A
:101E300000018A27000E8B2387518A258F6F000EA1
:101E40008B21906F9151020D0101000EF324D96E88
:101E5000010EF420DA6EDECF87F0DDCF88F08FC080
:101E60000EF090C00FF0116A640E106E86EC2DF02B
:101E70000F50800A0001896F87510E5C8851800ADB
:101E8000895901E3AFD091C087F0010E0001886F3E
:101E9000872B02D0D8908837872FFCD7881DB8179A
:101EA000A1D09151020D5C0EF324166E000EF420A9
:101EB000176EADEC2FF00001876F9151020D5B0E94
:101EC000F324166E000EF420176EADEC2FF0000117
:101ED000906F87518F6F8FC00EF090C00FF0116A16
:101EE000640E106E86EC2DF000019151020D000E73
:101EF000F324D96E010EF420DA6EDECF87F0DDCF49
:101F000088F08851800A896F0E50875D0F50800AD3
:101F1000895968E291C087F0010E886F872B02D043
:101F2000D8908837872FFCD78851B8134A80430E42
:101F30009125166E176A000E1722ADEC2FF00001E6
:101F4000876F87A74FD0CC6B830ECB6F430E912545
:101F5000166E176A000E1722ADEC2FF00001876F86
:101F600087AB16D0430E9125166E176A000E172206
:101F7000ADEC2FF00001876F87AD05D0CE6B1E0E44
:101F8000CD6F050E09D0CE6B1E0ECD6F060E04D0A0
:101F9000CE6B010ECD6F020ECF6F91C0D1F0D890F5
:101FA0009135876F886B8837730E8725166E000E04
:101FB0008821176EADEC2FF00001D26FD8909135CB
:101FC000876F886B8837740E8725166E000E882100
:101FD000176EADEC2FF00001D36F0CEC2EF0000962
:101FE00001E151D791C087F0010E0001886F872B66
:101FF00002D0D8908837872FFCD78851B7155EE07C
:10200000D8909135876F886B8837670E8725166E55
:10201000000E8821176EADEC2FF000018A6F896BDE
:10202000D89091358B6F8C6B8C37680E8B25166E24
:10203000000E8C21176EADEC2FF000018927000EE9
:102040008A23970E9125166E176A000E1722ADECA3
:102050002FF00001895D8F6F8A51D8A08A05906F9B
:102060008FC00EF090C00FF0116A640E106E86ECF7
:102070002DF000019151020D000EF324D96E010ED6
:10208000F420DA6EDECF87F0DDCF88F08851800A49
:10209000896F0E50875D0F50800A895901E3B0D0D7
:1020A00091C087F0010E0001886F872B02D0D89075
:1020B0008837872FFCD7881DB717A2D09151020D02
:1020C000680EF324166E000EF420176EADEC2FF0A0
:1020D0000001876F9151020D670EF324166E000EFA
:1020E000F420176EADEC2FF00001906F87518F6FC9
:1020F0009151020D0101000EF324D96E010EF4205E
:10210000DA6EDECF87F0DDCF88F08FC00EF090C0A2
:102110000FF0116A640E106E86EC2DF00F50800ADD
:102120000001896F87510E5C8851800A895968E2E5
:1021300091C087F0010E886F872B02D0D890883726
:10214000872FFCD78851B7134A82430E9125166E0C
:10215000176A000E1722ADEC2FF00001876F87A9D8
:102160004FD0CC6B830ECB6F430E9125166E176A42
:10217000000E1722ADEC2FF00001876F87AB16D051
:10218000430E9125166E176A000E1722ADEC2FF044
:102190000001876F87AD05D0CE6B1E0ECD6F060E8A
:1021A00009D0CE6B1E0ECD6F050E04D0CE6B010E86
:1021B000CD6F020ECF6F91C0D1F0D8909135876F5F
:1021C000886B8837730E8725166E000E8821176E70
:1021D000ADEC2FF00001D26FD8909135876F886BEE
:1021E0008837740E8725166E000E8821176EADECA9
:1021F0002FF00001D36F0CEC2EF0000901E150D755
:102200000001912B050E91650AD4050CE8CF19F059
:102210004750461001E15BD29FD3176A410E166EFC
:10222000ADEC2FF0C6D3176A420E166EADEC2FF050
:10223000C0D3176A430E166EADEC2FF0BAD3176AEF
:10224000440E166EADEC2FF0B4D3176A450E166E21
:10225000ADEC2FF0AED3176A460E166EADEC2FF034
:10226000A8D3176A470E166EADEC2FF0A2D3176AEB
:10227000480E166EADEC2FF09CD30101015199D39D
:1022800000C11AF097D30101035193D302C11AF090
:1022900091D3010105518DD304C11AF08BD30101F3
:1022A000075187D306C11AF085D30101095181D3A3
:1022B00008C11AF07FD301010B517BD30AC11AF078
:1022C00079D3176A490E166EADEC2FF072D3176AE8
:1022D0004A0E166EADEC2FF06CD3176A4B0E166ECD
:1022E000ADEC2FF066D3176A4C0E166EADEC2FF0E6
:1022F00060D3176A4D0E166EADEC2FF05AD3176AE5
:102300004E0E166EADEC2FF054D3176A4F0E166EAC
:10231000ADEC2FF04ED3176A500E166EADEC2FF0C9
:1023200048D3176A510E166EADEC2FF042D3176AE0
:10233000520E166EADEC2FF03CD3176A530E166E8C
:10234000ADEC2FF036D3176A540E166EADEC2FF0AD
:1023500030D3176A550E166EADEC2FF02AD3176ADC
:10236000560E166EADEC2FF024D3176A570E166E6C
:10237000ADEC2FF01ED3176A580E166EADEC2FF091
:1023800018D3176A590E166EADEC2FF012D3176AD8
:102390005A0E166EADEC2FF00CD3176A5B0E166E4C
:1023A000ADEC2FF006D3176A5C0E166EADEC2FF075
:1023B00000D3176A5D0E166EADEC2FF0FAD2176AD5
:1023C0005E0E166EADEC2FF0F4D2176A5F0E166E2D
:1023D000ADEC2FF0EED2176A600E166EADEC2FF05A
:1023E000E8D2176A610E166EADEC2FF0E2D2176AD2
:1023F000620E166EADEC2FF0DCD2176A630E166E0D
:10240000ADEC2FF0D6D2176A640E166EADEC2FF03D
:10241000D0D2176A650E166EADEC2FF0CAD2176ACD
:10242000660E166EADEC2FF0C4D2176A670E166EEC
:10243000ADEC2FF0BED2176A680E166EADEC2FF021
:10244000B8D2176A690E166EADEC2FF0B2D2176AC9
:102450006A0E166EADEC2FF0ACD2176A6B0E166ECC
:10246000ADEC2FF0A6D2176A6C0E166EADEC2FF005
:10247000A0D2176A6D0E166EADEC2FF09AD2176AC5
:102480006E0E166EADEC2FF094D2176A6F0E166EAC
:10249000ADEC2FF08ED2176A700E166EADEC2FF0E9
:1024A00088D2176A710E166EADEC2FF082D2176AC1
:1024B000720E166EADEC2FF07CD2176A730E166E8C
:1024C000ADEC2FF076D2176A740E166EADEC2FF0CD
:1024D00070D2176A750E166EADEC2FF06AD2176ABD
:1024E000760E166EADEC2FF064D2176A770E166E6C
:1024F000ADEC2FF05ED2176A780E166EADEC2FF0B1
:1025000058D2176A790E166EADEC2FF052D2176AB8
:102510007A0E166EADEC2FF04CD2176A7B0E166E4B
:10252000ADEC2FF046D2176A7C0E166EADEC2FF094
:1025300040D2176A7D0E166EADEC2FF03AD2176AB4
:102540007E0E166EADEC2FF034D2176A7F0E166E2B
:10255000ADEC2FF02ED2176A800E166EADEC2FF078
:1025600028D2176A810E166EADEC2FF022D2176AB0
:10257000820E166EADEC2FF01CD2176A830E166E0B
:10258000ADEC2FF016D2176A840E166EADEC2FF05C
:1025900010D2176A850E166EADEC2FF00AD2176AAC
:1025A000860E166EADEC2FF004D2176A870E166EEB
:1025B000ADEC2FF0FED1176A880E166EADEC2FF041
:1025C000F8D1176A890E166EADEC2FF0F2D1176AAA
:1025D0008A0E166EADEC2FF0ECD1176A8B0E166ECC
:1025E000ADEC2FF0E6D1176A8C0E166EADEC2FF025
:1025F000E0D1176A8D0E166EADEC2FF0DAD1176AA6
:102600008E0E166EADEC2FF0D4D1176A8F0E166EAB
:10261000ADEC2FF0CED1176A900E166EADEC2FF008
:10262000C8D1176A910E166EADEC2FF0C2D1176AA1
:10263000920E166EADEC2FF0BCD1176A930E166E8B
:10264000ADEC2FF0B6D1176A940E166EADEC2FF0EC
:10265000B0D1176A950E166EADEC2FF0AAD1176A9D
:10266000960E166EADEC2FF0A4D1176A970E166E6B
:10267000ADEC2FF09ED1176A980E166EADEC2FF0D0
:1026800098D1176A990E166EADEC2FF092D1176A99
:102690009A0E166EADEC2FF08CD1176A9B0E166E4B
:1026A000ADEC2FF086D1176A9C0E166EADEC2FF0B4
:1026B00080D11A6A7FD1176AF20E166EADEC2FF038
:1026C00078D1176AF30E166EADEC2FF072D1195057
:1026D00001E1A3D5010A01E1A6D5030A01E1A9D5CB
:1026E000010A01E1ACD5070A01E1AFD5010A01E118
:1026F000B2D5030A01E1B5D5010A01E1B8D50F0A47
:1027000001E1BBD5010A01E1BBD5030A01E1BBD55B
:10271000010A01E1BBD5070A01E1BBD5010A01E1CC
:10272000BBD5030A01E1BBD5010A01E1BBD51F0AF4
:1027300001E1BBD5010A01E1BBD5030A01E1BBD52B
:10274000010A01E1BBD5070A01E1BBD5010A01E19C
:10275000BED5030A01E1C1D5010A01E1C4D50F0AC2
:1027600001E1C7D5010A01E1CAD53F0A01E1CDD592
:10277000010A01E1D0D50F0A01E1D3D5010A01E137
:10278000D6D5030A01E1D9D5010A01E1DCD5070A52
:1027900001E1DFD5010A01E1E2D5030A01E1E5D556
:1027A000010A01E1E8D51F0A01E1EBD5010A01E1C7
:1027B000EED5030A01E1F1D5010A01E1F4D5070ADA
:1027C00001E1F7D5010A01E1FAD5030A01E1FDD5DE
:1027D000010A01E100D60F0A01E103D6010A01E175
:1027E00006D6030A01E109D6010A01E10CD6070A5F
:1027F00001E10FD6010A01E112D6030A01E115D663
:10280000010A01E118D67F0A01E11BD6010A01E1A4
:102810001ED6030A01E121D6010A01E124D6070AE6
:1028200001E127D6010A01E12AD6030A01E12DD6EA
:10283000010A01E130D60F0A01E133D6010A01E1B4
:1028400036D6030A01E139D6010A01E13CD6070A6E
:1028500001E13FD6010A01E142D6030A01E145D672
:10286000010A01E148D61F0A01E14BD6010A01E144
:102870004ED6030A01E151D6010A01E154D6070AF6
:1028800001E157D6010A01E15AD6030A01E15DD6FA
:10289000010A01E160D60F0A01E163D6010A01E1F4
:1028A00066D6030A01E169D6010A01E16CD6070A7E
:1028B00001E16FD6010A01E172D6030A01E175D682
:1028C000010A01E178D63F0A01E17BD6010A01E164
:1028D0007ED6030A01E181D6010A01E184D6070A06
:1028E00001E187D6010A01E18AD6030A01E18DD60A
:1028F000010A01E190D60F0A01E193D6010A01E134
:1029000096D6030A01E199D6010A01E19CD6070A8D
:1029100001E19FD6010A01E1A2D6030A01E1A5D691
:10292000010A01E1A8D61F0A01E1ABD6010A01E1C3
:10293000AED6030A01E1B1D6010A01E1B4D6070A15
:1029400001E1B7D6010A01E1B4D6030A01E1B3D629
:10295000010A01E1B6D6ADD6460447102BE1480E78
:10296000196009D0AA0E1924166E176A000E1722D4
:10297000ADEC2FF01ED0540E196010D01950B80FC6
:10298000186E18A002D0180601D0182A9E0E18241E
:10299000D96EDA6A010EDA22DF500BD0620E1960AE
:1029A00009D04A0E1924166E176A000E1722ADECD4
:1029B0002FF01A6E1A501200E5EC2FF00F6A410E3C
:1029C0000E6E000E106ADAEC2DF0E5EC2FF00F6AB7
:1029D000410E0E6E000E106ADAEC2DF0E5EC2FF0D1
:1029E0000F6A430E0E6E010E106EDAEC2DF0E5EC60
:1029F0002FF00F6A440E0E6E010E106EDAEC2DF001
:102A0000E5EC2FF00F6A450E0E6E010E106EDAEC3B
:102A10002DF0E5EC2FF00F6A460E0E6E010E106ED3
:102A2000DAEC2DF0E5EC2FF00F6A470E0E6E010E7A
:102A3000106EDAEC2DF0E5EC2FF00F6A480E0E6EFA
:102A4000010E106EDAEC2DF0E5EC2FF00F6A490E56
:102A50000E6E1E0E106EDAEC2DF0E5EC2FF00F6A04
:102A60004A0E0E6E000E106ADAEC2DF0E5EC2FF037
:102A70000F6A4B0E0E6E000E106ADAEC2DF0E5ECCC
:102A80002FF00F6A4C0E0E6E000E106ADAEC2DF06D
:102A9000E5EC2FF00F6A4D0E0E6E000E106ADAECA8
:102AA0002DF0E5EC2FF00F6A4E0E0E6E000E106A40
:102AB000DAEC2DF0E5EC2FF00F6A4F0E0E6E0F0ED4
:102AC000106EDAEC2DF0E5EC2FF00F6A500E0E6E62
:102AD000680E106EDAEC2DF0E5EC2FF00F6A510E57
:102AE0000E6E0D0E106EDAEC2DF0E5EC2FF00F6A85
:102AF000520E0E6E7F0E106EDAEC2DF0E5EC2FF01C
:102B00000F6A530E0E6E0D0E106EDAEC2DF0E5EC22
:102B10002FF00F6A540E0E6E7F0E106EDAEC2DF051
:102B2000E5EC2FF00F6A550E0E6E0D0E106EDAECFE
:102B30002DF0E5EC2FF00F6A560E0E6E7F0E106E24
:102B4000DAEC2DF0E5EC2FF00F6A570E0E6E0D0E3D
:102B5000106EDAEC2DF0E5EC2FF00F6A580E0E6EC9
:102B60007F0E106EDAEC2DF0E5EC2FF00F6A590EA7
:102B70000E6E0D0E106EDAEC2DF0E5EC2FF00F6AF4
:102B80005A0E0E6E7F0E106EDAEC2DF0E5EC2FF083
:102B90000F6A5B0E0E6E800E106EDAEC2DF0E5EC17
:102BA0002FF00F6A5C0E0E6EFF0E1068DAEC2DF03F
:102BB000E5EC2FF00F6A5D0E0E6E800E106EDAECF3
:102BC0002DF0E5EC2FF00F6A5E0E0E6EFF0E106812
:102BD000DAEC2DF0E5EC2FF00F6A5F0E0E6E800E32
:102BE000106EDAEC2DF0E5EC2FF00F6A600E0E6E31
:102BF000FF0E1068DAEC2DF0E5EC2FF00F6A610E95
:102C00000E6E800E106EDAEC2DF0E5EC2FF00F6AF0
:102C1000620E0E6EFF0E1068DAEC2DF0E5EC2FF070
:102C20000F6A630E0E6E800E106EDAEC2DF0E5EC7E
:102C30002FF00F6A640E0E6EFF0E1068DAEC2DF0A6
:102C4000E5EC2FF00F6A650E0E6E800E106EDAEC5A
:102C50002DF0E5EC2FF00F6A660E0E6EFF0E106879
:102C6000DAEC2DF0E5EC2FF00F6A670E0E6E7F0E9A
:102C7000106EDAEC2DF0E5EC2FF00F6A680E0E6E98
:102C8000FF0E1068DAEC2DF0E5EC2FF00F6A690EFC
:102C90000E6E7F0E106EDAEC2DF0E5EC2FF00F6A61
:102CA0006A0E0E6EFF0E1068DAEC2DF0E5EC2FF0D8
:102CB0000F6A6B0E0E6E7F0E106EDAEC2DF0E5ECE7
:102CC0002FF00F6A6C0E0E6EFF0E1068DAEC2DF00E
:102CD000E5EC2FF00F6A6D0E0E6E7F0E106EDAECC3
:102CE0002DF0E5EC2FF00F6A6E0E0E6EFF0E1068E1
:102CF000DAEC2DF0E5EC2FF00F6A6F0E0E6E7F0E02
:102D0000106EDAEC2DF0E5EC2FF00F6A700E0E6EFF
:102D1000FF0E1068DAEC2DF0E5EC2FF00F6A710E63
:102D20000E6E7F0E106EDAEC2DF0E5EC2FF00F6AD0
:102D3000720E0E6EFF0E1068DAEC2DF0E5EC2FF03F
:102D40000F6A730E0E6E000E106ADAEC2DF0E5ECD1
:102D50002FF00F6A740E0E6E000E106ADAEC2DF072
:102D6000E5EC2FF00F6A750E0E6E000E106ADAECAD
:102D70002DF0E5EC2FF00F6A760E0E6E000E106A45
:102D8000DAEC2DF0E5EC2FF00F6A770E0E6E000EE8
:102D9000106ADAEC2DF0E5EC2FF00F6A780E0E6E6B
:102DA000000E106ADAEC2DF0E5EC2FF00F6A790EC8
:102DB0000E6E000E106ADAEC2DF0E5EC2FF00F6AC3
:102DC0007A0E0E6E000E106ADAEC2DF0E5EC2FF0A4
:102DD0000F6A7B0E0E6E000E106ADAEC2DF0E5EC39
:102DE0002FF00F6A7C0E0E6E000E106ADAEC2DF0DA
:102DF000E5EC2FF00F6A7D0E0E6E000E106ADAEC15
:102E00002DF0E5EC2FF00F6A7E0E0E6E000E106AAC
:102E1000DAEC2DF0E5EC2FF00F6A7F0E0E6E106EDF
:102E2000DAEC2DF0E5EC2FF00F6A800E0E6EFF0E3F
:102E30001068DAEC2DF0E5EC2FF00F6A810E0E6EC3
:102E40007F0E106EDAEC2DF0E5EC2FF00F6A820E9B
:102E50000E6EFF0E1068DAEC2DF0E5EC2FF00F6A25
:102E6000830E0E6E7F0E106EDAEC2DF0E5EC2FF077
:102E70000F6A840E0E6EFF0E1068DAEC2DF0E5EC92
:102E80002FF00F6A850E0E6E7F0E106EDAEC2DF0AD
:102E9000E5EC2FF00F6A860E0E6EFF0E1068DAEC6E
:102EA0002DF0E5EC2FF00F6A870E0E6E7F0E106E80
:102EB000DAEC2DF0E5EC2FF00F6A880E0E6EFF0EA7
:102EC0001068DAEC2DF0E5EC2FF00F6A890E0E6E2B
:102ED0007F0E106EDAEC2DF0E5EC2FF00F6A8A0E03
:102EE0000E6EFF0E1068DAEC2DF0E5EC2FF00F6A95
:102EF0008B0E0E6E800E106EDAEC2DF0E5EC2FF0DE
:102F00000F6A8C0E0E6E000E106ADAEC2DF0E5ECF6
:102F10002FF00F6A8D0E0E6E800E106EDAEC2DF013
:102F2000E5EC2FF00F6A8E0E0E6E000E106ADAECD2
:102F30002DF0E5EC2FF00F6A8F0E0E6E800E106EE6
:102F4000DAEC2DF0E5EC2FF00F6A900E0E6E000E0D
:102F5000106ADAEC2DF0E5EC2FF00F6A910E0E6E90
:102F6000800E106EDAEC2DF0E5EC2FF00F6A920E69
:102F70000E6E000E106ADAEC2DF0E5EC2FF00F6A01
:102F8000930E0E6E800E106EDAEC2DF0E5EC2FF045
:102F90000F6A940E0E6E000E106ADAEC2DF0E5EC5E
:102FA0002FF00F6A950E0E6E800E106EDAEC2DF07B
:102FB000E5EC2FF00F6A960E0E6E000E106ADAEC3A
:102FC0002DF0E5EC2FF00F6A970E0E6E020E106ECC
:102FD000DAEC2DF0E5EC2FF00F6A980E0E6E020E73
:102FE000106EDAEC2DF0E5EC2FF00F6A990E0E6EF4
:102FF000020E106EDAEC2DF0E5EC2FF00F6A9A0E4F
:103000000E6E020E106EDAEC2DF0E5EC2FF00F6A6A
:103010009B0E0E6E020E106EDAEC2DF0E5EC2FF02A
:103020000F6A9C0E0E6E020E106EDAEC2DF0E5ECBF
:103030002FF00F6AF20E0E6EC30E106EDAEC2DF04A
:10304000E5EC2FF00F6AF30E0E6E500E106EDAECF8
:103050002DF0E5EC2FF00F6A9E0E0E6E000E106A3A
:10306000DAEC2DF0E5EC2FF00F6A9F0E0E6E000EDD
:10307000106ADAEC2DF0E5EC2FF00F6AA00E0E6E60
:10308000000E106ADAEC2DF0E5EC2FF00F6AA10EBD
:103090000E6E000E106ADAEC2DF0E5EC2FF00F6AE0
:1030A000A20E0E6E000E106ADAEC2DF0E5EC2FF099
:1030B0000F6AA30E0E6E000E106ADAEC2DF0E5EC2E
:1030C0002FF00F6AA40E0E6E000E106ADAEC2DF0CF
:1030D000E5EC2FF00F6AA50E0E6E000E106ADAEC0A
:1030E0002DF0E5EC2FF00F6AA60E0E6E000E106AA2
:1030F000DAEC2DF0E5EC2FF00F6AA70E0E6E000E45
:10310000106ADAEC2DF0E5EC2FF00F6AA80E0E6EC7
:10311000000E106ADAEC2DF0E5EC2FF00F6AA90E24
:103120000E6E106ADAEF2DF0C051BF1101E1F4D23A
:1031300024D3F6EC2FF021D34EEC2EF01ED309EC65
:103140002FF01BD3F4EC2DF018D3BD510F0B020A56
:1031500001E013D3BB5120EEC3F0DF620ED3800E2B
:10316000C46112D0C45106EC11F00001D26FC4C08A
:10317000D1F0030ECC6F820ECB6FCD6BCE6B0A0EEF
:10318000CF6F0CEC2EF0F9D2C451E1EC1FF0EDD76B
:10319000BD510F0B030A01E0F0D2BB5120EEC3F08A
:1031A000DF62EBD2800EC46106D0C5C021F0C451ED
:1031B000B7EC05F0DAD7C5C019F0C45199EC24F08A
:1031C000D4D7BB5120EEC3F0DF62D7D2000EA3EC00
:1031D0002FF00001C51901E0D0D2030EA3EC2FF0AF
:1031E0000001C61901E0C9D2050EA3EC2FF00001C1
:1031F000C71901E0C2D2070EA3EC2FF00001C819D5
:1032000001E0BBD24750C91901E0B7D2465020EEC9
:10321000CAF0DF62B2D2C451E8EC2EF0AED2000E9A
:10322000A3EC2FF00001C41973E1010EA3EC2FF001
:103230000001C5196DE1020EA3EC2FF00001C619C3
:1032400067E1030EA3EC2FF00001C71961E14C8880
:103250005FD0040EA3EC2FF00001C41959E1050E54
:10326000A3EC2FF00001C51953E1060EA3EC2FF0DB
:103270000001C6194DE1070EA3EC2FF00001C7199C
:1032800047E14C8A45D0080EA3EC2FF00001C41989
:103290003FE1090EA3EC2FF00001C51939E10A0E38
:1032A000A3EC2FF00001C61933E10B0EA3EC2FF0B5
:1032B0000001C7192DE14C8C2BD00C0EA3EC2FF084
:1032C0000001C41925E10D0EA3EC2FF00001C51972
:1032D0001FE10E0EA3EC2FF00001C61919E10F0E2D
:1032E000A3EC2FF00001C71913E14C8E11D04C6AEA
:1032F0000FD0C3390F0B7F6F806B8051F8E17F5186
:103300008EE0010AA6E0030ABEE0010AD6E0EFD78C
:103310004C50F00BF00A01E030D29BEC2BF02DD298
:10332000BB5120EEC3F0DF6228D28B6BC4C08AF0A1
:10333000C5C08DF0996B4AD08A51992552EC2FF077
:1033400000017F6F070E0E6E995178EC2EF0000190
:10335000806F8051D20FD96EDA6A7FC0DFFF070E0F
:103360000E6E995178EC2EF0060A0BE0FF0E00016C
:103370008D257F6F806BFF0E802399517F198011FF
:1033800024E1070E0E6E0001995178EC2EF0060A2A
:1033900003E1070E000109D0070E0E6E00019951DE
:1033A00078EC2EF000017F6F7F298C6F8C51810F9C
:1033B000CB6F070ECC6FCD6BCE6B1A0ECF6F8BC061
:1033C000D1F00CEC2EF000018B2B992B8D51995DD7
:1033D00001E3D3D1B1D7BB5120EEC3F0DF62CDD131
:1033E000C4C08EF0BD51FE0F070B8F6F946B18D0C9
:1033F0009451C50FD96EDA6ADF50256E8E5194252F
:10340000D7EC2EF000018E51942552EC2FF00001E4
:103410007F6F9451D20FD96EDA6A7FC0DFFF942B91
:103420008F51945DE5E3070ECC6FCD6BCE6B1A0E1A
:10343000CF6FD16B8F51810FCB6FA3D6BB5120EED5
:10344000C3F0DF629AD1C45106EC11F000017F6F26
:103450007F29216EC451B7EC05F087D6BB5120EE11
:10346000C3F0DF628AD1C45106EC11F000017F6F16
:103470007F05216EC451B7EC05F077D6C351BB1957
:1034800003E0C32901E079D1936B030ECC6F880E62
:10349000CB6FCD6BCE6B200ECF6F986B98C0D1F0F9
:1034A000010E9A6F9A51D10FD96EDA6A93510F08B3
:1034B000A3EC2FF0DF6E0001932B100E936501D06B
:1034C00004D09A2B070E9A65EDD7100E936501D0A4
:1034D00007D00CEC2EF00001982B020E9865DED779
:1034E0009A6B9A516CEC2FF0000908E09A51D40FB6
:1034F000D96EDA6A9A516CEC2FF005D09A51D40F3C
:10350000D96EDA6A000EDF6E9A2B040E9A65E9D73F
:103510000CEC2EF0050E0001936F030E986F98C00F
:10352000D1F0010E9A6F9A51D10FD96EDA6A935188
:103530006CEC2FF0DF6E932B9A2B070E9A65F3D766
:103540000CEC2EF00001982B060E9865E8D715D1EB
:10355000BB5120EEC3F0DF6210D1030ECC6F870E9B
:10356000CB6FCD6BCE6B220ECF6FD10E5FEC2FF0F9
:1035700008D6BB5120EEC3F0DF62FFD0956BBDC013
:103580007FF00F0E7F17040E7F5D12E3C7C096F029
:10359000976B9751961103E1010E976F966B010E91
:1035A000965D010E975907E3010E976F000E02D04A
:1035B000976B010E966F46C086F047C087F0C551E5
:1035C000C4C07FF0806B7FC080F07F6B7F11466E40
:1035D0008051476E070ECC6FCD6BCE6B270ECF6F31
:1035E000D16BC4C0D2F0C5C0D3F09551965D7F6F4A
:1035F000000E9759806F040E7F5D000E805902E324
:10360000040E02D09551965D906F9051840FCB6F50
:10361000C6519525D46F916B0ED0C6519525912535
:1036200052EC2FF000017F6F9151D50FD96EDA6AFD
:103630007FC0DFFF912B9051915DEFE30CEC2EF0FA
:10364000000190519527D12B95517F6F806B96513A
:103650007F5D97518059C9E386C046F087C047F027
:103660008CD0BB5120EEC3F0DF6287D046C088F01B
:1036700047C089F0C551C4C07FF0806B7FC080F027
:103680007F6B7F11466E8051476EC6C092F014D09A
:10369000C651C7089225D96EDA6ADF50256E92515D
:1036A000D7EC2EF000017F6FC651D5089225D96E58
:1036B000DA6A7FC0DFFF922BBD510F0B7F6F806BEB
:1036C000C6517F27000E8023FC0E7F25816FFF0EE1
:1036D0008021826F9251836F846B8451800A856F41
:1036E0008151835D8251800A8559D2E388C046F0BA
:1036F00089C047F0070ECC6FBD510F0B800FCB6F09
:10370000CD6BCE6B270ECF6FD16BC4C0D2F0C5C0CE
:10371000D3F0C6C0D4F035D5C151010A01E109D5B5
:10372000030A01E109D5040A01E109D50E0A01E104
:1037300009D5010A01E109D5020A01E129D5070AE3
:1037400001E13FD51B0A01E1D4D50F0A01E1E8D51B
:10375000010A01E140D6040A01E170D6030A01E141
:103760007DD6010A01E18AD63E0A01E1F1D6040ABA
:1037700001E1FFD6030A01E174D71200176AF30EC4
:10378000166EADEC2FF00001A46F176AF20E166EE4
:10379000ADEC2FF0196E0001A451186E39EC2EF02B
:1037A0001BC071F11AC070F119C06FF118C06EF131
:1037B00001019D6B9DC1A4F0010E0001A56FA42B1A
:1037C00002D0D890A537A42FFCD7A551B61501E19A
:1037D000F9D10101956B966B976B986B946B010E09
:1037E0002D6E950E2C6ED8909D350001A46FA56BA3
:1037F000A537010194510C0D9F0EF3240001A66F13
:10380000010EF420A76FA451A625D96EA551A721BA
:10381000DA6EDF50A86FD89001019D350001A96FC5
:10382000AA6BAA37010194510C0D9E0EF3240001DE
:10383000AB6F010EF420AC6FA951AB25D96EAA5124
:10384000AC21DA6EDF50196EA851186E39EC2EF0EB
:103850001BC031F01AC030F019C02FF018C02EF084
:103860005BEC2CF00101942B4F0E9465B8D7010E40
:103870000001616F950E606F626B636BA00E646FE9
:10388000420E656F36EC2CF001019D51020D500E79
:10389000F324166E000EF420176EADEC2FF000012D
:1038A000A46F01019D51020D4F0EF324166E000E00
:1038B000F420176EADEC2FF001018F6F0001A451C1
:1038C00001018E6F330E306E130E316E950E326E17
:1038D000C30E336E8EC118F08FC119F039EC2EF083
:1038E0001BC02FF01AC02EF019C02DF018C02CF0FC
:1038F0003CEC28F02FC075F12EC074F12DC073F18F
:103900002CC072F172C199F073C19AF074C19BF02E
:1039100075C19CF0EFEC1EF09CC079F19BC078F172
:103920009AC077F199C076F176C160F077C161F005
:1039300078C162F079C163F00001646B400E656F7D
:103940001C0E666F460E676FA1EC25F063C06DF12B
:1039500062C06CF161C06BF160C06AF10001646B20
:10396000656BA00E666F400E676F95C160F096C1E3
:1039700061F097C162F098C163F0A1EC25F063C0DB
:103980002FF062C02EF061C02DF060C02CF0306AC4
:10399000200E316E800E326E440E336E3CEC28F0F9
:1039A0002FC08DF12EC08CF12DC08BF12CC08AF16F
:1039B0000001646B400E656F1C0E666F460E676FEC
:1039C0008AC160F08BC161F08CC162F08DC163F07F
:1039D000A1EC25F063C07DF062C07CF061C07BF09B
:1039E00060C07AF06EC176F06FC177F070C178F088
:1039F00071C179F04AEC2DF079C02FF078C02EF02B
:103A000077C02DF076C02CF08AC130F08BC131F038
:103A10008CC132F08DC133F03CEC28F02FC093F113
:103A20002EC092F12DC091F12CC090F16AC130F0FE
:103A30006BC131F06CC132F06DC133F090C12CF02C
:103A400091C12DF092C12EF093C12FF03CEC28F0E3
:103A50002FC084F02EC083F02DC082F02CC081F0E6
:103A600076EC23F084C07DF183C07CF182C07BF1D1
:103A700081C07AF18EC118F08FC119F039EC2EF0A7
:103A80001BC02FF01AC02EF019C02DF018C02CF05A
:103A90007AC130F07BC131F07CC132F07DC133F0AE
:103AA0003CEC28F02FC09CF12EC09BF12DC09AF168
:103AB0002CC099F1010E00017F6F990E7E6F330EBD
:103AC000806F930E816F880E826F430E836FC3ECFD
:103AD0002BF001019D51020D000EF324D96E010E51
:103AE000F420DA6EDECFA4F0DDCFA5F0A4C0A6F0FE
:103AF000A5C0A7F0000E0001A7BFFF0EA86FA96F19
:103B000001019D510CEC2DF018C0AAF019C0ABF0CA
:103B1000000E0001ABBFFF0EAC6FAD6F646B656B49
:103B2000C80E666F420E676F99C160F09AC161F06E
:103B30009BC162F09CC163F0A1EC25F063C079F0F9
:103B400062C078F061C077F060C076F032EC29F0A6
:103B5000AA517625AE6FAB517721AF6FAC5178216A
:103B6000B06FAD517921B16FA651AE257C6FA751D1
:103B7000AF217D6FA851B0217E6FA951B1217F6F18
:103B8000020E806F000E816B826B836B2BEC27F033
:103B900001019D51020D000EF324D96E010EF42097
:103BA000DA6E00017CC0DEFF7DC0DDFF9DC1A4F0A8
:103BB000010EA56FA42B02D0D890A537A42FFCD757
:103BC000A51DB61701019D2B050E9D65F3D5050CAE
:103BD000E8CF1AF0486A7750C00B1C6E1C6632D0D2
:103BE00060AE12D0A49074AE06D01750D96EDA6AC7
:103BF000000EDB86749E60A002D0488001D0489001
:103C00000F0E1F6E600E1AD00F0150AF19D0A49284
:103C100074AC06D01750D96EDA6A000EDB86749C3D
:103C20005051070B486E020E486005D01750D96EF0
:103C3000DA6A000EDB8E0F0E1F6E500E1E6E65D000
:103C4000000ECCD01C50400A46E160AE04D00F0EEE
:103C50001F6E600E3ED00F0150AF04D00F0E1F6ECE
:103C6000500E37D00D01F8B507D00E0120AF04D0AB
:103C70000E0E1F6E200E2DD00D01F8B707D00E01CD
:103C800030AF04D00E0E1F6E300E23D00D01F8B9E8
:103C900007D00E0140AF04D00E0E1F6E400E19D09B
:103CA0000D01F8BB05D00E0150AF02D00E0ED7D7D4
:103CB0000D01F8BD05D00E0160AF02D00E0EC8D7C1
:103CC0000D01F8BFBDD70E0170AFBAD70E0E1F6E33
:103CD000700E1E6E0AD074AEB3D76F50070BCEECC9
:103CE0002AF00EC01EF00FC01FF01EC0D9FF1FC06B
:103CF000DAFFDF501F0B486EA49274AC06D0175049
:103D0000D96EDA6A000EDB86749C1EC018F01FC0E4
:103D100019F01750D96EDA6ADF6A20EE05F01E50EE
:103D2000D9261F50DA22DF501D6E1650D96EDA6A7E
:103D30001D500F0BDF6E1DAC05D01750D96EDA6A1F
:103D4000000EDB8C20EE02F01E50D9261F50DA2226
:103D5000DF501D6E1DA608D01750D96EDA6A000E0E
:103D6000DB8A010E1D6E01D01D6A1E280E6E000E2C
:103D70001F200F6E1AC010F01DC011F06CEC21F066
:103D8000060E1E26000E1F221650D96EDA6ADF506C
:103D90001D6E1B6A0DD01EC0D9FF1FC0DAFF155063
:103DA000E16EE26ADFCFE7FF1E4A1F2A152A1B2AAF
:103DB0001D501B5CF0E3A4AE06D01750D96EDA6A32
:103DC000000EDB88A49E18C0D9FF19C0DAFF7F0E51
:103DD000DF161C50800AD8B4749E010E1200000138
:103DE00020EE99F0DE50DE10DE10DE1007E1000E4E
:103DF000996F9A6F800E9B6F3F0E18D0180E0E6E43
:103E0000720E0F6E310E106E440E116E99C012F0CC
:103E10009AC013F09BC014F09CC015F0EAEC2BF094
:103E200007E2000199699A697F0E9B6F9C6FC8D069
:103E300099C00EF09AC00FF09BC010F09CC011F01A
:103E4000870E126E480E136E3A0E146EC40E156E67
:103E5000EAEC2BF002E200018DD00001010E9CAFD4
:103E6000000EA36FA35112E099C00EF09AC00FF09C
:103E70009BC010F09CC011F0C5EC2EF011C09CF05E
:103E800010C09BF00FC09AF00EC099F03B0E766FF9
:103E9000AA0E776FB80E786F3F0E796F990E10ECFF
:103EA0002CF099C08FF09AC090F09BC091F09CC00C
:103EB00092F023EC25F092C0A0F091C09FF090C04A
:103EC0009EF08FC09DF09DC076F09EC077F09FC0A1
:103ED00078F0A0C079F032EC29F076C0A1F077C07C
:103EE000A2F0000E7F6F990E7E6FA1C018F0A2C0E5
:103EF00019F0A3EC2DF01BC083F01AC082F019C09A
:103F000081F018C080F0C3EC2BF099C076F09AC015
:103F100077F09BC078F09CC079F0200E7A6F7C6BB4
:103F2000090E7B6F0CEC26F079C084F078C083F02A
:103F300077C082F076C081F0A1C085F0A2C086F083
:103F400090EC28F084C09CF083C09BF082C09AF073
:103F500081C099F0A3512CE020EE99F0FF0EDE18FD
:103F6000FF0ED8B4DE187F0ED8B4DE187F0ED8B49A
:103F7000DE1805E1996B9A6B9B6B9C6B21D02C6AC8
:103F80002D6A800E2E6E3F0E2F6E99C030F09AC0B3
:103F900031F09BC032F09CC033F03CEC28F02FC0D5
:103FA0009CF02EC09BF02DC09AF02CC099F008D048
:103FB00099C099F09AC09AF09BC09BF09CC09CF06D
:103FC0001200E8CF29F0286A2950800A04E14AC08B
:103FD00028F04A6ACCD02950810A02E1010E82D031
:103FE0002950820A02E1060E7DD02950830A03E19E
:103FF0004BC028F0BCD02950940A03E1F5EC2FF017
:1040000071D02950950A03E1F4EC2FF06BD02950C0
:10401000960A03E1F3EC2FF065D0890E296005D0F4
:1040200029507C0F99EC2FF05DD0880E296408D0C0
:10403000910E296005D02950770F8FEC2FF052D0C8
:104040002950910A03E1BBC028F091D02950930A6E
:1040500003E146C028F08BD02950920A02E1475074
:1040600041D02950970A03E1F2EC2FF03BD02950C0
:10407000980A03E1F1EC2FF035D02950990A03E1B9
:10408000F0EC2FF02FD0990E29642ED09E0E2960CF
:104090002BD0D7EC2FF011C021F010C020F00FC0B2
:1040A0001FF00EC01EF02950660F266E2650030822
:1040B000196ED8901936D8901936D89019361950EB
:1040C0001EC01AF01FC01BF020C01CF021C01DF044
:1040D000E82A05D0D8901D321C321B321A32E82E45
:1040E000F9D730D0286E43D09D0E29642DD0A20E72
:1040F00029602AD0D2EC2FF011C025F010C024F096
:104100000FC023F00EC022F02950620F276E2750F7
:104110000308196ED8901936D8901936D8901936E8
:10412000195022C01AF023C01BF024C01CF025C077
:104130001DF0E82A05D0D8901D321C321B321A32ED
:10414000E82EF9D71A50CED7CF0E296408D0E00E4A
:10415000296005D02950300FA3EC2FF0C3D7DF0E14
:10416000296405D02950200F6CEC2FF0BBD72850C4
:1041700012000F0E216E400E206E0F0E236E300EB9
:10418000226E0F0E256E200E246E0E0E276E200E50
:10419000266E0E0E296E300E286E0E0E2B6E400E01
:1041A0002A6E0E0E2D6E500E2C6E0E0E2F6E600EA1
:1041B0002E6E0E0E316E700E306E7750C00B326E5A
:1041C000326602D0020E01D0080E336E0D01D89077
:1041D000F831356E396A7BD03950020DF350200F1B
:1041E000D96EDA6ADECF3AF0DDCF3BF03AC036F076
:1041F0003BC037F0020E396404D0D890353235A078
:1042000065D03AC0D9FF3BC0DAFFDF501F6E1FB642
:104210005DD03AC0D9FF3BC0DAFFFC0EDF161EC0EE
:104220001FF0030E1F163AC0D9FF3BC0DAFF1F5024
:10423000DF121EAC04D01D504009386E02D01DC0E4
:1042400038F020EE05F03A50D9263B50DA2238C03B
:10425000DFFF1EAA03D0010E386E01D0386A3A285B
:104260000E6E000E3B200F6E18C010F019C011F03A
:104270001AC012F01BC013F038C014F0CEEC22F0BC
:10428000060E3A26000E3B22346A0DD01C50D96E21
:10429000DA6A3AC0E1FF3BC0E2FFDFCFE7FF1C2A4A
:1042A0003A4A3B2A342A1D50345CF0E336C0D9FF29
:1042B00037C0DAFFDF501F6E1FB406D036C0D9FFFB
:1042C00037C0DAFF000EDB86010E05D0392A3350E5
:1042D000395C82E3000E120010C014F0116646D063
:1042E0001450D96EDA6A0EC0E1FF0FC0E2FFE7504A
:1042F000126ED8901236D8901236D8901234DF6EE3
:104300001450D96EDA6AD92ADA6A0EC0E1FF0FC0FA
:10431000E2FFE750126E050E136ED8901232132E84
:10432000FCD71250DF6E0E4A0F2A0EC0D9FF0FC005
:10433000DAFFDF50126E050E136ED8901232132E74
:10434000FCD71450D96EDA6A1250DF121450D96EAD
:10435000DA6A020ED926DA6ADF6A1450D96EDA6A8E
:10436000030ED926DA6A000EDF6E67D01450D96EBC
:10437000DA6A020ED926DA6A0EC0E1FF0FC0E2FF48
:10438000E750126E050E136ED8901236132EFCD71E
:104390001250DF6E1450D96EDA6A030ED926DA6A2B
:1043A0000EC0E1FF0FC0E2FFE750126ED89012324C
:1043B000D8901232D8901230DF6E0E4A0F2A0EC0FB
:1043C000D9FF0FC0DAFFDF50126E030E1216145021
:1043D000D96EDA6A020ED926DA6A1250DF120EC0DE
:1043E000D9FF0FC0DAFFDF50126ED8901232D8908A
:1043F0001232D89012321C0E12161450D96EDA6A8C
:10440000020ED926DA6A1250DF120E4A0F2A0EC0A7
:10441000D9FF0FC0DAFF1450E16EE26AE12AE26AC6
:10442000DFCFE7FF0E4A0F2A0EC0D9FF0FC0DAFF19
:104430001450E16EE26ADFCFE7FF12001F34203430
:104440002B6E233424342A6E2B5009E02A502B6023
:104450000FD02B502A5C256E210E255C09E321C06C
:104460001DF022C01EF023C01FF024C020F095D004
:104470002A5009E02B502A600FD02A502B5C256E61
:10448000210E255C09E31DC01DF01EC01EF01FC0DB
:104490001FF020C020F081D0060E296E20BE298E8C
:1044A00024BE298C1F8E206A238E246A2A502B60FA
:1044B00018D0D89021362236233624362A062A50A0
:1044C0002B180BE029062950070B07E0F2D7D890EC
:1044D00020321F321E321D322B2A2A502B62F7D770
:1044E0001AD02B502A6017D0D8901D361E361F3692
:1044F00020362B062A502B180BE029062950070BD3
:1045000007E0F2D7D89024322332223221322A2AED
:104510002A502B62F7D729AE09D01D1E1E1E1F1E62
:10452000201E1D2A000E1E221F22202229AC09D087
:10453000211E221E231E241E212A000E2222232297
:104540002422296A1D5021261E5022221F50232278
:104550002050242224AE0BD0211E221E231E241EF6
:10456000212A000E222223222422010E296E21C09C
:104570000EF022C00FF023C010F024C011F02BC0A9
:1045800012F029C013F06CEC26F011C020F010C01E
:104590001FF00FC01EF00EC01DF01200100E176E9F
:1045A000146637D01750D96EDA6ADF50156ED8907E
:1045B0001532D8901532D89015300EC0D9FF0FC0E3
:1045C000DAFFDF6E1750D96EDA6AD92ADA6ADF505D
:1045D000156E050E166ED8901536162EFCD70EC029
:1045E000D9FF0FC0DAFF1550DF120E4A0F2A1750FD
:1045F000D96EDA6ADF50156E050E166ED890153634
:10460000162EFCD715500EC0D9FF0FC0DAFFDF6E93
:104610006CD01750D96EDA6A020ED926DA6ADF50EA
:10462000156E050E166ED8901532162EFCD7155045
:104630000EC0D9FF0FC0DAFFDF6E1750D96EDA6AED
:10464000030ED926DA6ADF50156ED8901536D89049
:104650001536D89015360EC0D9FF0FC0DAFF1550A9
:10466000DF120E4A0F2A1750D96EDA6A020ED926C7
:10467000DA6ADF50156ED8901536D8901536D89076
:104680001534E00B0EC0D9FF0FC0DAFFDF6E0EC08D
:10469000D9FF0FC0DAFF000EDB861750D96EDA6A39
:1046A000020ED926DA6ADF50156E030E15160EC0FB
:1046B000D9FF0FC0DAFF1550DF120E4A0F2A17502C
:1046C000D96EDA6AD92ADA6A0EC0E1FF0FC0E2FFBA
:1046D000DFCFE7FF0E4A0F2A1750D96EDA6A0EC0F5
:1046E000E1FF0FC0E2FFDFCFE7FF1200000184BF50
:1046F00007D020EE81F0DE50DE10DE10DE1005E186
:10470000816B826B836B846B87D0646B656B666B2C
:10471000400E676F430E126E000E136E0F0E136E77
:104720005F0E1264136A81C00EF082C00FF083C066
:1047300010F084C011F0CCEC29F011C063F010C06F
:1047400062F00FC061F00EC060F0A1EC25F063C014
:1047500020F062C01FF061C01EF060C01DF0216A31
:10476000226A800E236EBF0E246E1EEC22F020C043
:1047700084F01FC083F01EC082F01DC081F043068C
:10478000D8A0440681C076F082C077F083C078F06C
:1047900084C079F0480E00017A6F7C6B080E7B6F45
:1047A0000CEC26F079C084F078C083F077C082F0FA
:1047B00076C081F0180E646F720E656F310E666FF1
:1047C0003F0E676F43C018F044C019F0A3EC2DF002
:1047D0001BC063F01AC062F019C061F018C060F02D
:1047E000A1EC25F063C020F062C01FF061C01EF094
:1047F00060C01DF081C021F082C022F083C023F090
:1048000084C024F01EEC22F020C084F01FC083F08E
:104810001EC082F01DC081F0120068EC2DF02BEC60
:104820002DF00009D8B4DCEC14F09BEC2BF0040064
:10483000FA0E0001BA650ED0BC050CE0BB69E5ECD0
:104840002FF00F6A010E0E6EFF0E1068DAEC2DF0DD
:104850009BEC2BF00001BD6B63EC2EF024D0BB2948
:1048600003E1010EBC6F2BD0030EBC6F18EC2FF0D0
:1048700026D0CCEC26F023D0BDAF21D0C051BF1143
:1048800003E194EC18F01BD0BF511E0AC01117E1D0
:10489000C1511A0A14E151EC2AF011D0E8EC2FF0C2
:1048A0000ED0BC6B0CD00001BC51D9E0010AE1E094
:1048B000030ADCE0010AE0E0070AF0E0F2D7E90EC3
:1048C0000101125D030E1359000E1459000E155903
:1048D000AEE3126B136B146B156B0DEC0DF0B92B73
:1048E000BC51030A1AE1B26BB36BB46BB56B0C0E1F
:1048F0000001B225D96E010EB321DA6EDF2AB22B88
:10490000000EB323B423B523060EB25D000EB359D7
:10491000000EB459000EB559EAE33C0EB96501D05A
:10492000B96BBC51030AD8B471EC2BF0BEEC1BF090
:104930007ED7E8CF1FF0191C1E6E1F50830A02E1BC
:104940004B6A7ED0830E1F640ED0890E1F600BD081
:1049500019C012F01F507C0F44EC2FF01F507C0F39
:1049600099EC2FF06BD01F50920A0DE119501B6E7D
:104970001A6A46501C6E1D6A1A10466E1B501D1096
:10498000476E47505BD01F50930A0BE11A6A47509D
:104990001B6E19501A10466E1B50476E46C01EF013
:1049A00050D0880E1F6419D0910E1F6016D047C0DA
:1049B0001AF01AC01BF01C6A1B2802E1462802E00C
:1049C000191C3CD019C012F01F50770F36EC2FF095
:1049D0001F50770F8FEC2FF031D0CF0E1F6417D000
:1049E000E00E1F6014D047C01AF01AC01BF01C6AFA
:1049F0001B28E6E14628E4E119C012F01F50300FF1
:104A00009FEC2EF01F50300FA3EC2FF017D01F504B
:104A1000A20AD6E11950550A05E101011C6B1D6B74
:104A2000550E0CD01950AA0A0CE1E80E01011C5DCC
:104A3000030E1D5905E2E1EC2FF0AA0E1E6E01D007
:104A40001E6A1E5012008FC00EF090C00FF091C071
:104A500010F092C011F0000E136E970E126ECCEC97
:104A600029F098AF0FD092AF08D0000E8F6F906FE3
:104A7000800E916FBF0E926F63D08F6B906B916BB6
:104A8000926B5ED01D0E975D000E985909E38FC0A2
:104A90008FF090C090F091C091F092C092F050D001
:104AA0008FC076F090C077F091C078F092C079F026
:104AB00032EC29F079C08DF078C08CF077C08BF0A3
:104AC00076C08AF080EC2CF08DC096F08CC095F00A
:104AD0008BC094F08AC093F08FC00EF090C00FF09E
:104AE00091C010F092C011F093C012F094C013F076
:104AF00095C014F096C015F0EAEC2BF019E293C0C3
:104B00001DF094C01EF095C01FF096C020F0216AE1
:104B1000226A800E236EBF0E246E1EEC22F020C08F
:104B200092F01FC091F01EC090F01DC08FF008D011
:104B300093C08FF094C090F095C091F096C092F021
:104B400012000001623563356F6F6F6701D006D0C8
:104B5000000166356735756F756705D0606B616BF1
:104B6000626B636B58D075517B0F6F2763C075F014
:104B700000016751751B800E7517628F668F000EDE
:104B80006717706B716B726B736B070E746F60A13C
:104B900008D06451702765517123665172236751A3
:104BA0007323D8906333623361336033D8906437B2
:104BB000653766376737742FEAD7110E746F60A1B7
:104BC00008D0645170276551712366517223675173
:104BD0007323D8906333623361336033D890733377
:104BE000723371337033742FEAD770C00EF071C016
:104BF0000FF072C010F073C011F06FC012F075C0EA
:104C000013F06CEC26F011C063F010C062F00FC01E
:104C100061F00EC060F012007B51040D7A51F32454
:104C2000426E42C0F6FF0B0EF76E0900F5CF7DF025
:104C30000900F5CF7EF00900F5CF7FF00A00F5CF2F
:104C400080F03DD07DC064F07EC065F07FC066F02E
:104C500080C067F076C060F077C061F078C062F025
:104C600079C063F0A1EC25F063C020F062C01FF0B2
:104C700061C01EF060C01DF000017B07D8A07C075A
:104C80007B51040D7A51F324426E42C0F6FF0B0EA5
:104C9000F76E0900F5CF21F00900F5CF22F00900E9
:104CA000F5CF23F00A00F5CF24F01EEC22F020C04F
:104CB00080F01FC07FF01EC07EF01DC07DF000019F
:104CC0007C517B11BFE17DC076F07EC077F07FC064
:104CD00078F080C079F01200125005E011500E10EB
:104CE0000F1010100BE10E6A0F6A106A116A53D090
:104CF000122AD890113210320F320E32146A156A0D
:104D0000166AFE0E1114176E175014101510161097
:104D10000CE0EED7122A0E2A000E0F2210221122CA
:104D2000D890113210320F320E32146A156A166A98
:104D30001150176E175014101510161007E0EAD70F
:104D40001206D8900E360F361036113610AEF8D740
:104D500012B002D07F0E1016D890123212C014F08A
:104D6000156A166A176A14C017F0166A156A146A6B
:104D700014500E1215500F12165010121750111217
:104D80001350D8A4118E0EC00EF00FC00FF010C03B
:104D900010F011C011F0120055D04F2812E0810E12
:104DA0000001CB6FCC6BCD6BCE6B020ECF6F4FC0C3
:104DB000D1F00CEC2EF0010E4E6E01011E6B1F6B3C
:104DC00047D0040E0001BC6F810ECB6FD169070E76
:104DD000CC6FCD6BCE6B030ECF6F0CEC2EF038D0BA
:104DE0000001BDAF0FD0C051BF1132E1C151030A64
:104DF0002FE14F6603D0020EBC6FDFD74F2A4E6AF9
:104E0000506A26D0E90E01011E5D030E1F5920E3F2
:104E1000502A020E506414D04F6605D04F2A4E6AB5
:104E20001E6B1F6BEDD74FC0BBF0030E0001BC6FB4
:104E30004E6ABB5184EC2FF0506A18EC2FF008D06A
:104E40004E6A06D04E50A9E0010ACAE0030AF8E112
:104E50000001BD6B1200856B83AF0AD0831F821FD8
:104E6000811F806D000E812382238323010E856FB5
:104E70007FAF0AD07F1F7E1F7D1F7C6D000E7D23BC
:104E80007E237F23010E851B866B876B886B896B66
:104E9000835180118111821129E0010E846F06D0A7
:104EA000D8908037813782378337842B83AFF8D708
:104EB000D890863787378837893780517C5D815114
:104EC0007D5982517E5983517F5909E380517C5F1E
:104ED00081517D5B82517E5B83517F5B8681D8905F
:104EE0008333823381338033842FE2D7855108E0C6
:104EF000891F881F871F866D000E872388238923BB
:104F000086C07CF087C07DF088C07EF089C07FF0CD
:104F1000120062C067F0686B696B6A6B69C06AF007
:104F200068C069F067C068F0676B60516B6F615172
:104F30006C6F6D6B6E6B6CC06EF06BC06DF06C6BFC
:104F40006B6B64C06FF0706B716B726B1A0ED890E4
:104F50006F37703771377237E82EF9D76B516F1191
:104F6000736F6C517011746F6D517111756F6E515B
:104F70007211766F67517311776F68517411786F82
:104F800069517511796F6A5176117A6F6351771192
:104F90007B6F78517C6F79517D6F7A517E6F7BC0CA
:104FA0003CF07CC03DF07DC03EF07EC03FF065C06F
:104FB00040F066C041F0A4EC2CF0000903E14B2A5C
:104FC000000E01D0010E12007E6719D07CC018F0CF
:104FD0007DC019F0A3EC2DF01BC02FF01AC02EF0ED
:104FE00019C02DF018C02CF0C0EC2DF02FC082F0AD
:104FF0002EC081F02DC080F02CC07FF02AD07E51D1
:10500000020A19E17CC018F07DC019F0A3EC2DF064
:105010001BC079F01AC078F019C077F018C076F08C
:1050200009EC2BF079C082F078C081F077C080F075
:1050300076C07FF00ED07CC018F07DC019F0A3ECD4
:105040002DF01BC082F01AC081F019C080F018C08A
:105050007FF07FC076F080C077F081C078F082C0AA
:1050600079F032EC29F076C083F077C084F0845177
:10507000D36F83C0D4F012002E342F34406E4066BC
:1050800001D005D032343334416E416605D02C6AEC
:105090002D6A2E6A2F6A43D04150890F405E2FC07F
:1050A00041F03350411A800E41162E8E2F6A328EF7
:1050B000336A200E3F6ED8903B363C363D363E3646
:1050C00030502C5C31502D5832502E5833502F58C0
:1050D00009E330502C5E31502D5A32502E5A335045
:1050E0002F5A3B80D8902C362D362E362F363F2E19
:1050F000E2D73BC00EF03CC00FF03DC010F03EC008
:1051000011F040C012F041C013F06CEC26F011C059
:105110002FF010C02EF00FC02DF00EC02CF012009A
:1051200020EE81F0DE50DE10DE10DE1014E084513F
:105130007F0B436ED8904334446E456A45364450E5
:105140008527455086238335E836010B8527000ED9
:10515000862386AF05D0816B826B836B846B31D0E5
:105160008651800A7F0F000ED8B4855D0EE384AFB0
:1051700006D0816982697F0E836FFF0E04D081693A
:1051800082697F0E836F846F1CD086358631446EB2
:105190008531436E8419800B4318846F85C043F0BA
:1051A000010E431643324332835143187F0B431899
:1051B000836F81C081F082C082F083C083F084C09D
:1051C00084F012001D6A1E6A206A020E1F6E1F50B4
:1051D0000208186E18501A0FD96EDA6A1DC00EF048
:1051E0001EC00FF0116A030E106E86EC2DF01F50DA
:1051F0000E2620500F22AA0E0E24166E000E0F202F
:10520000176EADEC2FF0DF6E1F06D8A020062050E1
:10521000800A800F010ED8B41F5CD9E21DC018F0BF
:105220001EC019F0D89018361936D890183619368D
:105230000101220E1824D96E010E1920DA6E1AC04F
:10524000DEFF1BC0DEFF1CC0DEFF1DC0DEFF1D4AEF
:105250001E2A1E50800A800F060ED8B41D5CD8B0DE
:105260001200B2D70001783579357B6F7B6705D0A6
:10527000766B776B786B796B43D076C042F077C0F2
:1052800043F078C044F079C045F0200E05D0D890A6
:105290004532443243324232E82EF9D742507A6FD7
:1052A000788F796B960E7B5F7BAF0CD07B51800A39
:1052B000970FDEE3D89079337833773376337B3FBB
:1052C000F9D70CD01F0E7B6507D0D2D7D890763790
:1052D0007737783779377B077B67F8D77A5108E0DB
:1052E000791F781F771F766D000E77237823792337
:1052F00076C076F077C077F078C078F079C079F032
:105300001200800E78EC2FF0090E706EFC0E716E9C
:10531000010E726E200E736E778E779C606A0F019D
:10532000506B0E01206B306B406B506B606B706B81
:10533000E00E0D01F86F0F01006B080E016F026B9C
:10534000036B046BE80E056F1A0E066F076B030EF6
:105350000D01D46FD56BE06B110EE16FE26FE36B63
:10536000E46BE56BE66BE76B540EF06F050EF16FC7
:10537000F26BF26B0F0E0F01186FE00E196F1A6BC4
:105380001B6B19870F0E1C6FE00E1D6F1E691F6BC4
:105390001D87000E78EF2FF020EE0EF0DE50DE10AD
:1053A000DE10DE100CE112C0D9FF13C0DAFF000ED0
:1053B000DE6ADD6A0E6A0F6A106A116A2FD0115018
:1053C0007F0B146ED8901434156E166A163612C000
:1053D000D9FF13C0DAFF15C0DEFF16C0DDFF1034A1
:1053E000E836010B12C0D9FF13C0DAFFDE12000E3F
:1053F000DD1212C0D9FF13C0DAFF820EDE26FF0EC7
:10540000DD221150800B3F09116E109E0EC00EF070
:105410000FC00FF010C010F011C011F01200E8CF53
:1054200086F0030ECC6F840ECB6FCE6B0A0ECD6F61
:10543000060ECF6F430E8625166E176A000E1722D2
:10544000ADEC2FF00001856F030E8517D8908537DE
:10545000D8908537D890853586118009D16F820E16
:10546000D26F8651020D000EF324D96E010EF42086
:10547000DA6EDECF7CF0DDCF7DF0430E8625166E32
:10548000176A000E1722ADEC2FF0030B00017E6FA0
:10549000E4EC27F00CEC2EF00009000ED8A4010E6D
:1054A0001200896BC42910E0D8908935876F886B0A
:1054B0008837730E8725166E000E8821176EADECA7
:1054C0002FF00001C41928E1C52910E0D8908935D2
:1054D000876F886B8837740E8725166E000E8821BB
:1054E000176EADEC2FF00001C51916E10101166B26
:1054F000176B186B196B0AD0E90E0101165D030ECC
:105500001759000E1859000E195906E20001895169
:105510000FEC2AF00009F0E00001892B050E8965E7
:10552000C1D7050CE8CF2DF027C020F028C021F00E
:105530002E0E23EC2EF0000902E1000E2ED0255095
:10554000D96EDA6A2EC0DFFF2450D96EDA6A2FC016
:10555000DFFF3050296E010E31142A6E2D50D96EA6
:10556000DA6A29C0DEFF2AC0DDFF2650D96EDA6A6A
:105570002EC029F02FC02AF030C02BF031C02CF003
:105580001B0E05D0D8902C322B322A322932E82E2D
:10559000F9D72950070BDF6E010E1200E8CF11F08A
:1055A00024D00F0E136E600E1ED00F010F0E136E5F
:1055B000500E19D00E010E0E136E200E14D00E01D7
:1055C0000E0E136E300E0FD00E010E0E136E400E27
:1055D0000AD00E010E0EEBD70E010E0EE3D70E0110
:1055E0000E0E136E700E126E0FD01150DAE0010A1B
:1055F000DCE0030ADFE0010AE2E0070AE5E0010A75
:10560000E8E0030AE9E0EBD712C00EF013C00FF098
:105610001200216A226A7A0E236E460E246E000161
:10562000646B656B100E666F410E676F76C060F03D
:1056300077C061F078C062F079C063F0A1EC25F02A
:1056400063C020F062C01FF061C01EF060C01DF09A
:105650001EEC22F020C02FF01FC02EF01EC02DF037
:105660001DC02CF0306A316AA00E326E400E336ECF
:105670003CEC28F02FC079F02EC078F02DC077F0E8
:105680002CC076F01200E8CF12F0C26AC06AD8903F
:105690000E303C0BC26E0EC010F0103AF00E101619
:1056A000300E10160F500F0B1010C16E12C010F0FC
:1056B000D8901036D8901036380E101612C011F04F
:1056C000113A0F0E1116070E11161250800B111001
:1056D0001010C06E0EAE03D09E9C9D8CF28CC280CA
:1056E0001200512A3B0E51640ED0516A0101212B48
:1056F0000001BC51030A07E1C8EC2FF0446ECDEC69
:105700002FF08CEC2EF03B0E0101216502D0216BB5
:10571000202B170E206501D0206B0001BC51030A1D
:1057200009E14C2A4CC07FF00F0E7F17020E7F5DFF
:10573000D8B04C6A1200010E4D6EDCEC2FF0000167
:10574000BB6FBB6701D0BB69BB2902E1020E4D6E86
:10575000BD6BBE6BBF6BC06BC16BCB6BCC6BCD6BD2
:10576000CE6BCF6B4B6A4A6A4F6ABC6B4E6A506A0B
:10577000466A476A01011E6B1F6B1C6B1D6B516AE9
:10578000216B206B12007EC0D9FF7FC0DAFF0001C1
:10579000DECF76F0DECF77F0DECF78F0DECF79F0B7
:1057A00080C07AF081C07BF082C07CF083C07DF045
:1057B0004AEC2DF07EC0D9FF7FC0DAFF000176C031
:1057C000DEFF77C0DEFF78C0DEFF79C0DDFFD906DF
:1057D000D906120011AE09D00E6C0F1ED8B00F2AD8
:1057E000101ED8B0102A800E115615AE09D0126CBA
:1057F000131ED8B0132A141ED8B0142A800E1556C2
:10580000800E111A151A12500E5C13500F581450B6
:1058100010581550115802E2D89001D0D8801200CB
:10582000E8CF42F04250D96EDA6ADECF60F0DECFC8
:1058300061F0DECF62F0DECF63F076C064F077C057
:1058400065F078C066F079C067F0A1EC25F04250B1
:10585000D96EDA6A000160C0DEFF61C0DEFF62C09F
:10586000DEFF63C0DDFFD906D906120060C0D9FF94
:1058700061C0DAFFDECF2CF0DECF2DF0DECF2EF0D0
:10588000DECF2FF062C030F063C031F064C032F080
:1058900065C033F03CEC28F060C0D9FF61C0DAFF8E
:1058A0002CC0DEFF2DC0DEFF2EC0DEFF2FC0DDFFCF
:1058B000D906D90612002CC0D9FF2DC0DAFFDECFE1
:1058C0001DF0DECF1EF0DECF1FF0DECF20F02EC0A9
:1058D00021F02FC022F030C023F031C024F01EECA4
:1058E00022F02CC0D9FF2DC0DAFF1DC0DEFF1EC084
:1058F000DEFF1FC0DEFF20C0DDFFD906D906120083
:105900008E6B8DAF0AD08D1F8C1F8B1F8A6D000E82
:105910008B238C238D23010E8E6F8AC00EF08BC0DB
:105920000FF08CC010F08DC011F0960E126E8EC06C
:1059300013F06CEC26F011C08DF010C08CF00FC08D
:105940008BF00EC08AF01200426A01011A6B1B6BC9
:1059500015D03CC018F03DC019F03EC01AF03FC051
:105960001BF041C01CF040C01DF0200E1E6EB9ECB3
:1059700020F0000903E0010E426E06D0E80E01019E
:105980001A5D030E1B59E5E30001CB6B4250120078
:105990000101126B136B146B156B0001B96B0E6A6E
:1059A0000C0E0E24D96EDA6A010EDA22DF6A0E506E
:1059B000020D000EF324D96E010EF420DA6EDE6AB9
:1059C000DD6A0E2A050E0E64EBD70001B66B496A3C
:1059D000B86BB76B120001EE9EF013EEC0F0EE6AEA
:1059E000E550E150FCE1E250FAE101EE00F06A0E10
:1059F000EE6AE806FDE100EEB6F0230EEE6AE80678
:105A0000FDE100EE46F00D0EEE6AE806FDE1000E47
:105A1000F86E00010DEF24F0E8CF1DF01D50020DCF
:105A20009F0EF324166E000EF420176EADEC2FF0CF
:105A30001A6E1D50020D9E0EF324166E000EF420F9
:105A4000176EADEC2FF01C6E1A501B6E1BC018F0B9
:105A50001CC019F01200000EF9EC2EF0550A07E1F7
:105A6000010EF9EC2EF0AA0A02E1010E12D0020E8C
:105A70004D6EEAEC2FF0FF0E84EC2FF0550E126EF7
:105A8000000EB2EC2EF0AA0E126E010EB2EC2EF049
:105A9000000E12000001800E7D1B76C01DF077C045
:105AA0001EF078C01FF079C020F07AC021F07BC0D2
:105AB00022F07CC023F07DC024F01EEC22F020C038
:105AC00079F01FC078F01EC077F01DC076F012008C
:105AD000C8EC2CF0070E926E1B0E936E010E946EA6
:105AE000826A920E27EC2FF0FB0E0F6E1D0E0E6ECB
:105AF000B6EC2FF0840E0E6E0F0E0F6EEF0E43EC11
:105B00002BF081EC29F0F28EECEF2FF00E5010020A
:105B1000F3CF14F0F4CF15F00E501102F3CFF4FFD1
:105B2000F36AF3501426F45015220F501002F3CFED
:105B3000F4FFF36AF3501426F450152214C00EF04B
:105B400015C00FF012001E6A19AE05D0186C191E90
:105B5000D8B0192A1E2A18C00EF019C00FF0106A0A
:105B6000116A960E126E1EC013F06CEC26F011C076
:105B70001BF010C01AF00FC019F00EC018F0120080
:105B80002CC01DF02DC01EF02EC01FF02FC020F025
:105B9000216A680E226ED50E236E460E246E1EEC10
:105BA00022F020C02FF01FC02EF01EC02DF01DC00F
:105BB0002CF012000EC0A9FF10C0A8FFA69EA69C44
:105BC000A684000EF2BE010E116EF29E550EA76E57
:105BD000AA0EA76EA682A6B2FED711B002D0F29E80
:105BE00001D0F28EA6941200BD510F0B186E185002
:105BF00012E0BB5120EEC3F0DF620DD0180405E0C7
:105C0000010E186408D0C46706D0BB69FF0E84EC8F
:105C10002FF09BEC2BF01200CDC060F0CEC061F0F5
:105C2000CFC062F0BBC063F0CCC064F0CB510F0BAF
:105C3000656FD10E666F89EC27F0436E436601D025
:105C40004B2A43501200E8CF22F0BDAF02D0000E25
:105C50000FD021C015F020C016F0230E176E225071
:105C6000E8EC1DF00009F3E023AC23AAF0D7010E05
:105C7000120018C00EF019C00FF0106A116A960ECB
:105C8000126E000E136A6CEC26F011C01BF010C0EF
:105C90001AF00FC019F00EC018F01200BDC044F089
:105CA0000F0E441644040EE1BB5120EEC3F0DF6238
:105CB00009D0800ECB6FCC6BCD6BCE6B030ECF6F4C
:105CC0000CEC2EF01200BDBF12D0C10E246EC20E1D
:105CD000256EBE0E266EBD0E276EC30E286EBF0E3D
:105CE00092EC2AF0326E325002E00001BD8F1200B9
:105CF000E8CF0FF0080E106E116AD8900F341134EF
:105D0000116ED8900F360E50115C02E30E50115EEA
:105D1000102EF3D711501200E8CF45F0830E00018A
:105D2000CB6F070ECC6FCE6B140ECD6F090ECF6FFD
:105D3000D16B45C0D2F044C0D3F00CEF2EF0E8CFC9
:105D400013F00F0E136401D00CD0E5EC2FF0120EFF
:105D500013240E6E0F6A000E0F2212C010F0DAEC40
:105D60002DF01200E8CF13F0010E136401D00CD017
:105D7000E5EC2FF0030E13240E6E0F6A000E0F22B7
:105D800012C010F0DAEC2DF0120020EE0EF0DE5012
:105D9000DE10DE10DE1002E0800E111A0EC00EF0D2
:105DA0000FC00FF010C010F011C011F01200E8CFBA
:105DB00026F07F0E266406D025C019F0265099ECF7
:105DC00024F005D025C021F02650B7EC05F01200D4
:105DD000E8CF12F012040CE1E5EC2FF00F6A0E6A26
:105DE000FF0E1068DAEC2DF0800E78EC2FF0FF003B
:105DF0001200E8CF18F0010E186402D0000E08D08F
:105E0000030E1824166E176A000E1722ADEC2FF041
:105E10001200BD510F0B020A0AE1BB5120EEC3F084
:105E2000DF6205D0C4C0BBF0BB5184EC2FF0120080
:105E3000810E0001CB6FCC6BCD6BCE6B020ECF6FA2
:105E4000BBC0D1F00CEC2EF0010E4D6E010CE8CF72
:105E50000EF00E507F0BD56ED76AD66AF2940EAE56
:105E600002D0F28A01D0F29AD58E1200E8CF13F058
:105E7000E5EC2FF00A0E13240E6E0F6A000E0F22AF
:105E800012C010F0DAEF2DF0E8CF13F0E5EC2FF0B0
:105E9000050E13240E6E0F6A000E0F2212C010F0B2
:105EA000DAEF2DF0E8CF2AF07F0E2A6404D02A50D2
:105EB000E1EC1FF003D02A5006EC11F01200E8CFFD
:105EC0000EF00F6A0E500F24D96EDA6ADF6A0F2ABD
:105ED000070E0F64F7D7070CE8CF0FF00F50000F35
:105EE0000E6E0EC0F6FF0B0EF76E0800F550120096
:105EF000E8CF0EF01F0E6F160E506F126F50E00BB2
:105F00000E18D8B41200FAD7E8CF12F0E5EC2FF053
:105F10000F6A010E0E6E12C010F0DAEF2DF0E8CF0E
:105F200018F00A0E1824166E176A000E1722ADEF2D
:105F30002FF0E8CF18F0050E1824166E176A000E21
:105F40001722ADEF2FF0E8CF18F0120E1824166EBE
:105F5000176A000E1722ADEF2FF016C0A9FFA69CFE
:105F6000A69EA68000F000F0A85012000EC010F00F
:105F70000FC011F011C0D7FF10C0D6FF120001C032
:105F800003F002C004F004C0D7FF03C0D6FF120024
:105F9000176A420E166EADEF2FF0176A410E166E9D
:105FA000ADEF2FF00E6A0F6A106A116A12000E6AC6
:105FB0000F6A106A116A1200176A010E166EADEFB1
:105FC0002FF0DCEC14F0C8EF2CF0A6A21200FDD7E5
:105FD0004D6A1200DCEF14F0C2821200C28212007D
:0E5FE000010C080C010C050C020C010C120047
:020000040020DA
:08000000FFFFFFFFFFFFFFFF00
:020000040030CA
:0E000000FF061D0FFF8295FF0F800FE00F40DF
:00000001FF
